:020000040804EE
:1000000000000824ED6E0508396F050821940408E6
:10001000279404082D940408339404080000000079
:100020000000000000000000000000006123040840
:10003000396F050800000000F923040809240408AA
:10004000396F0508396F0508396F0508396F0508DC
:10005000396F0508396F0508396F0508396F0508CC
:10006000396F0508396F0508396F0508396F0508BC
:10007000396F0508396F0508396F0508396F0508AC
:10008000396F0508396F0508396F0508057E0508C1
:10009000157E0508117E0508217E0508396F0508C3
:1000A000396F0508396F0508396F0508396F05087C
:1000B000396F0508396F0508396F0508396F05086C
:1000C000396F0508396F0508396F0508396F05085C
:1000D000396F0508396F0508396F0508396F05084C
:1000E000396F0508396F050800000000396F0508F1
:1000F000396F0508396F0508396F0508396F05082C
:10010000396F0508F16B0508396F0508396F050867
:10011000396F0508396F0508396F0508396F05080B
:10012000396F0508396F0508396F0508396F0508FB
:10013000396F050899540408396F0508396F0508A7
:10014000396F0508396F0508000000000000000045
:10015000396F0508396F0508396F0508396F0508CB
:10016000396F0508396F0508396F0508396F0508BB
:10017000396F0508396F0508396F05080000000060
:10018000396F0508396F0508396F0508396F05089B
:10019000396F0508396F0508396F0508396F05088B
:1001A000396F0508396F0508396F0508396F05087B
:1001B000396F0508396F0508396F0508396F05086B
:1001C000396F0508396F0508396F0508396F05085B
:1001D000396F0508396F0508396F0508396F05084B
:1001E000396F0508396F0508396F0508396F05083B
:1001F000396F0508396F0508396F0508396F05082B
:10020000396F0508396F0508396F0508396F05081A
:10021000396F0508396F0508396F0508396F05080A
:10022000396F0508396F0508396F0508396F0508FA
:10023000396F0508E96E0508396F0508396F05083B
:10024000396F0508396F0508396F0508396F0508DA
:10025000396F0508396F0508396F0508396F0508CA
:10026000396F0508396F0508396F0508396F0508BA
:10027000396F0508396F0508396F0508396F0508AA
:10028000396F0508396F0508396F0508000000004F
:10029000396F0508396F050810B5054C237833B957
:1002A000044B13B10448AFF300800123237010BD49
:1002B000801800240000000018E90D0808B5034B61
:1002C0001BB103490348AFF3008008BD00000000E4
:1002D0008418002418E90D08154B002B08BF134B98
:1002E0009D46A3F5803A00218B460F461348144AD9
:1002F000121A1DF07DFF0F4B002B00D098470E4BBC
:10030000002B00D098470020002104000D000D486C
:10031000002802D00C4809F0FFFF1DF02DF9200045
:10032000290004F0E7F90AF015FA00BF0000080000
:100330000000082400000000514604088018002432
:1003400030F7002419A304080000000070470000E3
:1003500038B5074B0546044645F8043B05F02CFF2D
:10036000284618F065FE204605F030FF204638BDCF
:10037000784C070838B5074B0546044645F8BC3BA2
:100380000BF0D4FF28460AF0D1FC201DFFF7E0FF58
:10039000204638BD805E070810B50446FFF7D8FF39
:1003A000B02120460AF038FA204610BD10B50446A8
:1003B000FFF7E0FF4FF4027120460AF02DFA2046C5
:1003C00010BD10B5044628210AF026FA204610BDBB
:1003D00070470000F0B5244B87B001276622234DFB
:1003E0003B21234C234E2846CDE903735A23CDE904
:1003F00001323D233C22009357230BF013FF22468A
:100400001D49284609F086FF3A4629461B4F3046CB
:100410000CF0AEFA30461A4E2246394609F07AFF01
:1004200029460222174D30460CF0A2FA22463946E0
:10043000304609F06FFF144E0022144928460FF091
:1004400049FC2846124D2246314609F063FF00223E
:10045000104928460FF03EFC22463146284607B098
:10046000BDE8F04009F056BF005A62022819002486
:1004700000000024301B0024750304084D03040809
:10048000A0180024581B0024B1FA04084C4906089F
:10049000C8180024FD660708F0B55A4CA5B04FF403
:1004A0006141584800F012FA204600F0CDF90028CA
:1004B000FAD00A240121182001F05AFE0021182048
:1004C00001F0D6FE192001F013FE0121182001F0E1
:1004D000CFFE232001F00CFE013CEFD100234FF4AE
:1004E00080160027002201214748CDE90023CDE9ED
:1004F00002670B220CF0FCF94FF46002002302218A
:100500004148CDE90223CDE900670B220CF0F0F958
:100510003E493F480FF002F880B13E49394801F0AA
:100520005BFD3D49374801F057FD3C49354801F036
:1005300053FD2246354936480FF0DCFD384939482D
:100540000EF0ECFF40B138492E4801F045FD002285
:10055000334934480FF0CEFD344935481CF002FAD7
:10056000044603460122334933481CF0F5FF204678
:100570001BF0D6FF2F4A00232F492348214ECDE9F7
:1005800000234FF4780200230BF060F827492B4832
:100590001CF0E8F92A490446034601220968294863
:1005A0001CF0DAFF20461BF0BBFF274923481CF054
:1005B000D9F9802203460121054604A81CF0B4FAAB
:1005C00004A9024604460F4800F022FA802C0CD100
:1005D00022462B46012104A81CF0A6FA04A90446D1
:1005E0000246304600F014FAF0E728461BF098FF68
:1005F0001649044801F0F0FC1549024801F0ECFCF2
:1006000025B0F0BD8C1F002428190024301B0024C5
:10061000581B00244340070879400708E9400708B1
:10062000A0180024C81800242F41070862410708B9
:1006300065410708EA6C0600386907087741070832
:100640000400002451490608884107088B41070827
:10065000AF41070830B5A1F11004002500F00F02EA
:10066000CD7302390009D3B2092ACCBF37333033F6
:100670000B748C42F2D130BDC2207047074B10B5CD
:1006800004460360806A08B108F092FB236913B145
:100690009B68201D9847204610BD00BF304C0708BE
:1006A00010B50446FFF7EAFFD02120460AF0B4F85F
:1006B000204610BD00B5B9B01622172104A805F0D8
:1006C000B3FB4FF4A17338AA102122F8D43D0023C4
:1006D0000DEB01000093022305F0FCFA04A8FFF7DC
:1006E000CDFF39B05DF804FB04A8FFF7C7FF19F090
:1006F0005DFD000008B5094A0121094BA6201A60DA
:1007000001F07CFD0121A62001F0FCFDFFF7D2FFE6
:10071000044B43F2D2021A6008BD00BF00400058EB
:10072000B41B00240040005210B5044610F004F839
:100730002146FFF78FFF10F005F804F11001FFF7D5
:1007400089FF10F005F804F12001FFF783FF302046
:1007500010BD000008B54DF659720021074814F08D
:10076000EBFFBFF34F8F0649064BCA6802F4E06205
:100770001343CB60BFF34F8F00BFFDE7B41B0024D2
:1007800000ED00E00400FA0570470B6803604B6859
:1007900043608B6883607047C3680BB19B681847E0
:1007A000704700207047704770B590F838310546A3
:1007B0001446F3B90368DB69984704F4706304F0E6
:1007C0000F02B3F5407F04F0F0030CBF07210821AE
:1007D000302B0CBF02230123012A08D0901E424275
:1007E0004241A869BDE87040006805F0BEBD022224
:1007F000F7E770BD38B590F838510446A5B983695C
:100800005BB1186848B10368DB689847A3690421A5
:100810001D60A0690AF000F8A5610023C4F8283122
:10082000C4F82C31C4F8303138BD10B4D0E90134EB
:1008300001686210E4075DF8044B01EB020044BF5D
:100840008A58D3581847000008B590F838313BB1A2
:10085000012001F04DFC0648BDE8084001F046BB10
:1008600082691AB11368003318BF0123184608BD06
:100870005C26002413B590F83831044623BBA369E5
:10088000186805F089FDF8B1A36901220DF107018F
:10089000186803685B699847D4F83031B3F5807FF6
:1008A000EDD0D4F828319DF80720234483F8282080
:1008B000D4F828310133DBB2C4F82831D4F8303110
:1008C0000133C4F83031DAE702B010BD7FB590F8DB
:1008D000383104460E46002B36D1856925B90420EF
:1008E00009F074FFA0610560A369186828BB802027
:1008F00009F06CFF3346B4F922200546B4F9201004
:1009000005F0D4FFA3691D60B4F92420531C06D060
:10091000A0690321B4F92630006805F0D5FFA3696A
:10092000186888B10E4B00226946009403930D4B62
:100930000292019305F052FD03E0314605F002FDFD
:10094000E2E76846FFF728FF04B070BD8021284623
:1009500009F062FF19F02AFC6846FFF71DFFF9E76E
:10096000D04107087508040870B504460D4601F02B
:10097000BDFA30B12368294620461B6CBDE87040A3
:10098000184770BDA0F59860EEE7000013B590F829
:10099000383104468DF807102BB1C9B20B48FFF768
:1009A000E3FF02B010BDA369186805F006FD00283A
:1009B000F9D0A36901220DF10701186803681B69CA
:1009C0009847013018BF0120EBE700BF5C260024E8
:1009D0002DE9F04107468846164601F087FA80B1B6
:1009E0000024A6420ED9351B08EB04013846B5F5A4
:1009F000007F28BF4FF400752A462C4400F018FFF2
:100A0000EFE704462046BDE8F081A0F59860DFE7F7
:100A100070B590F8383105460E4614462BB10F4894
:100A2000FFF7D6FF0446204670BDAB69186805F095
:100A3000C4FC0028F9D0AB6901211868C36F7C3071
:100A40001B6B9847AB6922463146186803681B69DF
:100A50009847013008BF0024E5E700BF5C2600246A
:100A600030B50446C3B001F099F90546D4F8D8353D
:100A7000C3F58073984203DDD4F8D855C5F5807569
:100A80002A4601AB02A9204600F0C9FF019902AB3A
:100A900000226D1A1D44D4F8D835B3F5807F19D0E3
:100AA0008A4217D0D4F8D835B3F5807F10D0D4F867
:100AB000D035A85C234483F8D004D4F8D035013372
:100AC000DBB2C4F8D035D4F8D8350133C4F8D83502
:100AD0000132E0E743B030BD38B5044600F026FBF4
:100AE0002046FFF7BDFFD4F8D855204600F026FB7E
:100AF000284638BDA0F59860EEE7000008B590F8EC
:100B000038311BB10348FFF7E7FF08BDD0F83001CB
:100B1000FBE700BF5C26002438B5044600F006FB66
:100B20002046FFF79DFFD4F8D8354BB1D4F8D43523
:100B3000234493F8D054204600F000FB284638BDEB
:100B40004FF0FF35F7E7A0F59860E5E708B590F8B6
:100B500038311BB10748FFF7DFFF08BDD0F830314F
:100B60002BB1D0F82C31184490F82800F5E74FF05D
:100B7000FF30F2E75C26002438B5044600F0D6FAD0
:100B80002046FFF76DFFD4F8D835A3B1D4F8D4359B
:100B9000234493F8D054D4F8D4350133DBB2C4F8ED
:100BA000D435D4F8D835013BC4F8D835204600F008
:100BB000C5FA284638BD4FF0FF35F7E7A0F5986035
:100BC000DAE7000008B590F838311BB10D48FFF79F
:100BD000D3FF08BDD0F830318BB1D0F82C31D0F82C
:100BE0002C210344013293F82830D2B2C0F82C21D2
:100BF000D0F83021013AC0F830211846E9E74FF02B
:100C0000FF30E6E75C26002408B54FF4807200212F
:100C10001DF0EEFA0022C0F80021C0F80421C0F84F
:100C2000082108BD2DE9F843374C00254FF47A73AD
:100C3000364E29464FF4807204F12800E5612660A3
:100C40004FF47A794FF02008C4E901532023C4E916
:100C500005351DF0CDFA0123C4F82851C4F82C51F4
:100C6000C4F83051002584F83831FFF705FD0E280F
:100C7000274C8ABF274B4FF0FF37B3F9E070FFF7DF
:100C8000FBFC0D2804F128008ABF224B4FF0FF33F4
:100C9000B3F9D03027844FF6FF7763842660E5618F
:100CA000A784E784C4E90159C4E90585FFF7ACFFCF
:100CB00084F838510F23184C2384562304F128005C
:100CC000266063845823E561A3845923C4E901594C
:100CD000E384C4E90585FFF797FF84F8385198232A
:100CE0000E4C2384992304F128002660E561638477
:100CF000A784E784C4E90159C4E90585FFF784FFA7
:100D000084F83851BDE8F8838C1F0024E4410708BB
:100D1000D81B002408000024141D0024501E0024A9
:100D2000002070477047704710B5D0F88C452CB143
:100D3000236820465B689847A468F8E710BD38B57B
:100D40000D46D0F88C4534B12368204629469B686F
:100D50009847A468F7E738BD00487047A4420708E1
:100D6000054B10B50446036007F0ABF8204607F0CA
:100D7000C1F8204610BD00BF2442070810B5044644
:100D8000FFF7EEFF4FF4B261204609F045FD204623
:100D900010BDF7B5002305460E46D0F88C45A4B12A
:100DA000236831460DF103022046DF6801ABB847E6
:100DB0009DF803100346042905D0019A284606F041
:100DC000DDFA03B0F0BDA468E9E7019A9DF80310CD
:100DD000F4E770B505460E4622B10021BDE870402B
:100DE00006F0C2B8D0F88C455CB1236800223146C9
:100DF00020461B69984710B101212846EEE7A468F8
:100E0000F2E72146F9E770B50E460546D0F88C4565
:100E100000213CB12368314620465B699847A468AD
:100E20000146F6E72846BDE8704006F09DB9F8B5E2
:100E300005460E461746D0F88C453CB1236820463F
:100E40003A4631469B699847A468F6E7284601214F
:100E5000BDE8F84006F0E6B970B5002186B004465A
:100E600006F088FC00234FF48975A188EF26ADF8C1
:100E700006302389ADF8045002258DF810301B0A86
:100E8000E2888DF8113040F201238DF80750ADF85B
:100E9000123040F203138DF809500125ADF81430DB
:100EA00004F10A038DF8086005AE8DF80A501C465F
:100EB0008DF80C1001AD090A8DF80E20120A8DF87C
:100EC0000B008DF80D108DF80F202A46083303CA49
:100ED000B24243F8080C43F8041C1546F5D11288B9
:100EE00020461A8006B070BDF8B5002406460D46AF
:100EF000274630461DF0C4FDA04207D9335D05F8F2
:100F0000143005EB440301345F70F2E7400000F059
:100F1000FE00F8BD38B50446D0F88C5535B12B68C5
:100F200028461B6A984710B9AD68F7E7284640F293
:100F3000023304F24A51A4F84835FFF7D5FF94F87C
:100F40004835184484F8480504F5A96038BD000008
:100F500040F2023300F20A5110B50446A0F80835F9
:100F60000548FFF7C1FF94F80835184484F80805D0
:100F700004F5A16010BD00BF1042070840F2023323
:100F800010B50446A0F8C83400F2CA40FFF7CCFB05
:100F900094F8C834184484F8C80404F5996010BD66
:100FA0002DE9FF4100231D4A044600F54E788DF8D7
:100FB0000A30092590F888350192FA228DF8083018
:100FC00001238DF80C208DF80930C0238DF80B30EB
:100FD00001AB03CBC4F83803C8F8041088F8082024
:100FE000D4F88C658EB13368002130461B68984771
:100FF000478805F54E7300F10901093FE0183A46AC
:101000003D441CF0F7FFB668ECE784F83A534046DD
:101010002D1284F83B5304B0BDE8F0810902FFFFB4
:1010200073B504460D46164616F05EFE4FF4807307
:1010300001462A4620460093334606F063FB024BE6
:101040002046236002B070BD2442070810B5D0F8D6
:101050008C350446A3B9C0F88C1594F88835084639
:101060004A790B7194F88835134484F888350B68F5
:101070005B6A9847238918442081012010BD1346DC
:101080009A68002AFBD19960E7E71FB5044606F08D
:1010900033FB0146684605F0D3FC4021684605F065
:1010A0003FFDD4F88C4534B1236869462046DB699E
:1010B0009847A468F7E7684605F0C9FC04B010BD7E
:1010C000684605F0C4FC19F071F810B50446FFF746
:1010D000DCFF2046BDE8104006F07EBA0F4808B598
:1010E0000378BFF35B8FDB0711D409F02BF970B1E4
:1010F00040F25B2242F241310948FFF791FF074875
:1011000009F042F9074A0849054809F003F904487B
:1011100008BD024809F042FB19F048F8C820002435
:10112000CC20002400000024610D040810B5FFF756
:10113000D5FF0368BDE810405B6F184710B5FFF797
:10114000CDFF0368BDE810409B6F184710B5FFF74F
:10115000C5FF0368BDE81040DB6F184705F030BEDF
:1011600005F0F2BD05F01CBE704770477047436A3A
:1011700093F878007047D0F8A404704701207047B6
:1011800000487047084407082DE9F04794B004462A
:101190000F464B22002101A81DF02AF82679D4F829
:1011A000A434751C94F80E90002B94F80C80EDB2CA
:1011B00094F80DE014BF05200020002F40F093802C
:1011C00040F2092309218DF81D0042F20540ADF8D7
:1011D00004304FF481738DF815100121ADF80830FB
:1011E0008023ADF81E0010208DF80B3032234FF015
:1011F000040A24278DF80C3008234FF0030C4B22EF
:101200008DF80D300B238DF819101D348DF80E302C
:1012100040F202238DF81C10ADF8103002238DF837
:10122000210005208DF822108DF825108DF827104B
:1012300006218DF806208DF80F608DF812308DF89C
:1012400017608DF81A308DF81B308DF823008DF85B
:1012500026C08DF82A308DF82B108DF82C008DF8D3
:1012600016A08DF824708DF828A08DF829708DF8BF
:101270002D708DF82E1007218DF82F6041F2020697
:101280008DF831108DF8411040F207518DF8305033
:10129000ADF8366040F209468DF83A5040F6022526
:1012A0008DF832008DF842002046ADF848100DEB65
:1012B0000A018DF833908DF834C0ADF83860ADF880
:1012C0003C508DF843808DF844308DF846308DF8D1
:1012D0004AE08DF84B308DF84D301CF08BFE2046E7
:1012E00014B0BDE8F0870020FAE700000A4B10B503
:1012F00004460360FFF7F2FE06F0E3FD04F52470F8
:1013000005F0A8FC04F17C0005F0A4FC04F17000D9
:1013100005F0A0FC204610BDC843070810B50446E0
:10132000FFF7E4FF4FF49561204609F075FA204677
:1013300010BDFFF70BBF0000034B10B50446036060
:1013400005F006FB204610BDEC42070810B5044628
:10135000FFF7F2FF2821204609F05EFA204610BD73
:10136000034B10B50446036005F0F2FA204610BDA9
:10137000BC42070810B50446FFF7F2FF34212046AF
:1013800009F04AFA204610BD034B10B5044603602D
:1013900005F0DEFA204610BDD442070810B5044619
:1013A000FFF7F2FF3821204609F036FA204610BD3B
:1013B00038B51E4B0D4604464FF400721968C0F84C
:1013C0000F1099889B79A0F81310022143752846C5
:1013D00005F09CFB4FF4007220730221284605F0B3
:1013E0009AFB4FF4007260730321284605F08EFBD0
:1013F000A073284605F02CFB20B9AF220C490D48FC
:1014000008F0EEF904F185020023C4F8882204F202
:10141000992284F8783084F88430C4F88C3284F8C7
:101420009832C4F89C24C4F8A03438BD0843070897
:1014300044430708AF4307082DE9F34104460E462D
:101440001546FFF783FEF28823799A4237D1002DA3
:1014500035D17778012F2ED1F378202B27D13289FF
:10146000072A24D104F10F0804F116054046294645
:101470001CF08EFDD0B1D4F81630C4F80F30638B59
:10148000207CE17BA4F8133001EB0021E57C607C3B
:10149000237F01EB00410095A07C2568637501EB7B
:1014A0000061237D2046627D6D6BA8473D46F37841
:1014B000212B08BF0125284602B0BDE8F081002598
:1014C000F9E710B50446FFF741FEFFF707FE217B61
:1014D00006F094FB04F1850304F17C00C4F8883223
:1014E0000023C4F88C3284F8843005F068FB94F84B
:1014F00084302BB923682046DB6BBDE810401847C9
:1015000010BD000070B50446FFF720FED4F8A054CB
:101510002DB140F2DD120F490F4808F061F904F2D5
:101520009923C4F89C34FFF7D9FD617B06F0C4FA17
:1015300084F89852C4F8A00404F5247005F03FFB29
:1015400094F898322BB9236820469B6BBDE8704015
:10155000184770BD444307081443070810B4D0E986
:10156000013401686210E4075DF8044B01EB0200EE
:1015700044BF8A58D358184770B586B00546FFF760
:10158000E5FD02ACFFF7AAFD0023A97B00944FF410
:1015900000720593032306F039F82046214EFFF729
:1015A000FBF8FFF79BFD204A297B022303920022D0
:1015B000009404924FF400720596029506F026F806
:1015C0002046FFF7E9F8FFF789FD184B697B4FF4D8
:1015D000007203930023009404930223059602955E
:1015E00006F014F80CE02046FFF7D6F818F0DEFD00
:1015F0002046FFF7D1F8F9E72046FFF7CDF8F5E7E9
:101600002046FFF7C9F8FFF769FD4FF40073D5F8DE
:101610009C24697B06F0F2F9012085F8980206B057
:1016200070BD00BFFC420708C31404080515040878
:1016300002232DE9F04143710023044605468360EF
:101640009046144B04F17C0645F8703B284605F0A3
:10165000A9FA304605F0A6FA04F52477384605F0D5
:10166000A1FAC4F8A484FFF739FD2146FFF7EEFC88
:101670000CE0384605F0EEFA304605F0EBFA284665
:1016800005F0E8FA18F092FDF6E7F8E72046BDE825
:10169000F08100BFC843070870B504460D46FFF748
:1016A00055FD84F87850002D3ED194F8843033B144
:1016B000FFF714FD217B06F079F884F8845004F1DB
:1016C000850304F17C0600253046C4F88832C4F84E
:1016D0008C5205F074FA304605F06AFA28B94FF4D6
:1016E000A2721449144808F07BF894F8983233B188
:1016F000FFF7F4FC217B06F059F884F8985204F2C5
:10170000992304F52475C4F89C3400232846C4F8B2
:10171000A03405F054FA284605F04AFA20B94FF4EF
:10172000A77204490548DEE704F17000BDE8704087
:1017300005F045BA44430708224307083343070826
:1017400010B50446FFF702FD00212046BDE8104019
:10175000FFF7A2BF38B50D460446FFF7F7FC042D8E
:1017600005D020460021BDE83840FFF795BF38BDC1
:10177000F8B5164604460D461F46FFF7E7FC04235E
:10178000EA88337023799A4225D16978012922D1D8
:10179000EA78212A08D0222A0BD0202A4FF0000014
:1017A0001BD13070163401E00F34317007203C60DB
:1017B000F8BDAB88204613F0010308BF1946FFF7B8
:1017C0006BFFAB8803F00103E366AB8803F0020311
:1017D000A366022333700020EAE703233370E7E7B0
:1017E00010B58AB00446FFF7A1FC684605F0A4F8DE
:1017F0000D4B694604F170000093099405F0F7F968
:101800002046FFF79BFC094B002168461A6805F04B
:10181000DDF86846FFF790FD0AB010BD6846FFF797
:101820008BFD18F0C3FC00BFEC420708104307080B
:1018300070B58EB004460E461546FFF777FC01A83A
:1018400005F07AF8114B01A904F17C000193002303
:101850000C958DF83430CDE90A4605F0C8F92046DC
:10186000FFF76CFC0A4B002101A81A6805F0AEF8DE
:1018700004E001A8FFF774FD18F098FC9DF83440CF
:1018800001A8FFF76DFD20460EB070BDBC420708F1
:101890001043070810B50446FFF758FC94F884304D
:1018A0007BB9D4F88C3263B1FFF718FCD4F88C32D2
:1018B00004F18502217B06F03FF910B1012384F881
:1018C000843010BD2DE9F8431E46044689469046F3
:1018D0009DF82070FFF72AFC0023336094F87830DD
:1018E000E3B194F88430CBB9D4F88C52C5F50075C7
:1018F000454528BF4546B8F1000F05D02A46494660
:10190000D4F888021CF076FBD4F88C322B44C4F84F
:101910008C32356017B12046FFF7BCFF2046BDE88A
:10192000F843FFF70BBCF0B50446406A85B00126CA
:1019300090F878502DB984F830503546284605B0D7
:10194000F0BD04AB0027D4E90A1243F8047D0096E9
:10195000FFF7B8FF0399E36AA26A5B1A0A44E362DD
:10196000A26213B984F83060E8E7606A3D46FFF789
:1019700091FFE3E72DE9F0431C4691B00546894607
:101980009046FFF7D3FB002C4FF0000602A806BFDD
:1019900001AC01270027266004F0CEFF134B02A9FB
:1019A00005F5247002938DF83C708DF83D60CDE90B
:1019B0000B59CDE90D8405F01AF92846FFF7BEFB57
:1019C0000B4B314602A81A6805F000F804E002A8A3
:1019D000FFF7DAFC18F0EAFB9DF83D4002A8FFF79C
:1019E000D3FC204611B0BDE8F08300BFD442070805
:1019F0001043070810B5D0F8A034044673B990F826
:101A000098325BB9FFF76AFB4FF4007304F2992236
:101A1000617B05F0F3FF012384F8983210BD70B5A7
:101A200004461E4600230846336094F87830EBB134
:101A300094F89832D3B9D4F8A054D4F89C149542B1
:101A400028BF15462A461CF0D5FA3560D4F89C34D8
:101A5000D4F8A0242B44551BC4F89C34C4F8A054DB
:101A600025B92046BDE87040FFF7C4BF70BD37B54B
:101A70000446406A90F878502DB984F83550012515
:101A8000284603B030BD02AB002243F8042DD4E950
:101A90000A12FFF7C4FF0199A26A0A44A262226BEC
:101AA00013680B4413600199E36A5B1A94F83410CD
:101AB000E36209B9126802B91BB9012384F8353011
:101AC000DEE7606A0025FFF795FFD9E76FF01500A4
:101AD000704700290CBF6FF01800002070470120EC
:101AE00070476FF0150070476FF0150070471120B8
:101AF000704770477047704703689B6C1847A0F5A4
:101B00009860F9E770477047704770470368184757
:101B100010B50446012000F0EBFA94F8780010BDEF
:101B2000A0F59860F4E7000038B54FF0FF320123CC
:101B3000FF210B4809F078F80A4D00F0C7FA044677
:101B400095F878301BB1012000F0D2FAF8E700F0E8
:101B5000BDFA001BC728F6D9BDE83840FEF7FABD2C
:101B6000942C00245C26002407B502AB012243F824
:101B7000041D1946FFF75CFE18B1019803B05DF82B
:101B800004FB4FF0FF30F9E7A0F59560FFF7ECBFDD
:101B900007B5002302A9012201F8013DFFF7EAFE83
:101BA00020B19DF8070003B05DF804FB4FF0FF3053
:101BB000F9E7A0F59560FFF7EBBF2DE9F843044680
:101BC000884617461E46089DFFF7C0FAD4F8F095E0
:101BD000B9F1000F04D02B46324639464046C8477B
:101BE000C4F8E085C4F8E475C4F8E865C4F8EC55B9
:101BF000BDE8F88370B506460025FFF7A7FA06F2A0
:101C0000F454D6F83436AB4208D92046103454F890
:101C1000043C1BB11B6801359847F2E770BD00001A
:101C2000B0F5966F03D10121014808F0DFBF70477E
:101C3000942C002410B4D0E9013401686210E40748
:101C40005DF8044B01EB020044BF8A58D358184793
:101C5000114B03F1780270B503600446C0F8A82464
:101C600000F2F45603F1D80200F23465E833C0F80C
:101C7000AC24C0F8C034AE4204D0103D2846FEF774
:101C80008BFDF8E704F5956007F020FA2046FFF792
:101C90002DFB204670BD00BF48440708A0F59560A5
:101CA000FFF7D6BFA0F2AC40FFF7D2BF10B5044695
:101CB000FFF7CEFF4FF4C761204608F0ADFD204688
:101CC00010BDA0F2AC40FFF7F1BFA0F59560FFF7A3
:101CD000EDBF0000F7B51E4604460F46154616F048
:101CE00003F8BDF8243001462A4601932046BDF88A
:101CF00020300093334604F59566FFF799FC0021E8
:101D0000304607F0B9F94FF47A73002504F59A606C
:101D1000C4F8C8342946204BC4F8C45403F17802EF
:101D20002360C4F8A82403F1D802E833C4F8AC2433
:101D30004FF48072C4F8C0341CF05AFAC4F8D0557D
:101D4000C4F80056C4F8D455C4F81056C4F8D85591
:101D5000C4F82056C4F83056C4F83456C4F8F055C8
:101D6000BFB12046FFF73CFD13E004F2346504F2F6
:101D7000F457BD4204D0103D2846FEF70DFDF8E7AC
:101D8000304607F0A3F92046FFF7B0FA18F00EFA34
:101D9000F9E7204603B0F0BD4844070838B50546CA
:101DA000FFF7C4F995F898325BB9D5F8A044B4F5BB
:101DB000007F28BF4FF400742846FFF7BFF9204684
:101DC00038BD0024F8E70000F0B587B00446FFF7FF
:101DD000ADF93D4B2046C4F8F035FFF7AFF93B4B6A
:101DE0002046029405933A4B039300230493FFF794
:101DF0009DF9D4F83456032D03D92046FFF79EF9F8
:101E000015E004EB05166B1C06F2F456C4F83436E4
:101E10003046FEF7C1FC059B04EB0515C5F80036FE
:101E2000002BEAD05B6802A930469847E5E702A894
:101E3000FEF7B2FCBC2008F0C9FC264B002100F1E3
:101E40004006054603600161304608F091FF05F148
:101E50005407384608F02AFF1F4B4FF480721821B0
:101E600028460093002309F019F81C4B02A9C4F876
:101E7000DC55284605931A4B02930023CDE9033322
:101E800009F018F810E0384608F050FF304608F026
:101E900098FF281DFEF780FCBC21284608F0BCFCFA
:101EA00018F084F9F2E7F4E702A8FEF775FC204683
:101EB000FEF7D6FD07B0F0BD02A8FEF76DFCEFE718
:101EC00002A8FEF769FCEBE7211C04082044070880
:101ED000610A0408D85D0708384407082C4407083D
:101EE000291B0408A0F59860FFF76EBF90F87800F2
:101EF0007047000037B50F4C0F4D204608F066FEC6
:101F00002A460E49204608F005FA42F21203012241
:101F10000B4CCDE9003200224FF4F8532046114615
:101F2000FFF7D8FE2A460749204603B0BDE83040F7
:101F300008F0F0B9942C002400000024F3AB04084E
:101F40005C260024511C040808B51AF073FA2DE928
:101F5000F84306460D46071D00F10709002417F84F
:101F6000011B0A22284600F06BF880462E212846E5
:101F700000F029F84F4540440444F0D10A22F17999
:101F8000284600F05DF82044BDE8F883024B034A80
:101F90001A6000225A607047A82C00246445070884
:101FA00070B5044608460D461CF06AFD23680246DB
:101FB000294620465B68BDE87040184709B1FFF725
:101FC000EFBF0846704703681B6818470149FFF7D1
:101FD000E7BF00BFDAE30D0838B50546FFF7EEFFAF
:101FE00004462846FFF7F2FF204438BD70B58AB09A
:101FF0000D460023012A98BF0A220AA901F8043DD0
:10200000B5FBF2F402FB14562546F3B2092E94BF39
:1020100030333733DBB201F8013D002CF0D1FFF74C
:10202000CDFF0AB070BD10B42AB90368C9B25DF81B
:10203000044B1B681847D2B25DF8044BFFF7D6BFBC
:10204000FFF7F1BF10B500F055F80E4CFEF752FB4C
:10205000002008F0B3F9036800219B6B9847FFF755
:102060003DF8FFF732F84FF4E1310748FFF7ACFED7
:10207000FEF712FAFEF7ACF9002CFBD0AFF30080AC
:10208000F8E700BF000000005C26002470B505469C
:102090000024074EFEF7F0FAE3B2984206D918463C
:1020A0001B010134F35EAB42F4D170BDFF20FCE7AD
:1020B0000800002410B5044604F0A7FA204610BD1D
:1020C00010B5044604F0A1FA204610BD07B5074933
:1020D000684604F0D7FA4FF47A720023DDE9000174
:1020E00019F052F803B05DF804FB00BFB02C0024D7
:1020F00008F06EBE08B5044804F091FA0348BDE844
:10210000084004F08CBA00BFC82C0024B02C002476
:1021100038B50A4C0A4D204604F0F1FA2046094C25
:102120002A46094908F0F6F8204604F0F3FA2A4650
:1021300020460649BDE8384008F0ECB8C82C002419
:1021400000000024B02C0024C1200408B52004089D
:1021500070B504460D46164600211C221CF048F8B6
:1021600020463246294606F004FB204670BD00009A
:102170002DE9F041204D060180460F46AB19DC6881
:10218000B4B9FEF779FA80454FF01C0034BF35F939
:1021900006804FF0FF3808F019FB044600211C228E
:1021A0001CF026F84146204606F0E0FA3544EC6083
:1021B000012F10D006D3022F12D0204603F02BFDA2
:1021C000022103E0204603F026FD00212046BDE861
:1021D000F04103F02DBD2046BDE8F04103F00EBDF7
:1021E000204603F018FD0121F0E71C21204608F0ED
:1021F00013FB17F0DBFF00BF0800002430B589B0E7
:1022000004460D46FFF742FFC0B2FF2804D029461E
:10221000FFF7AEFF09B030BD012D14D00AD3022D57
:102220001CD00222214601A8FFF792FF01A806F068
:102230002BFAEFE70022214601A8FFF789FF01A84A
:1022400006F022FAE6E71C22002101A81BF0D0FFCD
:102250000022214601A806F08EFADBE70122214682
:1022600001A8FFF775FF01A806F00EFAD2E70000FB
:102270002DE9F34107468846FEF7FEF987422ED244
:102280001D4D3E01AB19DC68CCB9FEF7F5F987426C
:102290004FF01C0034BFAF5F4FF0FF3708F096FAE5
:1022A00004461C2200211BF0A3FFCDF80080002370
:1022B00001223946204606F065FA3544EC600F4BA2
:1022C0000F491A46D3F894008842FBD12368B8F12D
:1022D000000F07D0A1680B604FF44073536102B048
:1022E000BDE8F081E1681B04F5E71C21204608F0F9
:1022F00093FA17F05BFF00BF080000240064025847
:102300000003008030B589B005460C46FFF7BEFEDD
:10231000C0B2FF2804D02146FFF7AAFF09B030BDA4
:102320001C22002101A81BF063FF294601A806F02A
:1023300026FA094B09491A46D3F894008842FBD182
:10234000019B2CB103990B604FF440735361E5E797
:102350001B040499F7E700BF0064025800030080E3
:102360001EF0040F0CBFEFF30880EFF309808169C2
:1023700011F8021C91BB01B590E80F10E047BDE8D1
:1023800000508CE80300244B93E80600914208BFFC
:10239000704741B91EF0100F10D12049086820F095
:1023A000010008600AE02CE9F00F1EF0100F08BFD2
:1023B0002CED108AC1F838C081F822E01A6092F83A
:1023C0002210906B61F0FF0E1EF0100F08BFB0ECF2
:1023D000108AB0E8F00F80F309887047104A13683C
:1023E0009942FAD801B552F821C00FC8E047BDE8BC
:1023F0000050CCF80000704701B501F0C1FBBDE80A
:102400000140EFF3098CBEE701B501F081FBBDE8A7
:102410000140EFF3098CB6E73C0C002434EF00E0F8
:1024200028460708014608B510B1132001F0EEFE5A
:10243000002008BD08B5EFF305832BB9EFF3108337
:1024400013B9EFF3118333B16FF0050000F005FA13
:102450006FF0050008BDDFF808C000DFFAE700BF35
:1024600025240408EFF310832BB9EFF31180003813
:1024700018BF012070470120704710B520B10378C4
:10248000F32B01D1002906DA6FF0030102F032FAD2
:102490006FF0030010BD0C3050E8003F23EA01024A
:1024A00040E8002404B1F7E71846F3E738B50546DD
:1024B000A0B1846802686CB114F0030302D1C16852
:1024C0000F2926D800246FF00801002002F012FA2C
:1024D000204638BDC368002BF4D11546104BD3F805
:1024E000900078B100F084FC0446A0B10123F322EF
:1024F000A3700023656022700A4AC4E90233084BC6
:102500005A66E5E701221021D3F8800000F0FCFBB9
:10251000EAE71546EBE76FF0040102F0EBF9D7E7C5
:10252000280C00240126040870B5054610B1037874
:10253000F32B07D028466FF0030102F0DBF96FF0B0
:10254000030070BD836863B1284601F05FFC002280
:102550006FF0020101F00AFDA8680028F4D101F033
:10256000D9FCAB78002613F001032E700FD0094B75
:102570002946D3F8904024B1204600F053FC304661
:10258000DFE7D3F8800000F0F4FB2046D9E71846D7
:10259000D7E700BF280C0024930710B502F0010410
:1025A00022D400F10C0384B153E8000F00EA0102C9
:1025B0008A4203D0BFF32F8F002005E020EA0102FA
:1025C00043E8002404B1EFE710BD53E8000F0842D0
:1025D00003D1BFF32F8F002005E020EA010243E87A
:1025E000002404B1F1E7EFE7C06801EA00031CB181
:1025F0008B4218BF0020E7E7002B08BF0020E3E76D
:10260000F8B50546846804B9F8BD94F82320284637
:10261000616AA768FFF7C0FF064638B1204601F09F
:10262000FEFB00223146204601F0A0FC3C46EAE7D2
:10263000F8B50D4617461E46044620B10378F32B25
:1026400001D1002907DA20466FF0030102F052F9A8
:102650006FF00300F8BDFFF79FFF0028FAD186B1A5
:102660003146432001F0D2FD40B1074B20465E6960
:10267000314601F0B9FB756286F823706FF00100F6
:10268000E8E76FF00200E5E7280C00242DE9F041AF
:10269000064620B10378F32B01D1002909DA6FF047
:1026A00003056FF00301304602F024F92846BDE827
:1026B000F08100F10C0353E8002F42EA010543E8E2
:1026C000005000B1F7E7B4681CB9204601F022FCC5
:1026D000ECE794F823203046616AD4F80880FFF7CD
:1026E0005BFF074678B194F823309B0756BF656AB5
:1026F000054620EA0505204601F091FB00223946F7
:10270000204601F033FC4446DEE70000024608B5EF
:10271000EFF3058333B100206FF0050102F0EAF812
:10272000002008BDFFF79EFE0028F4D11046DFF818
:1027300008C000DFF5E700BFAD24040838B5024645
:102740000D46EFF305834BB192B96FF003046FF0C0
:102750000301104602F0CEF8204638BDFFF782FE96
:102760000028F1D11046DFF830C000DF0446F3E75F
:102770001378F32BE9D1002DE7DB02F10C0353E8CA
:10278000001F41EA050443E8004000B1F7E71046A6
:1027900001F03EFAE0E700BF8D26040810B50246BE
:1027A0000C46EFF305832BB121461046BDE81040DF
:1027B000FFF763BEFFF756FE0028F5D11046DFF89D
:1027C00008C000DF10BD00BF7B240408F8B5044634
:1027D0000E4617461D46EFF3058343B18CB92046DC
:1027E0006FF0030102F086F86FF00300F8BDFFF709
:1027F00039FE0028F2D120462B46DFF828C000DF42
:10280000F4E72378F32BEAD1002DE8D1002EE6DBA4
:102810003A4631462046FFF7BFFE002808BF6FF05A
:102820000200E3E731260408024608B5EFF305830A
:102830003BB110466FF0050102F05CF86FF0050047
:1028400008BDFFF70FFE0028F3D11046DFF804C0E3
:1028500000DFF5E72925040870477047EFF3108380
:102860002BB9EFF31180003818BF01207047012009
:1028700070470000014BD868704700BF280C002447
:1028800008B5094B1A7A022A08D0032A0AD04FF059
:10289000FF3002F023F84FF0FF3002E00322002067
:1028A0001A7208BD0120FCE7280C002470B5484CC2
:1028B000217A012900F08A8031B14FF0FF3002F017
:1028C0000DF84FF0FF3070BD424D9C2204F108001E
:1028D0001BF08EFCEB68E3652B8AD5E90B61A4F84D
:1028E0005430AB683046236400F0F6F908B1C4F800
:1028F0008060D5E90561304600F0EEF908B9D4F8FA
:1029000080606667D5E90761304600F0E5F908B9EF
:10291000D4F88060A667D5E90961304600F0DCF99B
:1029200008B9D4F88060E6676E6B3EB13168304616
:10293000D6E9022300F03BFAC4F88460AE6B3EB1E6
:1029400031683046D6E9022300F031FAC4F88860D5
:10295000EE6B3EB131683046D6E9022300F027FA2B
:10296000C4F88C602E6C3EB131683046D6E9022343
:1029700000F01DFAC4F890606E6C3EB131683046CC
:10298000D6E9022300F013FAC4F89460AE6C3EB1AD
:1029900031683046D6E9022300F009FAC4F898609D
:1029A000EE6C3EB131683046D6E9022300F0FFF903
:1029B000C4F89C602D6D3DB129682846D5E90223F5
:1029C00000F0F5F9C4F8A0500123237200207AE743
:1029D000280C0024C045070870B5264D2B7A012B22
:1029E00007D06FF006004FF0FF3401F077FF20466C
:1029F00070BD01F011FD10B94FF0FF30F3E71E4A32
:102A0000FF231E4E82F8223092F82230D26863F003
:102A1000FF031B49C2F302227068DB4314BFB3FA01
:102A200083F32023C3F12003934298BF531CFE225B
:102A300002FA03F3104ADBB2D37701F0ABFF04468E
:102A40000028D9D101F0FEFF286101F0E7FF0D4811
:102A500001F0DCF901F054FA336813F0010F4FF084
:102A6000020303D083F314882B72C0E7032282F39E
:102A70001488F9E7280C002400ED00E0C0450708A1
:102A800009240408440C002408B50A4B1A7A023AB7
:102A9000012A02D840B1012809D04FF0FF3001F0DF
:102AA0001DFF4FF0FF3001E002221A7208BD032221
:102AB000FBE700BF280C002410B5134C237A022B2F
:102AC00005D06FF0070001F009FF002010BD01F0F4
:102AD000ADFF01236372BFF34F8F0C4A5168C900E9
:102AE00003D54FF000615160A372E36A4BB1D8691E
:102AF000636C1BB11B69984228BF184604232372DC
:102B0000E4E74FF0FF30F3E7280C002400ED00E08D
:102B1000F8B5214C0546237A042B3BD1E3680344E6
:102B2000E360E36A53B106460127DA69B24225D869
:102B3000DF61B61A01F096F9E36A13BB636C4BB11F
:102B400001261869A8421FD81E612D1A236D9847C7
:102B5000636CE3B902230020237201F0DBF9002348
:102B60006372BFF34F8FA27A22B1A3724FF08052EB
:102B70000A4B5A60BDE8F84001F050BF921BDA6181
:102B8000DCE7002ED1D1D9E7401B1861E2E7002D28
:102B9000D7D1DFE7F8BD00BF280C002400ED00E02E
:102BA0007047000008B5FFF7FBFFEFF3058333B173
:102BB0006FF0050001F092FE6FF0050008BDFFF711
:102BC0004DFE0028F4D1DFF808C000DFF6E700BFB3
:102BD000AD28040808B5EFF3058333B16FF00500A5
:102BE00001F07CFE6FF0050008BDFFF737FE0028FE
:102BF000F4D1DFF808C000DFF6E700BFD9290408E8
:102C000008B5EFF3058333B16FF0050001F066FE00
:102C10006FF0050008BDFFF721FE0028F4D1DFF8B2
:102C200008C000DFF6E700BF81280408024608B5A7
:102C3000EFF3058333B16FF0050001F04FFE6FF045
:102C4000050008BDFFF70AFE0028F4D11046DFF8A2
:102C500008C000DFF5E700BF892A040808B5EFF3D4
:102C600005832BB16FF0050001F038FE002008BD90
:102C7000FFF7F4FD0028F5D1DFF804C000DFF6E728
:102C8000B92A0408024608B5EFF305832BB16FF0AB
:102C90000500BDE8084001F021BEFFF7DFFD002878
:102CA000F5D11046DFF804C000DF08BD112B040881
:102CB00008B5EFF3058313B1054BD86808BDFFF7DE
:102CC000CDFD0028F8D1DFF80CC000DFF6E700BF2B
:102CD000280C00247528040810B598B140EA0103B7
:102CE00013F007030ED117290AD901600839102201
:102CF0000C18426084600B5081684A60C3600123F5
:102D0000184610BD0023FBE70346F0B578B371B356
:102D100032F003002BD10F3103F1080621F0070137
:102D2000344636686568301B25F00305401B814238
:102D300003D930680028F3D1F0BD5F680A431D68ED
:102D40000F445F602B4453F8040C083B874288BF54
:102D50005F6063681BB904F108006260ECE723F070
:102D60000303E018E650426020600830E4E70020EA
:102D7000E2E710B580B1C1B1A1F1080400F1080388
:102D80000022A34209D1596821F003044168091BBC
:102D900041603AB95A60012010BD19681A4621B144
:102DA0000B46EEE71B681360F5E70846F4E730B51D
:102DB000C0B189B1C2B1CBB100240160C36043612D
:102DC000C0E9014202FB01F41D19056118460139F1
:102DD00004D1A21A99500121084630BD851805601A
:102DE0002846F4E70146F7E71146F5E71946F3E709
:102DF000034610B5A8B100F1140252E8000F10B953
:102E0000BFF32F8F04E0016842E8001404B1F4E737
:102E100038B1043353E8002F511C43E8001404B1C7
:102E2000F8E710BD30B5F0B1C3688B421BD8036919
:102E30008B4218D900F114031A680A60BFF35F8F40
:102E400053E8002F0C689442F6D143E8001505B111
:102E5000F2E7043050E8003F5A1E40E8002101B17B
:102E6000F8E7002030BD6FF00300FBE7EFF31083BD
:102E70002BB9EFF31180003818BF012070470120F3
:102E80007047D1E9013223B19A608A681AB1536060
:102E90007047C262F9E70363704700002DE9F84FFD
:102EA0008846074600B131B96FF0030100200024C5
:102EB00001F036FD77E0CE1CB0FA80F126F0030673
:102EC0000C3604D0B6FA86F30B441F2BECDD06FB60
:102ED00007FAF2B194683CB1A30702D1D368332B4F
:102EE00005D86FF00801E1E7D368002BF9D1D2F8DB
:102EF0000090D2E904533DB115F0030B01D19A457E
:102F000054D96FF00901D1E7002BFAD11CB19B46CF
:102F10000CE091461546274BD3F8A000D8B1FFF737
:102F200067FF0446A0B14FF0010B35BB214B0022D7
:102F30005146D86FFFF7E8FE0546C0B9BBF1000F58
:102F400006D01C4B2146D3F8A00058B1FFF76AFF0A
:102F50006FF00401AAE701223421D3F88000FFF7C3
:102F6000D3FEDEE7D3F88000FFF703FFF0E74BF076
:102F7000020B524600211BF03BF9FA233246394638
:102F800004F10C002370002384F802B0A360C4F89D
:102F90000490C4E90983C4E90B332B46FFF707FF0C
:102FA000044B054A1A672046BDE8F88F002CE4D18F
:102FB000B1E700BF280C00244930040800F12803C1
:102FC00010B553E8002F12B9BFF32F8F04E0511E44
:102FD00043E8001404B1F4E70AB9002010BDC06A48
:102FE00001220028F9D0811CD1E84F3FC1E8442FCD
:102FF00004B1F9E7DBB2002BF0D08068F1E7036B96
:1030000030B5E3B1CD780024DA78AA420FD31A465E
:10301000C1E901248AB19160A4B16160283050E80F
:10302000003F5A1C40E8002101B1F8E730BD5A6862
:103030001C46002AECD01346E6E7C162ECE7C1E982
:103040000133C1620163E9E7F8B5877804468FB3BD
:10305000C568002701462846FFF713FF277005F1D2
:103060000C042046FFF7DEFEAB68002B48D020465C
:10307000FFF7BEFE0446002842D0284600F0C6FEF8
:1030800006463A46394600F071FF304600F01AFF16
:103090006A6A0646816804F10C001AF0ABFFF92356
:1030A000A7702370F368E37021462846BDE8F84016
:1030B000FFF7A5BF8568AB68002BF5D05B78832B45
:1030C000F2D1284600F0A2FE06463A46394600F004
:1030D0004DFF304600F0F6FE06466A6A04F10C0128
:1030E00080681AF087FFF3680BB1E2781A7000234A
:1030F000214605F10C002370BDE8F840FFF792BEB1
:10310000F8BD00002DE9F0410C46174698460546EB
:1031100018B10378FA2B00D141B928466FF00301AA
:1031200001F0FEFB6FF00300BDE8F0818368C3B1DE
:103130005B78832B15D100F069FE06460122002141
:1031400000F014FF304600F0BDFE06466A6A2146D4
:1031500080681AF04FFFF0680028E5D00770002063
:10316000E2E705F10C00FFF743FE064670B1214689
:103170006A6A0C3000241AF03DFFF92331462846D4
:103180003370B470F770FFF73AFFE8E7B8F1000F5B
:1031900010D04146932001F039F840B1074B284642
:1031A000596900F021FEEFF30983C3E902476FF08C
:1031B0000100B9E76FF00200B6E700BF280C002459
:1031C0002DE9F0410F4615469846044618B103789C
:1031D000FA2B00D141B920466FF0030101F0A0FBAA
:1031E0006FF00300BDE8F081FFF7E8FE0646002817
:1031F0003AD001462046FFF744FE626A06F10C0110
:1032000038461AF0F7FE0DB1F3782B70002504F163
:103210000C07314638463570FFF704FEA3680BB93A
:103220000020DFE73846FFF7E3FD06460028F7D029
:10323000204600F0EBFD07462946012200F096FEED
:10324000384600F03FFE626A0746816806F10C00CE
:103250001AF0D0FEF923B570314633702046FB6872
:10326000F370FFF7CCFEDBE7B8F1000F10D041465A
:10327000832000F0CBFF40B1074B2046596900F096
:10328000B3FDEFF30983C3E902756FF00100A9E70D
:103290006FF00200A6E700BF280C002410B504461A
:1032A000EFF3058333B100206FF0050101F038FB27
:1032B000002010BDFFF7DAFD0028F4D12046DFF82A
:1032C00008C000DFF5E700BF9D2E04082DE9F0419E
:1032D00006460F4690461C46EFF305834BB196B960
:1032E00030466FF0030101F01BFB6FF00300BDE8F7
:1032F000F081FFF7BBFD0028F1D130462346DFF80F
:1033000048C000DFF3E73378FA2BE9D1002FE7D08C
:10331000002CE5D106F10C00FFF76AFD054680B1EF
:10332000726A39460C301AF065FEF9232846AC70F3
:103330002B7085F80380C5E9017600F069FC204612
:10334000D5E76FF00200D2E705310408F8B504466E
:103350000F4616461D46EFF3058343B18CB9204650
:103360006FF0030101F0DCFA6FF00300F8BDFFF726
:103370007DFD0028F2D120462B46DFF844C000DF57
:10338000F4E72378FA2BEAD1002FE8D0002DE6D11C
:103390002046FFF713FE054670B100F10C01626A8A
:1033A00038461AF027FE0EB1EB7833702846EC60F1
:1033B00000F02EFC0020D9E76FF00200D6E700BF36
:1033C000C1310408EFF310832BB9EFF311800038FB
:1033D00018BF0120704701207047000070B5A8B3E6
:1033E0008468D0E900566CB114F0030302D1C268BE
:1033F0001B2A1AD800246FF00801002001F080FA7F
:10340000204670BDC368002BF4D1124BD3F8940052
:1034100030B901221C21D3F88000FFF775FC01E0D0
:10342000FFF7E6FC044660B10123F522A3700023F8
:10343000E670227065602376C4E90233C4E9043380
:10344000DEE76FF0040101F05BFAD9E705460646B6
:10345000DBE700BF280C0024284B70B55D690446EB
:103460000E4635B96FF0070101F04AFA4FF0FF3010
:1034700070BD10B10378F52B07D020466FF0030123
:1034800001F03EFA6FF00300F2E7037E53B9C0E9A2
:103490000353EB6A436103B118610123EC6200201E
:1034A0002376E5E7C278D1070DD5C168A9420AD1D4
:1034B000FF2B06D16FF00F0101F022FA6FF002002E
:1034C000D6E70133EBE7002EF8D093070AD5E06882
:1034D00095F9203090F920209A4203DA80F82030C4
:1034E00000F0A6FC3146532000F090FE18B12946AA
:1034F000204600F079FC6FF00100B9E7280C0024A9
:1035000038B52F4B04465A6932B96FF0070101F004
:10351000F7F94FF0FF3038BD10B10378F52B07D025
:1035200020466FF0030101F0EBF96FF00300F2E7C2
:10353000037E33B96FF00E0101F0E2F96FF0020083
:10354000E9E7C168914202D06FF00D01F4E7013B59
:10355000DBB2037633BB43690BB1016919612169A1
:1035600011B34B61E3789B0705D592F92110D36A1B
:10357000E3B982F82010A3688BB1204600F046FC26
:1035800000220546114600F0F1FC0023E5602361AE
:10359000EB6A636103B11C610123EC6223760020B6
:1035A00000F0B8FC0020B6E7D362DBE7986820B1F2
:1035B00090F920008142B8BF01465B69D8E700BF9F
:1035C000280C002470B5044610B10378F52B07D001
:1035D00020466FF0030101F093F96FF0030070BD16
:1035E000037ED3B16369C0680BB122691A61226995
:1035F0001AB35361E3789B070BD590F92130C26A67
:10360000EAB990F920209A4203D080F8203000F0E7
:103610000FFCA068E0B900F07DFCA078002610F057
:1036200001002670DBD0124B2146D3F89450C5B16F
:103630002846FFF7F7FB3046D1E7C362DAE7916827
:1036400021B191F920108B42B8BF0B465269D7E7E0
:10365000204600F0DBFB00226FF0020100F086FC48
:10366000D7E7D3F88000FFF784FB2846B7E700BF11
:10367000280C00242DE9F0410446002601270CB94E
:10368000BDE8F081E378D4F814801B0712D5A36855
:1036900026767BB1204600F0B9FB00220546114694
:1036A00000F064FCEB6AC4E90356636103B11C617A
:1036B000EC6227764446E2E710B4C3789B071AD53C
:1036C000C06890F92130C26A94688C4208BF8C6847
:1036D00024B194F92040A342B8BF23465269002A7E
:1036E000F2D190F920209A4205D080F820305DF880
:1036F000044B00F09DBB5DF8044B7047024608B5D3
:10370000EFF3058333B100206FF0050101F0F8F805
:10371000002008BDFFF756FE0028F4D11046DFF860
:1037200008C000DFF5E700BFDD330408024608B536
:10373000EFF305833BB110466FF0050101F0E0F8AF
:103740006FF0050008BDFFF73DFE0028F3D11046DD
:10375000DFF804C000DFF5E759340408024608B575
:10376000EFF305833BB110466FF0050101F0C8F897
:103770006FF0050008BDFFF725FE0028F3D11046C5
:10378000DFF804C000DFF5E701350408024608B59C
:10379000EFF305833BB110466FF0050101F0B0F87F
:1037A0006FF0050008BDFFF70DFE0028F3D11046AD
:1037B000DFF804C000DFF5E7C5350408EFF3108338
:1037C0002BB9EFF31180003818BF0120704701209A
:1037D00070470C30D0E85F3F13B9BFF32F8F04E080
:1037E0005A1EC0E8512F01B1F4E798B2003818BF53
:1037F0000120704730B500F10C02C189D2E85F3F6B
:10380000994202D8BFF32F8F04E05C1CC2E8554FE9
:1038100005B1F3E7C0899BB2984294BF0020012014
:1038200030BD0000F8B515464FF6FE73421E064641
:103830000F469A4201D8884207D26FF00301002454
:10384000002001F063F82046F8BD7DB1AC682A681D
:1038500044B114F0030302D1E9680F2922D86FF0B4
:103860000801ECE7EB68002BF9D11546114BD3F8B2
:10387000980080B1FFF7BCFA0446A8B10123F622F4
:10388000A370002365602270A3600B4A094BA781D7
:10389000E6819A66D7E701221021D3F88000FFF76E
:1038A00033FAE9E71546EAE76FF0040101F02EF874
:1038B000C9E700BF280C00242D39040870B505465F
:1038C00010B10378F62B07D028466FF0030101F002
:1038D0001DF86FF0030070BD836863B1284600F0E7
:1038E00095FA00226FF0020100F040FBA868002862
:1038F000F4D100F00FFBAB78002613F001032E701B
:103900000FD0094B2946D3F8984024B12046FFF741
:1039100089FA3046DFE7D3F88000FFF72AFA20461D
:10392000D9E71846D7E700BF280C0024836810B5F4
:1039300004465BB1FFF74DFF40B1204600F066FA48
:103940000022BDE81040114600F010BB10BD38B594
:10395000054610B10378F62B07D028466FF0030117
:1039600000F0D4FF6FF0030038BD84683CB100F074
:103970004DFA0122002100F0F9FA0020F4E7FFF7E8
:1039800039FF38B928466FF0100100F0BFFF6FF023
:103990000200E9E72046E7E738B50D46044610B1D6
:1039A0000378F62B07D020466FF0030100F0AEFF3E
:1039B0006FF0030038BDFFF70CFF68B975B12946F9
:1039C000632000F023FC20B1064B2046596900F02B
:1039D0000BFA6FF00100EDE70020EBE76FF002005B
:1039E000E8E700BF280C002410B50446EFF3058378
:1039F00033B100206FF0050100F088FF002010BDFA
:103A0000FFF7DCFE0028F4D12046DFF808C000DF15
:103A1000F5E700BF2538040810B502460C46EFF361
:103A2000058343B182B910466FF0030100F06EFFC9
:103A30006FF0030010BDFFF7C1FE0028F2D1104661
:103A4000DFF820C000DFF5E71378F62BEBD1002C70
:103A5000E9D11046FFF7BDFE002814BF00206FF02B
:103A60000200E7E79939040810B50446EFF305832F
:103A700043B184B920466FF0030100F047FF6FF0B7
:103A8000030010BDFFF79AFE0028F2D12046DFF8B0
:103A900030C000DFF5E72378F62BEBD12046FFF7A7
:103AA000A9FE20B1204600F0B3F80020E9E7204647
:103AB0006FF0100100F02AFF6FF00200E1E700BF95
:103AC0004F390408024608B5EFF305833BB11046B1
:103AD0006FF0050100F01AFF6FF0050008BDFFF759
:103AE0006DFE0028F3D11046DFF804C000DFF5E7D3
:103AF000BD38040810B5D0E85F3F5A1C914200D889
:103B00000022C0E8542F04B1F5E798B210BD0000C0
:103B100038B51A4C00F090FFE3680133E360236D81
:103B200003B1984700F09EF9002000F0F3F9236CF0
:103B30001BB3A26BA1698A4202D0A163E3631CE0BC
:103B4000E36BB3B9237A022B17D1656AADB195F94E
:103B5000201092F9203099420FD1284600F05FF9E9
:103B6000A06B00F077F9284600F0CAF9236CA56332
:103B7000E4E7013BE363002BE4D038BD280C0024CC
:103B800070B5224C04F1560504F15A06B4F85410ED
:103B9000D5E85F3F13B9BFF32F8F04E05A1EC5E885
:103BA000502F00B1F4E79BB25BB33046FFF7A2FFA2
:103BB000E36D53F8200020B30378F13B082BE5D8E0
:103BC00001A252F823F000BFED3B04088D3B04082E
:103BD000F33B04088D3B04088D3B0408F73B0408C5
:103BE000FB3B04088D3B0408FF3B0408236E984709
:103BF000CCE7636EFBE7A36EF9E7E36EF7E7236FAD
:103C0000F5E70020BDE8704000F084B9280C0024DE
:103C100070B5164C0546B4F8541004F15602D2E8BB
:103C20005F3F994202D8BFF32F8F04E0581CC2E8CF
:103C3000560F06B1F3E79BB2994205D829460220F8
:103C4000BDE8704000F00CBE04F15800FFF752FFD1
:103C5000E36D43F82050637A23B9054B4FF080524F
:103C60005A6070BD0123A372FBE700BF280C00243B
:103C700000ED00E0EFF310832BB9EFF31180003873
:103C800018BF01207047012070470378F12B00D046
:103C90007047C068F9E7000001230A4A90F9201034
:103CA00043701C32936810B51BB193F920408C42CD
:103CB00005DCC0E90232906003B1D86010BD1A463D
:103CC0009B68F1E7280C0024014B5869704700BF3E
:103CD000280C0024002310B50380044683789A073B
:103CE00008D513F0100F016B0E4B0FD0D3F88400E2
:103CF000FFF798F8A378DB0712D50A4B2146D3F8D3
:103D0000880038B1BDE81040FFF78CB8586FFFF756
:103D100030F8EFE7D3F88000BDE81040FFF729B88E
:103D200010BD00BF280C002408B500F0FFFDDFF82F
:103D300010C000DF4FF0FF31002000F0D5FDFEE79E
:103D4000F142040810B5C469621CD0E904310AD1FB
:103D500003B1596142691AB113610023436101E063
:103D6000064A136310BD1BB1DA6959612244DA6156
:103D70004269002AF0D1014AD362F3E7280C0024FB
:103D8000930710B502F0010422D400F1280384B196
:103D900053E8000F00EA01028A4203D0BFF32F8FDD
:103DA000002005E020EA010243E8002404B1EFE727
:103DB00010BD53E8000F084203D1BFF32F8F00203E
:103DC00005E020EA010243E8002404B1F1E7EFE74F
:103DD000806A01EA00031CB18B4218BF0020E7E7AC
:103DE000002B08BF0020E3E791F92020836810B57D
:103DF0001BB193F92040944205DAC1E90230816099
:103E000003B1D96010BD18469B68F1E783689A68D2
:103E1000826002B1D06000221846DA607047C26842
:103E20002AB18368936003B1DA600023C3607047EE
:103E300010B5044664B12378F12B07D0FFF7EFFFEC
:103E400001462046BDE81040FFF7CEBFE468F1E729
:103E500010BD00000123014643700148FFF7C4BFB5
:103E6000440C002438B5164DEC6A44B3E369013BB9
:103E7000E36123BB6378732B06D009D8532B0BD097
:103E800003F0DF03432B0DD12046FFF7FEFE09E0D0
:103E900003F0EF03832BF6E720462146FFF7F5FEFC
:103EA000FFF70AFC2046FFF7BAFFFFF7D3FF2469AC
:103EB00024B1E369002BDDD000236361EC6238BDDF
:103EC000280C002490F82230826B13F0100F0CBFE6
:103ED0006020202010447047074B596951B10B6B8B
:103EE0008A6B934203D21A68044B9A4202D0012093
:103EF00000F0B6BC704700BF280C0024A52E5AE283
:103F000008B502234370024B9861FFF7E5FF08BD37
:103F1000280C0024144B10B5596904461A7AA0B92C
:103F2000022A1FD15C6AECB194F9202091F920306B
:103F30009A4217DD2046FFF772FF0846FFF7ACFEF6
:103F40002046BDE81040FFF7DBBF022A05D190F9FB
:103F5000202091F920309A42EFDC2046BDE8104045
:103F6000FFF778BF10BD00BF280C002438B5054608
:103F70001446FFF7A7FF01602846FFF7E3FE1CB1D8
:103F8000BDE83840FFF7C6BFBDE83840FFF762BF65
:103F900010B543780446332B0CD1416A90F82320A6
:103FA000FFF7EEFE014628B120460022BDE8104092
:103FB000FFF7DCBF10BD70B5044620B10378F12BCC
:103FC00001D1002908DA6FF003056FF003012046E4
:103FD000FEF742FC284670BD4378042B06D16FF0F3
:103FE00002016FF00205FEF737FCF3E700F128034A
:103FF00053E8002F42EA010543E8005606B1F7E70F
:104000004378332BE6D1416A90F82320FFF7B8FEBE
:1040100001460028DED094F8233001229B0756BFCA
:10402000656A054620EA05052046FFF79FFFD1E7B0
:104030002DE9F04F85B00391019028B96FF003018D
:10404000002400F051FCBEE0002A4AD0966846B138
:10405000B00702D1D368432B06D86FF008010020C7
:10406000EEE7D368002BF8D19769D2E9044944B14F
:10407000610703D1B9F1000F40F0B1806FF00A0180
:10408000EDE72FB1791E372903D96FF00B01E6E771
:104090001827B9F1000F40F0A680D2E900B30293CF
:1040A00066BB554DD5F8880008B3FEF7A1FE06465D
:1040B00000283DD04FF00108DFF83CA1002C42D190
:1040C000B9F1000F1DD14D4BDAF88400D3F85490AC
:1040D000B8B1FEF78DFE0546E0B148F01008344651
:1040E00023E093461446182791460292D9E701220D
:1040F0004421D5F88000FEF707FED8E74FF000080E
:10410000DAE722464946DAF87400FEF7FDFD054677
:104110000028E4D1B8F1000F13D0DAF88850314606
:104120004DB128460025FEF77DFE48F0020864B92F
:104130006FF0040193E7DAF880002C46FEF719FED1
:10414000F3E74546F1E72546344640F2F112029B7B
:104150007FB2FD2122800022E370019B84F802805F
:10416000E363C4F804B084F8207084F8217061849B
:10417000C4F83490C4E90222C4E90422C4E9062246
:10418000C4E90922C4E90B25A9F140022A44A2632B
:104190001B4A2A60194A1268530718D4A36B3422A9
:1041A000002118461AF024F8164A174B4263019A68
:1041B00082634FF08072C263039A02622046CAF89B
:1041C0006030FFF7A7FE204605B0BDE8F08F29F06C
:1041D0000302CC21281D443A1AF00AF8DEE7002F2A
:1041E0007FF450AF182719F0070F7FF447AFB9F1EC
:1041F000470F3FF652AF41E7280C0024C04507089F
:10420000A52E5AE2293D0408913F040838B51E4CFA
:10421000237A022B34D1636A002B33D063694A1CA2
:10422000587015D1226B00216AB94FF0FF30C3E9F5
:104230000421D86151B10B611448FFF7E7FDFFF786
:104240005FFE012038BD11461269EDE72363F3E7F5
:10425000E26A002012B1D569A9420BD2D961C3E943
:10426000042058B10361002AE6D0D0695361411A95
:10427000D161E1E71046491B1269EBE7E362F2E71F
:104280000020DFE71846DDE7280C0024440C00245A
:10429000F8B5164B05460F4616465C693CB92046F4
:1042A0006FF00701FEF7D8FA4FF0FF30F8BD002895
:1042B00007DA20466FF00301FEF7CEFA6FF0030035
:1042C000F4E70A4601462046FFF75AFD0028EDD1E3
:1042D0004EB131463320656284F82370FFF796FFB4
:1042E0006FF00100E2E76FF00200DFE7280C002426
:1042F00038B5154D2B7A022B25D16B6A1BB36C692F
:10430000E06AFFF7B7F9A06918B100221146FFF77C
:104310002DFEEFF309830D48A363FFF777FDFFF749
:10432000EFFD00236B61E278D20704D42046BDE89C
:104330003840FFF7CFBC0422E36062706B6BA36070
:1043400003B1DC606C6338BD280C0024440C0024ED
:1043500038B5044610B10378F12B07D020466FF032
:10436000030100F0C1FA6FF0030038BD437803F099
:104370000F03022B25D0032B32D0012B35D1FFF7B1
:104380004EFDE06AFFF776F9A06918B100221146E8
:10439000FFF7ECFD6378022B2AD1EFF309831C4869
:1043A000A363FFF733FDFFF7ABFD1A4B00225A6101
:1043B000E07810F001051FD12046FFF78BFC0020AC
:1043C000D3E7144B1A7A022A02D15B6A002BD8D1A8
:1043D0006FF00201204600F087FA6FF00200C4E798
:1043E000FFF71DFDFFF7AEFCCBE76FF00201F2E730
:1043F0000020FFF78FFDDBE70423064A63700023EC
:10440000E360536BA36003B1DC605463D7E700BF84
:10441000440C0024280C002438B50B4C00210B4818
:10442000A26DFFF705FE0A4D636EA8624BB1E26D07
:1044300000210848FFF7FCFDA864003818BF0120E0
:1044400038BD0120FCE700BFC045070859480408F3
:10445000280C00241546040810B50446EFF3058324
:1044600033B100206FF0050100F03EFA002010BDCE
:10447000FFF700FC0028F4D12046DFF808C000DF79
:10448000F5E700BF3140040808B5EFF3058313B129
:10449000054B586908BDFFF7EDFB0028F8D1DFF8A0
:1044A0000CC000DFF6E700BF280C0024C93C04085C
:1044B00010B5044600F046FAEFF305833BB1204601
:1044C0006FF0050100F010FA6FF0050010BDFFF766
:1044D000D1FB0028F3D12046DFF804C000DFF5E768
:1044E0005143040838B502460D46EFF305834BB13E
:1044F00092B96FF003046FF003011046FEF7ACF9B8
:10450000204638BDFFF7B6FB0028F1D11046DFF892
:1045100044C000DF0446F3E71378F12BE9D1002D06
:10452000E7DB5378042B07D16FF0020110466FF0E0
:104530000204FEF791F9E3E702F1280353E8001FB4
:1045400041EA050443E8004000B1F7E71046FFF7F1
:104550005FFBD5E7B73F040810B50446EFF30583CA
:104560003BB100206FF00501FEF776F96FF0050012
:1045700010BDFFF77FFB0028F3D12046DFF804C011
:1045800000DFF5E79142040830B50C4D00226B6C5A
:1045900013B11C698C420AD90161C0E902231BB125
:1045A0001C699860611A19612AB1D06030BD1A4641
:1045B000091BDB68ECE76864F8E700BF280C0024FF
:1045C00070B5134D6C6C04B323690126013B236164
:1045D0002369D3B9E3680BB1A2689A606B640023C6
:1045E00004F11801E86C1A46FEF770FE18B1214676
:1045F000032000F035F9E378012B07D161692046EB
:10460000FFF7C2FF6C6C002CE2D170BD6670F9E759
:10461000280C00240B4B0C4C07B51A6E0821586E61
:10462000FEF73CFE094BE06423654FF0FF330022A8
:104630006946E06CFEF78AFE0028F6D1DDE900301D
:104640009847F2E7C0450708280C0024C145040834
:1046500008B5094A094B1A60094B9B1A094A1360AD
:10466000094A0A4B1A600A4B9B1A0A4A136000F067
:104670005FF800F091F800BF00FC07241435002417
:10468000000008241035002430F700245CE10024E9
:1046900000FC072458E1002438B50E480B250E4BCA
:1046A0001C24456003600D4BC4608360FFF726F84F
:1046B0000B4B18600B480C4BC460C0E900350B4B2A
:1046C0008360FFF71BF80A4B1860BDE8384018F00C
:1046D00053BF00BFE03400248C460708F4340024A4
:1046E000F0340024B034002499460708C434002470
:1046F000C0340024FDF7A6BC024B4FF0FF31186810
:10470000FFF714B8F0340024014B1868FFF726B8FF
:10471000F0340024024B4FF0FF311868FFF706B861
:10472000C0340024014B1868FFF718B8C0340024C7
:1047300008B504F0E9FA0C4B0C4998684FF00053A7
:10474000C21802F16042126843F8042B8B42F7D181
:10475000054B4FF000529A6014F034FA15F0B4FC97
:10476000BDE8084000F015B800ED00E09802002018
:104770007047704708B500F043F8FFF7F9FFFFF7FF
:104780008BFFFFF7F6FF05F0B3FABDE80840FFF72F
:10479000B1BFFEF707BA0000114C124B23614FF472
:1047A000004363614423E3600F4BA3601823A361BC
:1047B0000E4B07B5224600210D482360FFF74CFE43
:1047C000034628B922460B4900900B4805F0A0FA91
:1047D000FEF700FA002309491A460093F5E700BFE7
:1047E00018B50024183500243CB50024B34607084A
:1047F00075470408B84607081D010180D44607081C
:104800001FB5064B6C460FCB84E80F002046FEF721
:1048100075FF034B186004B010BD00BFEC460708DD
:1048200080B5002473B506460C46154605F062FABD
:1048300058B90634324628462ABF054B054953F875
:1048400024100023009305F063FA02B070BD00BF8E
:10485000B04807080448070808B500F0F7F800005A
:10486000002307B5421E00930023042A19D8DFE86D
:1048700002F003080C10140001220C490C4805F04A
:1048800047FA02220B490C48F9E703220B490C486E
:10489000F5E704220B490C48F1E705220B490C48C7
:1048A000EDE702460B490C48E9E700BFFC46070864
:1048B000250102801D47070826010280424707089C
:1048C000270102807747070828010280B2470708BE
:1048D0002A010280F2470708000102800146014ACE
:1048E000FFF7A0BF31010180014AFFF79BBF00BF66
:1048F00032010180014AFFF795BF00BF37010180F7
:10490000014AFFF78FBF00BF3301018011F1110F82
:1049100002D0024AFFF786BF704700BF3401018012
:10492000014AFFF77FBF00BF3801018010B5FFF7D4
:10493000ABFD034B1B6813B1BDE81040184710BD19
:10494000A0B50024024B1B6803B11847704700BF95
:10495000A0B50024024B987A003818BF0120704798
:10496000280C002408B5FEF779F90022064905F065
:104970009BFBC31C04D98B220449054804F030FF7B
:10498000BDE80840FEF77EB955490408C848070845
:10499000FD480708B0F57A7F10B50C4604D03222E6
:1049A00019491A4804F01CFF04F0DAFB0028184AE1
:1049B00016DB00F16043F02103F5614383F8001337
:1049C000916800F1100341F82340BFF34F8F9268C4
:1049D00052F823309C420AD03F220B490D48E1E7B0
:1049E00000F00F03F021043B13441976E8E7002898
:1049F00008DB0123420900F01F0003FA00F0064B18
:104A000043F82200002010BDC84807082A490708BB
:104A100000ED00E03749070800E100E008B505F0C7
:104A2000CBFABDE8084004F0BCBC0000014B18689C
:104A300004F0ECBC88E00024014B186804F0A8BC2A
:104A400088E0002408B504F08BFB08BD024C08B5D3
:104A500023689847FCE700BFCC0C002403680BB127
:104A6000084618477047CB68C3600BB15B681847AE
:104A700070470000044B0022C3E900229A601A61CB
:104A8000024ADA60704700BFA4B500245D4A0408FA
:104A900038B50D4600210446102200F8011B19F01C
:104AA000A7FB2046658238BD42F60211024808B5D0
:104AB000FFF7EEFF08BD00BFB8B50024C36810B50E
:104AC0002BB94FF4FD720449044804F089FE1B68B9
:104AD000BDE81040184700BF64490708934907081C
:104AE00008B5FBF759FE08BDC36810B52BB94FF4E4
:104AF000FD720449044804F073FE1B68BDE81040D1
:104B0000184700BF644907089349070810B40168B3
:104B1000D0E90132541001EB6200D20748BF0A59B4
:104B20005DF8044B48BFD35818470000C36810B560
:104B30002BB94FF4FD720449044804F051FE1B6880
:104B4000BDE81040184700BF6449070893490708AB
:104B500010B5044606F0EAF8204610BD10B5084C22
:104B6000204606F0A3F800232046064A84F82430A5
:104B700023630549C4E90A33BDE8104005F0CABB08
:104B8000CCB5002400000024514B040802686F4B90
:104B90009A42F0B593B040F0D68012F075F86C4AA6
:104BA0000023C2F88430BFF34F8F536923F480335E
:104BB0005361BFF34F8FD2F8803043F6E074C3F3F4
:104BC000C900C3F34E335B0103EA0406014646EA1B
:104BD00081750139C2F87452F9D2203B13F1200FCC
:104BE000F2D1BFF34F8FBFF36F8F5A4B01250024D3
:104BF0004FF40046D3F8E0200DA95748802742F033
:104C00000102C3F8E020D3F8E02002F00102019293
:104C1000019AD3F8E02042F00402C3F8E020D3F870
:104C2000E02002F004020292029AD3F8E02042F05F
:104C30004002C3F8E020D3F8E02002F040020392E3
:104C4000039AD3F8D82042F40042C3F8D820D3F80E
:104C5000D82002F400420492049AD3F8D82042F4F7
:104C60008032C3F8D820D3F8D82002F480320592DD
:104C7000059AD3F8D82042F40032C3F8D820D3F8EC
:104C8000D82002F400320692069AD3F8E02042F4CB
:104C90000072C3F8E020D3F8E03003F40073079308
:104CA000079BCDE90D65CDE90F440CF0DFFE302305
:104CB0000DA92A480D930CF0D9FE2A461021274849
:104CC0000CF0BEFF2A46202124480CF0B9FF0DA9A4
:104CD00023480D970CF0CAFE2A4639462048022781
:104CE0000CF0AEFF19200BF00FFD314622461A489A
:104CF0000CF0A6FF64200BF007FD2A46314616484B
:104D00000CF09EFF03264FF460530B2508A91548AD
:104D10000A94CDE90837CDE90B650CF0A7FE3223E4
:104D200008A90E480C95CDE90837CDE90A460CF0E4
:104D30009DFE862308A90A480C95CDE90837CDE9E0
:104D40000A460CF093FE13B0F0BD00BF0080024095
:104D500000ED00E000440258002402580008025808
:104D6000000002580018025830B570B1CC6864B128
:104D70008A6852B10B6943B10D6849688560C160AA
:104D80008361C0E90424002030BD4FF0FF30FBE711
:104D900073B5002346680446019366B1A36998473A
:104DA0000546A3699847431BB3F5FA6FF9D9012368
:104DB0000025636027E0836803B19847202300251E
:104DC0002360636901AA12213046984700281DDB41
:104DD000019B03F01F03B3421AD10025266020680F
:104DE0001F2833D87DB923694FF4004229469847DC
:104DF00000282EDB636901AA29462068984700280D
:104E00000ADA6FF00405284602B070BD6FF00405A1
:104E10000136202ED5D1E2E7A36998470646019BCB
:104E20001B0402D4002DB9D0EDE7A3699847801B7D
:104E3000B0F5FA7F07D8636901AA00212068984776
:104E40000028ECDADDE76FF00105E8E76FF0020516
:104E5000D9E76FF00305D6E737B500254369044667
:104E600001AA0121006801959847A84203DA6FF072
:104E7000040003B030BD636901AA0121206898478E
:104E80000028F4DB019B5B072CD5636901AA294646
:104E9000206898470028EADB019BDD040ED403F468
:104EA0000452B2F5045F01D10220E2E7980401D573
:104EB0000320DEE7D90513D50420DAE7636901AAE8
:104EC0001F21206898470028D1DB019BDA040BD50D
:104ED00003F01C03182BE7D0082BE9D0142BEBD0E0
:104EE0000520C6E70120C4E70620C2E740F2DC50F7
:104EF0007047002070470620704770477047C0F821
:104F00003C1170470020704713F0D4B8F0B500F1A1
:104F1000D4069FB004460D46304605F0CFFE7822F9
:104F20000021684619F064F900206B462A460146C4
:104F30007AB10A2924D057681F60578938445F60C6
:104F400009B143F8043C126802B99A6001310C338C
:104F5000EEE70C4932224860201DC1F808D00CF061
:104F6000F5F8B0FA80F46409AB7B012B02D928462E
:104F700000F016FD304605F0BFFE20461FB0F0BD24
:104F80000024F1E728B60024032A0846024928BF76
:104F9000032219F02FB800BF204F070805F0CCB846
:104FA0004FF4FD720249034808B504F019FC00BF34
:104FB000644907089349070810B40168D0E9013231
:104FC000541001EB6200D20748BF0A595DF8044B48
:104FD00048BFD358184700000A4B10B50446036079
:104FE00000F59670FBF7D8FB04F58E70FBF7D4FB49
:104FF00004F1F80005F09AFE04F1D40005F096FEE5
:10500000204610BD3C4A070813B500F58E700C46CB
:10501000884206D00190FBF7BFFB21460198FFF7BD
:1050200022FD02B010BD13B500F596700C46884203
:1050300006D00190FBF7B0FB21460198FFF713FD66
:1050400002B010BD10B5064C06492046FFF78CFE95
:105050002046FFF79DFEB0FA80F0400910BD00BF6A
:1050600008B60024D00C00240148FFF7F5BE00BFAD
:1050700008B600240238032815D8DFE800F0020A39
:105080000C114FF400530B604FF480430120136068
:1050900070470023F7E74FF400530B600023F5E758
:1050A00000230B60F2E700207047000038B50025B0
:1050B0000A4B0446D43040F8D43C40F8485C05F034
:1050C000F5FD04F1F80005F0F1FD2046C4F8285183
:1050D000C4F83851C4F8405138BD00BF3C4A0708F5
:1050E00030B5051D85B000230C46284601A9009364
:1050F0000CF0F9F818B14FF0FF3005B030BD69463B
:1051000028460CF037F90028F5D128460CF04EF966
:105110000099002911DD019B03F01F020A44BFF32F
:105120004F8F0E481A44C0F85C322033D11A002940
:10513000F9DCBFF34F8FBFF36F8F4FF4C172BDF82F
:105140000010002000F05EFC20600028D5D0BDF8E3
:105150000020019900F0DCFC0020CEE700ED00E02B
:1051600073B50446002600F1F8052846019605F0BF
:10517000A5FD01A92046FFF7B3FF002804DA284661
:1051800005F0BAFD02B070BD019941B1D4F82831E3
:105190000BB9FFF705FF1B6804F58E70984728468A
:1051A00005F0AAFDE1E7000038B50E4C054623786E
:1051B000BFF35B8FDA0708D4204605F0C3F820B1AF
:1051C000094B20461D6005F0DFF8074C4FF0FF3219
:1051D00000210120FFF7C0F9C307F7D52068FFF7CA
:1051E000BFFFF3E704B60024A4B700243D2000224B
:1051F000072108B50BF032FB3D20BDE808400BF05D
:105200005FBB0020704700000022074BD3F8003836
:105210000270802243714270E12282701A0CC270C7
:105220001A0A0271704700BF00E0F11F10B5044672
:10523000FFF7E7FF20B92046BDE81040FFF7E4BFC5
:1052400010BD00007FB504460BF05CFB274901252B
:10525000274B6846ADF800500434CDE901134FF0F8
:10526000807303930BF06CFB40F201132148ADF8FF
:105270000030214BCDE901034FF48033684603939E
:105280000BF05EFB04200BF04BFB1C4B68462360CD
:10529000FFF7CCFF1A4B257223611A4BC4F804D0D8
:1052A000E36040F2F453636120460CF0D9FA0546FE
:1052B000D0B9154E01463022301D18F099FF212338
:1052C00033604FF440337361104E29460135324646
:1052D0000023204606F5BF660BF0ACFE042DF4D18A
:1052E000FFF7B0FE04B070BD0020FBE70000043003
:1052F00009000003004004300D000003008002405C
:10530000000004300001043028B6002400040430FA
:10531000F0B505468BB004F0F9FE2846FFF792FF82
:10532000064600284BD02022002102A818F060FF7A
:10533000244B4FF48060019318F010FB05F19003AB
:1053400001AA2946059003934FF480631E480693F3
:105350004423049328230793FFF77EF8C5F88C00B5
:1053600003F08AF9194B102107460493184B019555
:1053700002930023039302F01DFF0446A0B101A98C
:10538000FFF771FB2046C82103F0B5F82046C8217D
:1053900003F0B4F820460F4903F0B3F822460E4953
:1053A000384602F0C5FF044601A8C5F84441FBF7A2
:1053B000F3F90A20FDF73EF82846FFF717FF3046BD
:1053C0000BB0F0BDAC490708A9510408284A0708EA
:1053D000D9540408E14A0408BD4A0408084608B53F
:1053E000FFF724FF012008BD10B50B4C2378BFF355
:1053F0005B8FDB070ED4204604F0A4FF50B10748B2
:10540000FFF754FE064A0749044804F083FF20468C
:1054100004F0BAFF014810BD00B600245CB60024B9
:1054200000000024D94F040837B50D460446019208
:10543000FFF7DAFF019B2A46214604300CF0A2F860
:10544000003818BF0120404203B030BD37B50D46CB
:1054500004460192FFF7C8FF019B2A46214604300B
:105460000CF0BEF8003818BF0120404203B030BD38
:1054700008B5FFF7B9FF04300CF0B6F9002008BDFD
:1054800008B5FFF7B1FFD0F88C0020B10121BDE8CD
:105490000840FFF727B808BD08B5FFF7A5FF04309F
:1054A000BDE808400BF0C4BF002307B51A46024907
:1054B0000248009304F02CFCBE4907080500118047
:1054C000002307B51A4602490248009304F020FC65
:1054D000F249070805001180F0B59DB00446FFF7BA
:1054E000C3FD01280546D4F840712EDD012F18DCDC
:1054F00001AA02A9FFF7BEFD18B94FF40053CDE988
:105500000130261D03A930460CF09CF8019B03A92D
:1055100030460993029B08930CF05AF930460BF081
:10552000A6FDD4F8383143B1012D0ADD012F04DC8A
:10553000012104F59670FFF7F9FAC4F840511DB047
:10554000F0BD012FF9DD0021F3E7012FE9DD084B64
:105550004FF00052C3F88420BFF34F8FBFF36F8F1B
:10556000201D0BF0CBFD2046FFF740FED9E700BF22
:1055700000E100E0130911D051F804CB40F804CB4E
:1055800051F804CB40F804CB51F804CB40F804CBDD
:1055900051F804CB40F804CB013BEDD112F00F03DE
:1055A00005D011F801CB00F801CB013BF9D17047D0
:1055B0000222002373B504460E4600681146FDF72B
:1055C00005F9021E01DB930709D400231649174889
:1055D000009304F095FB4FF0FF3002B070BDFDF773
:1055E0000FFB94F824300546012103F10A02013330
:1055F000206803F0070344F8226084F82430FDF7A4
:105600009DF894F8243094F82520013303F0070323
:10561000934203D102212068FDF7C0F82846FDF728
:1056200005FB0020D9E700BF784A07080F01038077
:1056300013B504464FF0FF310068FEF777F830B13C
:105640000023224603490448009304F061FB02B0A2
:1056500010BD00BF904A07081501038013B504462A
:105660000068FEF77BF830B1002322460349044866
:10567000009304F04DFB02B010BD00BFA64A07081E
:1056800017010380094B07B54FF0FF311868FEF78B
:105690004DF830B10023064906481A46009304F03D
:1056A00037FB012003B05DF804FB00BFA8B700245E
:1056B000BE4A070815010380074B07B51868FEF7B7
:1056C0004DF830B10023054905481A46009304F00F
:1056D0001FFB03B05DF804FBA8B70024D64A0708F7
:1056E0001701038070B5064608200D4600F00CF93E
:1056F000044660B1012301460370C0E90165054815
:10570000FFF756FF28B12146082000F009F94FF0B5
:10571000FF3070BDACB700242DE9F04104460028ED
:105720006FD0830705D0FFF7ADFFBDE8F041FFF76D
:10573000C3BFDFF8E080A0F10805D8F80030AB4225
:10574000F1D8314F00F10C033A689A42EBD32F485D
:10575000FFF76EFF14F8043C1BB92C48FFF77EFFDF
:10576000E1E734F8086CB6F57A5FF6D834F8062C21
:10577000B2F57A5FF1D8D8F80030E91A89B29142CF
:1057800002D09A5A8A42E8D19819D7F800C06045E9
:1057900002D042888A42E0D1002204F8042C1C4A3C
:1057A0001768AF4288BF1560854210D0077977B976
:1057B00060450CD01768B842985B24F8080C985BD9
:1057C00008BF1560B0F57A5F1CBFC018418034F87F
:1057D000061C581885420FD006796EB91668B54276
:1057E00008BF106034F8082C5A5234F8082CB2F56F
:1057F0007A5F1CBF9B1859800448BDE8F041FFF751
:105800002DBFBDE8F08100BF2CB80024F8B70024FC
:10581000F4B7002428B800242DE9F041002852D024
:10582000C41C24F00304A4B20B2C04D9B4F57A5F91
:1058300002D9002047E00C24A042FAD827486FF094
:105840000708FFF7F5FE264F264BC4F57A5E3A6847
:105850001968531A9BB2734503D32048FFF7FEFE25
:10586000E7E7CD18C85A95F804C0BCF1000F32D153
:10587000A8EB03060644A6422DD304F1140E1FFA2A
:105880008EFE764521D308341C44A6B211FA84F466
:1058900084F804C08853638001232E802B718B5BB6
:1058A000B3F57A5F01D00B445E80AA4206D10E4B5D
:1058B0001B68107908B193420AD13A600748FFF794
:1058C000CDFE05F10800BDE8F08101232B71ECE766
:1058D00012880A44EDE70346BDE700BFF8B700248D
:1058E000F4B7002428B800242CB8002410B50446CE
:1058F000FFF7C8FEA3681C680CB122681A60FFF7A6
:10590000DBFE204610BD00000D2804D8034B53F8E1
:105910002000FFF7EBBF0020704700BF984B07083F
:105920000D2838B50C460DD861B1074B53F82050FF
:10593000FFF7A8FEAB681A6822601C60BDE838401B
:10594000FFF7BABE38BD00BF984B070808B5FFF790
:1059500099FE084B00221A70FFF7AEFE064B18683E
:1059600000B908BD436F1BB1BDE8084000F00AB99B
:10597000C068F5E7CCD10024D0D1002470B506462C
:105980000C200C461546FFF7BFFF40B100230481F1
:10599000448143730573C0E900360123C38170BDA0
:1059A00070B5044660B30025FFF76CFEA67B013E90
:1059B000F6B2A673FFF780FE4EB9637B26689B079D
:1059C00009D52369204698470135EDB20EB928461E
:1059D00070BD3446E8E7237B03F00F03022B04D1AC
:1059E00021460D20FFF79CFFEEE7012B02D1214657
:1059F0000C20F7E7002BE7D12046FFF78DFEE3E709
:105A00000546E4E7B2F5C17F2DE9F04706460F46AB
:105A100085B230D007D822F04003012B26D00024D5
:105A20002046BDE8F087B2F5207FF8D10335CB1CC6
:105A300025F0030523F003031D44ADB205F110006A
:105A40009D4280B2EBD38342E9D8FFF7E5FE0446DE
:105A50000028E5D006440023078113360360284B55
:105A600026F003064781C3604660D9E70020BDE801
:105A7000F047FFF783BF0026DFF890903446B0462A
:105A80000D20B246FFF740FF0646C8B91D4DFFF78F
:105A9000F9FD01232F782B70FFB2FFF70DFE4FB9F0
:105AA00031461948FFF71EFE20B1FFF7EBFD2E70BF
:105AB000FFF702FE002CB2D02046FFF771FFAEE7E1
:105AC000EB1C0544C0F8008023F003031335078165
:105AD000C3F5147325F00305C0F80C909BB2456024
