:020000040804EE
:1000000000000824DD6D0508296E050879930408B1
:100010007F930408859304088B9304080000000074
:100020000000000000000000000000005D23040844
:10003000296E050800000000F523040805240408C3
:10004000296E0508296E0508296E0508296E050820
:10005000296E0508296E0508296E0508296E050810
:10006000296E0508296E0508296E0508296E050800
:10007000296E0508296E0508296E0508296E0508F0
:10008000296E0508296E0508296E0508F57C050806
:10009000057D0508017D0508117D0508296E050807
:1000A000296E0508296E0508296E0508296E0508C0
:1000B000296E0508296E0508296E0508296E0508B0
:1000C000296E0508296E0508296E0508296E0508A0
:1000D000296E0508296E0508296E0508296E050890
:1000E000296E0508296E050800000000296E050824
:1000F000296E0508296E0508296E0508296E050870
:10010000296E0508F16A0508296E0508296E05089B
:10011000296E0508296E0508296E0508296E05084F
:10012000296E0508296E0508296E0508296E05083F
:10013000296E050885540408296E0508296E0508EE
:10014000296E0508296E0508000000000000000067
:10015000296E0508296E0508296E0508296E05080F
:10016000296E0508296E0508296E0508296E0508FF
:10017000296E0508296E0508296E05080000000093
:10018000296E0508296E0508296E0508296E0508DF
:10019000296E0508296E0508296E0508296E0508CF
:1001A000296E0508296E0508296E0508296E0508BF
:1001B000296E0508296E0508296E0508296E0508AF
:1001C000296E0508296E0508296E0508296E05089F
:1001D000296E0508296E0508296E0508296E05088F
:1001E000296E0508296E0508296E0508296E05087F
:1001F000296E0508296E0508296E0508296E05086F
:10020000296E0508296E0508296E0508296E05085E
:10021000296E0508296E0508296E0508296E05084E
:10022000296E0508296E0508296E0508296E05083E
:10023000296E0508D96D0508296E0508296E05087F
:10024000296E0508296E0508296E0508296E05081E
:10025000296E0508296E0508296E0508296E05080E
:10026000296E0508296E0508296E0508296E0508FE
:10027000296E0508296E0508296E0508296E0508EE
:10028000296E0508296E0508296E05080000000082
:10029000296E0508296E050810B5054C237833B979
:1002A000044B13B10448AFF300800123237010BD49
:1002B000801800240000000028E80D0808B5034B52
:1002C0001BB103490348AFF3008008BD00000000E4
:1002D0008418002428E80D08154B002B08BF134B89
:1002E0009D46A3F5803A00218B460F461348144AD9
:1002F000121A1DF005FF0F4B002B00D098470E4B34
:10030000002B00D098470020002104000D000D486C
:10031000002802D00C4809F0A5FF1DF0B1F820001C
:10032000290004F0DDF90AF0BDF900BF0000080063
:1003300000000824000000003D4604088018002446
:1003400030F7002465A20408000000007047000098
:1003500038B5074B0546044645F8043B05F020FF39
:10036000284618F0D3FD204605F024FF204638BD6E
:10037000844B070838B5074B0546044645F8BC3B97
:100380000BF07CFF28460AF079FC201DFFF7E0FF08
:10039000204638BD905D070810B50446FFF7D8FF2A
:1003A000B02120460AF0E0F9204610BD10B5044601
:1003B000FFF7E0FF4FF4027120460AF0D5F920461E
:1003C00010BD10B5044628210AF0CEF9204610BD14
:1003D00070470000F0B5244B87B001276622234DFB
:1003E0003B21234C234E2846CDE903735A23CDE904
:1003F00001323D233C22009357230BF0BBFE2246E3
:100400001D49284609F02CFF3A4629461B4F304625
:100410000CF05AFA30461A4E2246394609F020FFAF
:1004200029460222174D30460CF04EFA2246394634
:10043000304609F015FF144E0022144928460FF0EB
:1004400009FC2846124D2246314609F009FF0022D8
:10045000104928460FF0FEFB22463146284607B0D9
:10046000BDE8F04009F0FCBE005A620228190024E1
:1004700000000024301B0024750304084D03040809
:10048000A0180024581B002425FA04084C4806082C
:10049000C81800240D660708F0B55E4CA5B04FF4EF
:1004A00061415C4800F01CFA204600F0D7F90028B2
:1004B000FAD00A240121182001F058FE002118204A
:1004C00001F0D4FE192001F011FE0121182001F0E5
:1004D000CDFE232001F00AFE013CEFD100234FF4B2
:1004E00080160027002201214B48CDE90023CDE9E9
:1004F00002670B220CF0A6F94FF4600200230221E0
:100500004548CDE90223CDE900670B220CF09AF9AA
:10051000424943480EF0BEFFA0B142493D4801F0B8
:1005200061FD41493B4801F05DFD4049394801F01A
:100530004CFD3A4922463A480FF09EFD3C49354869
:1005400001F050FD3B493C480EF0A4FF60B13B492F
:10055000304801F03AFD3749002237480FF08CFD52
:1005600033492C4801F03EFD354936481CF07EF9F0
:10057000044603460122344934481CF071FF2046EA
:100580001BF052FF304A002330492348214ECDE969
:1005900000234FF4780200230BF000F828492C4880
:1005A0001CF064F92B4904460346012209682A48D5
:1005B0001CF056FF20461BF037FF284924481CF04A
:1005C00055F9802203460121054604A81CF030FAA3
:1005D00004A9024604460F4800F032FA802C0CD1E0
:1005E00022462B46012104A81CF022FA04A9044645
:1005F0000246304600F024FAF0E728461BF014FFCC
:100600001749044801F0EEFC1649024801F0EAFCE3
:1006100025B0F0BD8C1F002428190024301B0024B5
:10062000581B0024433F0708793F0708E93F0708A4
:100630002F400708A0180024C818002436400708D7
:100640006D40070870400708EA6C06004868070814
:100650008240070804000024514806089340070818
:1006600096400708BA40070830B5A1F110040025EC
:1006700000F00F02CD7302390009D3B2092ACCBFB2
:10068000373330330B748C42F2D130BDC220704707
:10069000074B10B504460360806A08B108F034FBCC
:1006A000236913B19B68201D9847204610BD00BFE9
:1006B0003C4B070810B50446FFF7EAFFD02120465F
:1006C0000AF052F8204610BD00B5B9B01622172125
:1006D00004A805F09DFB4FF4A17338AA102122F85D
:1006E000D43D00230DEB01000093022305F0E6FA50
:1006F00004A8FFF7CDFF39B05DF804FB04A8FFF7AD
:10070000C7FF19F0D7FC000008B5094A0121094BC1
:10071000A6201A6001F070FD0121A62001F0F0FD75
:10072000FFF7D2FF044B43F2D2021A6008BD00BFAC
:1007300000400058B41B00240040005210B504468D
:100740000FF0BCFF2146FFF78FFF0FF0BDFF04F154
:100750001001FFF789FF0FF0BDFF04F12001FFF743
:1007600083FF302010BD000008B54DF659720021FE
:10077000074814F067FFBFF34F8F0649064BCA685E
:1007800002F4E0621343CB60BFF34F8F00BFFDE77D
:10079000B41B002400ED00E00400FA0570470B686C
:1007A00003604B6843608B6883607047C3680BB11C
:1007B0009B681847704700207047704770B590F8E5
:1007C000383105461446F3B90368DB69984704F4E9
:1007D000706304F00F02B3F5407F04F0F0030CBF28
:1007E00007210821302B0CBF02230123012A08D046
:1007F000901E42424241A869BDE87040006805F081
:10080000A8BD0222F7E770BD38B590F8385104460C
:10081000A5B983695BB1186848B10368DB6898477C
:10082000A36904211D60A06909F09EFFA561002352
:10083000C4F82831C4F82C31C4F8303138BD10B4B4
:10084000D0E9013401686210E4075DF8044B01EB64
:10085000020044BF8A58D3581847000008B590F8E2
:1008600038313BB1012001F041FC0648BDE80840A9
:1008700001F03EBB82691AB11368003318BF01232F
:10088000184608BD5C26002413B590F8383104469C
:1008900023BBA369186805F073FDF8B1A3690122B1
:1008A0000DF10701186803685B699847D4F8303187
:1008B000B3F5807FEDD0D4F828319DF8072023448C
:1008C00083F82820D4F828310133DBB2C4F828316A
:1008D000D4F830310133C4F83031DAE702B010BD5A
:1008E0007FB590F8383104460E46002B36D1856925
:1008F00025B9042009F012FFA0610560A3691868FA
:1009000028BB802009F00AFF3346B4F922200546AF
:10091000B4F9201005F0BEFFA3691D60B4F92420CE
:10092000531C06D0A0690321B4F92630006805F0F5
:10093000BFFFA369186888B10E4B00226946009476
:1009400003930D4B0292019305F03CFD03E0314609
:1009500005F0ECFCE2E76846FFF728FF04B070BD45
:100960008021284609F000FF19F0A4FB6846FFF734
:100970001DFFF9E7DC4007088908040810B50446A4
:10098000FFF784FE84423BBF2401024B4FF0FF304F
:10099000185F10BD0800002470B504460D4601F034
:1009A000A7FA30B12368294620461B6CBDE8704089
:1009B000184770BDA0F59860EEE7000013B590F8F9
:1009C000383104468DF807102BB1C9B20B48FFF738
:1009D000E3FF02B010BDA369186805F0E2FC00282F
:1009E000F9D0A36901220DF10701186803681B699A
:1009F0009847013018BF0120EBE700BF5C260024B8
:100A00002DE9F04107468846164601F071FA80B19B
:100A10000024A6420ED9351B08EB04013846B5F573
:100A2000007F28BF4FF400752A462C4400F002FFD7
:100A3000EFE704462046BDE8F081A0F59860DFE7C7
:100A400070B590F8383105460E4614462BB10F4864
:100A5000FFF7D6FF0446204670BDAB69186805F065
:100A6000A0FC0028F9D0AB6901211868C36F7C3065
:100A70001B6B9847AB6922463146186803681B69AF
:100A80009847013008BF0024E5E700BF5C2600243A
:100A900030B50446C3B001F083F90546D4F8D83523
:100AA000C3F58073984203DDD4F8D855C5F5807539
:100AB0002A4601AB02A9204600F0B3FF019902AB20
:100AC00000226D1A1D44D4F8D835B3F5807F19D0B3
:100AD0008A4217D0D4F8D835B3F5807F10D0D4F837
:100AE000D035A85C234483F8D004D4F8D035013342
:100AF000DBB2C4F8D035D4F8D8350133C4F8D835D2
:100B00000132E0E743B030BD38B5044600F010FBD9
:100B10002046FFF7BDFFD4F8D855204600F010FB63
:100B2000284638BDA0F59860EEE7000008B590F8BB
:100B300038311BB10348FFF7E7FF08BDD0F830019B
:100B4000FBE700BF5C26002438B5044600F0F0FA4D
:100B50002046FFF79DFFD4F8D8354BB1D4F8D435F3
:100B6000234493F8D054204600F0EAFA284638BDD2
:100B70004FF0FF35F7E7A0F59860E5E708B590F886
:100B800038311BB10748FFF7DFFF08BDD0F830311F
:100B90002BB1D0F82C31184490F82800F5E74FF02D
:100BA000FF30F2E75C26002438B5044600F0C0FAB6
:100BB0002046FFF76DFFD4F8D835A3B1D4F8D4356B
:100BC000234493F8D054D4F8D4350133DBB2C4F8BD
:100BD000D435D4F8D835013BC4F8D835204600F0D8
:100BE000AFFA284638BD4FF0FF35F7E7A0F598601B
:100BF000DAE7000008B590F838311BB10D48FFF76F
:100C0000D3FF08BDD0F830318BB1D0F82C31D0F8FB
:100C10002C210344013293F82830D2B2C0F82C21A1
:100C2000D0F83021013AC0F830211846E9E74FF0FA
:100C3000FF30E6E75C26002408B54FF480720021FF
:100C40001DF05EFA0022C0F80021C0F80421C0F8AF
:100C5000082108BD2DE9F84300242D4D4FF47A7882
:100C60002C4F202605F128002F60EC61C5E90148D2
:100C7000C5E90564FFF7E0FF01230E2085F8383150
:100C8000FFF77CFE244D81460D20FFF777FEA5F887
:100C900020904FF6FF79688405F128002F60EC6101
:100CA000A5F82490A5F82690C5E90148C5E9056492
:100CB000FFF7C2FF85F838410F23184D2B845623C8
:100CC00005F128002F606B845823EC61AB84592315
:100CD000C5E90148EB84C5E90564FFF7ADFF85F878
:100CE000384198230E4D2B84992305F128002F605D
:100CF000EC616B84A5F82490A5F82690C5E901481D
:100D0000C5E90564FFF798FF85F83841BDE8F88329
:100D10008C1F0024F0400708D81B0024141D002459
:100D2000501E0024002070477047704710B5D0F85F
:100D30008C452CB1236820465B689847A468F8E787
:100D400010BD38B50D46D0F88C4534B12368204627
:100D500029469B689847A468F7E738BD0048704764
:100D6000B0410708054B10B50446036007F0B5F81D
:100D7000204607F0CBF8204610BD00BF30410708E1
:100D800010B50446FFF7EEFF4FF4B261204609F0BC
:100D9000EBFC204610BDF7B5002305460E46D0F803
:100DA0008C45A4B1236831460DF103022046DF686B
:100DB00001ABB8479DF803100346042905D0019AFA
:100DC000284606F0E7FA03B0F0BDA468E9E7019A07
:100DD0009DF80310F4E770B505460E4622B10021D8
:100DE000BDE8704006F0D2B8D0F88C455CB12368FD
:100DF0000022314620461B69984710B10121284640
:100E0000EEE7A468F2E72146F9E770B50E4605461D
:100E1000D0F88C4500213CB12368314620465B69FF
:100E20009847A4680146F6E72846BDE8704006F0FA
:100E3000ADB9F8B505460E461746D0F88C453CB11D
:100E4000236820463A4631469B699847A468F6E7EE
:100E500028460121BDE8F84006F0F6B970B500213A
:100E600086B0044606F092FC00234FF48975A188F1
:100E7000EF26ADF806302389ADF8045002258DF831
:100E800010301B0AE2888DF8113040F201238DF8F2
:100E90000750ADF8123040F203138DF809500125C8
:100EA000ADF8143004F10A038DF8086005AE8DF832
:100EB0000A501C468DF80C1001AD090A8DF80E2061
:100EC000120A8DF80B008DF80D108DF80F202A46B0
:100ED000083303CAB24243F8080C43F8041C154611
:100EE000F5D1128820461A8006B070BDF8B50024EE
:100EF00006460D46274630461DF042FDA04207D962
:100F0000335D05F8143005EB440301345F70F2E7FC
:100F1000400000F0FE00F8BD38B50446D0F88C550E
:100F200035B12B6828461B6A984710B9AD68F7E7BA
:100F3000284640F2023304F24A51A4F84835FFF73C
:100F4000D5FF94F84835184484F8480504F5A9609D
:100F500038BD000040F2023300F20A5110B50446D9
:100F6000A0F808350548FFF7C1FF94F80835184484
:100F700084F8080504F5A16010BD00BF1C410708F6
:100F800040F2023310B50446A0F8C83400F2CA405B
:100F9000FFF7D4FB94F8C834184484F8C80404F567
:100FA000996010BD2DE9FF4100231D4A044600F55C
:100FB0004E788DF80A30092590F888350192FA228A
:100FC0008DF8083001238DF80C208DF80930C023EE
:100FD0008DF80B3001AB03CBC4F83803C8F804100C
:100FE00088F80820D4F88C658EB13368002130462B
:100FF0001B689847478805F54E7300F10901093FC2
:10100000E0183A463D441CF07DFFB668ECE784F8F2
:101010003A5340462D1284F83B5304B0BDE8F081AA
:101020000902FFFF73B504460D46164616F0D4FDBF
:101030004FF4807301462A4620460093334606F05B
:101040006DFB024B2046236002B070BD30410708A3
:1010500010B5D0F88C350446A3B9C0F88C1594F8B7
:10106000883508464A790B7194F88835134484F81A
:1010700088350B685B6A98472389184420810120D2
:1010800010BD13469A68002AFBD19960E7E71FB5A7
:10109000044606F03DFB0146684605F0C5FC4021CC
:1010A000684605F030FDD4F88C4534B123686946B4
:1010B0002046DB699847A468F7E7684605F0BBFC63
:1010C00004B010BD684605F0B6FC18F0F3FF10B58B
:1010D0000446FFF7DCFF2046BDE8104006F088BA62
:1010E0000F4808B50378BFF35B8FDB0711D409F015
:1010F000CFF870B140F25B2242F241310948FFF76C
:1011000091FF074809F0E6F8074A0849054809F041
:10111000A7F8044808BD024809F0E8FA18F0CAFF29
:10112000C8200024CC20002400000024650D040801
:1011300010B5FFF7D5FF0368BDE810405B6F184797
:1011400010B5FFF7CDFF0368BDE810409B6F18474F
:1011500010B5FFF7C5FF0368BDE81040DB6F184707
:1011600005F00EBE05F0D0BD05F0FABD7047704722
:101170007047436A93F878007047D0F8A40470472A
:101180000120704700487047144307082DE9F047D5
:1011900094B004460F464B22002101A81CF0B0FF7A
:1011A0002679D4F8A434751C94F80E90002B94F88A
:1011B0000C80EDB294F80DE014BF05200020002F44
:1011C00040F0938040F2092309218DF81D0042F27E
:1011D0000540ADF804304FF481738DF815100121EE
:1011E000ADF808308023ADF81E0010208DF80B30CC
:1011F00032234FF0040A24278DF80C3008234FF0D7
:10120000030C4B228DF80D300B238DF819101D3473
:101210008DF80E3040F202238DF81C10ADF810301E
:1012200002238DF8210005208DF822108DF825105D
:101230008DF8271006218DF806208DF80F608DF8A7
:1012400012308DF817608DF81A308DF81B308DF83C
:1012500023008DF826C08DF82A308DF82B108DF8DC
:101260002C008DF816A08DF824708DF828A08DF82C
:1012700029708DF82D708DF82E1007218DF82F60B4
:1012800041F202068DF831108DF8411040F20751FD
:101290008DF83050ADF8366040F209468DF83A507E
:1012A00040F602258DF832008DF842002046ADF858
:1012B00048100DEB0A018DF833908DF834C0ADF86D
:1012C0003860ADF83C508DF843808DF844308DF88F
:1012D00046308DF84AE08DF84B308DF84D301CF0DB
:1012E00011FE204614B0BDE8F0870020FAE70000A8
:1012F0000A4B10B504460360FFF7F2FE06F0EDFD61
:1013000004F5247005F09AFC04F17C0005F096FCCD
:1013100004F1700005F092FC204610BDD44207088D
:1013200010B50446FFF7E4FF4FF49561204609F03D
:101330001BFA204610BDFFF70BBF0000034B10B592
:101340000446036005F0F8FA204610BDF84107088E
:1013500010B50446FFF7F2FF2821204609F004FAF1
:10136000204610BD034B10B50446036005F0E4FAB7
:10137000204610BDC841070810B50446FFF7F2FF2C
:101380003421204609F0F0F9204610BD034B10B57A
:101390000446036005F0D0FA204610BDE04107087E
:1013A00010B50446FFF7F2FF3821204609F0DCF9BA
:1013B000204610BD38B51E4B0D4604464FF4007252
:1013C0001968C0F80F1099889B79A0F813100221B2
:1013D0004375284605F08DFB4FF4007220730221FF
:1013E000284605F08BFB4FF40072607303212846FA
:1013F00005F07FFBA073284605F01EFB20B9AF2245
:101400000C490D4808F098F904F185020023C4F84E
:10141000882204F2992284F8783084F88430C4F861
:101420008C3284F89832C4F89C24C4F8A03438BDB7
:101430001442070850420708BB4207082DE9F34150
:1014400004460E461546FFF783FEF28823799A423A
:1014500037D1002D35D17778012F2ED1F378202B7D
:1014600027D13289072A24D104F10F0804F1160587
:10147000404629461CF014FDD0B1D4F81630C4F80B
:101480000F30638B207CE17BA4F8133001EB00214B
:10149000E57C607C237F01EB00410095A07C256802
:1014A000637501EB0061237D2046627D6D6BA8476B
:1014B0003D46F378212B08BF0125284602B0BDE840
:1014C000F0810025F9E710B50446FFF741FEFFF76C
:1014D00007FE217B06F09EFB04F1850304F17C00EE
:1014E000C4F888320023C4F88C3284F8843005F0C4
:1014F0005AFB94F884302BB923682046DB6BBDE897
:101500001040184710BD000070B50446FFF720FEDC
:10151000D4F8A0542DB140F2DD120F490F4808F065
:101520000BF904F29923C4F89C34FFF7D9FD617BD1
:1015300006F0CEFA84F89852C4F8A00404F524709A
:1015400005F031FB94F898322BB9236820469B6B49
:10155000BDE87040184770BD504207082042070898
:1015600010B4D0E9013401686210E4075DF8044B5F
:1015700001EB020044BF8A58D358184770B586B0B3
:101580000546FFF7E5FD02ACFFF7AAFD0023A97BA6
:1015900000944FF400720593032306F043F82046AD
:1015A000214EFFF703F9FFF79BFD204A297B022319
:1015B00003920022009404924FF400720596029563
:1015C00006F030F82046FFF7F1F8FFF789FD184BD9
:1015D000697B4FF400720393002300940493022369
:1015E0000596029506F01EF80CE02046FFF7DEF89F
:1015F00018F060FD2046FFF7D9F8F9E72046FFF71D
:10160000D5F8F5E72046FFF7D1F8FFF769FD4FF46D
:101610000073D5F89C24697B06F0FCF9012085F85D
:10162000980206B070BD00BF08420708C71404083E
:101630000915040802232DE9F041437100230446F3
:10164000054683609046144B04F17C0645F8703BD8
:10165000284605F09BFA304605F098FA04F5247701
:10166000384605F093FAC4F8A484FFF739FD214603
:10167000FFF7EEFC0CE0384605F0E0FA304605F0E6
:10168000DDFA284605F0DAFA18F014FDF6E7F8E777
:101690002046BDE8F08100BFD442070870B504467B
:1016A0000D46FFF755FD84F87850002D3ED194F893
:1016B000843033B1FFF714FD217B06F083F884F802
:1016C000845004F1850304F17C0600253046C4F8FB
:1016D0008832C4F88C5205F066FA304605F05CFAA0
:1016E00028B94FF4A2721449144808F025F894F868
:1016F000983233B1FFF7F4FC217B06F063F884F8ED
:10170000985204F2992304F52475C4F89C340023FC
:101710002846C4F8A03405F046FA284605F03CFAFD
:1017200020B94FF4A77204490548DEE704F17000C0
:10173000BDE8704005F037BA504207082E4207084E
:101740003F42070810B50446FFF702FD002120467E
:10175000BDE81040FFF7A2BF38B50D460446FFF7BD
:10176000F7FC042D05D020460021BDE83840FFF7E6
:1017700095BF38BDF8B5164604460D461F46FFF71F
:10178000E7FC0423EA88337023799A4225D16978EB
:10179000012922D1EA78212A08D0222A0BD0202A36
:1017A0004FF000001BD13070163401E00F3431705F
:1017B00007203C60F8BDAB88204613F0010308BF4A
:1017C0001946FFF76BFFAB8803F00103E366AB88B4
:1017D00003F00203A366022333700020EAE7032329
:1017E0003370E7E710B58AB00446FFF7A1FC6846FE
:1017F00005F096F80D4B694604F1700000930994CA
:1018000005F0E9F92046FFF79BFC094B00216846EB
:101810001A6805F0CFF86846FFF790FD0AB010BDD2
:101820006846FFF78BFD18F045FC00BFF84107083C
:101830001C42070870B58EB004460E461546FFF7E9
:1018400077FC01A805F06CF8114B01A904F17C00AC
:10185000019300230C958DF83430CDE90A4605F04C
:10186000BAF92046FFF76CFC0A4B002101A81A6860
:1018700005F0A0F804E001A8FFF774FD18F01AFCC9
:101880009DF8344001A8FFF76DFD20460EB070BDF5
:10189000C84107081C42070810B50446FFF758FC6A
:1018A00094F884307BB9D4F88C3263B1FFF718FC1C
:1018B000D4F88C3204F18502217B06F049F910B18D
:1018C000012384F8843010BD2DE9F8431E460446F8
:1018D000894690469DF82070FFF72AFC002333606C
:1018E00094F87830E3B194F88430CBB9D4F88C52C2
:1018F000C5F50075454528BF4546B8F1000F05D030
:101900002A464946D4F888021CF0FCFAD4F88C32F6
:101910002B44C4F88C32356017B12046FFF7BCFF6A
:101920002046BDE8F843FFF70BBCF0B50446406A1B
:1019300085B0012690F878502DB984F8305035469E
:10194000284605B0F0BD04AB0027D4E90A1243F8DD
:10195000047D0096FFF7B8FF0399E36AA26A5B1A59
:101960000A44E362A26213B984F83060E8E7606A6F
:101970003D46FFF791FFE3E72DE9F0431C4691B0A8
:10198000054689469046FFF7D3FB002C4FF0000632
:1019900002A806BF01AC01270027266004F0C0FFA3
:1019A000134B02A905F5247002938DF83C708DF855
:1019B0003D60CDE90B59CDE90D8405F00CF92846C1
:1019C000FFF7BEFB0B4B314602A81A6804F0F2FF8A
:1019D00004E002A8FFF7DAFC18F06CFB9DF83D402C
:1019E00002A8FFF7D3FC204611B0BDE8F08300BF8A
:1019F000E04107081C42070810B5D0F8A03404469F
:101A000073B990F898325BB9FFF76AFB4FF4007333
:101A100004F29922617B05F0FDFF012384F89832DE
:101A200010BD70B504461E4600230846336094F886
:101A30007830EBB194F89832D3B9D4F8A054D4F8F4
:101A40009C14954228BF15462A461CF05BFA356067
:101A5000D4F89C34D4F8A0242B44551BC4F89C34EF
:101A6000C4F8A05425B92046BDE87040FFF7C4BFB4
:101A700070BD37B50446406A90F878502DB984F8A7
:101A800035500125284603B030BD02AB002243F893
:101A9000042DD4E90A12FFF7C4FF0199A26A0A448F
:101AA000A262226B13680B4413600199E36A5B1A0C
:101AB00094F83410E36209B9126802B91BB9012322
:101AC00084F83530DEE7606A0025FFF795FFD9E737
:101AD0006FF01500704700290CBF6FF01800002050
:101AE0007047012070476FF0150070476FF01500C8
:101AF00070471120704770477047704703689B6CB0
:101B00001847A0F59860F9E770477047704770472D
:101B10000368184710B50446012000F0E7FA94F86E
:101B2000780010BDA0F59860F4E7000038B54FF0DC
:101B3000FF320123FF210B4809F01EF80A4D00F087
:101B4000C3FA044695F878301BB1012000F0CEFAB4
:101B5000F8E700F0B9FA001BC728F6D9BDE838400D
:101B6000FEF702BE942C00245C26002407B502ABCD
:101B7000012243F8041D1946FFF75CFE18B10198D5
:101B800003B05DF804FB4FF0FF30F9E7A0F5956076
:101B9000FFF7ECBF07B5002302A9012201F8013DC0
:101BA000FFF7EAFE20B19DF8070003B05DF804FBE3
:101BB0004FF0FF30F9E7A0F59560FFF7EBBF2DE997
:101BC000F8430446884617461E46089DFFF7C0FAAC
:101BD000D4F8F095B9F1000F04D02B4632463946BF
:101BE0004046C847C4F8E085C4F8E475C4F8E86521
:101BF000C4F8EC55BDE8F88370B506460025FFF73C
:101C0000A7FA06F2F454D6F83436AB4208D9204687
:101C1000103454F8043C1BB11B6801359847F2E7B7
:101C200070BD0000B0F5966F03D10121014808F0A6
:101C300085BF7047942C002410B4D0E901340168AA
:101C40006210E4075DF8044B01EB020044BF8A58C0
:101C5000D3581847114B03F1780270B5036004465E
:101C6000C0F8A82400F2F45603F1D80200F234655B
:101C7000E833C0F8AC24C0F8C034AE4204D0103D04
:101C80002846FEF793FDF8E704F5956007F0C8F9DC
:101C90002046FFF72DFB204670BD00BF54430708C8
:101CA000A0F59560FFF7D6BFA0F2AC40FFF7D2BF1A
:101CB00010B50446FFF7CEFF4FF4C761204608F089
:101CC00053FD204610BDA0F2AC40FFF7F1BFA0F5D8
:101CD0009560FFF7EDBF0000F7B51E4604460F46BE
:101CE000154615F079FFBDF8243001462A460193C8
:101CF0002046BDF820300093334604F59566FFF783
:101D000099FC0021304607F061F94FF47A73002501
:101D100004F59A60C4F8C8342946204BC4F8C4546A
:101D200003F178022360C4F8A82403F1D802E83351
:101D3000C4F8AC244FF48072C4F8C0341CF0E0F94D
:101D4000C4F8D055C4F80056C4F8D455C4F8105699
:101D5000C4F8D855C4F82056C4F83056C4F83456E0
:101D6000C4F8F055BFB12046FFF73CFD13E004F284
:101D7000346504F2F457BD4204D0103D2846FEF706
:101D800015FDF8E7304607F04BF92046FFF7B0FAAB
:101D900018F090F9F9E7204603B0F0BD5443070866
:101DA00038B50546FFF7C4F995F898325BB9D5F810
:101DB000A044B4F5007F28BF4FF400742846FFF715
:101DC000BFF9204638BD0024F8E70000F0B587B021
:101DD0000446FFF7ADF93D4B2046C4F8F035FFF758
:101DE000AFF93B4B2046029405933A4B03930023F3
:101DF0000493FFF79DF9D4F83456032D03D92046F8
:101E0000FFF79EF915E004EB05166B1C06F2F4567D
:101E1000C4F834363046FEF7C9FC059B04EB0515C3
:101E2000C5F80036002BEAD05B6802A93046984717
:101E3000E5E702A8FEF7BAFCBC2008F06FFC264BD1
:101E4000002100F14006054603600161304608F0BC
:101E500037FF05F15407384608F0D0FE1F4B4FF40A
:101E60008072182128460093002308F0C1FF1C4B04
:101E700002A9C4F8DC55284605931A4B02930023A7
:101E8000CDE9033308F0C0FF10E0384608F0F6FE55
:101E9000304608F03EFF281DFEF788FCBC2128468E
:101EA00008F062FC18F006F9F2E7F4E702A8FEF782
:101EB0007DFC2046FEF7ECFD07B0F0BD02A8FEF762
:101EC00075FCEFE702A8FEF771FCEBE7251C0408A0
:101ED0002C430708910A0408E85C070844430708F4
:101EE000384307082D1B0408A0F59860FFF76EBF64
:101EF00090F878007047000037B50F4C0F4D204622
:101F000008F00CFE2A460E49204608F0A9F942F2D4
:101F1000120301220B4CCDE9003200224FF4F8539A
:101F200020461146FFF7D8FE2A460749204603B04F
:101F3000BDE8304008F094B9942C0024000000243F
:101F400043AB04085C260024551C040808B51AF0AD
:101F5000F5F92DE9F84306460D46071D00F107097E
:101F6000002417F8011B0A22284600F06FF880466B
:101F70002E21284600F02DF84F4540440444F0D16E
:101F80000A22F179284600F061F82044BDE8F88380
:101F9000024B034A1A6000225A607047A82C0024A2
:101FA0007044070870B5044608460D461CF0E8FC6E
:101FB00023680246294620465B68BDE87040184702
:101FC00009B1FFF7EFBF0846704708B5FFF7F8FF04
:101FD00008BD03681B6818470149FFF7E3BF00BF4E
:101FE000EAE20D0838B50546FFF7EAFF0446284641
:101FF000FFF7F2FF204438BD70B58AB00D460023CC
:10200000012A98BF0A220AA901F8043DB5FBF2F49F
:1020100002FB14562546F3B2092E94BF30333733F2
:10202000DBB201F8013D002CF0D1FFF7C9FF0AB087
:1020300070BD10B42AB90368C9B25DF8044B1B68BF
:102040001847D2B25DF8044BFFF7D6BFFFF7F1BFD8
:1020500010B500F04DF80A4CFEF756FBFFF740F8BC
:10206000FFF735F84FF4E1310648FFF7AFFEFEF712
:1020700013FAFEF7ADF9002CFBD0AFF30080F8E7C0
:10208000000000005C26002470B505460024074EC1
:10209000FEF7FCFAE3B2984206D918461B01013458
:1020A000F35EAB42F4D170BDFF20FCE708000024D2
:1020B00010B5044604F09DFA204610BD10B5044644
:1020C00004F097FA204610BD07B50749684604F0AA
:1020D000CDFA4FF47A720023DDE9000118F0D8FF41
:1020E00003B05DF804FB00BFB02C002408F018BE5C
:1020F00008B5044804F087FA0348BDE8084004F036
:1021000082BA00BFC82C0024B02C002438B50A4C79
:102110000A4D204604F0E7FA2046094C2A460949B0
:1021200008F09EF8204604F0E9FA2A4620460649BF
:10213000BDE8384008F094B8C82C00240000002402
:10214000B02C0024BD200408B120040870B504465A
:102150000D46164600211C221BF0D2FF20463246B7
:10216000294606F0B0FA204670BD00002DE9F04186
:10217000204D060180460F46AB19DC68B4B9FEF766
:1021800085FA80454FF01C0034BF35F906804FF0CA
:10219000FF3808F0C3FA044600211C221BF0B0FFF0
:1021A0004146204606F08CFA3544EC60012F10D0F1
:1021B00006D3022F12D0204603F021FD022103E0B6
:1021C000204603F01CFD00212046BDE8F04103F04D
:1021D00023BD2046BDE8F04103F004BD204603F0D6
:1021E0000EFD0121F0E71C21204608F0BDFA17F092
:1021F00061FF00BF0800002430B589B004460D46D9
:10220000FFF742FFC0B2FF2804D02946FFF7AEFF18
:1022100009B030BD012D14D00AD3022D1CD00222EA
:10222000214601A8FFF792FF01A806F0D7F9EFE7D2
:102230000022214601A8FFF789FF01A806F0CEF988
:10224000E6E71C22002101A81BF05AFF00222146CC
:1022500001A806F03AFADBE70122214601A8FFF7C0
:1022600075FF01A806F0BAF9D2E700002DE9F341A5
:1022700007468846FEF70AFA87422ED21D4D3E01D8
:10228000AB19DC68CCB9FEF701FA87424FF01C00AD
:1022900034BFAF5F4FF0FF3708F040FA04461C220E
:1022A00000211BF02DFFCDF80080002301223946CC
:1022B000204606F011FA3544EC600F4B0F491A46E0
:1022C000D3F894008842FBD12368B8F1000F07D0FF
:1022D000A1680B604FF44073536102B0BDE8F08118
:1022E000E1681B04F5E71C21204608F03DFA17F0D1
:1022F000E1FE00BF080000240064025800030080D3
:1023000030B589B005460C46FFF7BEFEC0B2FF28C7
:1023100004D02146FFF7AAFF09B030BD1C220021DE
:1023200001A81BF0EDFE294601A806F0D2F9094BE1
:1023300009491A46D3F894008842FBD1019B2CB17D
:1023400003990B604FF440735361E5E71B04049954
:10235000F7E700BF00640258000300801EF0040F7E
:102360000CBFEFF30880EFF30980816911F8021CBC
:1023700091BB01B590E80F10E047BDE800508CE834
:102380000300244B93E80600914208BF704741B90F
:102390001EF0100F10D12049086820F001000860DD
:1023A0000AE02CE9F00F1EF0100F08BF2CED108A88
:1023B000C1F838C081F822E01A6092F82210906BC0
:1023C00061F0FF0E1EF0100F08BFB0EC108AB0E8ED
:1023D000F00F80F309887047104A13689942FAD8C1
:1023E00001B552F821C00FC8E047BDE80050CCF855
:1023F0000000704701B501F0BDFBBDE80140EFF3FF
:10240000098CBEE701B501F07DFBBDE80140EFF3AB
:10241000098CB6E73C0C002434EF00E03445070893
:10242000014608B510B1132001F0E6FE002008BDFA
:1024300008B5EFF305832BB9EFF3108313B9EFF36E
:10244000118333B16FF0050000F003FA6FF005005F
:1024500008BDDFF808C000DFFAE700BF2124040848
:10246000EFF310832BB9EFF31180003818BF012070
:1024700070470120704710B520B10378F32B01D1CC
:10248000002906DA6FF0030102F02AFA6FF0030068
:1024900010BD00F10C0353E8000F20EA010243E8ED
:1024A000002404B1F7E7F3E738B538B3846805686A
:1024B0006CB114F0030302D1C2680F2A13D80024B0
:1024C0006FF00801002002F00BFA204638BDC36807
:1024D000002BF4D1104BD3F8900088B100F084FCAD
:1024E0000446A0B10123F322A3700023656022708B
:1024F0000A4AC4E90233084B5A66E6E70546E9E7AB
:1025000001221021D3F8800000F0FAFBE8E76FF019
:10251000040102F0E5F9D8E7280C0024F9250408A5
:1025200070B5054610B10378F32B07D028466FF03D
:10253000030102F0D5F96FF0030070BD836863B149
:10254000284601F05DFC00226FF0020101F008FD59
:10255000A8680028F4D101F0D7FCAB78002613F06E
:1025600001032E700FD0094B2946D3F8904024B1B7
:10257000204600F053FC3046DFE7D3F8800000F03F
:10258000F4FB2046D9E71846D7E700BF280C002403
:10259000930710B502F0010422D400F10C0384B1BA
:1025A00053E8000F00EA01028A4203D0BFF32F8FE5
:1025B000002005E020EA010243E8002404B1EFE72F
:1025C00010BD53E8000F084203D1BFF32F8F002046
:1025D00005E020EA010243E8002404B1F1E7EFE757
:1025E000C06801EA00031CB18B4218BF0020E7E776
:1025F000002B08BF0020E3E7F8B50546846804B95E
:10260000F8BD94F823202846616AA768FFF7C0FF49
:10261000064638B1204601F0FCFB00223146204638
:1026200001F09EFC3C46EAE7F8B50D4617461E460B
:10263000044620B10378F32B01D1002907DA2046A4
:102640006FF0030102F04CF96FF00300F8BDFFF7E3
:102650009FFF0028FAD186B13146432001F0CCFD1E
:1026600040B1074B20465E69314601F0B7FB756209
:1026700086F823706FF00100E8E76FF00200E5E7ED
:10268000280C00242DE9F041064620B10378F32BF5
:1026900001D1002909DA6FF003056FF0030130461C
:1026A00002F01EF92846BDE8F08100F10C0353E862
:1026B000002F42EA010543E8005000B1F7E7B46893
:1026C0001CB9204601F020FCECE794F823203046AA
:1026D000616AD4F80880FFF75BFF074678B194F889
:1026E00023309B0756BF656A054620EA050520464C
:1026F00001F08FFB00223946204601F031FC4446B0
:10270000DEE70000024608B5EFF3058333B1002091
:102710006FF0050102F0E4F8002008BDFFF7A0FE0D
:102720000028F4D11046DFF808C000DFF5E700BF4D
:10273000A924040838B502460D46EFF305834BB1D2
:1027400092B96FF003046FF00301104602F0C8F86D
:10275000204638BDFFF784FE0028F1D11046DFF88F
:1027600030C000DF0446F3E71378F32BE9D1002DE6
:10277000E7DB02F10C0353E8001F41EA050443E8DC
:10278000004000B1F7E7104601F03CFAE0E700BF77
:102790008526040810B502460C46EFF305832BB1DD
:1027A00021461046BDE81040FFF765BEFFF758FE12
:1027B0000028F5D11046DFF808C000DF10BD00BFCB
:1027C00077240408F8B504460E4617461D46EFF375
:1027D000058343B18CB920466FF0030102F080F805
:1027E0006FF00300F8BDFFF73BFE0028F2D1204652
:1027F0002B46DFF828C000DFF4E72378F32BEAD17B
:10280000002DE8D1002EE6DB3A4631462046FFF7A0
:10281000BFFE002808BF6FF00200E3E72926040886
:10282000024608B5EFF305833BB110466FF0050192
:1028300002F056F86FF0050008BDFFF711FE002802
:10284000F3D11046DFF804C000DFF5E721250408C6
:1028500070477047EFF310832BB9EFF31180003806
:1028600018BF01207047012070470000014BD86855
:10287000704700BF280C002408B5094B1A7A022AB9
:1028800008D0032A0AD04FF0FF3002F01DF84FF0B5
:10289000FF3002E0032200201A7208BD0120FCE78D
:1028A000280C002470B5484C217A012900F08A8058
:1028B00031B14FF0FF3002F007F84FF0FF3070BD3C
:1028C000424D9C2204F108001BF01AFCEB68E36502
:1028D0002B8AD5E90B61A4F85430AB6830462364E9
:1028E00000F0F6F908B1C4F88060D5E9056130461A
:1028F00000F0EEF908B9D4F880606667D5E90761A1
:10290000304600F0E5F908B9D4F88060A667D5E94B
:102910000961304600F0DCF908B9D4F88060E66758
:102920006E6B3EB131683046D6E9022300F03BFAC7
:10293000C4F88460AE6B3EB131683046D6E90223FC
:1029400000F031FAC4F88860EE6B3EB13168304671
:10295000D6E9022300F027FAC4F88C602E6C3EB151
:1029600031683046D6E9022300F01DFAC4F89060C1
:102970006E6C3EB131683046D6E9022300F013FA9E
:10298000C4F89460AE6C3EB131683046D6E902239B
:1029900000F009FAC4F89860EE6C3EB13168304638
:1029A000D6E9022300F0FFF9C4F89C602D6D3DB11B
:1029B00029682846D5E9022300F0F5F9C4F8A050AB
:1029C0000123237200207AE7280C0024CC44070856
:1029D00070B5264D2B7A012B07D06FF006004FF013
:1029E000FF3401F071FF204670BD01F00BFD10B9FE
:1029F0004FF0FF30F3E71E4AFF231E4E82F82230CD
:102A000092F82230D26863F0FF031B49C2F302221E
:102A10007068DB4314BFB3FA83F32023C3F12003B0
:102A2000934298BF531CFE2202FA03F3104ADBB212
:102A3000D37701F0A5FF04460028D9D101F0F8FFB3
:102A4000286101F0E1FF0D4801F0DAF901F052FAD6
:102A5000336813F0010F4FF0020303D083F314889F
:102A60002B72C0E7032282F31488F9E7280C0024B4
:102A700000ED00E0CC44070805240408440C0024C1
:102A800008B50A4B1A7A023A012A02D840B1012845
:102A900009D04FF0FF3001F017FF4FF0FF3001E099
:102AA00002221A7208BD0322FBE700BF280C002493
:102AB00010B5134C237A022B05D06FF0070001F0FC
:102AC00003FF002010BD01F0A7FF01236372BFF3D5
:102AD0004F8F0C4A5168C90003D54FF00061516017
:102AE000A372E36A4BB1D869636C1BB11B6998424E
:102AF00028BF184604232372E4E74FF0FF30F3E7C2
:102B0000280C002400ED00E0F8B5214C0546237A9E
:102B1000042B3BD1E3680344E360E36A53B1064608
:102B20000127DA69B24225D8DF61B61A01F094F9BB
:102B3000E36A13BB636C4BB101261A69AA421FD822
:102B40001E61AD1A236D9847636CE3B90223002020
:102B5000237201F0D9F900236372BFF34F8FA27A79
:102B600022B1A3724FF080520A4B5A60BDE8F84080
:102B700001F04ABF921BDA61DCE7002ED1D1D9E720
:102B8000521B1A61E2E7002DD7D1DFE7F8BD00BF85
:102B9000280C002400ED00E07047000008B5FFF7A6
:102BA000FBFFEFF3058333B16FF0050001F08CFEFE
:102BB0006FF0050008BDFFF74DFE0028F4D1DFF8E7
:102BC00008C000DFF6E700BFA528040808B5EFF34A
:102BD000058333B16FF0050001F076FE6FF005005C
:102BE00008BDFFF737FE0028F4D1DFF808C000DF8A
:102BF000F6E700BFD129040808B5EFF3058333B128
:102C00006FF0050001F060FE6FF0050008BDFFF7F2
:102C100021FE0028F4D1DFF808C000DFF6E700BF8E
:102C200079280408024608B5EFF3058333B16FF045
:102C3000050001F049FE6FF0050008BDFFF70AFE30
:102C40000028F4D11046DFF808C000DFF5E700BF28
:102C5000812A040808B5EFF305832BB16FF0050056
:102C600001F032FE002008BDFFF7F4FD0028F5D189
:102C7000DFF804C000DFF6E7B12A0408024608B511
:102C8000EFF305832BB16FF00500BDE8084001F0BC
:102C90001BBEFFF7DFFD0028F5D11046DFF804C0AA
:102CA00000DF08BD092B040808B5EFF3058313B155
:102CB000054BD86808BDFFF7CDFD0028F8D1DFF837
:102CC0000CC000DFF6E700BF280C00246D280408C4
:102CD00010B598B140EA010313F007030ED117298C
:102CE0000AD90160083910220C18426084604350F0
:102CF00081684A60C3600123184610BD0023FBE7CA
:102D000070B580B399B132F003032CD10F3100F1CB
:102D1000080421F00706234624685D68E11A25F0BF
:102D20000305491B8E4204D921680029F3D10846C6
:102D300070BD45683243016835440144456051F82F
:102D4000040C0839854288BF4D60586818B903F1F2
:102D500008015A60EBE720F0030019181C504A6084
:102D600019600831E3E70021E1E710B580B1C1B196
:102D7000A1F1080400F108030022A34209D1596817
:102D800021F003044168091B41603AB95A600120EF
:102D900010BD19681A4621B10B46EEE71B68136097
:102DA000F5E70846F4E730B5C0B189B1C2B1CBB19F
:102DB00000240160C3604361C0E9014202FB01F4E9
:102DC0001D1905611846013904D1A41A19510121B0
:102DD000084630BD851805602846F4E70146F7E748
:102DE0001146F5E71946F3E7034610B5A8B100F11F
:102DF000140252E8000F10B9BFF32F8F04E00168EE
:102E000042E8001404B1F4E738B1043353E8002F6A
:102E1000511C43E8001404B1F8E710BD30B5F0B11F
:102E2000C3688B421BD803698B4218D900F1140385
:102E30001A680A60BFF35F8F53E8002F0C68944252
:102E4000F6D143E8001505B1F2E7043050E8003F41
:102E50005A1E40E8002101B1F8E7002030BD6FF0B4
:102E60000300FBE7EFF310832BB9EFF31180003879
:102E700018BF0120704701207047D1E9013223B10A
:102E80009A608A681AB153607047C262F9E70363B7
:102E9000704700002DE9F84F8846074600B131B968
:102EA0006FF003010020002401F030FD77E0CE1C1C
:102EB000B0FA80F126F003060C3604D0B6FA86F399
:102EC0000B441F2BECDD06FB07FAF2B19468D2F835
:102ED0000090D2E904533CB1A10702D1D268332A51
:102EE00005D86FF00801DDE7D268002AF9D13DB1BD
:102EF00015F0030B01D19A4554D96FF00901D1E7C0
:102F0000002BFAD11CB19B460CE091461546274B8D
:102F1000D3F8A000D8B1FFF767FF0446A0B14FF087
:102F2000010B35BB214B00225146D86FFFF7E8FE5D
:102F30000546C0B9BBF1000F06D01C4B2146D3F8A3
:102F4000A00058B1FFF76AFF6FF00401AAE7012261
:102F50003421D3F88000FFF7D3FEDEE7D3F88000FA
:102F6000FFF703FFF0E74BF0020B524600211BF086
:102F7000C7F8FA233246394604F10C0023700023C7
:102F800084F802B0A360C4F80490C4E90983C4E9DA
:102F90000B332B46FFF707FF044B054A1A67204601
:102FA000BDE8F88F002CE4D1B1E700BF280C002465
:102FB0004130040800F1280310B553E8002F12B97E
:102FC000BFF32F8F04E0511E43E8001404B1F4E76F
:102FD0000AB9002010BDC06A01220028F9D0811C66
:102FE000D1E84F3FC1E8442F04B1F9E7DBB2002B31
:102FF000F0D08068F1E7036B30B5E3B1CD78002401
:10300000DA78AA420FD31A46C1E901248AB1916045
:10301000A4B16160283050E8003F5A1C40E800210C
:1030200001B1F8E730BD5A681C46002AECD01346BF
:10303000E6E7C162ECE7C1E90133C1620163E9E798
:10304000F8B5877804468FB3C5680027014628463F
:10305000FFF713FF277005F10C042046FFF7DEFE93
:10306000AB68002B48D02046FFF7BEFE0446002880
:1030700042D0284600F0C4FE06463A46394600F0E3
:103080006FFF304600F018FF6A6A0646816804F157
:103090000C001AF037FFF923A7702370F368E37070
:1030A00021462846BDE8F840FFF7A5BF8568AB6814
:1030B000002BF5D05B78832BF2D1284600F0A0FEE0
:1030C00006463A46394600F04BFF304600F0F4FE23
:1030D00006466A6A04F10C0180681AF013FFF3686F
:1030E0000BB1E2781A700023214605F10C00237021
:1030F000BDE8F840FFF792BEF8BD00002DE9F041B1
:103100000C4617469846054618B10378FA2B00D1AD
:1031100041B928466FF0030101F0F8FB6FF003009E
:10312000BDE8F0818368C3B15B78832B15D100F0D3
:1031300067FE06460122002100F012FF304600F033
:10314000BBFE06466A6A214680681AF0DBFEF0681C
:103150000028E5D007700020E2E705F10C00FFF73A
:1031600043FE064670B121466A6A0C3000241AF00C
:10317000C9FEF923314628463370B470F770FFF763
:103180003AFFE8E7B8F1000F10D04146932001F074
:1031900033F840B1074B2846596900F01FFEEFF3A2
:1031A0000983C3E902476FF00100B9E76FF002003D
:1031B000B6E700BF280C00242DE9F0410F46154664
:1031C0009846044618B10378FA2B00D141B920463D
:1031D0006FF0030101F09AFB6FF00300BDE8F0818E
:1031E000FFF7E8FE064600283AD001462046FFF7E2
:1031F00044FE626A06F10C0138461AF083FE0DB1F6
:10320000F3782B70002504F10C07314638463570F1
:10321000FFF704FEA3680BB90020DFE73846FFF78D
:10322000E3FD06460028F7D0204600F0E9FD0746FA
:103230002946012200F094FE384600F03DFE626A05
:103240000746816806F10C001AF05CFEF923B570A0
:10325000314633702046FB68F370FFF7CCFEDBE7A6
:10326000B8F1000F10D04146832000F0C5FF40B1F7
:10327000074B2046596900F0B1FDEFF30983C3E91C
:1032800002756FF00100A9E76FF00200A6E700BF2A
:10329000280C002410B50446EFF3058333B1002059
:1032A0006FF0050101F032FB002010BDFFF7DAFDE1
:1032B0000028F4D12046DFF808C000DFF5E700BFA2
:1032C000952E04082DE9F04106460F4690461C460F
:1032D000EFF305834BB196B930466FF0030101F06F
:1032E00015FB6FF00300BDE8F081FFF7BBFD002880
:1032F000F1D130462346DFF848C000DFF3E73378EA
:10330000FA2BE9D1002FE7D0002CE5D106F10C0013
:10331000FFF76AFD054680B1726A39460C301AF033
:10332000F1FDF9232846AC702B7085F80380C5E9C0
:10333000017600F067FC2046D5E76FF00200D2E787
:10334000FD300408F8B504460F4616461D46EFF357
:10335000058343B18CB920466FF0030101F0D6FA22
:103360006FF00300F8BDFFF77DFD0028F2D1204685
:103370002B46DFF844C000DFF4E72378FA2BEAD1CC
:10338000002FE8D0002DE6D12046FFF713FE0546BA
:1033900070B100F10C01626A38461AF0B3FD0EB14B
:1033A000EB7833702846EC6000F02CFC0020D9E765
:1033B0006FF00200D6E700BFB9310408EFF31083C5
:1033C0002BB9EFF31180003818BF0120704701209E
:1033D0007047000070B5A8B38468D0E900566CB19E
:1033E00014F0030302D1C2681B2A1AD800246FF01C
:1033F0000801002001F07AFA204670BDC368002B56
:10340000F4D1124BD3F8940030B901221C21D3F827
:103410008000FFF775FC01E0FFF7E6FC044660B1B1
:103420000123F522A3700023E670227065602376E5
:10343000C4E90233C4E90433DEE76FF0040101F0AC
:1034400055FAD9E705460646DBE700BF280C0024FD
:10345000284B70B55D6904460E4635B96FF007011B
:1034600001F044FA4FF0FF3070BD10B10378F52B36
:1034700007D020466FF0030101F038FA6FF0030027
:10348000F2E7037E53B9C0E90353EB6A436103B12A
:1034900018610123EC6200202376E5E7C278D107AA
:1034A0000DD5C168A9420AD1FF2B06D16FF00F01DB
:1034B00001F01CFA6FF00200D6E70133EBE7002EB3
:1034C000F8D093070AD5E06895F9203090F92020CC
:1034D0009A4203DA80F8203000F0A4FC31465320F1
:1034E00000F08AFE18B12946204600F077FC6FF004
:1034F0000100B9E7280C002438B52F4B04465A695F
:1035000032B96FF0070101F0F1F94FF0FF3038BD2B
:1035100010B10378F52B07D020466FF0030101F0BE
:10352000E5F96FF00300F2E7037E33B96FF00E01A7
:1035300001F0DCF96FF00200E9E7C168914202D0C6
:103540006FF00D01F4E7013BDBB2037633BB436957
:103550000BB101691961216911B34B61E3789B07D4
:1035600005D592F92110D36AE3B982F82010A36837
:103570008BB1204600F044FC00220546114600F0C5
:10358000EFFC0023E5602361EB6A636103B11C611A
:103590000123EC622376002000F0B6FC0020B6E7A1
:1035A000D362DBE7986820B190F920008142B8BF70
:1035B00001465B69D8E700BF280C002470B50446BB
:1035C00010B10378F52B07D020466FF0030101F00E
:1035D0008DF96FF0030070BD037ED3B16369C068DD
:1035E0000BB122691A6122691AB35361E3789B0710
:1035F0000BD590F92130C26AEAB990F920209A429D
:1036000003D080F8203000F00DFCA068E0B900F095
:103610007BFCA078002610F001002670DBD0124B56
:103620002146D3F89450C5B12846FFF7F7FB304642
:10363000D1E7C362DAE7916821B191F920108B429A
:10364000B8BF0B465269D7E7204600F0D9FB0022ED
:103650006FF0020100F084FCD7E7D3F88000FFF799
:1036600084FB2846B7E700BF280C00242DE9F04171
:103670000446002601270CB9BDE8F081E378D4F8B0
:1036800014801B0712D5A36826767BB1204600F074
:10369000B7FB00220546114600F062FCEB6AC4E964
:1036A0000356636103B11C61EC6227764446E2E78E
:1036B00010B4C3789B071AD5C06890F92130C26A4C
:1036C00094688C4208BF8C6824B194F92040A342CE
:1036D000B8BF23465269002AF2D190F920209A42BD
:1036E00005D080F820305DF8044B00F09BBB5DF8FE
:1036F000044B7047024608B5EFF3058333B1002051
:103700006FF0050101F0F2F8002008BDFFF756FE4A
:103710000028F4D11046DFF808C000DFF5E700BF4D
:10372000D5330408024608B5EFF305833BB11046D4
:103730006FF0050101F0DAF86FF0050008BDFFF742
:103740003DFE0028F3D11046DFF804C000DFF5E7A6
:1037500051340408024608B5EFF305833BB1104627
:103760006FF0050101F0C2F86FF0050008BDFFF72A
:1037700025FE0028F3D11046DFF804C000DFF5E78E
:10378000F9340408024608B5EFF305833BB110464F
:103790006FF0050101F0AAF86FF0050008BDFFF712
:1037A0000DFE0028F3D11046DFF804C000DFF5E776
:1037B000BD350408EFF310832BB9EFF31180003807
:1037C00018BF01207047012070470C30D0E85F3FE0
:1037D00013B9BFF32F8F04E05A1EC0E8512F01B177
:1037E000F4E798B2003818BF0120704730B500F1F7
:1037F0000C02C189D2E85F3F994202D8BFF32F8FF4
:1038000004E05C1CC2E8554F05B1F3E7C0899BB2E8
:10381000984294BF0020012030BD0000F8B50E464C
:103820004FF6FE73411E0546994201D8B04207D2B9
:103830006FF003010024002001F05EF82046F8BD7F
:103840001AB39468176844B114F0030302D1D26824
:103850000F2A0ED86FF00801ECE7D368002BF9D1DE
:10386000114BD3F8980090B1FFF7BEFA0446A8B107
:103870000123F622A370002367602270A3600B4A25
:10388000094BA681E5819A66D8E71746E8E7012249
:103890001021D3F88000FFF733FAE7E76FF0040157
:1038A00001F02AF8CAE700BF280C002421390408D7
:1038B00070B5054610B10378F62B07D028466FF097
:1038C000030101F019F86FF0030070BD836863B164
:1038D000284600F095FA00226FF0020100F040FB4C
:1038E000A8680028F4D100F00FFBAB78002613F095
:1038F00001032E700FD0094B2946D3F8984024B10C
:103900002046FFF78BFA3046DFE7D3F88000FFF759
:103910002CFA2046D9E71846D7E700BF280C002428
:10392000836810B504465BB1FFF74FFF40B12046F6
:1039300000F066FA0022BDE81040114600F010BB0E
:1039400010BD38B5054610B10378F62B07D02846D0
:103950006FF0030100F0D0FF6FF0030038BD846802
:103960003CB100F04DFA0122002100F0F9FA0020EC
:10397000F4E7FFF73BFF38B928466FF0100100F07D
:10398000BBFF6FF00200E9E72046E7E738B50D46D8
:10399000044610B10378F62B07D020466FF00301E0
:1039A00000F0AAFF6FF0030038BDFFF70EFF68B903
:1039B00075B12946632000F01FFC20B1064B20465C
:1039C000596900F00BFA6FF00100EDE70020EBE71A
:1039D0006FF00200E8E700BF280C002410B5044691
:1039E000EFF3058333B100206FF0050100F084FF91
:1039F000002010BDFFF7DEFE0028F4D12046DFF8DE
:103A000008C000DFF5E700BF1D38040810B5024606
:103A10000C46EFF3058343B182B910466FF0030102
:103A200000F06AFF6FF0030010BDFFF7C3FE00282F
:103A3000F2D11046DFF820C000DFF5E71378F62B4F
:103A4000EBD1002CE9D11046FFF7BFFE002814BFD0
:103A500000206FF00200E7E78D39040810B5044636
:103A6000EFF3058343B184B920466FF0030100F002
:103A700043FF6FF0030010BDFFF79CFE0028F2D15A
:103A80002046DFF830C000DFF5E72378F62BEBD1D6
:103A90002046FFF7ABFE20B1204600F0B3F800202F
:103AA000E9E720466FF0100100F026FF6FF00200FA
:103AB000E1E700BF43390408024608B5EFF3058388
:103AC0003BB110466FF0050100F016FF6FF00500E6
:103AD00008BDFFF76FFE0028F3D11046DFF804C0E1
:103AE00000DFF5E7B138040810B5D0E85F3F5A1C95
:103AF000914200D80022C0E8542F04B1F5E798B2F3
:103B000010BD000038B51A4C00F08CFFE36801339B
:103B1000E360236D03B1984700F09EF9002000F0A8
:103B2000F3F9236C1BB3A26BA1698A4202D0A16393
:103B3000E3631CE0E36BB3B9237A022B17D1656A08
:103B4000ADB195F9201092F9203099420FD1284655
:103B500000F05FF9A06B00F077F9284600F0CAF991
:103B6000236CA563E4E7013BE363002BE4D038BD9D
:103B7000280C002470B5224C04F1560504F15A06B5
:103B8000B4F85410D5E85F3F13B9BFF32F8F04E0AA
:103B90005A1EC5E8502F00B1F4E79BB25BB3304624
:103BA000FFF7A2FFE36D53F8200020B30378F13B49
:103BB000082BE5D801A252F823F000BFE13B04082E
:103BC000813B0408E73B0408813B0408813B04086F
:103BD000EB3B0408EF3B0408813B0408F33B04087B
:103BE000236E9847CCE7636EFBE7A36EF9E7E36EBD
:103BF000F7E7236FF5E70020BDE8704000F084B9D7
:103C0000280C002470B5164C0546B4F8541004F185
:103C10005602D2E85F3F994202D8BFF32F8F04E0EB
:103C2000581CC2E8560F06B1F3E79BB2994205D87B
:103C300029460220BDE8704000F008BE04F158009B
:103C4000FFF752FFE36D43F82050637A23B9054B29
:103C50004FF080525A6070BD0123A372FBE700BF92
:103C6000280C002400ED00E0EFF310832BB9EFF3F4
:103C70001180003818BF0120704701207047037879
:103C8000F12B00D07047C068F9E7000001230A4A11
:103C900090F9201043701C32936810B51BB193F952
:103CA00020408C4205DCC0E90232906003B1D8604C
:103CB00010BD1A469B68F1E7280C0024014B586997
:103CC000704700BF280C0024002310B50380044671
:103CD00083789A0708D513F0100F016B0E4B0FD0A5
:103CE000D3F88400FFF79AF8A378DB0712D50A4BC4
:103CF0002146D3F8880038B1BDE81040FFF78EB8F0
:103D0000586FFFF732F8EFE7D3F88000BDE81040B6
:103D1000FFF72BB810BD00BF280C002408B500F039
:103D2000FBFDDFF810C000DF4FF0FF31002000F096
:103D3000D1FDFEE7DD42040810B5C469621CD0E97C
:103D400004310AD103B1596142691AB113610023E8
:103D5000436101E0064A136310BD1BB1DA69596182
:103D60002244DA614269002AF0D1014AD362F3E7C2
:103D7000280C0024930710B502F0010422D400F1AE
:103D8000280384B153E8000F00EA01028A4203D0FD
:103D9000BFF32F8F002005E020EA010243E8002452
:103DA00004B1EFE710BD53E8000F084203D1BFF3A1
:103DB0002F8F002005E020EA010243E8002404B12F
:103DC000F1E7EFE7806A01EA00031CB18B4218BFFC
:103DD0000020E7E7002B08BF0020E3E791F920204F
:103DE000836810B51BB193F92040944205DAC1E90C
:103DF0000230816003B1D96010BD18469B68F1E7BD
:103E000083689A68826002B1D06000221846DA6046
:103E10007047C2682AB18368936003B1DA600023F7
:103E2000C360704710B5044664B12378F12B07D006
:103E3000FFF7EFFF01462046BDE81040FFF7CEBF79
:103E4000E468F1E710BD000001230146437001481A
:103E5000FFF7C4BF440C002438B5164DEC6A44B3D8
:103E6000E369013BE36123BB6378732B06D009D878
:103E7000532B0BD003F0DF03432B0DD12046FFF76C
:103E8000FEFE09E003F0EF03832BF6E72046214610
:103E9000FFF7F5FEFFF70CFC2046FFF7BAFFFFF730
:103EA000D3FF246924B1E369002BDDD000236361D3
:103EB000EC6238BD280C002490F82230826B13F09D
:103EC000100F0CBF6020202010447047074B596929
:103ED00051B10B6B8A6B934203D21A68044B9A421E
:103EE00002D0012000F0B2BC704700BF280C0024B3
:103EF000A52E5AE208B502234370024B9861FFF7E2
:103F0000E5FF08BD280C0024144B10B55969044680
:103F10001A7AA0B9022A1FD15C6AECB194F9202068
:103F200091F920309A4217DD2046FFF772FF0846CC
:103F3000FFF7ACFE2046BDE81040FFF7DBBF022ACA
:103F400005D190F9202091F920309A42EFDC2046EB
:103F5000BDE81040FFF778BF10BD00BF280C00245B
:103F600038B505461446FFF7A7FF01602846FFF75E
:103F7000E3FE1CB1BDE83840FFF7C6BFBDE83840DE
:103F8000FFF762BF10B543780446332B0CD1416A6A
:103F900090F82320FFF7EEFE014628B120460022CC
:103FA000BDE81040FFF7DCBF10BD70B5044620B17E
:103FB0000378F12B01D1002908DA6FF003056FF0C7
:103FC00003012046FEF744FC284670BD4378042BCD
:103FD00006D16FF002016FF00205FEF739FCF3E73E
:103FE00000F1280353E8002F42EA010543E8005698
:103FF00006B1F7E74378332BE6D1416A90F82320E6
:10400000FFF7B8FE01460028DED094F823300122E5
:104010009B0756BF656A054620EA05052046FFF75F
:104020009FFFD1E72DE9F04F85B08046029128B976
:104030006FF00301002400F04DFCABE0002A48D0F3
:1040400094689669D2E900A3D2E904B5019344B11A
:10405000A10702D1D268432A06D86FF008010020D8
:10406000E8E7D268002AF8D1BBF1000F08D01BF0B6
:10407000070F02D1002D40F0A9806FF00A01EEE792
:104080002EB1721E372A03D96FF00B01E7E718260D
:10409000002D40F09F804CBB524CD4F88800F0B10A
:1040A000FEF7A2FE0446002800F08D800127DFF80D
:1040B0003491BBF1000F32D1D5B94B4AD9F8840005
:1040C000556DA8B1FEF790FED0B147F010078346BA
:1040D00021E092469346182615460192DCE701221C
:1040E0004421D4F88000FEF70BFEDBE70027DEE773
:1040F0005A462946D9F87400FEF702FE0028E6D198
:10410000002F55D0D9F88820002A47D02146002416
:104110001046FEF783FE47F00207002C53D040F212
:10412000F112019B76B2FD2122800022E370A7707C
:10413000C4F804A084F8206084F821606184656379
:10414000C4E90222C4E90422C4E90622C4E909221E
:10415000C4E90B2BA5F140025A44C4E90E28234AB6
:10416000CBF80020204A1268530723D4A36B3422D3
:104170000021184619F0C4FF1D4A1E4BC0E90D2846
:104180004FF08072C263029A02622046C9F8603022
:10419000FFF7BAFE204605B0BDE8F08F2146D9F8FA
:1041A00080000392FEF7E1FD039A14469346B2E7BE
:1041B0003C46B0E725F00302CC210BF10400443A61
:1041C00019F09EFFD2E76FF0040148E7002E7FF45C
:1041D00058AF18266A077FF450AF472D3FF65BAF04
:1041E0004BE700BF280C0024CC440708A52E5AE258
:1041F0001D3D0408853F040838B51E4C237A022B68
:1042000034D1636A002B33D063694A1C587015D1CE
:10421000226B00216AB94FF0FF30C3E90421D86155
:1042200051B10B611448FFF7EBFDFFF763FE01206E
:1042300038BD11461269EDE72363F3E7E26A002017
:1042400012B1D569A9420BD2D961C3E9042058B192
:104250000361002AE6D0D0695361401AD061E1E7DA
:104260001046491B1269EBE7E362F2E70020DFE743
:104270001846DDE7280C0024440C0024F8B5164B42
:1042800005460F4616465C693CB920466FF00701AB
:10429000FEF7DEFA4FF0FF30F8BD002807DA2046BF
:1042A0006FF00301FEF7D4FA6FF00300F4E70A465B
:1042B00001462046FFF75EFD0028EDD14EB13146A4
:1042C0003320656284F82370FFF796FF6FF00100DA
:1042D000E2E76FF00200DFE7280C002438B5154D47
:1042E0002B7A022B25D16B6A1BB36C69E06AFFF74E
:1042F000BDF9A06918B100221146FFF731FEEFF3B6
:1043000009830D48A363FFF77BFDFFF7F3FD00234F
:104310006B61E278D20704D42046BDE83840FFF74D
:10432000D3BC0422E36062706B6BA36003B1DC60FA
:104330006C6338BD280C0024440C002438B50446B6
:1043400010B10378F12B07D020466FF0030100F085
:10435000C1FA6FF0030038BD437803F00F03022B5E
:1043600025D0032B32D0012B35D1FFF752FDE06A67
:10437000FFF77CF9A06918B100221146FFF7F0FDA4
:104380006378022B2AD1EFF309831C48A363FFF75C
:1043900037FDFFF7AFFD1A4B00225A61E07810F0AD
:1043A00001051FD12046FFF78FFC0020D3E7144BF7
:1043B0001A7A022A02D15B6A002BD8D16FF002016F
:1043C000204600F087FA6FF00200C4E7FFF721FDF6
:1043D000FFF7B2FCCBE76FF00201F2E70020FFF736
:1043E00093FDDBE70423064A63700023E360536B0D
:1043F000A36003B1DC605463D7E700BF440C002422
:10440000280C002438B50B4C00210B48A26DFFF797
:1044100009FE0A4D636EA8624BB1E26D00210848A7
:10442000FFF700FEA864003818BF012038BD012046
:10443000FCE700BFCC44070845480408280C0024CA
:104440000146040810B50446EFF3058333B100209C
:104450006FF0050100F03EFA002010BDFFF704FCEC
:104460000028F4D12046DFF808C000DFF5E700BFE0
:104470002540040808B5EFF3058313B1054B5869CF
:1044800008BDFFF7F1FB0028F8D1DFF80CC000DF12
:10449000F6E700BF280C0024BD3C040810B5044614
:1044A00000F046FAEFF305833BB120466FF00501BB
:1044B00000F010FA6FF0050010BDFFF7D5FB0028E3
:1044C000F3D12046DFF804C000DFF5E73D430408E0
:1044D00038B502460D46EFF305834BB192B96FF044
:1044E00003046FF003011046FEF7B2F9204638BD11
:1044F000FFF7BAFB0028F1D11046DFF844C000DF17
:104500000446F3E71378F12BE9D1002DE7DB53786C
:10451000042B07D16FF0020110466FF00204FEF782
:1045200097F9E3E702F1280353E8001F41EA050485
:1045300043E8004000B1F7E71046FFF763FBD5E71B
:10454000AB3F040810B50446EFF305833BB10020F0
:104550006FF00501FEF77CF96FF0050010BDFFF765
:1045600083FB0028F3D12046DFF804C000DFF5E725
:104570007D42040830B50C4D00226B6C13B11C69F0
:104580008C420AD90161C0E902231BB11C69986001
:10459000641A1C612AB1D06030BD1A46091BDB6861
:1045A000ECE76864F8E700BF280C002470B5134DF1
:1045B0006C6C04B323690126013B23612369D3B9E1
:1045C000E3680BB1A2689A606B64002304F11801E0
:1045D000E86C1A46FEF776FE18B12146032000F07B
:1045E00035F9E378012B07D161692046FFF7C2FF57
:1045F0006C6C002CE2D170BD6670F9E7280C0024C9
:104600000B4B0C4C07B51A6E0821586EFEF742FE94
:10461000094BE06423654FF0FF3300226946E06CEC
:10462000FEF790FE0028F6D1DDE900309847F2E76A
:10463000CC440708280C0024AD45040808B5094AF5
:10464000094B1A60094B9B1A094A1360094A0A4B25
:104650001A600A4B9B1A0A4A136000F05FF800F0D8
:1046600091F800BF00FC0724143500240000082442
:104670001035002430F700245CE1002400FC0724FE
:1046800058E1002438B50E480B250E4B1C2445601C
:1046900003600D4BC4608360FFF72CF80B4B186070
:1046A0000B480C4BC460C0E900350B4B8360FFF72F
:1046B00021F80A4B1860BDE8384018F0E1BE00BF91
:1046C000E034002498450708F4340024F034002432
:1046D000B0340024A5450708C4340024C0340024A5
:1046E000FDF7B6BC024B4FF0FF311868FFF71AB860
:1046F000F0340024014B1868FFF72CB8F034002484
:10470000024B4FF0FF311868FFF70CB8C03400249B
:10471000014B1868FFF71EB8C034002408B504F038
:104720009FFA0C4B0C4998684FF00053C21802F1E5
:104730006042126843F8042B8B42F7D1054B4FF0CF
:1047400000529A6014F0B8F915F042FCBDE8084038
:1047500000F015B800ED00E09802002070477047A7
:1047600008B500F043F8FFF7F9FFFFF78BFFFFF7FD
:10477000F6FF05F069FABDE80840FFF7B1BFFEF7A4
:104780000DBA0000114C124B23614FF400436361DA
:104790004423E3600F4BA3601823A3610E4B07B5BE
:1047A000224600210D482360FFF74CFE034628B93E
:1047B00022460B4900900B4805F056FAFEF706FA20
:1047C000002309491A460093F5E700BF18B50024F5
:1047D000183500243CB50024AF450708614704089C
:1047E000B44507081D010180D04507081FB5064BD9
:1047F0006C460FCB84E80F002046FEF77BFF034B8F
:10480000186004B010BD00BFF845070880B500244B
:1048100073B506460C46154605F018FA58B9063425
:10482000324628462ABF054B054953F82410002379
:10483000009305F019FA02B070BD00BFBC4707082D
:104840001047070808B500F0F7F8000007B5002387
:10485000411E024600930023042919D8DFE801F025
:1048600003080C10140001220B490C4805F0FCF958
:1048700002220B490B48F9E703220B490B48F5E7E5
:1048800004220B490B48F1E705220B490B48EDE7E1
:104890000B490C48EAE700BF0846070825010280DB
:1048A00029460708260102804E4607082701028094
:1048B0008346070828010280BE4607082A010280B5
:1048C000FE460708000102800146014AFFF7A0BF2B
:1048D00031010180014AFFF79BBF00BF3201018017
:1048E000014AFFF795BF00BF37010180014AFFF77A
:1048F0008FBF00BF3301018011F1110F02D0024AB6
:10490000FFF786BF704700BF34010180014AFFF7FF
:104910007FBF00BF3801018010B5FFF7ABFD034B2F
:104920001B6813B1BDE81040184710BDA0B50024A6
:10493000024B1B6803B11847704700BFA0B50024A5
:10494000024B987A003818BF01207047280C0024C9
:1049500008B5FEF77FF90022064905F04DFBC31CA0
:1049600004D98B220449054804F0E6FEBDE808405E
:10497000FEF784B941490408D447070809480708E5
:10498000B0F57A7F10B50C4604D0322219491A4886
:1049900004F0D2FE04F08EFB0028184A16DB00F16A
:1049A0006043F02103F5614383F80013916800F13F
:1049B000100341F82340BFF34F8F926852F8233021
:1049C0009C420AD03F220B490D48E1E700F00F035B
:1049D000F021043B13441976E8E7002807DB0123A4
:1049E000410900F01F00074A834042F821300020AF
:1049F00010BD00BFD44707083648070800ED00E0A7
:104A00004348070800E100E008B505F07DFABDE87D
:104A1000084004F072BC0000014B186804F0A2BC0E
:104A200088E00024014B186804F05EBC88E0002494
:104A300008B504F03FFB08BD024C08B52368984751
:104A4000FCE700BFCC0C002403680BB108461847F4
:104A50007047CB68C3600BB15B68184770470000B4
:104A6000044B0022C3E900229A601A61024ADA600C
:104A7000704700BFA4B50024494A040838B50D4664
:104A800000210446102200F8011B19F039FB2046D2
:104A9000658238BD42F60211024808B5FFF7EEFF05
:104AA00008BD00BFB8B50024C36810B52BB94FF4DA
:104AB000FD720449044804F03FFE1B68BDE8104045
:104AC000184700BF704807089F48070808B5FBF75C
:104AD0006DFE08BDC36810B52BB94FF4FD720449D3
:104AE000044804F029FE1B68BDE81040184700BFC9
:104AF000704807089F48070810B40168D0E90132E0
:104B0000541001EB6200D20748BF0A595DF8044B0C
:104B100048BFD35818470000C36810B52BB94FF4ED
:104B2000FD720449044804F007FE1B68BDE810400C
:104B3000184700BF704807089F48070810B504468B
:104B400006F09CF8204610BD10B5084C204606F033
:104B500055F800232046064A84F82430236305498B
:104B6000C4E90A33BDE8104005F07ABBCCB5002497
:104B7000000000243D4B040802686F4B9A42F0B5D8
:104B800093B040F0D68011F0FDFF6C4A0023C2F8CC
:104B90008430BFF34F8F536923F480335361BFF3E5
:104BA0004F8FD2F8803043F6E074C3F3C900C3F3EB
:104BB0004E335B0103EA0406014646EA817501397A
:104BC000C2F87452F9D2203B13F1200FF2D1BFF397
:104BD0004F8FBFF36F8F5A4B012500244FF40046CF
:104BE000D3F8E0200DA95748802742F00102C3F80E
:104BF000E020D3F8E02002F001020192019AD3F8FC
:104C0000E02042F00402C3F8E020D3F8E02002F0F4
:104C100004020292029AD3F8E02042F04002C3F864
:104C2000E020D3F8E02002F040020392039AD3F888
:104C3000D82042F40042C3F8D820D3F8D82002F498
:104C400000420492049AD3F8D82042F48032C3F888
:104C5000D820D3F8D82002F480320592059AD3F8F0
:104C6000D82042F40032C3F8D820D3F8D82002F478
:104C700000320692069AD3F8E02042F40072C3F89C
:104C8000E020D3F8E03003F400730793079BCDE9ED
:104C90000D65CDE90F440CF06FFE30230DA92A48B5
:104CA0000D930CF069FE2A46102127480CF04CFFAA
:104CB0002A46202124480CF047FF0DA923480D97D0
:104CC0000CF05AFE2A463946204802270CF03CFFD9
:104CD00019200BF0DBFC314622461A480CF034FF59
:104CE00064200BF0D3FC2A46314616480CF02CFF0A
:104CF00003264FF460530B2508A915480A94CDE903
:104D00000837CDE90B650CF037FE322308A90E48B1
:104D10000C95CDE90837CDE90A460CF02DFE862327
:104D200008A90A480C95CDE90837CDE90A460CF0E8
:104D300023FE13B0F0BD00BF0080024000ED00E094
:104D4000004402580024025800080258000002588B
:104D50000018025830B570B1CC6864B18A6852B19D
:104D60000B6943B10D6849688560C1608361C0E922
:104D70000424002030BD4FF0FF30FBE773B5002363
:104D800046680446019366B1A36998470546A3693E
:104D90009847431BB3F5FA6FF9D9012300256360E7
:104DA00027E0836803B198472023002523606369C7
:104DB00001AA12213046984700281DDB019B03F011
:104DC0001F03B3421AD10025266020681F2833D85C
:104DD0007DB923694FF400422946984700282EDB0D
:104DE000636901AA29462068984700280ADA6FF00B
:104DF0000405284602B070BD6FF004050136202E70
:104E0000D5D1E2E7A36998470646019B1B0402D46B
:104E1000002DB9D0EDE7A3699847801BB0F5FA7F64
:104E200007D8636901AA0021206898470028ECDAB6
:104E3000DDE76FF00105E8E76FF00205D9E76FF0F5
:104E40000305D6E737B500254369044601AA0121C9
:104E5000006801959847A84203DA6FF0040003B098
:104E600030BD636901AA0121206898470028F4DB5E
:104E7000019B5B072CD5636901AA294620689847E6
:104E80000028EADB019BDD040ED403F40452B2F5E2
:104E9000045F01D10220E2E7980401D50320DEE798
:104EA000D90513D50420DAE7636901AA1F21206818
:104EB00098470028D1DB019BDA040BD503F01C03D3
:104EC000182BE7D0082BE9D0142BEBD00520C6E730
:104ED0000120C4E70620C2E740F2DC507047002002
:104EE00070470620704770477047C0F83C11704704
:104EF0000020704713F056B8F0B500F1D4069FB00B
:104F000004460D46304605F081FE782200216846B1
:104F100019F0F6F800206A462B460146B3B9144949
:104F200032224860201DC1F808D00CF094F8B0FA85
:104F300080F46409AB7B012B02D9284600F024FDE4
:104F4000304605F081FE20461FB0F0BD0A290DD085
:104F50005F6817605F893844576009B142F8042CD4
:104F60001B6803B9936001310C32D7E70024E1E7F5
:104F700028B60024032A0846024928BF032218F055
:104F8000C1BF00BF4B4E070805F07EB84FF4FD725D
:104F90000249034808B504F0CFFB00BF704807087A
:104FA0009F48070810B40168D0E90132541001EBA2
:104FB0006200D20748BF0A595DF8044B48BFD35876
:104FC000184700000A4B10B50446036000F59670C0
:104FD000FBF7ECFB04F58E70FBF7E8FB04F1F8003F
:104FE00005F04CFE04F1D40005F048FE204610BD4B
:104FF0004849070813B500F596700C46884206D05C
:105000000190FBF7D3FB21460198FFF722FD02B088
:1050100010BD13B500F58E700C46884206D0019085
:10502000FBF7C4FB21460198FFF713FD02B010BD4A
:1050300010B5064C06492046FFF78CFE2046FFF7C8
:105040009DFEB0FA80F0400910BD00BF08B60024F4
:10505000D00C00240148FFF7F5BE00BF08B60024BD
:105060000238032815D8DFE800F0020A0C114FF4CB
:1050700000530B604FF480430120136070470023FE
:10508000F7E74FF400530B600023F5E700230B60B4
:10509000F2E700207047000038B500250A4B0446AF
:1050A000D43040F8D43C40F8485C05F0A7FD04F14A
:1050B000F80005F0A3FD2046C4F82851C4F8385183
:1050C000C4F8405138BD00BF4849070830B5051D38
:1050D00085B000230C46284601A900930CF088F8FF
:1050E00018B14FF0FF3005B030BD694628460CF0CE
:1050F000C9F80028F5D128460CF0E0F800990029FD
:1051000011DD019B03F01F020A44BFF34F8F0E48CD
:105110001A44C0F85C322033D11A0029F9DCBFF3FD
:105120004F8FBFF36F8F4FF4C172BDF80010002096
:1051300000F05CFC20600028D5D0BDF8002001996B
:1051400000F0DAFC0020CEE700ED00E073B5044685
:10515000002600F1F8052846019605F057FD01A943
:105160002046FFF7B3FF002805DA284602B0BDE865
:10517000704005F069BD019941B1D4F828310BB9EF
:10518000FFF704FF1B6804F58E709847284605F06A
:105190005BFDE0E738B50E4C05462368BFF35B8F37
:1051A000DA0708D4204605F073F820B1094B2046F1
:1051B0001D6005F08FF8074C4FF0FF3200210120F1
:1051C000FFF7C0F9C307F7D52068FFF7BFFFF3E784
:1051D00004B60024A4B700243D200022072108B50E
:1051E0000BF0FEFA3D20BDE808400BF02BBB002081
:1051F000704700000022074BD3F80038027080226D
:1052000043714270E12282701A0CC2701A0A027154
:10521000704700BF00E0F11F10B50446FFF7E7FF3D
:1052200020B92046BDE81040FFF7E4BF10BD0000E4
:105230007FB504460BF026FB27490125274B68461E
:10524000ADF800500434CDE901134FF0807303939F
:105250000BF036FB40F201132148ADF80030214B32
:10526000CDE901034FF48033684603930BF028FB2C
:1052700004200BF015FB1C4B68462360FFF7CCFFA6
:105280001A4B257223611A4BC4F804D0E36040F234
:10529000F453636120460CF06BFA0546D0B9154E05
:1052A00001463022301D18F02BFF212333604FF4CC
:1052B00040337361104E29460135324600232046A3
:1052C00006F5BF660BF03AFE042DF4D1FFF7B0FEF1
:1052D00004B070BD0020FBE70000043009000003AB
:1052E000004004300D000003008002400000043044
:1052F0000001043028B6002400040430F0B505464F
:105300008BB004F0ABFE2846FFF792FF064600285C
:105310004BD02022002102A818F0F2FE244B4FF4BB
:105320008060019318F09EFA05F1900301AA2946C6
:10533000059003934FF480631E480693442304931F
:1053400028230793FFF77EF8C5F88C0003F03EF999
:10535000194B102107460493184B01950293002323
:10536000039302F0D1FE0446A0B101A9FFF771FB3F
:105370002046C82103F069F82046C82103F068F8E8
:1053800020460F4903F067F822460E49384602F0DE
:1053900079FF044601A8C5F84441FBF707FA0A2043
:1053A000FDF746F82846FFF717FF30460BB0F0BD73
:1053B000B84807089551040834490708C55404083B
:1053C000CD4A0408A94A0408084608B5FFF724FF97
:1053D000012008BD10B50B4C2368BFF35B8FDB07C2
:1053E0000ED4204604F054FF50B10748FFF754FE96
:1053F000064A0749044804F033FF204604F06AFFD8
:10540000014810BD00B600245CB600240000002452
:10541000C54F040837B50D4604460192FFF7DAFF81
:10542000019B2A46214604300CF034F8003818BF9E
:105430000120404203B030BD37B50D46044601920D
:10544000FFF7C8FF019B2A46214604300CF050F8B4
:10545000003818BF0120404203B030BD08B5FFF747
:10546000B9FF04300CF048F9002008BD08B5FFF77B
:10547000B1FFD0F88C0020B10121BDE80840FFF752
:1054800027B808BD08B5FFF7A5FF0430BDE8084000
:105490000BF056BF002307B51A4602490248009395
:1054A00004F0E2FBCA48070805001180002307B595
:1054B0001A4602490248009304F0D6FBFE4807084A
:1054C00005001180F0B59DB00446FFF7C3FD01282B
:1054D0000546D4F840712EDD012F18DC01AA02A97F
:1054E000FFF7BEFD18B94FF40053CDE90130261D7A
:1054F00003A930460CF02EF8019B03A9304609930E
:10550000029B08930CF0ECF830460BF035FDD4F814
:10551000383143B1012D0ADD012F04DC012104F5EE
:105520009670FFF7F9FAC4F840511DB0F0BD012F95
:10553000F9DD0021F3E7012FE9DD084B4FF00052C0
:10554000C3F88420BFF34F8FBFF36F8F201D0BF084
:105550005AFD2046FFF740FED9E700BF00E100E01A
:10556000130911D051F804CB40F804CB51F804CB07
:1055700040F804CB51F804CB40F804CB51F804CBED
:1055800040F804CB013BEDD112F00F0305D011F828
:1055900001CB00F801CB013BF9D170470222002377
:1055A00073B504460E4600681146FDF70BF9021E5E
:1055B00001DB930709D4002316491748009304F030
:1055C0004BFB4FF0FF3002B070BDFDF715FB94F8B8
:1055D00024300546012103F10A020133206803F05B
:1055E000070344F8226084F82430FDF7A3F894F808
:1055F000243094F82520013303F00703934203D1AC
:1056000002212068FDF7C6F82846FDF70BFB0020B5
:10561000D9E700BF844907080F01038013B504468A
:105620004FF0FF310068FEF77DF830B100232246CD
:1056300003490448009304F017FB02B010BD00BFFB
:105640009C4907081501038013B504460068FEF75E
:1056500081F830B10023224603490448009304F046
:1056600003FB02B010BD00BFB24907081701038059
:10567000094B07B54FF0FF311868FEF753F830B10A
:105680000023064906481A46009304F0EDFA01206B
:1056900003B05DF804FB00BFA8B70024CA4907089F
:1056A00015010380074B07B51868FEF753F830B1B2
:1056B0000023054905481A46009304F0D5FA03B0C3
:1056C0005DF804FBA8B70024E2490708170103802E
:1056D00070B5064608200D4600F00AF9044660B190
:1056E000012301460370C0E901650548FFF756FF35
:1056F00028B12146082000F007F94FF0FF3070BDB7
:10570000ACB700242DE9F041044600286FD0830790
:1057100005D0FFF7ADFFBDE8F041FFF7C3BFDFF8ED
:10572000E080A0F10805D8F80030AB42F1D8314F45
:1057300000F10C033A689A42EBD32F48FFF76EFF53
:1057400014F8043C1BB92C48FFF77EFFE1E734F85E
:10575000086CB6F57A5FF6D834F8062CB2F57A5FA5
:10576000F1D8D8F80030E91A89B2914202D09A5A99
:105770008A42E8D19819D7F800C0604502D0428823
:105780008A42E0D1002204F8042C1C4A1768AF4278
:1057900088BF1560854210D0077977B960450CD075
:1057A0001768B842985B24F8080C985B08BF15602E
:1057B000B0F57A5F1CBFC018418034F8061C581839
:1057C00085420FD006796EB91668B54208BF1060E1
:1057D00034F8082C5A5234F8082CB2F57A5F1CBF02
:1057E0009B1859800448BDE8F041FFF72DBFBDE884
:1057F000F08100BF2CB80024F8B70024F4B70024CF
:1058000028B800242DE9F041002850D0C41C24F011
:105810000304A4B20B2C04D9B4F57A5F02D900209A
:1058200045E00C24A042FAD826486FF00708FFF79D
:10583000F5FE254F254BC4F57A5E3A681968531A70
:105840009BB2734503D31F48FFF7FEFEE7E7CD1871
:10585000C85A95F804C0BCF1000F30D1A8EB03067C
:105860000644A6422BD304F1140E764521D3083406
:105870001C44A6B211FA84F484F804C088536380EF
:1058800001232E802B718B5BB3F57A5F01D00B4423
:105890005E80AA4206D10E4B1B68107908B1934274
:1058A0000AD13A600748FFF7CFFE05F10800BDE8CE
:1058B000F08101232B71ECE712880A44EDE70346DF
:1058C000BFE700BFF8B70024F4B7002428B80024CD
:1058D0002CB8002410B50446FFF7CAFEA3681C6864
:1058E0000CB122681A60FFF7DDFE204610BD0000F3
:1058F0000D2804D8034B53F82000FFF7EBBF00201E
:10590000704700BFA44A07080D2838B50C460DD8CB
:1059100061B1074B53F82050FFF7AAFEAB681A6835
:1059200022601C60BDE83840FFF7BCBE38BD00BF38
:10593000A44A070808B5FFF79BFE084B00221A701F
:10594000FFF7B0FE064B186800B908BD436F1BB1E6
:10595000BDE8084000F00AB9C068F5E7CCD10024E2
:10596000D0D1002470B506460C200C461546FFF732
:10597000BFFF40B100230481448143730573C0E934
:1059800000360123C38170BD70B5044660B30025A5
:10599000FFF76EFEA67B013EF6B2A673FFF782FE0E
:1059A00056B9627B26689207237B09D52369204676
:1059B00098470135EDB20EB9284670BD3446E7E789
:1059C00003F00F03022B04D121460D20FFF79CFFAB
:1059D000EFE7012B02D121460C20F7E7002BE8D19D
:1059E0002046FFF78FFEE4E70546E5E7B2F5C17F05
:1059F0002DE9F04706460F4685B230D007D822F091
:105A00004003012B26D000242046BDE8F087B2F5E4
:105A1000207FF8D10335CB1C25F0030523F00303C9
:105A20001D44ADB205F110009D4280B2EBD383421C
:105A3000E9D8FFF7E7FE04460028E5D00644002336
:105A4000078113360360284B26F003064781C360A5
:105A50004660D9E70020BDE8F047FFF783BF002686
:105A6000DFF890903446B0460D20B246FFF740FF75
:105A70000646C8B91D4DFFF7FBFD01232F782B709B
:105A8000FFB2FFF70FFE4FB931461948FFF720FE6E
:105A900020B1FFF7EDFD2E70FFF704FE002CB2D011
:105AA0002046FFF771FFAEE7EB1C0544C0F800800D
:105AB00023F0030313350781C3F5147325F00305A1
:105AC000C0F80C909BB24560BB4228BF3B46438167
:105AD0003CB1CAF80000F91A00258FB2002FC3D1DB
