:020000041000EA
:1000000000B5314B212058609868022188439860E0
:10001000D860186158612D4B002199600221596107
:100020000121F02299502A49196001219960352057
:1000300000F042F80222904212D00621196600F028
:1000400032F8196E312119661A6600F02CF8196E13
:10005000196E196E052000F02FF801210842F9D120
:10006000002199601B491960002159601A491B48F9
:10007000016001219960EB2119662021196600F0C9
:1000800012F8002199601649144801600121996015
:1000900001BC002800D0004712481349086003C87B
:1000A00080F30888084703B5996A04200142FBD011
:1000B00001200142F8D103BD02B518661866FFF7AA
:1000C000F2FF186E186E02BD00000240000000181A
:1000D0000000070000035F0021220000F400001868
:1000E000222000200001001008ED00E000000000C8
:1000F000000000000000000000000000B364011ACE
:1001000000000420E3010010C30100102D5901106C
:10011000315901103559011039590110C101001030
:10012000C1010010C1010010C10100100107011040
:10013000C1010010C10100108507011091070110D5
:10014000CD010010CD010010CD010010CD01001037
:10015000CD010010CD010010CD010010CD01001027
:10016000CD010010CD010010CD010010CD01001017
:10017000CD010010CD010010CD010010CD01001007
:10018000CD010010CD010010CD010010CD010010F7
:10019000CD010010CD010010CD010010CD010010E7
:1001A000CD010010CD010010CD010010CD010010D7
:1001B000CD010010CD010010CD010010CD010010C7
:1001C00000BE00BE00BE00BE00BE00BE00F03FF894
:1001D000103800BE00202049086006C881F3088856
:1001E00010471E48006800282DD10CA40ECC002911
:1001F00002D000F010F8F9E719491A4A002000E08F
:1002000001C19142FCD1184988471849884700BE6E
:10021000FDE701C901C29A42FBD37047BCAC021092
:10022000C0000020A4380020ACE40210000004202C
:1002300000000420ACE40210001004200010042090
:100240000000000070470A4818F0BAF90047EFF3C1
:100250000580C0B27047000008ED00E0000000D04B
:10026000B0380020C81A0120C9020010BD62011078
:1002700057560000F8B5C046F8BC08BC9E4670470B
:1002800010B5064C2378002B07D1054B002B02D06C
:10029000044800E000BF0123237010BD50FD002082
:1002A00000000000A8420210044B10B5002B03D040
:1002B0000349044800E000BF10BDC0460000000034
:1002C00054FD0020A8420210164B002B00D1144B05
:1002D0009D46402292029A1A924600218B460F4672
:1002E0001348144A121A23F01FFF0F4B002B00D0A3
:1002F00098470E4B002B00D09847002000210400A7
:100300000D000D48002802D00C4815F0DAFF19F056
:1003100011FC2000290012F0F9F915F0CFFFC046BA
:100320000000080000000420000000006D260110FD
:10033000B0380020C81A0120C3620110000000007C
:1003400070B504000A4D0B4928000FF065FF0A2222
:10035000E1B228000FF0E7FF074B1A68A24205D070
:10036000012C02D10021054A11801C6070BDC046DD
:1003700030060120C8420210A416012042190120B3
:1003800010B510F083F904000B480DF017F80028A1
:10039000FAD010F07BF9094B001B9842F4D9084CB5
:1003A000084920000FF038FF0A22012120000FF039
:1003B000A0FF012010BDC04678FD0020E70300002B
:1003C00030060120B642021010B50B4C20000DF093
:1003D00060F900280CD1094920000DF0CEF9042362
:1003E000002806D020000DF00EFA0223002800D0CD
:1003F0000323180010BDC04678FD0020DD46021022
:1004000030B5204885B00DF044F91F4C002806D1C6
:100410001E4920000FF01CFF022005B030BD1C4912
:1004200020000FF015FF1B4D0021012228000DF0C8
:1004300055FC1949002814D0184B280019680DF0F4
:1004400047FD290001A80DF05BFC154D01A928000E
:1004500010F06FF801A80FF0A3FF2B68002B05D157
:10046000104920000FF0F4FE0620D6E70A22A96802
:1004700020000FF062FF290020000FF0DFFE0720B0
:10048000CBE7C04678FD002030060120DB42021099
:10049000EE42021084FD002009430210B015012035
:1004A000A415012028430210F8B5384D28000BF0A0
:1004B0001DF8374C37492200280015F0FDFE364E56
:1004C000364F310038000FF0BAFF354D22002900B9
:1004D000380015F0F1FE334F310038000FF0AFFF58
:1004E00022002900380015F0E7FE2F4F31003800B8
:1004F0000FF0A5FF22002900380015F0DDFE2B4F7C
:10050000310038000FF09BFF22002900380015F061
:10051000D3FE274F310038000FF091FF2200290051
:10052000380015F0C9FE234F310038000FF087FF67
:1005300022002900380015F0BFFE1F4F310038009F
:100540000FF07DFF22002900380015F0B5FE1B4F8B
:10055000310038000FF073FF22002900380015F039
:10056000ABFE174F310038000FF069FF2200290061
:10057000380015F0A1FE134F310038000FF05FFF77
:1005800029003800220015F097FEF8BD14FE002067
:10059000302A002051B40010AC590210B0150120CF
:1005A000A1030110A415012060160120541601209A
:1005B0003C16012048160120F4150120D81801200E
:1005C0006C140120EC180120E12130B5090285B03E
:1005D0001B480EF09BF9E1211A4C490220000EF055
:1005E00095F9FFF7CDFEFFF7CBFE002804D11649A1
:1005F00020000FF02DFEFEE7144D200029000FF023
:1006000027FEFFF7E1FE032804D0114920000FF078
:100610001FFEFEE7290020000FF01AFE01A80D4979
:100620000CF0DAFF0C4D01A928000FF082FF01A8A1
:100630000FF0B6FE290020000FF000FE05B030BD1F
:10064000E4090120300601205D4702107D470210B9
:100650009647021078FD0020D8180120F0B5334EDF
:1006600085B030000EF0CCFA09284BDD30000EF0DA
:10067000C7FA2F4C002847D10222210003A823F0FB
:100680001BFD00283ED12B4C2B4920000FF0E0FD34
:1006900030000EF02FFB294F386030000EF02AFB9F
:1006A000050030000EF026FBE9B2C3B20A2220009A
:1006B00001930FF034FE224920000FF0ADFD0A2215
:1006C000019920000FF02FFE019B1E4E2D021D43AD
:1006D0001D49200035800FF09FFD0A223968200057
:1006E0000FF007FE194920000FF096FD31880A220D
:1006F00020000FF0FEFD33880120002B00D10420E4
:10070000FFF71EFE05B0F0BD30000EF0F3FA2378BF
:10071000C0B28342AAD103AD30002B700EF0EAFACA
:100720006378C0B28342A1D16B70A5E7E4090120D0
:10073000362A00203006012078460210401701209A
:1007400086460210441901208A4602109146021082
:1007500073B51A4D1A49040028000FF079FD1949A4
:10076000194E002C17D00722684623F095FC002470
:100770006B460A22195D28000FF0D1FD01343100CB
:1007800028000FF049FD072CF2D1220069460F48DE
:100790000EF0B6F973BD07310722684623F07CFCE2
:1007A0006B460A22195D28000FF0B9FD01343100B3
:1007B00028000FF031FD072CF2D1E6E730060120CA
:1007C00061460210A842021043430210E4090120CE
:1007D000F7B516000F002A4D01902A4928000FF0A6
:1007E0001BFD0A22310028000FF07FFD280026495A
:1007F0000FF012FD1022310028000FF076FD2800C6
:1008000022490FF025FD390028000FF021FD204C72
:100810000222204920000EF073F96B46200019795E
:100820000EF028F9B31C1912C9B2200001930EF082
:1008300021F96B46200019790EF01CF932003900BD
:1008400020000EF05DF9310038000DF06FFE06005B
:10085000114928000FF0E0FC1022310028000FF0B1
:1008600048FD3112C9B220000EF004F9F1B22000A7
:100870000EF000F90222094920000EF041F9F7BDFF
:1008800030060120B7460210C6460210C9460210C3
:10089000E4090120362A0020CB460210342A002029
:1008A000F0B5D84C8BB000AFD74920000FF0B4FCA6
:1008B000D64920000FF0CCFCD54D2E78012E08D162
:1008C000D44920000FF0C4FC022301223B771233ED
:1008D0007CE0022E5BD1D04920000FF0B9FCCF4B59
:1008E000CF481988012302398B4206DAC218EE5C20
:1008F000013A01331670DBB2F6E7CA4ECA4930003E
:100900000FF01FFEC94920000FF086FC0025C34BE5
:100910001B88033B9D4218DAC14B1022595D200011
:100920000FF0FDFCBE4B08205A5D14233818C04957
:10093000C0181AF003FA08221423BA18D11830008C
:1009400001350FF03CFEEDB2E1E720000FF06EFC48
:10095000B84920000FF060FC310020000FF06EFC61
:10096000FFF74EFD07280DD1B34B05389A6819687B
:1009700092B2FFF72DFFB14920000FF069FCBD4690
:100980000BB0F0BDAE4920000FF062FCFEE7062E72
:1009900020D1AC4920000FF05BFC0C214823A04A79
:1009A000A9480CF0BFFEA949002808D00B220A2153
:1009B000A7480AF0EDFD002800D085E7A5492000F2
:1009C0000FF046FC042301223B77103308217918ED
:1009D000C918D0E3082E6AD19F4920000FF038FCD7
:1009E0000823FA189049D0180FF029FD8B4B19886D
:1009F000012302398B4208DA0C22BA18D218E85CBB
:100A0000013A01331070DBB2F4E7944920000FF093
:100A100003FC0025814B1B88033B9D4223DA0C23FA
:100A2000FB185E5D1022310020000FF05EFC0823F1
:100A300032008B49F8181AF081F908223100142687
:100A4000BB1898190FF01AFD0822BB18B81899198D
:100A500080180FF0A2FD0822BB18981901350FF07D
:100A60009FFCEDB2D6E7082520000FF0DFFB7D49A3
:100A700020000FF0D1FB7B19591920000FF0DEFB8D
:100A80007B1958190FF0CEFD010071482C000AF0B7
:100A900099FD022379193B771233C91801220320EB
:100AA000FFF796FE7B1918190FF07AFC67E7092EFD
:100AB0005DD16D4920000FF0CBFB0823FA185A498D
:100AC000D0180FF0BCFC554B1988012302398B421A
:100AD00008DA0C22BA18D218E85C013A0133107017
:100AE000DBB2F4E7614920000FF096FB00254B4B89
:100AF0001B88033B9D4223DA0C23FB185E5D10220A
:100B0000310020000FF0F1FB082332005449F8189F
:100B10001AF014F9082231001426BB1898190FF0A6
:100B2000ADFC0822BB18B818991980180FF035FDD4
:100B30000822BB18981901350FF032FCEDB2D6E748
:100B4000082520000FF072FB494920000FF064FBDC
:100B50007B19591920000FF071FB7B1958190FF000
:100B600061FD01003A482C000AF038FD91E70A2E99
:100B700000D09AE03F4920000FF06AFB0823FA18E2
:100B80002949D0180FF05BFC244B19880123023946
:100B90008B4208DA0C22BA18D218E85C013A013309
:100BA0001070DBB2F4E7344920000FF035FB00256C
:100BB0001A4B1B88033B9D4260DA0C23FB185E5DD9
:100BC0001022310020000FF090FB0823320024494E
:100BD000F8181AF0B3F8082231001426BB18981937
:100BE0000FF04CFC0822BB18B818991980180FF0A8
:100BF000D4FC0822BB18981901350FF0D1FBEDB2D7
:100C0000D6E7C046300601203E430210454302109D
:100C10001A1A01205B4302106B4302104419012091
:100C2000CF190120B0150120AC59021073430210F6
:100C3000894302108E430210A4150120AE43021016
:100C4000C5430210DA43021078FD0020E843021089
:100C500014FE002001440210204402102944021016
:100C6000067602103A4402104C4402105644021018
:100C7000684402107B4402108344021008252000BF
:100C80000FF0D4FACF4920000FF0C6FA7B1959199A
:100C900020000FF0D3FA7B1958190FF0C3FC0100A4
:100CA000C9482C000AF0ABFCF3E60B2E5DD1C74916
:100CB00020000FF0CDFA0823FA18C549D0180FF01C
:100CC000BEFBC44B1988012302398B4208DA0C227F
:100CD000BA18D218E85C013A01331070DBB2F4E7BD
:100CE000BD4920000FF098FA0025BA4B1B88033B42
:100CF0009D4223DA0C23FB185E5D10223100200098
:100D00000FF0F3FA08233200B449F8181AF016F875
:100D1000082231001426BB1898190FF0AFFB0822E7
:100D2000BB18B818991980180FF037FC0822BB18A7
:100D3000981901350FF034FBEDB2D6E708252000F5
:100D40000FF074FAA64920000FF066FA7B195919C2
:100D500020000FF073FA7B1958190FF063FC0100A3
:100D600099482C000AF053FC93E60C2E5DD19D4966
:100D700020000FF06DFA0823FA189549D0180FF0EB
:100D80005EFB944B1988012302398B4208DA0C224E
:100D9000BA18D218E85C013A01331070DBB2F4E7FC
:100DA000914920000FF038FA00258A4B1B88033B3D
:100DB0009D4223DA0C23FB185E5D102231002000D7
:100DC0000FF093FA082332008449F81819F0B6FF9F
:100DD000082231001426BB1898190FF04FFB082287
:100DE000BB18B818991980180FF0D7FB0822BB1848
:100DF000981901350FF0D4FAEDB2D6E70825200096
:100E00000FF014FA794920000FF006FA7B195919EE
:100E100020000FF013FA7B1958190FF003FC0100A2
:100E200069482C000AF004FC33E60D2E5DD16B46B8
:100E30006F4920007B600FF00BFA6A46654B1988FA
:100E40004B1DDB08DB00D31A9D4601236E46023999
:100E50008B4206DAF218E85C013A01331070DBB21B
:100E6000F6E708221423BA185949D0180FF0E7FA08
:100E7000604920000FF0D0F90025564B1B88033B3A
:100E80009D4217DA715D102220000FF048FA082306
:100E9000F818725D5849C01819F050FF08231A005D
:100EA000F918C918BA180C33D01801350FF087FBA0
:100EB000EDB2E2E708231425FA18511920000FF0CB
:100EC000BDF9310040480AF0BAFB0C21022301228F
:100ED000791803203B73FFF77BFC0823FB18581994
:100EE0000FF05EFA7B689D4649E50E2E4ED16B46AB
:100EF000424920007B600FF0ABF96A46354B1988F8
:100F00004B1DDB08DB00D31A9D4601236E460239D8
:100F10008B4206DAF218E85C013A01331070DBB25A
:100F2000F6E708221423BA182949D0180FF087FAD7
:100F3000334920000FF070F90025264B1B88033B36
:100F40009D4217DA715D102220000FF0E8F90823A6
:100F5000F818725D2849C01819F0F0FE08231A002D
:100F6000F918C918BA180C33D01801350FF027FB3F
:100F7000EDB2E2E708231425FA18511920000FF00A
:100F80005DF9310010480AF060FB9EE70F2E70D12A
:100F90006B461C4920007B600FF05AF96A460D4BE6
:100FA00019884B1DDB08DB00D31A9D4601236E46D2
:100FB00002398B4228DAF218E85C013A01331070EA
:100FC000DBB2F6E79344021014FE0020A4440210A2
:100FD000AC59021044190120AD44021006760210EB
:100FE000BE440210D0440210DD440210F24402104C
:100FF000084502101845021032450210374502100C
:10100000454502105F45021008221423BA186F49A3
:10101000D0180FF014FA6E4920000FF0FDF80025EB
:101020006C4B1B88033B9D4217DA715D1022200038
:101030000FF075F90823F818725D6749C01819F0A8
:101040007DFE08231A00F918C918BA180C33D018F5
:1010500001350FF0B4FAEDB2E2E708231425FA18CF
:10106000511920000FF0EAF831005C480AF0A4FAA8
:101070002BE7102E0CD15A4920000FF0E9F8574801
:101080000AF0EAFA5749002801D0FFF71DFC96E460
:10109000112E00D073E4514D00210B230A222800A9
:1010A0000AF0F2FA5049002800D188E408231426F7
:1010B000FA184E4990190FF0C2F90823FA1891193D
:1010C00028000AF0F9FA0823FA1890190FF068F9C5
:1010D0000823FA18464990190FF0B1F90823FA18B5
:1010E000911928000AF0EDFA0823FA1890190FF068
:1010F00057F90823FA183F4990190FF0A0F908236F
:10110000FA18911928000AF0E1FA0823FA18901940
:101110000FF046F90823FA18374990190FF08FF9A4
:101120000823FA18911928000AF0D5FA0823FA18AA
:1011300090190FF035F90823FA18304990190FF07B
:101140007EF90823FA18911928000AF0C9FA082331
:10115000FA1890190FF024F928000AF027FD00284A
:101160000ED1274920000FF073F8042301223B77AA
:10117000DB18FB1899190320FFF72AFBFFF7FFFB89
:10118000204920000FF064F828000AF08FFA7860F8
:1011900028000AF08EFA7D6838607B683A68EB1A9E
:1011A0009A420DDD2E780F2E03D8302120000FF04B
:1011B00037F81022310020000FF0B1F80135ECE7CC
:1011C00020000FF033F8FFF77FFBC046AC59021048
:1011D0006E450210441901203245021014FE002011
:1011E0008445021090450210B6450210ED450210EC
:1011F000E1450210F0450210F3450210CF1901201D
:10120000FB45021028460210F8B500241D4B1B8830
:10121000A34227D01C480526C218911E0C78013A1B
:10122000023B127899B2240214430DF07FF90700B3
:10123000164D174928000EF0EFFF1022210028005C
:101240000FF057F8134928000EF0E6FF102239007E
:1012500028000FF04EF8BC4211D10F4928000EF0C3
:10126000F7FF01240D4D2B68012B01D1FFF718FB6F
:101270002B680026022B02D12000FFF769FA30000C
:10128000F8BDC046441901201A1A01203006012079
:101290003B460210464602105546021040170120F8
:1012A00013B5144C20000DF0ABFC012820D902220C
:1012B00001A920000FF062F802220F4901A822F0D4
:1012C000FBFE002814D10D4C0D4920000EF0C0FF8C
:1012D000FFF79AFF052808D10A4920000EF0B8FF51
:1012E000032101220800FFF773FA0020FFF728F816
:1012F00013BDC046E4090120342A00203006012035
:101300009A460210A646021070B5154C2368002BB1
:1013100001D1FFF7A3F92368012B1BD111480DF070
:10132000E9FC114D114A2B88114EC1B2D154300045
:1013300010220EF0F4FF0F4930000EF06DFF2B88E5
:101340000D4A013312889BB22B809A4202D80420A6
:10135000FEF7F6FF2368042B01D1FFF7A1FF70BD54
:10136000A4160120E4090120421901201A1A0120C3
:101370003006012043430210441901200C3189003A
:101380000B5810B5002B00D0984710BD10B502487F
:101390000AF074FE10BDC046C438002037B5050001
:1013A0000E4C0F4A200002210AF065FF6B6A2000F4
:1013B0000C4A02210AF05FFFAB6920000A4A0221B1
:1013C0000AF059FF2B005C331B88084A0093022166
:1013D0002B6D20000AF04FFF37BDC0466CFD00208A
:1013E00043490210764902108449021091490210C3
:1013F00070B504000A4B036024300EF0D1FF2000CA
:1014000018300EF0CDFFA06823000833984204D0B6
:10141000056815F099F92800F6E7200070BDC04670
:10142000BC47021010B50400FFF7E2FF20003C218A
:1014300015F094F9200010BDF7B5060000250C2723
:101440000400324B083603603A0029004560300042
:1014500022F06AFE2000A660E66014300AF0E6FD85
:1014600020002B4E183031000EF0E9FF2000310033
:1014700024300EF0E4FF20003A002900303022F042
:1014800053FE2000234B310008332360E5632564BD
:101490006564A564E56450300EF0D1FF2000802221
:1014A000290052005E3022F03FFE2300FC335D66CF
:1014B0002000B22369305B00E554FF300AF016F8D3
:1014C000A0239B00E018144B144A29000093022328
:1014D00000F0DCFC124B2900E0180AF049FF114B28
:1014E0003100E0180EF0ABFF0F4B3100E0180EF0AA
:1014F000A6FF0E4B3100E0180EF0A1FF0C4B31009F
:10150000E0180EF09CFF2000FEBDC046BC47021054
:10151000AC590210E04A02108D130010E847021087
:10152000503E0000183F0000243F0000303F000004
:101530003C3F000010B5040040680AF0E7FD0300DE
:101540000020022B09D1636C0130002B05D00FF075
:101550009DF8236C83428041404210BD10B5054C7C
:101560002000FFF769FF044A0449200014F0A4FE9C
:1015700010BDC046B0380020302A002049190010A4
:1015800010B5024BC0180AF09FFF10BD503E00007E
:10159000F7B5050004001A4B5C352A88C018216D88
:1015A0000BF066FC002803D0002303206364FEBD1B
:1015B000636C5E1C66640FF069F8FA23FA229B00E4
:1015C000B340D201934200D913001B1823642B8827
:1015D0000C4F0D4E0193236D0C4A009300213B00EC
:1015E00030000AF048FE236C30000193636C084A17
:1015F000009300213B000AF03EFE0020D7E7C046E2
:10160000503E00000D4B02106CFD0020A44902105A
:10161000D64902102D4BF7B5C618040030000AF069
:1016200053FF2B4D071E0ED101002A4B2A4A2800DA
:101630000AF021FE30000BF037FC20000221FFF7FA
:101640009DFE3800FEBD254B0022E11830000BF056
:10165000F2FA071E0FD1214B0100E358204A0093F4
:1016600028001C4B0AF007FE39001E4A28000AF029
:1016700002FE0320E6E71C4B1C49E71838000EF079
:10168000B0FF021E11D1300039000BF0D4FA061E53
:101690000BD1154B0100E358114A009328000D4B64
:1016A0000AF0E9FD0F4A3100E0E7114A0221280063
:1016B0000AF0E1FD01212000FFF760FE0B49380030
:1016C0000EF08FFF431E98410430BBE7503E0000F0
:1016D0006CFD00203F4B0210134A02103C3F0000FB
:1016E000464A0210774A0210243F0000AC5902100B
:1016F000C14A021073B51D000D4B1600C41800231B
:101700002A000193009320000AF0EFFF002801D186
:10171000002076BD2A00310020000AF01DFF0028BD
:10172000F6D020000BF0D3FB431E9841F1E7C046F2
:10173000503E00000023802270B5C6B00400029322
:101740000093083002AB520006A900F041F90028CE
:1017500019D1029A002A16DD26002500FC365E35D6
:10176000726606A9280022F097FC084B03A8E1182E
:101770000EF0D5FE736E2A0003A92000FFF7BAFF12
:1017800003A80EF00DFE46B070BDC046303F00000D
:101790007FB5204B0400C61830000AF095FE051EE8
:1017A00013D101001C4B1D4A1D480AF064FD300096
:1017B0000BF07AFBB22301225B002000E2540221ED
:1017C000FFF7DCFD280004B070BD2000B225083012
:1017D0006D0000F044FA635D002B15D02600FC3646
:1017E000736E002B10DD0F4B01A8E1180EF097FE71
:1017F0002200736E5E3201A92000FFF77BFF01A873
:101800000EF0CEFD002363552000FFF793FF052067
:10181000D9E7C046503E0000FC4A0210134A0210AD
:101820006CFD0020303F000030B5162504008BB061
:101830002A000A4904A822F02FFC094B01A8E1184C
:101840000EF06DFE2B0004AA01A92000FFF752FF45
:1018500001A80EF0A5FD0BB030BDC046D047021068
:10186000183F0000194B70B5C618050030000AF08B
:101870002BFE041E0ED10100154B164A16480AF025
:10188000FAFC30000BF010FB28000221FFF776FD78
:1018900020000BE00EF0FAFEEB6C0400002B06D0EB
:1018A000AB6C0E4AC31A934201D8042070BD2800C5
:1018B000FFF7BAFFEB6CAC6401330A2B01D8EB6481
:1018C000F3E70024EC64AC64DBE7C046503E000064
:1018D000264B0210134A02106CFD002030750000E8
:1018E00010B504000AF008FCE06B052807D822F0C8
:1018F00083FC0312181C20242000FFF71BFE114B51
:10190000E063E41820000AF0DFFD002802D0200088
:101910000AF08EFF10BD200014300AF0AFFB022049
:10192000EDE72000FFF734FEE9E72000FFF772FE45
:10193000E5E72000FFF796FFE1E72000FFF728FF2B
:10194000DDE7C046503E000010B50400144B0833DC
:101950000360144BC0180EF023FD134BE0180EF07B
:101960001FFD124BE0180EF01BFD114BE0180EF09E
:1019700017FD104BE0180AF0C1FCA0239B00E018F3
:1019800000F034FA20006930FF3009F061FD2000DA
:1019900050300EF005FD2000FFF72AFD200010BD9D
:1019A000E04A02103C3F0000303F0000243F0000AE
:1019B000183F0000503E000010B50400FFF7C4FFC0
:1019C0002000024914F0CAFE200010BD483F00006C
:1019D000F0B58DB01F0012AB1B780190039304A8E3
:1019E0000023029100F0B8F8012208A9524204A88D
:1019F00000F0B9F8041E2BD1019B00901D68019BDB
:101A0000AB4216D0AE68300000F0D2F800280ED0FD
:101A10000222B36993430AD1039A08A9300000F067
:101A2000F6F8434243410400009AD31800932D680E
:101A3000E5E763000CD108A904A800F099F8041E9A
:101A400006D1009B002B06D0049B029A9B1A3B6098
:101A500020000DB0F0BD3860FAE70368002B01D01C
:101A6000013B0360704770B51500040042680068D0
:101A7000131A5E1B0BD5002A03D0ED1A00236360F6
:101A800023608020236800065D19256070BD2A0050
:101A900022F002FB236800205D192560F6E70000B4
:101AA0007FB508A90E7819BA02910F2115BA0395CE
:101AB0006944002B0BD1172A09D86B462D0E7519D6
:101AC000DD7304AB5A1AFFF7CEFF04B070BD0124DA
:101AD000002B02D1FF2A00D81C1CE4B2002B0BD132
:101AE000074B934292415242A4180123A340183657
:101AF000C91AA4190C70E4E70234E4B2F5E7C04651
:101B0000FFFF00007FB51D0003680C000B604368F9
:101B100008304B601600FFF7A0FF2023721C2B40FB
:101B2000A260E360711C0CD104220F2113436944AD
:101B30001F35E360033A20000D70FFF794FF04B0F7
:101B400070BD002B01D09219A260009532000023D5
:101B50002000FFF7A5FFF2E701608918022241602B
:101B60008260C360704710B58023FFF7CBFF10BDC4
:101B70000B6807B503604B68CA684360520707D516
:101B80006B46D91DFF2301220B70FFF76CFF0EBDC2
:101B90008868012805D0431E9841C0239B00C018C7
:101BA000F5E71800431E98418023C0071B06F6E79F
:101BB000030070B52C331B7805000124002B06D0E0
:101BC00003002D331C78002C03D000221A70200053
:101BD00070BD836A002B0DD103681B6898470028ED
:101BE000F5D00EF053FD2B6BC01A6B69984264411F
:101BF000E4B2ECE7012B05D10EF048FD2B6BC01AC7
:101C00006B6BF3E7022BE2D14D352C78DFE7030055
:101C10004C3370B51A700023836403680400DB68DA
:101C20009847051E0CD1236820009B689847230025
:101C300001222C331A7021331D700EF027FD206312
:101C4000280070BD0223826910B59A430400002A5F
:101C500004D1C369002B01D09847A06310BDF8B52B
:101C6000060002270568AE4214D0AC682368200045
:101C70005B69984700280BD0236820009B69984730
:101C8000002805D0A369BB4302D12000FFF7DAFF8B
:101C90002D68E8E7F8BD0020704713B56B46026871
:101CA000D9710733546819000122A04716BD13B536
:101CB0006B46DC1D036801225B6A210098470128FE
:101CC00001D1207816BD01204042FBE710B5006924
:101CD00003681B6B984710BDF8B50C4B04001D78CA
:101CE0000E001700002D02D001204042F8BD03680D
:101CF000DB6A98470028F7D023683A005B6A310016
:101D000020009847431CF1D12800EFE7CB190120B0
:101D10000B4B70B51B7804000D001600002B0CD186
:101D20000368DB6A9847002807D0236832005B68A5
:101D3000290020009847002801D10120404270BDB1
:101D4000CB190120F8B505000F0016000024B4429D
:101D50000AD20B4B32003900E81808F078FB002853
:101D60000BDB3F182418F2E7B44206D1044BE81805
:101D700008F08FFBC043C01704402000F8BDC046E8
:101D8000BC3B000010B50400044BC01808F081FBF8
:101D900020690368DB68984710BDC046BC3B000063
:101DA000044B10B5C01808F0FBFAC343DB1718400A
:101DB00010BDC046BC3B000010B5024BC01808F077
:101DC000CBFA10BDBC3B000013B56B46DC1D064BC7
:101DD0000122C018210008F007FB012801D120785A
:101DE00016BD01204042FBE7BC3B0000084B10B58C
:101DF00008330360030038331B780400002B04D041
:101E0000006B002801D017F067FF200010BDC0460E
:101E1000C84B021010B50400FFF7E8FF200002498C
:101E200014F09CFC200010BDD03B000010B5040055
:101E300000690368DB6A9847002807D0200040301B
:101E400006F060FF0138431E9841C0B210BD00008B
:101E500010B5040000690368DB6A9847002810D0B9
:101E60002000403006F04EFF0123184205D1054AFC
:101E70001370054BE01808F017FB206903689B6A94
:101E8000984710BDCB190120BC3B000070B5FA2566
:101E90000024AD0085600E4D049E83610835431C0F
:101EA0004460056001614261C661DC77A64205D1EC
:101EB000084B094A3221094816F04EFC030038331A
:101EC00044628462C462046344631C7070BDC04693
:101ED000C84B02105A4B02100C4C0210744B0210EB
:101EE0000022484BF0B51A700500D92304008FB0CA
:101EF00040351B0142690591C1188369280009F02A
:101F00005FFA414A414BA118414AE3180092280068
:101F1000404A06F0D5FC404E06AF30000BF04EFABA
:101F2000002809D10026FF2100200EF0FEF8B85548
:101F30000136202EF7D12DE030000BF0AAFB00284F
:101F4000F0D02022390030000BF06BFC0028E9D0E3
:101F5000324B334A3349A350334A6118A2580B60BD
:101F6000324BE3181A60636B002B13D0E36A002B2B
:101F700010D002F01DFA2E4B21000393022301938F
:101F80002E330093230002902433012230312800A5
:101F900006F0A4FA39002022280006F033FD0022C2
:101FA0000599280006F0D6FAE3699847214B2249A3
:101FB000E618070022F068F8204B1F49C01870632C
:101FC000380022F021F91E4BB1631E4AE61823693E
:101FD00030000193009229001B4A08F0B5F9300047
:101FE00008F057FA08260124280006F08BFE0300AB
:101FF000334004D12042F7D018000FB0F0BD0120CB
:10200000FBE7C046CB1901207819000067390000B2
:1020100055020000EF1F000078FD0020E1BE001017
:102020004C0D00006C190000440D000070190000F8
:10203000A5BE00108C0E000080510100A8FA0A0015
:10204000BC3B0000111D0010D91C001030B504006D
:10205000006949680368084D85B001910391DB6907
:10206000029502A99847002803D000212000FFF71D
:1020700037FF05B030BDC046BC7B021070B505000F
:1020800000690C0003681B6A9847002809D06B1C84
:10209000DB7F28005A4253415B421C402100FFF77E
:1020A0001FFF70BD0269F0B51400836897B05C40F3
:1020B000C1690994446886694C4003940C005440FB
:1020C0000A940C0045695C400494046875406C40B7
:1020D0000090019403985440099A0D9442400B9249
:1020E000019A01984A400E92009A526842400F921B
:1020F0000F98049A42401092009A0B98D26842407E
:1021000053400593009B72401B680598039C434015
:10211000119303006B4006930A9B0A9E534007935A
:10212000009B07981B68049F43401293069B9643AD
:102130004340139303006B4008930B9D059B13983A
:102140001D40089B6A401C40099B03400698734051
:10215000074077401198109E06405640009A0D980F
:1021600012685E400240049842400698424000983F
:1021700055404068019A7D40824303984240089848
:1021800042406240414053404C40129A0E99180020
:1021900011404C407C40270031001E4077403A00FF
:1021A00069400A406A406040754005402000684030
:1021B00075402C4043406340029018007C4014401E
:1021C000614048400C901000484084460298029DAF
:1021D000584014900098029C00680C9F284015906D
:1021E0006046089D54400540089565460198139E39
:1021F00008400190129867401040129010983E409D
:1022000018401090039828408446099838400A9F47
:1022100003902740784009900F9801401298484059
:102220000A9005991498159F01400898089D41400F
:10223000604647404F4005970998019F47400798DF
:10224000044065400C98069C754004406640149814
:102250000B9C7E400440109844400E98674002401A
:102260000598019C424011986C4003407B405940C6
:102270006F40CD43724065405440E4430098F643BC
:10228000C7618561049F0C980740039847406740E9
:1022900064460098476101611599129841404B408E
:1022A0000099CB600D9B02990B4010994B405A400E
:1022B000009B09999A600A9B5C40009B66405E60A7
:1022C000059B5940C9430A9B5940009B196017B0B0
:1022D000F0BD00000268F0B516004E4C4E4945684E
:1022E00052086B0022400D402A43856826400B406F
:1022F00033432E00C76887B001926D087A002640EC
:102300000F400A40254032433D4346690295056926
:10231000770025400F402F4305690E406D0825408A
:1023200035430395C56900936E0085690E402540CD
:102330003543866976082640C46921400E43374CF0
:10234000B4469600264033003549009E22400E4098
:102350001E43009B04969B080B4013430093029B73
:102360009A00019B22400B401A4305923A00019BC0
:102370000A409E08029B0E4023401E43AB002340B0
:10238000134362460196039E92000E402240324360
:10239000039EBF08B6080F403140664625403440D2
:1023A0002143204C3D431F01274002933B001E4E1A
:1023B000049F37403B43049F0360029B3F09374023
:1023C00023403B43059F03611301374023403B43B8
:1023D0004360059B22401B0933401A434261009A27
:1023E0002B013240234013438360009B25401A0990
:1023F00032401543019A0B01324023401343C3601E
:10240000019B21401B091E4031438561C16107B01A
:10241000F0BDC04655555555AAAAAAAACCCCCCCCDD
:1024200033333333F0F0F0F00F0F0F0F00B589B0F6
:102430000090019002900390049005900690079000
:102440006846FFF747FF6846FFF72CFE6846FFF730
:1024500041FF009809B000BDF0B5FFB00490182A04
:1024600006D0202A38D00027102A32D10A2700E0CF
:102470000C2700207B1C9B00019303009408A342BF
:102480002CDB00252E00E30006AA9B180293009582
:1024900063190393019B6219934232DC0025E80023
:1024A00006AC0019FFF716FF019B0435AB42F6DCC2
:1024B0000023274E274DD90062185268095932402F
:1024C00029400A43049998000A50019A01339A421C
:1024D000F1DC38007FB0F0BD0E27CAE79A00565CE9
:1024E0008A18557890782D022E4300040643D07840
:1024F00006AD0006DA00304350510432A8500133D3
:10250000BDE7002E1CD10823D841FFF78FFF124BE7
:10251000009A9B5C5840EB0006AA9A58013650403E
:102520000592029AD050039B06AADB000433D050D8
:10253000B44203D10026009B013300930135A7E785
:10254000062CE8DD042EE6D1FFF770FFE3E7C04676
:10255000AAAAAAAA55555555724C02100131F0B5D8
:102560000901094D094E89188A4200D1F0BD08CAF7
:102570001F002F407C003C43334004605C08234331
:1025800043600830F0E7C04655555555AAAAAAAA97
:102590000B0A017043700B0C090E8370C1707047F9
:1025A000437802781B021A438378C0781B041343D4
:1025B0000006184370470000044B10B5040008C023
:1025C000FFF74AFFF434206010BDC0467C4C021077
:1025D000F0B53E4C0D00A54405930300F433196893
:1025E00000901400021D16A8FFF7B8FF2800FFF79F
:1025F000D7FF0290281DFFF7D3FF03902800083073
:10260000FFF7CEFF949D0490059B949A9F187F1B23
:10261000002D4BD0029B06A807930693039B0EAE9A
:1026200009930893049B0B930A9323BA0C93631C9E
:1026300001931BBA0D93FFF74DFE009B06AAF433DE
:10264000186816A900F08FF806A8FFF743FE069950
:102650003000FFF79DFF08990FA8FFF799FF0A992F
:1026600010A8FFF795FF0C9911A8FFF791FF0799A4
:1026700012A8FFF78DFF099913A8FFF789FF0B999F
:1026800014A8FFF785FF0D9915A8FFF781FF002318
:10269000202D10D8F95CF25C4A40FA5401339D4277
:1026A000F8D1102D01D9A31C0193019C20008F2388
:1026B0009B009D44F0BDF95C9A5D4A40FA54013399
:1026C000202BF8D1203D02349EE7C046C4FDFFFF19
:1026D0000A680368534003604A6843685340436094
:1026E0008A68836853408360CA68C3685340C36084
:1026F0000A690369534003614A694369534043616E
:102700008A69836953408361CB69C2695340C3615D
:1027100070470300F7B5FC27C026FF25203301933F
:10272000BF0136020368F0249A08990131403A400B
:102730000A43190029400A43240319092140F024BF
:102740000A43240419012140C0240A43A40499091E
:102750009B0021409B0E9B060A431A43019B04C029
:102760008342DFD1F7BDF0B58BB009901000029124
:102770001400FFF7ADFF0123082510260193019BEC
:10278000099A200093420DD3FFF78CFC2000FFF73D
:10279000C0FF099B20005901029B5918FFF798FFC1
:1027A0000BB0F0BDFFF77EFC2000FFF7B2FF6268C0
:1027B000E169EA419446A2682068EA410392E2682E
:1027C0000300EA4104922269EB41EA410592626901
:1027D0000F00EA410692A2695840EA4107920A00B6
:1027E000EA41574008977B400700F7417B40236050
:1027F000634667685F4053404B4043403800F041B8
:1028000043406360A068039B58405F400300F3416E
:102810005F40A760049BE7685F4053404B405840CF
:102820003B00F3414340E3602069059B584053401F
:102830004B407B4019000300F3414B402361616929
:10284000069B594058400B00F34158406061079B7C
:10285000A069594058400300F3415940A161089BC9
:102860004240F3415A40019BE2615901029B200022
:102870005918FFF72DFF019B013301937FE770B5D6
:1028800000254042AB4200D170BD4E5D545D7440A6
:10289000044074404C550135F4E710B5013900D2BD
:1028A00010BD5478137824021C4393781B041C43F6
:1028B000D37804321B0623431BBA08C0EEE700009E
:1028C000F0B587B00F9C0C9D0D9E0E9F172C07D066
:1028D0001D2C0FD00394029701960095084C04E03C
:1028E0000394084C029701960095A4690594A047AB
:1028F00007B0F0BD0394029701960095024CF4E7EF
:10290000D0540210BC520210EC4C021007B5054B1B
:10291000172803D0044B1D2800D0044B5B6801939B
:1029200098470EBDBC520210EC4C0210D05402105D
:1029300007B5054B172803D0044B1D2800D0044BC6
:102940009B68019398470EBDBC520210EC4C0210DC
:10295000D054021007B5054B172803D0044B1D288F
:1029600000D0044BDB68019398470EBDBC520210A7
:10297000EC4C0210D05402101FB5069C172C04D04A
:102980001D2C09D00094064C01E00094054C2469EC
:102990000394A04704B010BD0094034CF7E7C04671
:1029A000D0540210BC520210EC4C021013B5054C6E
:1029B000172B03D0044C1D2B00D0044C64690194E8
:1029C000A04716BDBC520210EC4C0210D0540210AD
:1029D00070B5002425000B5916599B195B19DD04AD
:1029E000ED0C055104345D0B502CF4D11322010081
:1029F0001B0A5343C26C5031D2B2C26402689B18A6
:102A0000DA04D20C04C05B0B8142F7D170BD70B503
:102A1000262500246D420B5916599B1B5B19DD04BA
:102A2000ED0C055104345D13502CF4D180220100CB
:102A300092009B18EE3AFF3A1B0A5343C26C503186
:102A4000D2B2C26402689B18DA04D20C04C05B0BD9
:102A50008142F7D170BD0000202301480B60704710
:102A6000AC4C0210202301480B607047CC4C021084
:102A7000202300200B607047002370B55242C658D7
:102A8000CC583500654015406E406C40C650CC5067
:102A90000433502BF3D170BD00207047F0B54E6960
:102AA000F7B00F968E6925930096CE690B68019654
:102AB0000E6A239002964E6A069303968E6A4D68BC
:102AC0000496CE6A8C6805960E6BC86807964E6BA6
:102AD0000B6908968E6B24920996CE6B0A960E6C43
:102AE0000E964E6C0B968E6CC96C0D96259E0C91B5
:102AF00027A9002E01D100F035FC069A2F00160000
:102B0000524327922A00724352004A6022007243C5
:102B10006F435200D2198A602F000200674372434C
:102B2000D2195200CA602F001A0047437243D219CB
:102B3000270067435200D2190A612A000F9F5A43A7
:102B40007743BA1807006743D21952004A61009FC1
:102B50000F9A77436A43BA181F006743D2190700D8
:102B600047435200D2198A61019F009A77436A4312
:102B7000BF1802005A43BA180F9F6743D219520078
:102B8000CA61029F019A77436A43BF180F9A424372
:102B9000BA18009F6743D2191F005F435200D21931
:102BA0000A62029F039A6F437243D719009A424305
:102BB000BF18019A6243BA180F9F5F43D21952009F
:102BC0004A62039F049A6F437243D719019A4243A2
:102BD000BF18029A6243BA18009F5F43D2190F9F31
:102BE00052007F43D2198A62069E059A049F72435F
:102BF0006F43D219029F0F9E4743D719039A62432E
:102C0000BF18009A7243BA18019F069E5F43D219FB
:102C10005200CA62059F079A6F437243D219039FFD
:102C20000F9E4743D719049A6243BF18019A724313
:102C3000BA18029F0F9E5F43D219009F52007F4334
:102C4000D2190A63089F069A5743079A6A43BA182B
:102C5000049F4743D219059F6743D719029A7243CD
:102C6000BF18039A009E5A43BA18019F7743D2199E
:102C700052004A63099F069A5743089A0F9E6A4377
:102C8000BA18059F4743D219079F6743D719039A7C
:102C90007243BF18049A009E5A43BA18029F7743A2
:102CA000D219019F52007F43D2198A630A9F069A64
:102CB0000F9E5743099A6A43BF18079A4243BA18AE
:102CC000089F6743D219049F7743D719059A019E3D
:102CD0005A43BF18029A7243009EBA18039F774363
:102CE000D2195200CA630E9F069A0F9E57430A9A42
:102CF0006A43BF18089A4243BA18099F6743D2191A
:102D0000059F7743D719079A5A43BF18039A019E24
:102D10007243009EBA18049F7743D219029F520053
:102D20007F43D219069E0A640E9F0B9A6F4372432B
:102D3000D719099A0F9E4243BF180A9A6243BA18DC
:102D4000079F7743D219089F019E5F43D719049AC2
:102D50007243009EBF18059A7243029EBA18039FE1
:102D60007743D2195200069E4A640B9F0D9A6F4317
:102D70007243D7190A9A0F9E4243BF180E9A6243B4
:102D8000BA18089F7743D219099F019E5F43D7194C
:102D9000059A7243009EBF18079A7243BA18049F9F
:102DA000029E7743D219039F52007F43D2198A644F
:102DB000069E0C9A0F9F56430D9A6A43B2180E9EB8
:102DC000464396190B9A6243B618099A7A43B21889
:102DD0000A9E019F5E439219079E7E43009F9619AB
:102DE000089A7A43039FB618049A7A43029FB2184E
:102DF000059E7E4392195200CA640C9A009E6A4353
:102E00000D9D654355190E9A5A43AD180B9A4243CE
:102E1000AA18099D75430F9E52190A9D75435519AD
:102E2000079A019E7A43AD18089A7243AA18059D25
:102E3000039E75435219049D52002E006D43521992
:102E40000A650C9A0F9D62430D9C444314190E9A17
:102E50006A43A4180B9A019D5A43A218099C6C431B
:102E6000009D12190A9C6C43039D1419079A6A432A
:102E7000A418089A7A43A218059C744312195200A8
:102E80004A650C9A009C50430D9A5A4380180E9A3A
:102E900062430F9C82180B98604312180998019C9A
:102EA000784310180A9A62438018079A039C724369
:102EB0008218089860431218059852000400404395
:102EC00012188A650C9A0F9853430D9A4243019841
:102ED0009A180E9B43430098D3180B9A42430398C9
:102EE0009B18099A42439A180A9B00987B43D21870
:102EF000079B6343D318089A72439B185B00CB650A
:102F00000F9A0C9B5A430D9B4343D3180E9A01987A
:102F10007A439B180B9A42439A18099B0398734370
:102F2000D2180A9B4343D318089A019862439B180E
:102F3000079A5B0052439B180B66009A0C9B5A43FE
:102F40000D9B43430398D3180E9A42439B180B9A48
:102F500007987A439A18099B6343D2180A9B7343D4
:102F6000D318089A42439B185B000C9A4B66019B4E
:102F7000039853430D9A7A439B180E9A72439A18FA
:102F80000B9B43430798D218099B4343D3180A9AD3
:102F9000039862439B18089A5B0052439B188B6608
:102FA0003B000C9A53430D9A42439B180E9A089883
:102FB00062439A180B9B7343D218099B43430798AB
:102FC000D3180A9A42439B185B000C9ACB66039B6A
:102FD000079853430D9A72439A180E9B4343D21895
:102FE0000B9B08986343D3180A9A42439B18099A8B
:102FF0005B0052439B180B6733000C9A08985343AD
:103000000D9A62439A180E9B43430798D2180B9B64
:1030100043430998D3180A9A42439B1822005B0045
:103020004B670C9B07985A430D9B4EAC4343099842
:10303000D2180E9B43430898D3180B9A42439B180F
:103040000A9A5B0052439B188B67079A0C9B08985F
:103050005A430D9B43430A98D2180E9B4343099849
:10306000D3180B9A42439B185B00CB67089A0C9BC2
:103070005A430D9B43430A98D3180B9A42439B181B
:103080000E9A5B0052439B1847930C9A099B0A982F
:1030900053430D9A42430E989B180B9A42439B1838
:1030A0005B000C9A48930A9B53430D9A42439B182A
:1030B0000B9A5B00100052439B1849930C9A0E9B8D
:1030C00053430D9A42439B185B004A9303000C9AAA
:1030D00053430D9A5B00100052439B184B9303001F
:1030E0000C9A534352434D9200225B004C931300C1
:1030F00050581B18D804C00C105104325B139C2A82
:10310000F6D17593629B132600939823009A9B0037
:103110005A43619D4E994F985218290A714352188B
:10312000D104F1400091510B639A5A43121852187E
:10313000D104F1400191649950985943520B0918F8
:103140008A18D104F1400291659951985943520B64
:1031500009188A18D104F14003916699529859438D
:10316000520B09188A18D104F140049167995398B9
:103170005943520B09188918CA04F2400592689AFB
:1031800054985A43490B12185118CA04F240069237
:10319000699A55985A43490B12185218D104F140B4
:1031A00007916A99520B08005843569940188018A5
:1031B000C204F24008926B9A400B14005C43579A89
:1031C000A4182418E204F24009926C9A640B1100CE
:1031D0005943589A599889180919CA04F2400A9211
:1031E0006D9A490B5A4312185218D104F1406E9847
:1031F0000B9158435A99520B40188018C204F24060
:103200006F9C0C925C435B9A400BA4182418E20458
:10321000F24070990D9259435C9A640B8918091910
:10322000CC04E20C0E92719A5D985A43490B121825
:1032300072985218D4045843E10C8C46739F5E99DF
:103240005F4340187499520B801859435F9AC40425
:103250000F92400BBF18609A3F18F8048A187F0B32
:10326000D219759FD1047B43FF273D40520B5B1958
:103270009B181A0AF440F040F1405643009A239DEF
:103280009619F204D20C2A60019A760B9619F20470
:10329000D20C6A60029A760B9619F204D20CAA60DC
:1032A000039A760B9619F204D20CEA60049A760B14
:1032B0009619F204D20C2A61059A760B9619F2043B
:1032C000D20C6A61069A760B9619F204D20CAA61A6
:1032D000079A760B9619F204D20CEA61089A760BDB
:1032E0009619F204D20C2A62099A760B9619F20406
:1032F000D20C6A620A9A760B9619F204D20CAA6270
:103300000B9A760B9619F204D20CEA620C9A760BA1
:103310009619F204D20C2A630D9A760B9619F204D0
:10332000D20C6A630E9A760B9619F204760B6644F9
:10333000D20CAA63F204760BA419D20CEA63E2045D
:10334000640B0019D20C2A64C204400B0918D20C79
:103350003B406A64CA04490BD20C5B18AA64EB6454
:1033600077B0F0BD249A1668069A37005743249A1E
:1033700010965668279737001196109E069A6E434E
:10338000B4465743249A67449668069A1296564361
:10339000B4464F60109E119F66436F436744B44626
:1033A000249A6744D668069A13965643B4468F60AB
:1033B000129F119E6F43BC44109F6643474367446E
:1033C000B446249A67441669069A14965643B4463E
:1033D000CF60139F6F43BC44119F4743BC44129F6F
:1033E000109E67435E436744B446249A6744566917
:1033F0000F6115963700149E069A6E43B4465743E4
:10340000BC44129F109E4743BC44139F249A6743B9
:10341000BC440F9F7743119E67445E43B446966950
:10342000674416964F613700159E069A6E43B44660
:103430005743BC44139F119E4743BC44149F109AAA
:103440006743BC440F9F7743009EBC44129F564382
:103450005F43249A6744D269B44616001792069ACD
:1034600067445643B4468F61169F149E6F4346438C
:103470006744B446BC44159F129A6743BC440F9FEF
:10348000009E5743BC44139F109A5F43BC44019F66
:103490005743119A67445643249AB446126A6744C4
:1034A00016001892069ACF615643B446179F169E8F
:1034B0006F43BC44159F664347436744B446139A21
:1034C000BC440F9F029E5743BC44149F119A5F4314
:1034D000BC44019F5743129ABC44009F5743109A23
:1034E00067445643249AB446526A674416001992B8
:1034F000069A0F625643B446189F6F43BC44169F0A
:10350000149A47430F9EBC44179F56436743674432
:10351000B446BC44159F129A5F43BC44019F029E6F
:103520005743139ABC44009F5743109ABC44039FCF
:103530005743119A67445643B446249A199E926A97
:1035400067446E434F621700B4461A92069A169E5D
:103550005743BC44179F159A4743BC44189F5E438A
:103560006743BC440F9F57436744B446139ABC4417
:10357000019F5743149ABC44009F5743119ABC447F
:10358000039F5743129ABC44029F049E5743109ACC
:1035900067445643B446249A1A9ED26A67446E43DF
:1035A0008F621700B4461B92069A019E5743BC4493
:1035B000189F169A4743BC44199F6743BC440F9F0A
:1035C0005743149ABC44179F56435F436744B4461D
:1035D000159ABC44009F049E5743129ABC44039F13
:1035E0005743139ABC44029F5743109ABC44059F0B
:1035F0005743119A67445643249AB446126B674462
:1036000016001C92069ACF625643B4461B9F199E21
:103610006F4346436744B446BC441A9F179A6743B6
:10362000BC440F9F009E5743BC44189F159A5F43AC
:10363000BC44019F5743169A67445643B446139AB5
:10364000BC44039F079E5743149ABC44029F5743B0
:10365000119ABC44059F5743129ABC44049F574398
:10366000109A67445643249AB446526B6744160036
:103670001D92069A0F635643B4461C9F1B9E6F43D0
:10368000BC441A9F664347436744B446189ABC44F7
:103690000F9F5743BC44199F169A5F43BC44019F38
:1036A0005743BC44009F179A039E5743149A67449C
:1036B0005643B446159ABC44029F079E5743129A3C
:1036C000BC44059F5743139ABC44049F5743109A28
:1036D000BC44089F5743119A67445643249AB44602
:1036E000926B674416001E92069A4F635643B44687
:1036F0001D9F199A6F43BC441B9F0F9E4743BC44B8
:103700001C9F564367436744B446BC441A9F179AAC
:103710005F43BC44019F029E5743189ABC44009FDC
:103720005743159ABC44039F5743169A6744564320
:10373000B446BC44059F139A099E5743149ABC444F
:10374000049F5743119ABC44089F5743129ABC44A4
:10375000079F5743109A67445643B446249A1E9EC7
:10376000D26B67446E438F631700B4461F92069A6C
:103770001B9E5743BC441C9F1A9A4743BC441D9F41
:103780005E436743BC440F9F57436744B446189A4F
:10379000BC44019F059E5743199ABC44009F574360
:1037A000169ABC44039F5743179ABC44029F574341
:1037B000149A67445643B446BC44049F159A099E24
:1037C0005743129ABC44089F5743139ABC44079F1F
:1037D0005743109ABC440A9F5743119A6744564373
:1037E000B446249A1F9E126C67446E43CF63170041
:1037F000B4462092069A019E5743BC441D9F1B9AD3
:103800004743BC441E9F6743BC440F9F5743199ACC
:10381000BC441C9F56435F436744B4461A9ABC4459
:10382000009F049E5743179ABC44039F5743189A1E
:10383000BC44029F5743159ABC44059F5743169AB0
:1038400067445643B446BC44089F139A0E9E5743A0
:10385000149ABC44079F5743119ABC440A9F57438C
:10386000129ABC44099F5743109A67445643249ABE
:10387000B446526C674416002192069A0F64564370
:10388000B446209F1E9E6F4346436744B446BC44E3
:103890001F9F1C9A6743BC440F9F009E5743BC4424
:1038A0001D9F1A9A5F43BC44019F57431B9A67446C
:1038B0005643B446189ABC44039F5743199ABC44D4
:1038C000029F5743169ABC44059F5743BC44049F2C
:1038D000179A089E5743149A67445643B446159A5C
:1038E000BC44079F0E9E5743129ABC440A9F5743FD
:1038F000139ABC44099F5743109ABC440B9F5743EB
:10390000119A67445643249AB446926C6744160051
:103910002292069A4F645643B446219F209E6F43DD
:10392000BC441F9F664347436744B4461D9ABC444A
:103930000F9F039E5743BC441E9F1B9A5F43BC448A
:10394000019F57431C9ABC44009F5743199A6744F0
:103950005643B4461A9ABC44029F5743BC44059F41
:10396000179A079E5743189ABC44049F5743159AC9
:10397000BC44089F5743169A67445643B446139A6B
:10398000BC440A9F0D9E5743149ABC44099F574359
:10399000119ABC440B9F5743129ABC440E9F574345
:1039A000109A67445643B446249A6744D26C8F6495
:1039B000069E229F56436F43F719209E9446464326
:1039C000BE19219F1E9A6743F6190F9F5743F71997
:1039D0001F9E1C9A5E43BF19019E56431D9ABE1935
:1039E000009F5743F619039F1A9A57431B9AF719DA
:1039F000029E5643189ABF19059E5643199ABE193E
:103A0000049F5743169AF619089F5743179AF719B8
:103A1000079E5643149ABF190A9E5643159ABE191B
:103A2000099F5743129AF6190B9F5743139AF71998
:103A30000E9E56430C9ABE19109F5743119AF619C1
:103A40000D9F57436246F619CE64229E5543664346
:103A5000AE19209D1E9A5D437519219E4643AD19EE
:103A6000009E56431F9AAE190F9D55437619029D2D
:103A70001C9A55431D9A7519019E56431A9AAD1901
:103A8000049E56431B9AAE19039D5543189A761906
:103A9000079D5543199A7519059E5643169AAD19F7
:103AA000099E5643179AAE19089D5543149A7619E4
:103AB0000E9D5543159A75190A9E5643129AAD19D3
:103AC0000D9E5643139AAE190B9D55430C9A7519CA
:103AD000119E56436246AD190D65229D54434543E0
:103AE000209A64190F9D55436519219C5C432D193B
:103AF000019C1E9A54431F9A2C19009D55431C9AF1
:103B00006419039D55431D9A6519029C54431A9AE2
:103B10002D19059C54431B9A2C19049D5543189A42
:103B20006419089D5543199A6519079C5443169AC0
:103B30002D190A9C5443179A2C19099D5543149A20
:103B400064190B9D5543159A65190E9C54430C9AA4
:103B50002D19129C5443139A2C190D9D55436246FE
:103B600064194C65229C50435C43209A0019009CC8
:103B7000544300190F9C219A54431E9A0419029829
:103B800050431F9A2418019850431C9A2018049CF3
:103B900054431D9A0019039C54431A9A0419079818
:103BA00050431B9A241805985043189A2018099CD2
:103BB0005443199A0019089C5443169A04190E98F4
:103BC0005043179A24180A985043149A20180D9CB1
:103BD0005443159A00190B9C54430C9A04191398DA
:103BE00050436246201853438865229A0F984EAC82
:103BF0005043209A1818019B5343C3180098219AE8
:103C000050431E9A1B18039850431F9A1818029B82
:103C100053431C9AC018059B53431D9AC31804981C
:103C200050431A9A1B18089850431B9A1818079B60
:103C30005343189AC0180A9B5343199AC3180998FA
:103C40005043169A1B180B985043179A18180E9B3E
:103C500053430C9AC018149B5343159AC3180D98DC
:103C6000504362461B18CB650F9B00985343229A22
:103C70005043209A1818029B5343C018019B219A65
:103C800053431E9AC318049850431F9A1B18039855
:103C900050431C9A1818079B53431D9AC018059B44
:103CA00053431A9AC318099850431B9A1B18089833
:103CB0005043189A18180E9B5343199AC0180A9B20
:103CC0005343169AC3180D985043179A1B180B9814
:103CD00050430C9A1818159B53436246C3180B6641
:103CE000009B01985343229A5043209A1B18039833
:103CF0005043219A1818029B5343C018059B1E9AE3
:103D000053431F9AC318049850431C9A1B180898D1
:103D100050431D9A1818079B53431A9AC0180A9BC0
:103D200053431B9AC31809985043189A1B180B98B1
:103D30005043199A18180E9B53430C9AC018169B9F
:103D40005343179AC3180D98504362461B184B668D
:103D5000019B02985343229A5043209A1B180498BF
:103D60005043219A1B18039850431E9A1818079B1A
:103D700053431F9AC018059B5343C31809981C9AB4
:103D800050431D9A1B18089850431A9A18180E9BF6
:103D900053431B9AC0180A9B5343189AC3180D9893
:103DA0005043199A1B180B9850430C9A1818179BDC
:103DB00053436246C3188B66029B03985343229A6F
:103DC0005043209A1818059B5343219AC31804980E
:103DD00050431E9A1B18089850431F9A1818079BA7
:103DE00053431C9AC0180A9B53431D9AC318099841
:103DF00050431A9A1B180B98504318180E9B1B9A85
:103E000053430C9AC018189B5343199AC3180D9822
:103E1000504362461B18CB66039B04985343229A77
:103E20005043209A1818079B5343219AC018059BAA
:103E300053431E9AC318099850431F9A1B18089899
:103E400050431C9A18180E9B53431D9AC0180A9B86
:103E500053431A9AC3180D9850431B9A1B180B987A
:103E600050430C9A1818199B53436246C3180B67AA
:103E7000049B05985343229A50431B180898209A94
:103E80005043219A1818079B53431E9AC0180A9B47
:103E900053431F9AC318099850431C9A1B180B9838
:103EA00050431D9A18180E9B53430C9AC0181A9B26
:103EB00053431B9AC3180D98504362461B184B6717
:103EC000059B07985343229A5043209A1B18099840
:103ED0005043219A1B18089850431E9A18180E9B9D
:103EE00053431F9AC0180A9B53431C9AC3180D983A
:103EF00050431D9A1B180B98504318181B9B0C9A83
:103F000053436246C3188B67079B08985343229A12
:103F10005043209A18180A9B5343219AC3180998B2
:103F200050431E9A1B180B9850431F9A18180E9B4B
:103F300053430C9AC0181C9B53431D9AC3180D98E9
:103F4000504362461B18CB67089B09985343229A3B
:103F50005043209A1B180E985043219A18180A9B18
:103F600053431E9AC0180D9B53431F9AC3180B98B6
:103F700050430C9A18181D9B53436246C018479033
:103F8000099B0A985343229A5043209A18180B9B76
:103F90005343219AC3180E9850430C9A1B181E982D
:103FA00050431F9A18180D9B53436246C0180A9B32
:103FB000489053430E98229A5043209A18180D9B0C
:103FC0005343219AC3180B9850430C9A1B181F98FF
:103FD000504362461B1849930E9B0B985343229AF9
:103FE00050430C9A1B1820985043219A1B180D9887
:103FF000504362461B184A930B9B0D985343229AD9
:1040000050430C9A1B182198504362461B184B933F
:104010000D9B229853430C9A50431B184C9313004A
:1040200062465A43259B4D921A0058581218D004E4
:10403000C00C1851043352139C2BF6D17592FFF724
:1040400061F80000F0B515007F22C37FC14C13401A
:10405000C37720239C460022A54484440400019099
:104060000CA80E0013000100019FBC4500D052E1D6
:104070000127502234A8CB6420F00EF850220021F2
:1040800048A820F051F84C22002121A820F04CF83B
:104090004C2200215DA8209720F046F831002A002C
:1040A00004A85C971FF0F8FF202204AB521BE8180D
:1040B000002120F039F8072204AB1B780026934337
:1040C00004AA1370D37F7F221A404023134304AA0B
:1040D000D377FE230293029B04AADB10D55C07234F
:1040E000029A012713401D413D406E403200039665
:1040F00034A948AE20A8FEF7BFFC039A5CA93000A3
:10410000FEF7BAFC320020A970A8FEF761FC70AA85
:104110003B00110084A8FEF7C1FC320020A998A83A
:10412000FEF775FC98AA3B001100ACA8FEF7B6FCA0
:10413000ACAA84A9E8A8FEF76AFC5CAA34A9C0A8C6
:10414000FEF746FC5CAA34A9D4A8FEF760FC002365
:1041500070AAD4A9FCA8FEF7A1FCFFA8002398AA86
:10416000C0A94430FEF79AFCFFAA4432FCA934A847
:10417000FEF72EFC34AA3B0011001000FEF78EFC67
:10418000FFAA4432FCA95CA8FEF741FC5CAA11001E
:1041900010003B00FEF782FC5CA9080000230CAA7B
:1041A000FEF77CFCACAA84A920A80023FEF776FCCD
:1041B000002211006848E42704ABBF00DB199B58BC
:1041C000039343435B18D904C90CB1500432590B13
:1041D000502AF0D11A0A132353435B9AD2B25B924E
:1041E0000022882604A9760090008919095804AF96
:1041F0005B180391D904C90CBE19013231505B0B15
:10420000142AEED148A9080084AAFEF7E1FB48AAC7
:104210000023E8A91000FEF741FC029B2E005A1E65
:10422000029200D357E72A0034A920A8FEF724FC05
:104230002A005CA948A8FEF71FFC502248A970A8D4
:104240001FF02AFF0F2570AA110010000123FEF7AE
:1042500025FC70A9002348AA0800013DFEF71EFCBA
:10426000002DF0D1502270A998A81FF015FF0E263E
:10427000102598AA012311001000013DFEF70EFC45
:10428000002DF6D198A92B0070AA0800013EFEF778
:1042900005FC002EECD10E25012698AA3300110052
:1042A0001000FEF7FBFB2D4B2B41334205D098AAA3
:1042B000002348A91000FEF7F1FB013DEDD220A933
:1042C000FFAD0800002398AA9435FEF7E7FB5022C3
:1042D00020A928001FF0E0FE1320002291006B5857
:1042E0000132C318580BDB04DB0C6B50142AF5D1D8
:1042F000E86C2A00C3B2EB6420A95023000AFEF741
:10430000BEFA0022110020AB0198844216D1012090
:10431000134B9D44F0BD019F3F7897403B431700EE
:1043200008370C2F05DDDF04FF0C07605B0B571F00
:104330000430019A013201923A0095E6072A04DC22
:104340001868043390400D3201432170083A090A7D
:104350000134D9E71CFBFFFF41DB0100EBFF00004C
:10436000E404000070B504000D0000201100202DB1
:1043700005D1202B03D81A002000FFF763FE70BD83
:10438000F0B5202405000E00170085B02200074973
:1043900003931FF081FE039B3200009321003B003A
:1043A0002800FFF7DFFF200005B0F0BDAC4C021085
:1043B00000487047904C0210002330B505001800EB
:1043C0009200CC580019C404E40CEC5004334013A0
:1043D0009A42F6D130BDC36C416C5A0ADB05DB0D45
:1043E00010B5C364D300CB18816B43649302CB1A1E
:1043F000C16983635301CB1AC361036801009A1832
:1044000002601422FFF7D8FF10BDF0B51368F5B0B5
:10441000229018000E684D687043009353682590F1
:104420002C0018000193009B70435C4393680019B3
:1044300002932690029C0198744368438B6820186D
:104440001C000393009B5C43D368001904932790DE
:10445000049C029874436843CB68241818000593A1
:10446000009B5843039B2018019C5C43136900196F
:1044700006930B69289007930698049C70436C433D
:10448000059B041901985843039B2418029858432C
:10449000009B2018079C5C435369001908932990DE
:1044A000069C08986C4370434B6900190993029C61
:1044B000059B5C43039B041904985843009B2418F4
:1044C00009985843079B2018019C5C439369001985
:1044D0000A932A900A9C0898744368438B692018B1
:1044E0000B93049C059B5C430019069C039B5C4357
:1044F000099B041901985843079B241802985843B4
:10450000009B20180B9C5C43D36900190C932B90E3
:104510000C9C0A9874436843CB6924180D93069841
:10452000059B5843039B2018089C5C43099B00197A
:10453000029C5C43079B041904985843009B241871
:104540000D9858430B9B2018019C5C43136A00197B
:104550000E930B6A2C900F930E980C9C70436C4337
:10456000059B041908985843039B24180A9858433C
:10457000099B2018049C5C43079B0019069C5C4324
:104580000D9B0419019858430B9B2418029858431B
:10459000009B20180F9C5C43536A001910932D90C8
:1045A0000E9C10986C4370434B6A001911930A9C3F
:1045B000059B5C43039B04190C985843099B2418E2
:1045C00006985843079B2018089C5C430019029CDE
:1045D0000D9B5C430B9B041904985843009B2418C3
:1045E000119858430F9B2018019C5C43936A001953
:1045F00012932E90129C1098744368438B6A201873
:1046000013930C9C059B5C43039B00190E9C5C431D
:10461000099B041908985843079B24180A98584383
:104620000D9B2018049C5C430B9B0019069C5C436B
:10463000119B0419019858430F9B24180298584362
:10464000009B2018139C5C4300192F90D36A12988A
:104650001493149C68437443CB6A241815930E98E2
:10466000059B5843039B2018109C5C43099B001931
:104670000A9C5C43079B04190C9858430D9B241813
:10468000069858430B9B2018089C5C43119B00190B
:10469000029C5C430F9B041904985843009B241808
:1046A00015985843139B2018019C5C43136B001909
:1046B00016930B6B309017931698149C70436C43B1
:1046C000059B041910985843039B241812985843CB
:1046D000099B20180C9C5C43079B00190E9C5C43B3
:1046E0000D9B0419089858430B9B24180A985843AB
:1046F000119B2018049C5C430F9B0019069C5C4393
:10470000159B041901985843139B24180298584389
:10471000009B2018179C5C43536B00191893319031
:10472000169C18986C4370434B6B00191993129C9C
:10473000059B5C4304191498039B5843099B241858
:104740000E985843079B2018109C5C430D9B001942
:104750000A9C5C430B9B04190C985843119B24182A
:10476000069858430F9B2018089C5C43159B001922
:10477000029C5C43139B041904985843009B241823
:1047800019985843179B2018019C5C43936B0019A0
:104790001A9332901A9C1898744368438B6B2018B4
:1047A0001B93149C059B5C430019169C039B5C4364
:1047B000099B041910985843079B241812985843D2
:1047C0000D9B20180C9C5C430B9B00190E9C5C43BA
:1047D000119B0419089858430F9B24180A985843B2
:1047E000159B2018049C5C43139B0019069C5C439A
:1047F000199B041901985843179B24180298584391
:10480000009B20181B9C5C43D36B00191C933390B6
:104810001C9C1A9874436843CB6B24181D931698FC
:10482000059B58432018189C039B5C43099B001967
:10483000129C5C43079B0419149858430D9B241841
:104840000E9858430B9B2018109C5C43119B001939
:104850000A9C5C430F9B04190C985843159B241821
:1048600006985843139B2018089C5C43199B001919
:10487000029C5C43179B041904985843009B24181E
:104880001D9858431B9B2018019C5C43136C001916
:104890001E930B6C34901F931E981C9C70436C43AA
:1048A000059B041918985843039B24181A985843D9
:1048B000099B2018149C5C43079B0019169C5C43C1
:1048C0000D9B0419109858430B9B241812985843B9
:1048D000119B20180C9C5C430F9B00190E9C5C43A1
:1048E000159B041908985843139B24180A98584399
:1048F000199B2018049C5C43179B0019069C5C4381
:104900001D9B0419019858431B9B24180298584377
:10491000009B20181F9C5C4300193590536C1E9C13
:10492000209320986C4370434B6C001921931A9C80
:10493000059B5C43039B04191C985843099B24184E
:1049400016985843079B2018189C5C430D9B001930
:10495000129C5C430B9B041914985843119B241818
:104960000E9858430F9B2018109C5C43159B001910
:104970000A9C5C43139B04190C985843199B2418F8
:1049800006985843179B2018089C5C431D9B0019F0
:10499000029C5C43041904981B9B5843009B2418F9
:1049A000219858431F9B2018019C5C430019946C6C
:1049B000059B27007743BC46209F36906F43BC443D
:1049C0001C9F886C5F433B00634423931E9F039BA3
:1049D0005F43BC46239B189F63449C46099B5F43EF
:1049E000079BBC441A9F5F430D9BBC44149F5F43CD
:1049F0000B9BBC44169F5F433B0063442393109F73
:104A0000119B5F43BC46239B129F63449C460F9BB4
:104A10005F43159BBC440C9F5F43BC440E9F139B9C
:104A20005F43199BBC44089F5F433B00634423934F
:104A3000179F0A9B7B439C46239B049F63449C4691
:104A40001D9B5F431B9BBC44069F5F43219BBC4453
:104A5000019F5F431F9BBC44029F5F433B00634435
:104A600023930300009F7B43D76CCA6C21009C46B4
:104A700069437E43239B7618634437931E99059BB5
:104A80007D435943039B7118209E5E43099B8919FE
:104A90001A9E5E43079B8E191C9959430D9B7618ED
:104AA000169959437118189E0B9B5E43119B8919E7
:104AB000129E5E430F9B8E1914995943159B7618CD
:104AC0000E995943139B7118109E5E43199B8919C7
:104AD0000A9E5E43179B8E190C9959431D9B7618AD
:104AE000069959431B9B7118089E5E43219B8919A7
:104AF000029E5E431F9B8E1904995943009B7118B7
:104B00005343019EC918039B464363438919ED181B
:104B100038911E9B07994B432099EB18059D6943DB
:104B20000B9D5B181A99694359181C9B099D6B438F
:104B30000F9DC918169B6B430D9DCB18189969439F
:104B4000139D5B1812996943119D5918149B6B436F
:104B5000179DC9180E9B6B43159DCB18109969437F
:104B60001B9D5B180A996943199D59180C9B6B434F
:104B70001F9DC918069B6B431D9DCB18089969435F
:104B80005B180299219D41435918049B6B43CB1834
:104B90000199099D51435B1839930599039B614322
:104BA0007B435B181E9969435918209B079D6B43F3
:104BB0000D9DC9181A9B6B430B9DCB181C9969431B
:104BC000119D5B18169969430F9D5918189B6B43EB
:104BD000159DC918129B6B43139DCB1814996943FB
:104BE000199D5B180E996943179D5918109B6B43CB
:104BF0001D9DC9180A9B6B431B9DCB180C996943DB
:104C0000219D5B18069969431F9D5918089B6B43AA
:104C1000CB1802990B9D51435B18049941435B18D3
:104C20003A930799059B61437B435B181E9969433F
:104C30005B182099099D69430F9D59181A9B6B4376
:104C40000D9DC9181C9B6B43139DCB181699694386
:104C5000119D5B1818996943179D5918129B6B4356
:104C6000159DC918149B6B431B9DCB180E99694366
:104C7000199D5B18109969431F9D59180A9B6B4336
:104C80001D9DC9180C9B6B43CB180699219D414370
:104C90005B18089969435918049B0D9D5343CB1821
:104CA0003B930999079B61437B4359181E9B6B43B8
:104CB000CB1820990B9D6943119D5B181A99694384
:104CC0000F9D59181C9B6B43159DC918169B6B4370
:104CD000139DCB1818996943199D5B181299694364
:104CE000179D5918149B6B431D9DC9180E9B6B4350
:104CF0001B9DCB1810996943219D5B180A99694344
:104D00001F9D59180C9B6B43C918069B0F9D53435D
:104D1000CB18089941435B183C930B99099B61435D
:104D20007B4359181E9B6B430D9DC918209B6B43F9
:104D3000139DCB181A9969435B181C99119D6943FF
:104D4000179D5918169B6B43159DC918189B6B43EB
:104D50001B9DCB1812996943199D5B1814996943DF
:104D60001F9D59180E9B6B431D9DC918109B6B43CB
:104D7000CB180A99219D41435B180C996943591836
:104D8000089B119D5343CB183D930D990B9B614399
:104D90007B435B181E9969430F9D5918209B6B43F9
:104DA000159DC9181A9B6B43139DCB181C99694319
:104DB000199D5B18169969435918189B179D6B43E9
:104DC0001D9DC918129B6B431B9DCB1814996943F9
:104DD000219D5B180E9969431F9D5918109B6B43C9
:104DE000C9180A9B139D5343CB180C9941435B1878
:104DF0003E930F990D9B61437B435B181E9969435A
:104E0000119D5B1820996943179D59181A9B6B4394
:104E1000159DC9181C9B6B431B9DCB1816996943A4
:104E2000199D5B18189969431F9D5918129B6B4374
:104E30001D9DC918149B6B43CB180E9941435B18F9
:104E40001099219D694359180C9B159D5343CB180C
:104E50003F9311990F9B61437B4359181E9B6B43F2
:104E6000139DCB1820996943199D5B181A996943C2
:104E7000179D59181C9B6B431D9DC918169B6B43AE
:104E80001B9DCB1818996943219D5B1812996943A2
:104E90001F9D5918149B6B43C9180E9B179D5343B4
:104EA000CB18109941435B1840931399119B6143B0
:104EB0007B4359181E9B6B43159DC918209B6B4360
:104EC0001B9DCB181A9969435B181C99199D69435E
:104ED0001F9D5918169B6B431D9DC918189B6B434A
:104EE000CB181299219D41435B18149969435918B5
:104EF000109B199D5343CB1841931599139B614304
:104F00007B435B181E996943179D5918209B6B437F
:104F10001D9DC9181A9B6B431B9DCB181C99694397
:104F2000219D5B18169969431F9D5918189B6B4367
:104F3000C918129B1B9D5343CB18149941435B180E
:104F400042931799159B61437B435B181E996943F4
:104F50005B182099199D69431F9D59181A9B6B4333
:104F60001D9DC9181C9B6B43CB181699219D41436D
:104F70005B18189969435918149B1D9D5343CB180E
:104F800043931999179B61437B4359181E9B6B43AD
:104F90001B9DCB1820996943219D5B181A99694381
:104FA0001F9D59181C9B6B43C918169B5343CB1864
:104FB000189941435B1844931B99199B61437B43A8
:104FC00059181E9B6B431D9DC918209B6B43CB1822
:104FD0001A99219D41435B181C9969435918189BE4
:104FE0005343CB1845931D991B9B61437B435B182F
:104FF0001E9969431F9D5918209B6B43C9181A9B22
:105000005343CB181C9941435B18290046931D9BC1
:1050100061437B435B181E99219D41435B18209996
:10502000694359181C9B5343CB18290047931F9B76
:1050300061437B435B181E9951435918209B43439E
:10504000C91848912B0001007B4361435B182099EC
:105050007843514354437A435B1804194B9225A972
:1050600027224CA849934A94FFF7A6F95FAB7390A7
:105070004BA81A6D9C6C9111611899645C6C910637
:10508000C90C61181C6C59641113611A1964DC6B2A
:105090001105C90C611A1C6AD9631111611A1962D0
:1050A000DC691107C90C611A5C68D9615112611879
:1050B0005960D2051968D20C8A181A60043B9842CC
:1050C000D7D14CA914220800FFF776F95F9B0001A5
:1050D0005A0A10435D9AC10089185A9A4C9C009252
:1050E000539A04190192C20FA41A4C94019D141AE8
:1050F000640164195394101A009C800200195A909C
:10510000DB05D000091A5202DB0D9B185D911422B9
:105110004CA922985F93FFF74FF975B0F0BDF0B539
:105120000E684D6833007343E1B011932B00734355
:105130008C685B00129323002A0073436A435B0070
:105140009B1822001393CB686A43009373439B1808
:105150005B001493009A0B696A43019373439B1895
:10516000220062435B009B1815934B690D911A0056
:105170000293019B72436B43D318009A0E906243D3
:105180009B185B0016938B691A000393029B724372
:105190006B43D318019A62439B18009A5B0011007D
:1051A00052439B1817930D9BDB691A000493039BD2
:1051B00072436B43D218019B4B43D318029A62434C
:1051C0009B185B0018930D9B1B6A1A000593049BA8
:1051D00072436B43D218029B4B43D318039A009936
:1051E00062439B18019A5B0052439B1819930D9BD5
:1051F000059A5B6A6A43069373439A18039B4B4371
:10520000D218049B01996343D318029A4A439B180E
:105210005B001A930D9B069A9B6A6A43079373433C
:1052200000999A18049B4B43D218059B019963433C
:10523000D318039A4A439B18029A5B0052439B1867
:105240001B930D9BDB6A079A08936A43734300998B
:105250009B18059A4A439A18069B02996343D218F1
:10526000039B4B430199D318049A4A439B185B0054
:105270001C930D9B089A1B6B6A4309937343009917
:105280009B18069A4A439A18079B02996343D218BF
:10529000049B4B430199D318059A4A439B18039AE0
:1052A0005B0052439B181D930D9B00995B6B1A008A
:1052B0000A93099B72436B43D318079A4A439B187E
:1052C000089A62439A18059B02994B430199D21898
:1052D000069B4B430399D318049A4A439B185B00DF
:1052E0001E930D9B00999B6B1A000B930A9B7243B4
:1052F0006B43D318089A4A439B18099A0299624350
:105300009A18069B4B430199D218079B4B4303996C
:10531000D318059A4A439B18049A5B0052439B1882
:105320001F930D9B0099DB6B1A000C930B9B724330
:105330006B43D218099B4B43D3180A9A02996243D4
:105340009B18079A4A4301999A18089B4B43D21815
:10535000059B04994B430399D318069A4A439B181B
:105360005B0020930D9B00991A6C0C9B10006B4303
:105370007043C0180A9B17004B43C3180B9802993F
:1053800060431B1808986F43484301991818099BFC
:105390004B430499C018069B4B430399C3180798C5
:1053A00048431B1805985B0040431B1821930D9B35
:1053B00000995B6C18007043C7190B9848433F185D
:1053C0000C98029960433818099F4F430199C019FE
:1053D0000A9F4F430499C719079848433F180898F4
:1053E0000399484305993818069F4F430D99C019F2
:1053F00040002290886C009907007743BC461F004C
:105400006F43BC440C9F4F431100614367448C467B
:105410000299BC440A9F4F430199BC440B9F4F43E0
:105420000499BC44089F4F430399BC44099F4F43D0
:10543000390061440F91059F079979438C460F9974
:105440000700614449000F9106996F4349438C4618
:105450000F99614423910D99C96C4E43F619009F31
:105460004D435743F7191E006643BE19B446029FC9
:105470000B9E7E430C9FB444019E7743BC44099F1E
:10548000049E77430A9EBC44039F7E43069FB44418
:10549000079E7E43089FB444059E77433E006644C2
:1054A0007600249606006643AE19019D039F55437E
:1054B0007619009D4C435D4375190B9E7E43029FF8
:1054C000AD190C9E7E43059FAE19099D7D43049F37
:1054D00076190A9D7D43069F7519089E7E43AD1976
:1054E000079E6D0037007643AD192595009D049EFB
:1054F00045436519029C54432D19019C5C432C19AA
:105500000B9D7543039E64190C9D7543069E65199A
:10551000099C74432D190A9C059E74432C19089DFF
:10552000059E7D43641964002694019D009C4543BB
:105530004C436519039C54432C19029D5D43641927
:105540000B9D7543049E65190C9C74432D19099C91
:10555000069E7C432C190A9D75436419089D6400BE
:105560006D4364192794029D019C45434C43651982
:10557000049C069E54432C19039D5D4364190B9DA6
:105580007543059E65190C9C7443089E2D19099C52
:1055900074432C190A9D7D43641964002894039D6B
:1055A000029C45434C436419059D55436419049D71
:1055B000069E5D4365190B9C7C432D190C9C74431E
:1055C000089E2C190A9D75436419099D64006D435A
:1055D00064192994049D039C45434C436419069D1A
:1055E000089E55436419059D5D4365190B9C7443E2
:1055F0002D190C9C099E7C432C190A9D7543641936
:1056000064002A94059D049C45434C4364193D0065
:1056100055436519069C5C432D190B9C7443089EE9
:105620002C190C9D754364190A9D64002E006D436E
:1056300064192B94069D059C45434C436419089DB1
:10564000554365193C005C432D190B9C7443099E1E
:105650002C190C9D754364193D0064002C94069C24
:1056600045434C436519340054432D19089C0A9E48
:105670005C432C190C9D754364190B9D64002E002E
:105680006D4364192D943C00089D4C4345436519B6
:105690000A9C54432D19099C5C432C190C9D75439D
:1056A000641964002E94099D089C45434C43651978
:1056B000340054432C190A9D5D4364190C9D640009
:1056C0002E006D4364192F940A9D099C45434C4359
:1056D0006519340054432C190B9D5D436419640013
:1056E00030940B9D0A9C45434C43641935005D433F
:1056F00064191500554364006419350031940B9CFE
:1057000045434C4364191D005543641964003294A9
:105710000500340055434C4364191D005D4364008B
:105720006419339404004A435C43121952003492C2
:1057300002004B4342434843494340005B009B18EF
:1057400036903791272211A938A83593FEF734FEF9
:105750004BAB5F9037A81A6D9C6C911161189964DE
:105760005C6C9106C90C61181C6C59641113611AA8
:105770001964DC6B1105C90C611A1C6AD96311111B
:10578000611A1962DC691107C90C611A5C68D96178
:10579000511261185960D2051968D20C8A181A6022
:1057A000043B9842D7D138A914220800FEF704FE22
:1057B0004B9B00015A0A1043499AC1008918469A26
:1057C000389C00923F9A04190192C20FA41A38948F
:1057D000019D141A640164193F94101A009C800200
:1057E00000194690DB05D000091A5202DB0D9B1808
:1057F0004991142238A90E984B93FEF7DDFD61B054
:10580000F0BD00000300F0B5A033D3B019000500CF
:1058100002A80193FFF783FC00235A4E16AC02AA9C
:10582000D0589A59E9585200121A52181A510918A8
:1058300002AAD1500433502BF1D102A9142208003E
:10584000FEF7BAFD2AAF142221002000FEF7B4FDB6
:1058500002A922003800FEF7D8FD00230321DA59FF
:1058600002A84A43C2500433502BF8D12E00142210
:1058700001005036FEF7A0FD38003100FFF74FFC65
:1058800000222AAF9100CB5901325B00CB51142A80
:10589000F8D139003800FEF78FFD3A0029002000CA
:1058A000FEF7B3FD00229100635801325B006350A4
:1058B000142AF8D121002000FEF77EFD2000FEF71B
:1058C0008AFD02A92800FFF72AFC00232D4FDA5990
:1058D000E95892005218E1584900521AEA5004332C
:1058E000502BF4D1142229002800FEF765FD280072
:1058F000FEF771FD3EA8019A3100FEF786FD0023F8
:105900003EA819001A58A031520004336A50502B97
:10591000F7D1019914220800FEF74EFD0198FEF719
:105920005AFD0023FA58E9585200521AE158521809
:10593000E2500433502BF5D1210014222000FEF751
:105940003BFD220002A930003EACFEF75EFD2AA915
:105950002000FFF7E4FB0022A918BB58086D9B004C
:105960001B18A058043240001B1A0B65502AF3D1B3
:105970003C3A31003000FEF71FFD3000FEF72BFDF2
:1059800053B0F0BD084D0210412301480B60704731
:1059900058520210202301480B60704799520210A0
:1059A000202301200B60704730B597B00100040040
:1059B000502202A81EF070FB002319000C4802AA16
:1059C000D2581D580192521B521AD10FD204D20C38
:1059D00002ADEA500433502BF1D101254D4028008F
:1059E00002AA2100FCF74BFF280017B030BDC046CB
:1059F000084D02100B00F0B50500674CA033A5441C
:105A00000F002CA8190040AC0293FFF788FB2CAACA
:105A1000290004A8FEF7F9FC2CAA02992000FEF741
:105A2000F4FC2B005033220019002CA80093FEF741
:105A3000ECFC2B00A0331900200018AE0193FFF7F7
:105A40006EFB220039003000FEF7DFFC22000199D6
:105A500054A8FEF7DAFC39002000503154AAFEF7B2
:105A6000D4FC002330004D495A5804AE9E591F58AB
:105A70005200961BF6191E502CAE9E59921B1E59B1
:105A800092191A510433502BEED114220100FEF763
:105A900093FC142221002000FEF78EFC2000FEF76C
:105AA0009AFC2000FFF780FF00231A00990061583C
:105AB00001330A43142BF9D153421A43D30F18A9C7
:105AC0007CA868AE039354AFFFF729FB7CAA04A916
:105AD0003000FEF79AFC18AA7CA93800FEF795FC66
