:020000040804EE
:10000000000008249D160508E9160508C99604088D
:10001000CF960408D5960408DB960408000000007B
:100020000000000000000000000000006925040836
:10003000E91605080000000001260408112604083E
:10004000E9160508E9160508E9160508E916050880
:10005000E9160508E9160508E9160508E916050870
:10006000E9160508E9160508E9160508E916050860
:10007000E9160508E9160508E9160508E916050850
:10008000E9160508E9160508E9160508AD2705086B
:10009000BD270508B9270508C9270508E916050879
:1000A000E9160508E9160508E9160508E916050820
:1000B000E9160508E9160508E9160508E916050810
:1000C000E9160508E9160508E9160508E916050800
:1000D000E9160508E9160508E9160508E9160508F0
:1000E000E9160508E916050800000000E9160508EC
:1000F000E9160508E9160508E9160508E9160508D0
:10010000E9160508A1130508E9160508E91605080A
:10011000E9160508E9160508E9160508E9160508AF
:10012000E9160508E9160508E9160508E91605089F
:10013000E916050885560408E9160508E9160508B4
:10014000E9160508E9160508000000000000000097
:10015000E9160508E9160508E9160508E91605086F
:10016000E9160508E9160508E9160508E91605085F
:10017000E9160508E9160508E9160508000000005B
:10018000E9160508E9160508E9160508E91605083F
:10019000E9160508E9160508E9160508E91605082F
:1001A000E9160508E9160508E9160508E91605081F
:1001B000E9160508E9160508E9160508E91605080F
:1001C000E9160508E9160508E9160508E9160508FF
:1001D000E9160508E9160508E9160508E9160508EF
:1001E000E9160508E9160508E9160508E9160508DF
:1001F000E9160508E9160508E9160508E9160508CF
:10020000E9160508E9160508E9160508E9160508BE
:10021000E9160508E9160508E9160508E9160508AE
:10022000E9160508E9160508E9160508E91605089E
:10023000E916050899160508E9160508E9160508DE
:10024000E9160508E9160508E9160508E91605087E
:10025000E9160508E9160508E9160508E91605086E
:10026000E9160508E9160508E9160508E91605085E
:10027000E9160508E9160508E9160508E91605084E
:10028000E9160508E9160508E9160508000000004A
:10029000E9160508E916050810B5054C237833B9A9
:1002A000044B13B10448AFF300800123237010BD49
:1002B0000018002400000000ECEB070808B5034B11
:1002C0001BB103490348AFF3008008BD00000000E4
:1002D00004180024ECEB0708154B002B08BF134B48
:1002E0009D46A3F5803A00218B460F461348144AD9
:1002F000121A17F005FE0F4B002B00D098470E4B3B
:10030000002B00D098470020002104000D000D486C
:10031000002802D00C480AF009F917F0EFF8200085
:10032000290004F0EBFA0AF017FB00BF00000800F8
:1003300000000824000000005948040800180024A8
:1003400018F300242DA5040800000000704703687E
:100350001847000010B5064C1820217881F00101E3
:1003600002F08AF8237883F00103237010BD00BFE8
:10037000080000240B6803604B6843608B6883604F
:100380007047C3680BB19B681847704738B5074B77
:100390000546044645F8283B06F000FA2846FFF7D4
:1003A000F0FF204606F010FB204638BD54CA07086F
:1003B0002DE9F04F04468BB04448002505F040FD80
:1003C000424805F039FD07460AF01AFB2146039022
:1003D000A8463E482E4605F031FD2318DFF8EC9084
:1003E000009364237B439B4602932146484605F0D5
:1003F00025FD21460246484605F004FE1CE0012387
:100400002CE004A907A801F008FF314901F011FF11
:100410000146304801F006FE04A8554601F042FEB0
:1004200007A801F03FFE029B3E449B442A4B9E429C
:100430002DD8019B002BD8D028493B462246484660
:1004400031443C4405F048FD009B9C42D7D32146F3
:10045000484605F0F3FC23180093002308F1010837
:1004600001930323B8FBF3F303EB43039845DAD17D
:10047000194BBBFBF3FAAA45D5D0194907A801F0DF
:100480005CFE0A22514604A801F087FEB9E715492F
:10049000104801F0D1FD03980AF0D3FA0B4805F09B
:1004A000F7FC11490B4801F0C7FD1049094801F05C
:1004B000C3FD0BB0BDE8F08F04A801F0F3FD07A861
:1004C00001F0F0FD13F082FFF9E700BF641800248B
:1004D000C8CA0508441C002434F401001FCB0508D9
:1004E000B4CA0508BDCA0508CACA050808CB05086C
:1004F0004FF47A7001F000BF084B094A1B6810B531
:10050000084C03F100632046136006F093F920467F
:10051000054A0649BDE810400AF006B80400002468
:100520006018002420180024000000248D03040813
:1005300070B54FF4E13188B0404800F0E9F93F4D23
:1005400001F0C8FE00F6C414284600F09FF940B937
:1005500001F0C0FE844204D24FF4FA7001F0CCFEE8
:10056000F2E7374D40F6C41001F0C6FE35492B685E
:1005700004A85C78344B1A68344BD65C01F0DDFD7E
:100580002B68102201A8197801F0F6FD01A904A832
:1005900001F043FE0146294801F044FD01A801F0A5
:1005A00081FD04A801F07EFD294904A801F0C5FDE4
:1005B0000A22214601A801F0DFFD01A904A801F0EB
:1005C0002CFE01461D4801F02DFD01A801F06AFD39
:1005D00004A801F067FDB4421FD80121182001F0E2
:1005E000CBFE1C4B46F2A81204A907931A4B1B48DA
:1005F00004930023CDE90533002306F0FCF804A89A
:10060000FFF7BFFE4FF00060FFF7D2FE134806F081
:10061000C5F80121182001F02FFF08B070BD01A816
:1006200001F040FDFFE704A801F03CFD13F0CEFE11
:10063000F5E7F8E704A8FFF7A4FEF7E7441C002459
:100640006018002453BF07080400002420CB0508CD
:100650006FBF0708A8CA050855030408201800241E
:1006600030B5A1F11004002500F00F02CD7302395E
:100670000009D3B2092ACCBF373330330B748C4214
:10068000F2D130BDC2207047074B10B5044603605D
:10069000806A08B108F0EAFC236913B19B68201D49
:1006A0009847204610BD00BFE4C9070810B50446AE
:1006B000FFF7EAFFD02120460AF0B0F9204610BD2E
:1006C00000B5B9B01622172104A805F0DDFD4FF4DE
:1006D000A17338AA102122F8D43D00230DEB0100AC
:1006E0000093022305F026FD04A8FFF7CDFF39B0E3
:1006F0005DF804FB04A8FFF7C7FF13F067FE0000D6
:1007000008B5094A0121094BA6201A6001F07AFEBA
:100710000121A62001F0FAFEFFF7D2FF044B43F2BD
:10072000D2021A6008BD00BF004000586C180024B7
:100730000040005210B504460AF0A2FD2146FFF722
:100740008FFF0AF0A3FD04F11001FFF789FF0AF003
:10075000A3FD04F12001FFF783FF302010BD00004E
:1007600008B54DF65972002107480FF0D9FBBFF3C9
:100770004F8F0649064BCA6802F4E0621343CB6010
:10078000BFF34F8F00BFFDE76C18002400ED00E0C1
:100790000400FA0570B58AB061B1931E222B1FD8F0
:1007A00001AB1D4648B9AB4207D00A46AB4212D84E
:1007B0000023137008460AB070BDB0FBF2F402FBD0
:1007C000140620460133F4B2092E94BF3034573456
:1007D00003F8014CE6E713F8010D02F8010BE5E719
:1007E0000021E7E7FFF7D6BF00207047704770B5DC
:1007F00090F8383105461446F3B90368DB69984729
:1008000004F4706304F00F02B3F5407F04F0F003CA
:100810000CBF07210821302B0CBF02230123012A22
:1008200008D0901E42424241A869BDE8704000686D
:1008300005F02BBE0222F7E770BD38B590F83851AD
:100840000446A5B983695BB1186848B10368DB68E1
:100850009847A36904211D60A0690AF0DFF8A5612B
:100860000023C4F82831C4F82C31C4F8303138BD25
:1008700010B4D0E9013401686210E4075DF8044B5C
:1008800001EB020044BF8A58D358184708B590F8C6
:1008900038313BB1012001F02FFD0648BDE808408A
:1008A00001F044BB82691AB11368003318BF0123F9
:1008B000184608BD1423002413B590F838310446B7
:1008C00023BBA369186805F0F7FDF8B1A3690122FD
:1008D0000DF10701186803685B699847D4F8303157
:1008E000B3F5807FEDD0D4F828319DF8072023445C
:1008F00083F82820D4F828310133DBB2C4F828313A
:10090000D4F830310133C4F83031DAE702B010BD29
:100910007FB590F8383104460E46002B36D18569F4
:1009200025B904200AF054F8A0610560A36918688D
:1009300028BB80200AF04CF83346B4F92220054643
:10094000B4F9201006F0E4F8A3691D60B4F924207E
:10095000531C06D0A0690321B4F92630006806F0C4
:10096000E5F8A369186888B10E4B00226946009427
:1009700003930D4B0292019305F0C0FD03E0314655
:1009800005F070FDE2E76846FFF7FBFC04B070BDC0
:10099000802128460AF042F813F018FD6846FFF758
:1009A000F0FCF9E784BF0708B908040870B50446ED
:1009B0000D4601F0BBFA30B12368294620461B6C76
:1009C000BDE87040184770BDA0F59860EEE70000E4
:1009D00013B590F8383104468DF807102BB1C9B221
:1009E0000B48FFF7E3FF02B010BDA369186805F0DC
:1009F00074FD0028F9D0A36901220DF107011868E0
:100A000003681B699847013018BF0120EBE700BF5E
:100A1000142300242DE9F04107468846164601F0CC
:100A200085FA80B10024A6420ED9351B08EB0401DB
:100A30003846B5F5007F28BF4FF400752A462C4490
:100A400000F018FFEFE704462046BDE8F081A0F56E
:100A50009860DFE770B590F8383105460E461446C9
:100A60002BB10F48FFF7D6FF0446204670BDAB6997
:100A7000186805F032FD0028F9D0AB69012118682B
:100A8000C36F7C301B6B9847AB69224631461868B0
:100A900003681B699847013008BF0024E5E700BFE1
:100AA0001423002430B50446C3B001F097F905467D
:100AB000D4F8D835C3F58073984203DDD4F8D855FF
:100AC000C5F580752A4601AB02A9204600F0C9FF92
:100AD000019902AB00226D1A1D44D4F8D835B3F544
:100AE000807F19D08A4217D0D4F8D835B3F5807FEB
:100AF00010D0D4F8D035A85C234483F8D004D4F8BF
:100B0000D0350133DBB2C4F8D035D4F8D835013351
:100B1000C4F8D8350132E0E743B030BD38B50446FB
:100B200000F026FB2046FFF7BDFFD4F8D85520463D
:100B300000F026FB284638BDA0F59860EEE70000DF
:100B400008B590F838311BB10348FFF7E7FF08BD3F
:100B5000D0F83001FBE700BF1423002438B5044669
:100B600000F006FB2046FFF79DFFD4F8D8354BB1C7
:100B7000D4F8D435234493F8D054204600F000FB39
:100B8000284638BD4FF0FF35F7E7A0F59860E5E758
:100B900008B590F838311BB10748FFF7DFFF08BDF3
:100BA000D0F830312BB1D0F82C31184490F828000F
:100BB000F5E74FF0FF30F2E71423002438B5044680
:100BC00000F0D6FA2046FFF76DFFD4F8D835A3B170
:100BD000D4F8D435234493F8D054D4F8D435013321
:100BE000DBB2C4F8D435D4F8D835013BC4F8D835D5
:100BF000204600F0C5FA284638BD4FF0FF35F7E72C
:100C0000A0F59860DAE7000008B590F838311BB11C
:100C10000D48FFF7D3FF08BDD0F830318BB1D0F8C5
:100C20002C31D0F82C210344013293F82830D2B271
:100C3000C0F82C21D0F83021013AC0F830211846F4
:100C4000E9E74FF0FF30E6E71423002408B54FF43E
:100C50008072002117F054F90022C0F80021C0F87A
:100C60000421C0F8082108BD2DE9F843374C0025C0
:100C70004FF47A73364E29464FF4807204F12800FF
:100C8000E56126604FF47A794FF02008C4E90153FA
:100C90002023C4E9053517F033F90123C4F828519E
:100CA000C4F82C51C4F83051002584F83831FFF7CE
:100CB000E9FC0E28274C8ABF274B4FF0FF37B3F9CA
:100CC000E070FFF7DFFC0D2804F128008ABF224BFB
:100CD0004FF0FF33B3F9D03027844FF6FF776384AA
:100CE0002660E561A784E784C4E90159C4E9058564
:100CF000FFF7ACFF84F838510F23184C2384562398
:100D000004F12800266063845823E561A3845923F5
:100D1000C4E90159E384C4E90585FFF797FF84F826
:100D2000385198230E4C2384992304F1280026601F
:100D3000E5616384A784E784C4E90159C4E90585B2
:100D4000FFF784FF84F83851BDE8F883441C002481
:100D500098BF0708901800240C000024CC19002428
:100D6000081B0024002070477047704710B5D0F86A
:100D70008C452CB1236820465B689847A468F8E747
:100D800010BD38B50D46D0F88C4534B123682046E7
:100D900029469B689847A468F7E738BD0048704724
:100DA00064C00708054B10B50446036007F0BBF9A3
:100DB000204607F0D1F9204610BD00BFE4BF070868
:100DC00010B50446FFF7EEFF4FF4B261204609F07C
:100DD00025FE204610BDF7B5002305460E46D0F887
:100DE0008C45A4B1236831460DF103022046DF682B
:100DF00001ABB8479DF803100346042905D0019ABA
:100E0000284606F0EDFB03B0F0BDA468E9E7019ABF
:100E10009DF80310F4E770B505460E4622B1002197
:100E2000BDE8704006F0D2B9D0F88C455CB12368BB
:100E30000022314620461B69984710B101212846FF
:100E4000EEE7A468F2E72146F9E770B50E460546DD
:100E5000D0F88C4500213CB12368314620465B69BF
:100E60009847A4680146F6E72846BDE8704006F0BA
:100E7000ADBAF8B505460E461746D0F88C453CB1DC
:100E8000236820463A4631469B699847A468F6E7AE
:100E900028460121BDE8F84006F0F6BA70B50021F9
:100EA00086B0044606F098FD00234FF48975A188AA
:100EB000EF26ADF806302389ADF8045002258DF8F1
:100EC00010301B0AE2888DF8113040F201238DF8B2
:100ED0000750ADF8123040F203138DF80950012588
:100EE000ADF8143004F10A038DF8086005AE8DF8F2
:100EF0000A501C468DF80C1001AD090A8DF80E2021
:100F0000120A8DF80B008DF80D108DF80F202A466F
:100F1000083303CAB24243F8080C43F8041C1546D0
:100F2000F5D1128820461A8006B070BDF8B50024AD
:100F300006460D462746304617F0C2FBA04207D9A9
:100F4000335D05F8143005EB440301345F70F2E7BC
:100F5000400000F0FE00F8BD38B50446D0F88C55CE
:100F600035B12B6828461B6A984710B9AD68F7E77A
:100F7000284640F2023304F24A51A4F84835FFF7FC
:100F8000D5FF94F84835184484F8480504F5A9605D
:100F900038BD000040F2023300F20A5110B5044699
:100FA000A0F808350548FFF7C1FF94F80835184444
:100FB00084F8080504F5A16010BD00BFD0BF070884
:100FC00040F2023310B50446A0F8C83400F2CA401B
:100FD000FFF7B0FB94F8C834184484F8C80404F54B
:100FE000996010BD2DE9FF4100231D4A044600F51C
:100FF0004E788DF80A30092590F888350192FA224A
:101000008DF8083001238DF80C208DF80930C023AD
:101010008DF80B3001AB03CBC4F83803C8F80410CB
:1010200088F80820D4F88C658EB1336800213046EA
:101030001B689847478805F54E7300F10901093F81
:10104000E0183A463D4416F05DFEB668ECE784F8D9
:101050003A5340462D1284F83B5304B0BDE8F0816A
:101060000902FFFF73B504460D46164611F010FB4A
:101070004FF4807301462A4620460093334606F01B
:1010800073FC024B2046236002B070BDE4BF07082A
:1010900010B5D0F88C350446A3B9C0F88C1594F877
:1010A000883508464A790B7194F88835134484F8DA
:1010B00088350B685B6A9847238918442081012092
:1010C00010BD13469A68002AFBD19960E7E71FB567
:1010D000044606F043FC0146684605F0E3FD402166
:1010E000684605F04FFED4F88C4534B12368694654
:1010F0002046DB699847A468F7E7684605F0D9FD04
:1011000004B010BD684605F0D4FD13F05FF910B5CA
:101110000446FFF7DCFF2046BDE8104006F08EBB1A
:101120000F4808B50378BFF35B8FDB0711D409F0D4
:101130000BFA70B140F25B2242F241310948FFF7ED
:1011400091FF074809F022FA074A0849054809F0C3
:10115000EBF9044808BD024809F022FC13F036F907
:10116000801D0024841D002400000024A50D040817
:1011700010B5FFF7D5FF0368BDE810405B6F184757
:1011800010B5FFF7CDFF0368BDE810409B6F18470F
:1011900010B5FFF7C5FF0368BDE81040DB6F1847C7
:1011A00005F040BF05F002BF05F02CBF7047704747
:1011B0007047436A93F878007047D0F8A4047047EA
:1011C0000120704700487047C8C107082DE9F04763
:1011D00094B004460F464B22002101A816F090FE61
:1011E0002679D4F8A434751C94F80E90002B94F84A
:1011F0000C80EDB294F80DE014BF05200020002F04
:1012000040F0938040F2092309218DF81D0042F23D
:101210000540ADF804304FF481738DF815100121AD
:10122000ADF808308023ADF81E0010208DF80B308B
:1012300032234FF0040A24278DF80C3008234FF096
:10124000030C4B228DF80D300B238DF819101D3433
:101250008DF80E3040F202238DF81C10ADF81030DE
:1012600002238DF8210005208DF822108DF825101D
:101270008DF8271006218DF806208DF80F608DF867
:1012800012308DF817608DF81A308DF81B308DF8FC
:1012900023008DF826C08DF82A308DF82B108DF89C
:1012A0002C008DF816A08DF824708DF828A08DF8EC
:1012B00029708DF82D708DF82E1007218DF82F6074
:1012C00041F202068DF831108DF8411040F20751BD
:1012D0008DF83050ADF8366040F209468DF83A503E
:1012E00040F602258DF832008DF842002046ADF818
:1012F00048100DEB0A018DF833908DF834C0ADF82D
:101300003860ADF83C508DF843808DF844308DF84E
:1013100046308DF84AE08DF84B308DF84D3016F0A0
:10132000F1FC204614B0BDE8F0870020FAE7000089
:101330000A4B10B504460360FFF7F2FE06F0F3FE19
:1013400004F5247005F0B8FD04F17C0005F0B4FD4F
:1013500004F1700005F0B0FD204610BD88C10708FB
:1013600010B50446FFF7E4FF4FF49561204609F0FD
:1013700055FB204610BDFFF70BBF0000034B10B517
:101380000446036005F016FC204610BDACC00708FB
:1013900010B50446FFF7F2FF2821204609F03EFB76
:1013A000204610BD034B10B50446036005F002FC57
:1013B000204610BD7CC0070810B50446FFF7F2FFB9
:1013C0003421204609F02AFB204610BD034B10B5FE
:1013D0000446036005F0EEFB204610BD94C00708EC
:1013E00010B50446FFF7F2FF3821204609F016FB3E
:1013F000204610BD38B51E4B0D4604464FF4007212
:101400001968C0F80F1099889B79A0F81310022171
:101410004375284605F0ACFC4FF40072207302219E
:10142000284605F0AAFC4FF4007260730321284699
:1014300005F09EFCA073284605F03CFC20B9AF22C5
:101440000C490D4808F020FB04F185020023C4F884
:10145000882204F2992284F8783084F88430C4F821
:101460008C3284F89832C4F89C24C4F8A03438BD77
:10147000C8C0070804C107086FC107082DE9F34178
:1014800004460E461546FFF783FEF28823799A42FA
:1014900037D1002D35D17778012F2ED1F378202B3D
:1014A00027D13289072A24D104F10F0804F1160547
:1014B0004046294616F0F4FBD0B1D4F81630C4F8F3
:1014C0000F30638B207CE17BA4F8133001EB00210B
:1014D000E57C607C237F01EB00410095A07C2568C2
:1014E000637501EB0061237D2046627D6D6BA8472B
:1014F0003D46F378212B08BF0125284602B0BDE800
:10150000F0810025F9E710B50446FFF741FEFFF72B
:1015100007FE217B06F0A4FC04F1850304F17C00A6
:10152000C4F888320023C4F88C3284F8843005F083
:1015300078FC94F884302BB923682046DB6BBDE837
:101540001040184710BD000070B50446FFF720FE9C
:10155000D4F8A0542DB140F2DD120F490F4808F025
:1015600093FA04F29923C4F89C34FFF7D9FD617B08
:1015700006F0D4FB84F89852C4F8A00404F5247053
:1015800005F04FFC94F898322BB9236820469B6BEA
:10159000BDE87040184770BD04C10708D4C00708F3
:1015A00010B4D0E9013401686210E4075DF8044B1F
:1015B00001EB020044BF8A58D358184770B586B073
:1015C0000546FFF7E5FD02ACFFF7AAFD0023A97B66
:1015D00000944FF400720593032306F049F9204666
:1015E000214EFEF7CEFEFFF79BFD204A297B02230A
:1015F00003920022009404924FF400720596029523
:1016000006F036F92046FEF7BCFEFFF789FD184BC1
:10161000697B4FF400720393002300940493022328
:101620000596029506F024F90CE02046FEF7A9FE87
:1016300012F0CCFE2046FEF7A4FEF9E72046FEF7A6
:10164000A0FEF5E72046FEF79CFEFFF769FD4FF48C
:101650000073D5F89C24697B06F002FB012085F815
:10166000980206B070BD00BFBCC00708071504088B
:101670004915040802232DE9F04143710023044673
:10168000054683609046144B04F17C0645F8703B98
:10169000284605F0B9FB304605F0B6FB04F5247783
:1016A000384605F0B1FBC4F8A484FFF739FD2146A4
:1016B000FFF7EEFC0CE0384605F0FEFB304605F087
:1016C000FBFB284605F0F8FB12F080FEF6E7F8E792
:1016D0002046BDE8F08100BF88C1070870B5044608
:1016E0000D46FFF755FD84F87850002D3ED194F853
:1016F000843033B1FFF714FD217B06F089F984F8BB
:10170000845004F1850304F17C0600253046C4F8BA
:101710008832C4F88C5205F084FB304605F07AFB21
:1017200028B94FF4A2721449144808F0ADF994F89E
:10173000983233B1FFF7F4FC217B06F069F984F8A5
:10174000985204F2992304F52475C4F89C340023BC
:101750002846C4F8A03405F064FB284605F05AFB7F
:1017600020B94FF4A77204490548DEE704F1700080
:10177000BDE8704005F055BB04C10708E2C007088A
:10178000F3C0070810B50446FFF702FD002120460C
:10179000BDE81040FFF7A2BF38B50D460446FFF77D
:1017A000F7FC042D05D020460021BDE83840FFF7A6
:1017B00095BF38BDF8B5164604460D461F46FFF7DF
:1017C000E7FC0423EA88337023799A4225D16978AB
:1017D000012922D1EA78212A08D0222A0BD0202AF6
:1017E0004FF000001BD13070163401E00F3431701F
:1017F00007203C60F8BDAB88204613F0010308BF0A
:101800001946FFF76BFFAB8803F00103E366AB8873
:1018100003F00203A366022333700020EAE70323E8
:101820003370E7E710B58AB00446FFF7A1FC6846BD
:1018300005F0B4F90D4B694604F17000009309946A
:1018400005F007FB2046FFF79BFC094B002168468B
:101850001A6805F0EDF96846FFF790FD0AB010BD73
:101860006846FFF78BFD12F0B1FD00BFACC0070862
:10187000D0C0070870B58EB004460E461546FFF777
:1018800077FC01A805F08AF9114B01A904F17C004D
:10189000019300230C958DF83430CDE90A4605F00C
:1018A000D8FA2046FFF76CFC0A4B002101A81A6801
:1018B00005F0BEF904E001A8FFF774FD12F086FD03
:1018C0009DF8344001A8FFF76DFD20460EB070BDB5
:1018D0007CC00708D0C0070810B50446FFF758FCC5
:1018E00094F884307BB9D4F88C3263B1FFF718FCDC
:1018F000D4F88C3204F18502217B06F04FFA10B146
:10190000012384F8843010BD2DE9F8431E460446B7
:10191000894690469DF82070FFF72AFC002333602B
:1019200094F87830E3B194F88430CBB9D4F88C5281
:10193000C5F50075454528BF4546B8F1000F05D0EF
:101940002A464946D4F8880216F0DCF9D4F88C32DD
:101950002B44C4F88C32356017B12046FFF7BCFF2A
:101960002046BDE8F843FFF70BBCF0B50446406ADB
:1019700085B0012690F878502DB984F8305035465E
:10198000284605B0F0BD04AB0027D4E90A1243F89D
:10199000047D0096FFF7B8FF0399E36AA26A5B1A19
:1019A0000A44E362A26213B984F83060E8E7606A2F
:1019B0003D46FFF791FFE3E72DE9F0431C4691B068
:1019C000054689469046FFF7D3FB002C4FF00006F2
:1019D00002A806BF01AC01270027266005F0DEF84B
:1019E000134B02A905F5247002938DF83C708DF815
:1019F0003D60CDE90B59CDE90D8405F02AFA284662
:101A0000FFF7BEFB0B4B314602A81A6805F010F930
:101A100004E002A8FFF7DAFC12F0D8FC9DF83D4084
:101A200002A8FFF7D3FC204611B0BDE8F08300BF49
:101A300094C00708D0C0070810B5D0F8A0340446F9
:101A400073B990F898325BB9FFF76AFB4FF40073F3
:101A500004F29922617B06F003F9012384F898329D
:101A600010BD70B504461E4600230846336094F846
:101A70007830EBB194F89832D3B9D4F8A054D4F8B4
:101A80009C14954228BF15462A4616F03BF935604E
:101A9000D4F89C34D4F8A0242B44551BC4F89C34AF
:101AA000C4F8A05425B92046BDE87040FFF7C4BF74
:101AB00070BD37B50446406A90F878502DB984F867
:101AC00035500125284603B030BD02AB002243F853
:101AD000042DD4E90A12FFF7C4FF0199A26A0A444F
:101AE000A262226B13680B4413600199E36A5B1ACC
:101AF00094F83410E36209B9126802B91BB90123E2
:101B000084F83530DEE7606A0025FFF795FFD9E7F6
:101B10006FF01500704700290CBF6FF0180000200F
:101B20007047012070476FF0150070476FF0150087
:101B300070471120704770477047704703689B6C6F
:101B40001847A0F59860F9E77047704770477047ED
:101B500010B50446012000F0CFFB94F8780010BDCA
:101B6000A0F59860F4E7000038B54FF0FF3201238C
:101B7000FF210B4809F0F6F80A4D00F0ABFB0446D4
:101B800095F878301BB1012000F0B6FBF8E700F0C3
:101B9000A1FB001BC728F6D9BDE83840FEF7E0BD21
:101BA0004C2900241423002407B502AB012243F87A
:101BB000041D1946FFF75EFE18B1019803B05DF8E9
:101BC00004FB4FF0FF30F9E7A0F59560FFF7ECBF9D
:101BD00007B5002302A9012201F8013DFFF7ECFE41
:101BE00020B19DF8070003B05DF804FB4FF0FF3013
:101BF000F9E7A0F59560FFF7EBBF2DE9F843044640
:101C0000884617461E46089DFFF7C2FAD4F8F0959D
:101C1000B9F1000F04D02B46324639464046C8473A
:101C2000C4F8E085C4F8E475C4F8E865C4F8EC5578
:101C3000BDE8F88370B506460025FFF7A9FA06F25D
:101C4000F454D6F83436AB4208D92046103454F850
:101C5000043C1BB11B6801359847F2E770BD0000DA
:101C6000B0F5966F03D10121014809F05DB87047C6
:101C70004C29002410B4D0E9013401686210E40753
:101C80005DF8044B01EB020044BF8A58D358184753
:101C9000114B03F1780270B503600446C0F8A82424
:101CA00000F2F45603F1D80200F23465E833C0F8CC
:101CB000AC24C0F8C034AE4204D0103D2846FEF734
:101CC00060FBF8E704F5956007F054FB2046FFF74A
:101CD0002FFB204670BD00BFFCC10708A0F5956032
:101CE000FFF7D6BFA0F2AC40FFF7D2BF10B5044655
:101CF000FFF7CEFF4FF4C761204608F08FFE204665
:101D000010BDA0F2AC40FFF7F1BFA0F59560FFF762
:101D1000EDBF0000F7B51E4604460F46154610F00D
:101D2000B7FCBDF8243001462A4601932046BDF891
:101D300020300093334604F59566FFF79BFC0021A5
:101D4000304607F0EDFA4FF47A73002504F59A60F7
:101D5000C4F8C8342946204BC4F8C45403F17802AF
:101D60002360C4F8A82403F1D802E833C4F8AC24F3
:101D70004FF48072C4F8C03416F0C2F8C4F8D055DD
:101D8000C4F80056C4F8D455C4F81056C4F8D85551
:101D9000C4F82056C4F83056C4F83456C4F8F05588
:101DA000BFB12046FFF73EFD13E004F2346504F2B4
:101DB000F457BD4204D0103D2846FEF7E2FAF8E79A
:101DC000304607F0D7FA2046FFF7B2FA12F0FEFAD3
:101DD000F9E7204603B0F0BDFCC1070838B5054659
:101DE000FFF7C6F995F898325BB9D5F8A044B4F579
:101DF000007F28BF4FF400742846FFF7C1F9204642
:101E000038BD0024F8E70000F0B587B00446FFF7BE
:101E1000AFF93D4B2046C4F8F035FFF7B1F93B4B25
:101E20002046029405933A4B039300230493FFF753
:101E30009FF9D4F83456032D03D92046FFF7A0F9B3
:101E400015E004EB05166B1C06F2F456C4F83436A4
:101E50003046FEF796FA059B04EB0515C5F80036EB
:101E6000002BEAD05B6802A930469847E5E702A854
:101E7000FEF787FABC2008F0ABFD264B002100F1ED
:101E80004006054603600161304609F00FF805F190
:101E90005407384608F0A8FF1F4B4FF480721821F2
:101EA00028460093002309F097F81C4B02A9C4F8B8
:101EB000DC55284605931A4B02930023CDE90333E2
:101EC00009F096F810E0384608F0CEFF304609F0E9
:101ED00016F8281DFEF755FABC21284608F09EFD8D
:101EE00012F074FAF2E7F4E702A8FEF74AFA204685
:101EF000FEF7D8FD07B0F0BD02A8FEF742FAEFE703
:101F000002A8FEF73EFAEBE7611C0408E0C10708EF
:101F1000A50A040844DB0708ECC10708A8CA05089D
:101F2000691B0408A0F59860FFF76EBF90F8780071
:101F30007047000037B50F4C0F4D204608F0E4FE07
:101F40002A460E49204608F0EFFA42F21203012217
:101F50000B4CCDE9003200224FF4F85320461146D5
:101F6000FFF7D8FE2A460749204603B0BDE83040B7
:101F700008F0DABA4C290024000000242FAD040830
:101F800014230024911C040808B514F063FB2DE908
:101F9000F84306460D46071D00F10709002417F80F
:101FA000011B0A22284600F07BF880462E21284695
:101FB00000F02EF84F4540440444F0D10A22F17954
:101FC000284600F06DF82044BDE8F883024B034A30
:101FD0001A6000225A6070476029002418C307085D
:101FE00070B5044608460D4616F06AFB23680246A3
:101FF000294620465B68BDE87040184709B1FFF7E5
:10200000EFBF0846704703688A685B68096818472D
:1020100003681B68184700000149FFF7E1BF00BFD4
:1020200086E7070838B50546FFF7EDFF0446284662
:10203000FFF7F2FF204438BD38B50546FFF7DEFF55
:1020400004462846FFF7E8FF204438BD70B58AB043
:102050000D460023012A98BF0A220AA901F8043D6F
:10206000B5FBF2F402FB14562546F3B2092E94BFD9
:1020700030333733DBB201F8013D002CF0D1FFF7EC
:10208000BDFF0AB070BD10B42AB90368C9B25DF8CB
:10209000044B1B681847D2B25DF8044BFFF7D6BF5C
:1020A000FFF7F1BF10B50446006808B115F0E0FA7B
:1020B000204610BD10B50446006808B115F0D8FAE6
:1020C00000232360C4E9013310BD38B504460D4632
:1020D0000068013115F074FF10B1C4E9000501205A
:1020E00038BD036810B5044623B143688B4201D361
:1020F000012010BD2046FFF7E8FF0028F9D0A368B3
:10210000002BF5D122681370F2E770B50E46114628
:1021100004461546FFF7E5FF20B92046FFF7CAFF42
:10212000204670BD2A463146A560206815F0EAFDBC
:102130002268A3680021D154F2E738B50023044691
:102140000D468360C0E9003339B1084616F0B8FA8D
:10215000294602462046FFF7D8FF204638BD38B54D
:1021600005460C46084616F0ABFA214602462846BC
:10217000BDE83840FFF7C9BF1FB504460023084635
:1021800001A9A360C4E90033FEF72CFB204601A996
:10219000FFF7E5FF204604B010BD10B500238AB05C
:1021A0000446084601A9A360C4E90033FEF7F2FA29
:1021B000204601A9FFF7D3FF20460AB010BDF8B5AD
:1021C000054616460F4609B90020F8BD8AB1846855
:1021D00014442146FFF785FF0028F5D0AB6832464E
:1021E00028683946184415F08DFD2B680022AC6034
:1021F0001A550120E9E738B505460C46084616F0A1
:102200005FFA214602462846BDE83840FFF7D7BFAF
:1022100009B1FFF7F0BF0846704710B58A68044659
:102220000968FFF7CCFF10B92046FFF743FF2046AF
:1022300010BD10B5044621B92046FFF73BFF2046EC
:1022400010BDFFF7E5FF0028F6D0F8E710B500F065
:1022500055F80E4CFEF754FA002008F0B1F9036867
:1022600000219B6B9847FEF75BFFFEF750FF4FF492
:10227000E1310748FFF7C8FDFEF75AF9FEF738F9D4
:10228000002CFBD0AFF30080F8E700BF0000000097
:102290001423002470B505460024074EFEF7F2F91A
:1022A000E3B2984206D918461B010134F35EAB42F3
:1022B000F4D170BDFF20FCE70C00002410B50446EB
:1022C00004F0C8FA204610BD10B5044604F0C2FA66
:1022D000204610BD07B50749684604F0F8FA4FF4E8
:1022E0007A720023DDE9000113F05EF803B05DF8B7
:1022F00004FB00BF6829002408F008BE08B50448A4
:1023000004F0B2FA0348BDE8084004F0ADBA00BFDB
:10231000802900246829002438B50A4C0A4D20463B
:1023200004F012FB2046094C2A46094908F0FCF843
:10233000204604F014FB2A4620460649BDE83840F2
:1023400008F0F2B880290024000000246829002445
:10235000C9220408BD22040870B504460D4616467D
:1023600000211C2215F0CCFD20463246294606F0FD
:1023700032FB204670BD00002DE9F041204D0601E2
:1023800080460F46AB19DC68B4B9FEF77BF980458F
:102390004FF01C0034BF35F906804FF0FF3808F0CD
:1023A00017FB044600211C2215F0AAFD41462046D9
:1023B00006F00EFB3544EC60012F10D006D3022F3F
:1023C00012D0204603F01DFD022103E0204603F059
:1023D00018FD00212046BDE8F04103F01FBD204656
:1023E000BDE8F04103F000BD204603F00AFD0121E5
:1023F000F0E71C21204608F011FB11F0E7FF00BFB9
:102400000C00002430B589B004460D46FFF742FFAA
:10241000C0B2FF2804D02946FFF7AEFF09B030BD97
:10242000012D14D00AD3022D1CD00222214601A86E
:10243000FFF792FF01A806F059FAEFE700222146C4
:1024400001A8FFF789FF01A806F050FAE6E71C2271
:10245000002101A815F054FD0022214601A806F034
:10246000BCFADBE70122214601A8FFF775FF01A8AE
:1024700006F03CFAD2E700002DE9F3410746884612
:10248000FEF700F987422ED21D4D3E01AB19DC68E4
:10249000CCB9FEF7F7F887424FF01C0034BFAF5FAE
:1024A0004FF0FF3708F094FA04461C22002115F083
:1024B00027FDCDF80080002301223946204606F092
:1024C00093FA3544EC600F4B0F491A46D3F8940049
:1024D0008842FBD12368B8F1000F07D0A1680B60D8
:1024E0004FF44073536102B0BDE8F081E1681B0412
:1024F000F5E71C21204608F091FA11F067FF00BFB4
:102500000C000024006402580003008030B589B03C
:1025100005460C46FFF7BEFEC0B2FF2804D0214698
:10252000FFF7AAFF09B030BD1C22002101A815F059
:10253000E7FC294601A806F054FA094B09491A4656
:10254000D3F894008842FBD1019B2CB103990B6016
:102550004FF440735361E5E71B040499F7E700BFAC
:1025600000640258000300801EF0040F0CBFEFF35C
:102570000880EFF30980816911F8021C91BB01B555
:1025800090E80F10E047BDE800508CE80300244BB2
:1025900093E80600914208BF704741B91EF0100F42
:1025A00010D12049086820F0010008600AE02CE9F9
:1025B000F00F1EF0100F08BF2CED108AC1F838C0C4
:1025C00081F822E01A6092F82210906B61F0FF0E01
:1025D0001EF0100F08BFB0EC108AB0E8F00F80F3C7
:1025E00009887047104A13689942FAD801B552F821
:1025F00021C00FC8E047BDE80050CCF8000070478C
:1026000001B501F0C1FBBDE80140EFF3098CBEE765
:1026100001B501F081FBBDE80140EFF3098CB6E79D
:10262000400C002434EF00E0DCC30708014608B585
:1026300010B1132001F0EEFE002008BD08B5EFF345
:1026400005832BB9EFF3108313B9EFF3118333B183
:102650006FF0050000F005FA6FF0050008BDDFF827
:1026600008C000DFFAE700BF2D260408EFF310834F
:102670002BB9EFF31180003818BF012070470120FB
:10268000704710B520B10378F32B01D1002906DA89
:102690006FF0030102F024FA6FF0030010BD0C305C
:1026A00050E8003F23EA010240E8002404B1F7E7C4
:1026B0001846F3E738B50546A0B1846802686CB1E6
:1026C00014F0030302D1C1680F2926D800246FF04B
:1026D0000801002002F004FA204638BDC368002B30
:1026E000F4D11546104BD3F8900078B100F084FC7B
:1026F0000446A0B10123F322A37000236560227079
:102700000A4AC4E90233084B5A66E5E70122102160
:10271000D3F8800000F0FCFBEAE71546EBE76FF02A
:10272000040102F0DDF9D7E72C0C00240928040885
:1027300070B5054610B10378F32B07D028466FF02B
:10274000030102F0CDF96FF0030070BD836863B13F
:10275000284601F05FFC00226FF0020101F00AFD43
:10276000A8680028F4D101F0D9FCAB78002613F05A
:1027700001032E700FD0094B2946D3F8904024B1A5
:10278000204600F053FC3046DFE7D3F8800000F02D
:10279000F4FB2046D9E71846D7E700BF2C0C0024ED
:1027A000930710B502F0010422D400F10C0384B1A8
:1027B00053E8000F00EA01028A4203D0BFF32F8FD3
:1027C000002005E020EA010243E8002404B1EFE71D
:1027D00010BD53E8000F084203D1BFF32F8F002034
:1027E00005E020EA010243E8002404B1F1E7EFE745
:1027F000C06801EA00031CB18B4218BF0020E7E764
:10280000002B08BF0020E3E7F8B50546846804B94B
:10281000F8BD94F823202846616AA768FFF7C0FF37
:10282000064638B1204601F0FEFB00223146204624
:1028300001F0A0FC3C46EAE7F8B50D4617461E46F7
:10284000044620B10378F32B01D1002907DA204692
:102850006FF0030102F044F96FF00300F8BDFFF7D9
:102860009FFF0028FAD186B13146432001F0D2FD06
:1028700040B1074B20465E69314601F0B9FB7562F5
:1028800086F823706FF00100E8E76FF00200E5E7DB
:102890002C0C00242DE9F041064620B10378F32BDF
:1028A00001D1002909DA6FF003056FF0030130460A
:1028B00002F016F92846BDE8F08100F10C0353E858
:1028C000002F42EA010543E8005000B1F7E7B46881
:1028D0001CB9204601F022FCECE794F82320304696
:1028E000616AD4F80880FFF75BFF074678B194F877
:1028F00023309B0756BF656A054620EA050520463A
:1029000001F091FB00223946204601F033FC444699
:10291000DEE70000024608B5EFF3058333B100207F
:102920006FF0050102F0DCF8002008BDFFF79EFE05
:102930000028F4D11046DFF808C000DFF5E700BF3B
:10294000B526040838B502460D46EFF305834BB1B2
:1029500092B96FF003046FF00301104602F0C0F863
:10296000204638BDFFF782FE0028F1D11046DFF87F
:1029700030C000DF0446F3E71378F32BE9D1002DD4
:10298000E7DB02F10C0353E8001F41EA050443E8CA
:10299000004000B1F7E7104601F03EFAE0E700BF63
:1029A0009528040810B502460C46EFF305832BB1B9
:1029B00021461046BDE81040FFF763BEFFF756FE04
:1029C0000028F5D11046DFF808C000DF10BD00BFB9
:1029D00083260408F8B504460E4617461D46EFF355
:1029E000058343B18CB920466FF0030102F078F8FB
:1029F0006FF00300F8BDFFF739FE0028F2D1204642
:102A00002B46DFF828C000DFF4E72378F32BEAD168
:102A1000002DE8D1002EE6DB3A4631462046FFF78E
:102A2000BFFE002808BF6FF00200E3E73928040862
:102A3000024608B5EFF305833BB110466FF0050180
:102A400002F04EF86FF0050008BDFFF70FFE0028FA
:102A5000F3D11046DFF804C000DFF5E731270408A2
:102A600070477047EFF310832BB9EFF311800038F4
:102A700018BF01207047012070470000014BD86843
:102A8000704700BF2C0C002408B5094B1A7A022AA3
:102A900008D0032A0AD04FF0FF3002F015F84FF0AB
:102AA000FF3002E0032200201A7208BD0120FCE77B
:102AB0002C0C002470B5484C217A012900F08A8042
:102AC00031B14FF0FF3001F0FFFF4FF0FF3070BD2C
:102AD000424D9C2204F1080015F012FAEB68E36500
:102AE0002B8AD5E90B61A4F85430AB6830462364D7
:102AF00000F0F6F908B1C4F88060D5E90561304608
:102B000000F0EEF908B9D4F880606667D5E907618E
:102B1000304600F0E5F908B9D4F88060A667D5E939
:102B20000961304600F0DCF908B9D4F88060E66746
:102B30006E6B3EB131683046D6E9022300F03BFAB5
:102B4000C4F88460AE6B3EB131683046D6E90223EA
:102B500000F031FAC4F88860EE6B3EB1316830465F
:102B6000D6E9022300F027FAC4F88C602E6C3EB13F
:102B700031683046D6E9022300F01DFAC4F89060AF
:102B80006E6C3EB131683046D6E9022300F013FA8C
:102B9000C4F89460AE6C3EB131683046D6E9022389
:102BA00000F009FAC4F89860EE6C3EB13168304626
:102BB000D6E9022300F0FFF9C4F89C602D6D3DB109
:102BC00029682846D5E9022300F0F5F9C4F8A05099
:102BD0000123237200207AE72C0C002474C3070819
:102BE00070B5264D2B7A012B07D06FF006004FF001
:102BF000FF3401F069FF204670BD01F011FD10B9EE
:102C00004FF0FF30F3E71E4AFF231E4E82F82230BA
:102C100092F82230D26863F0FF031B49C2F302220C
:102C20007068DB4314BFB3FA83F32023C3F120039E
:102C3000934298BF531CFE2202FA03F3104ADBB200
:102C4000D37701F09DFF04460028D9D101F0F0FFB1
:102C5000286101F0D9FF0D4801F0DCF901F054FAC8
:102C6000336813F0010F4FF0020303D083F314888D
:102C70002B72C0E7032282F31488F9E72C0C00249E
:102C800000ED00E074C3070811260408480C002476
:102C900008B50A4B1A7A023A012A02D840B1012833
:102CA00009D04FF0FF3001F00FFF4FF0FF3001E08F
:102CB00002221A7208BD0322FBE700BF2C0C00247D
:102CC00010B5134C237A022B05D06FF0070001F0EA
:102CD000FBFE002010BD01F09FFF01236372BFF3D4
:102CE0004F8F0C4A5168C90003D54FF00061516005
:102CF000A372E36A4BB1D869636C1BB11B6998423C
:102D000028BF184604232372E4E74FF0FF30F3E7AF
:102D10002C0C002400ED00E0F8B5214C0546237A88
:102D2000042B3BD1E3680344E360E36A53B10646F6
:102D30000127DA69B24225D8DF61B61A01F096F9A7
:102D4000E36A13BB636C4BB101261869A8421FD814
:102D50001E612D1A236D9847636CE3B9022300208E
:102D6000237201F0DBF900236372BFF34F8FA27A65
:102D700022B1A3724FF080520A4B5A60BDE8F8406E
:102D800001F042BF921BDA61DCE7002ED1D1D9E716
:102D9000401B1861E2E7002DD7D1DFE7F8BD00BF87
:102DA0002C0C002400ED00E07047000008B5FFF790
:102DB000FBFFEFF3058333B16FF0050001F084FEF4
:102DC0006FF0050008BDFFF74DFE0028F4D1DFF8D5
:102DD00008C000DFF6E700BFB52A040808B5EFF326
:102DE000058333B16FF0050001F06EFE6FF0050052
:102DF00008BDFFF737FE0028F4D1DFF808C000DF78
:102E0000F6E700BFE12B040808B5EFF3058333B103
:102E10006FF0050001F058FE6FF0050008BDFFF7E8
:102E200021FE0028F4D1DFF808C000DFF6E700BF7C
:102E3000892A0408024608B5EFF3058333B16FF021
:102E4000050001F041FE6FF0050008BDFFF70AFE26
:102E50000028F4D11046DFF808C000DFF5E700BF16
:102E6000912C040808B5EFF305832BB16FF0050032
:102E700001F02AFE002008BDFFF7F4FD0028F5D17F
:102E8000DFF804C000DFF6E7C12C0408024608B5ED
:102E9000EFF305832BB16FF00500BDE8084001F0AA
:102EA00013BEFFF7DFFD0028F5D11046DFF804C0A0
:102EB00000DF08BD192D040808B5EFF3058313B131
:102EC000054BD86808BDFFF7CDFD0028F8D1DFF825
:102ED0000CC000DFF6E700BF2C0C00247D2A04089C
:102EE00010B598B140EA010313F007030ED117297A
:102EF0000AD90160083910220C18426084600B5016
:102F000081684A60C3600123184610BD0023FBE7B7
:102F10000346F0B578B371B332F003002BD10F3113
:102F200003F1080621F00701344636686568301B56
:102F300025F00305401B814203D930680028F3D1F6
:102F4000F0BD5F680A431D680F445F602B4453F86F
:102F5000040C083B874288BF5F6063681BB904F1BB
:102F600008006260ECE723F00303E018E6504260DB
:102F700020600830E4E70020E2E710B580B1C1B17D
:102F8000A1F1080400F108030022A34209D1596805
:102F900021F003044168091B41603AB95A600120DD
:102FA00010BD19681A4621B10B46EEE71B68136085
:102FB000F5E70846F4E730B5C0B189B1C2B1CBB18D
:102FC00000240160C3604361C0E9014202FB01F4D7
:102FD0001D1905611846013904D1A21A9950012121
:102FE000084630BD851805602846F4E70146F7E736
:102FF0001146F5E71946F3E7034610B5A8B100F10D
:10300000140252E8000F10B9BFF32F8F04E00168DB
:1030100042E8001404B1F4E738B1043353E8002F58
:10302000511C43E8001404B1F8E710BD30B5F0B10D
:10303000C3688B421BD803698B4218D900F1140373
:103040001A680A60BFF35F8F53E8002F0C68944240
:10305000F6D143E8001505B1F2E7043050E8003F2F
:103060005A1E40E8002101B1F8E7002030BD6FF0A2
:103070000300FBE7EFF310832BB9EFF31180003867
:1030800018BF0120704701207047D1E9013223B1F8
:103090009A608A681AB153607047C262F9E70363A5
:1030A000704700002DE9F84F8846074600B131B956
:1030B0006FF003010020002401F028FD77E0CE1C12
:1030C000B0FA80F126F003060C3604D0B6FA86F387
:1030D0000B441F2BECDD06FB07FAF2B194683CB100
:1030E000A30702D1D368332B05D86FF00801E1E7BD
:1030F000D368002BF9D1D2F80090D2E904533DB146
:1031000015F0030B01D19A4554D96FF00901D1E7AD
:10311000002BFAD11CB19B460CE091461546274B7B
:10312000D3F8A000D8B1FFF767FF0446A0B14FF075
:10313000010B35BB214B00225146D86FFFF7E8FE4B
:103140000546C0B9BBF1000F06D01C4B2146D3F891
:10315000A00058B1FFF76AFF6FF00401AAE701224F
:103160003421D3F88000FFF7D3FEDEE7D3F88000E8
:10317000FFF703FFF0E74BF0020B5246002114F07B
:10318000BFFEFA233246394604F10C0023700023B7
:1031900084F802B0A360C4F80490C4E90983C4E9C8
:1031A0000B332B46FFF707FF044B054A1A672046EF
:1031B000BDE8F88F002CE4D1B1E700BF2C0C00244F
:1031C0005132040800F1280310B553E8002F12B95A
:1031D000BFF32F8F04E0511E43E8001404B1F4E75D
:1031E0000AB9002010BDC06A01220028F9D0811C54
:1031F000D1E84F3FC1E8442F04B1F9E7DBB2002B1F
:10320000F0D08068F1E7036B30B5E3B1CD780024EE
:10321000DA78AA420FD31A46C1E901248AB1916033
:10322000A4B16160283050E8003F5A1C40E80021FA
:1032300001B1F8E730BD5A681C46002AECD01346AD
:10324000E6E7C162ECE7C1E90133C1620163E9E786
:10325000F8B5877804468FB3C5680027014628462D
:10326000FFF713FF277005F10C042046FFF7DEFE81
:10327000AB68002B48D02046FFF7BEFE044600286E
:1032800042D0284600F0C6FE06463A46394600F0CF
:1032900071FF304600F01AFF6A6A0646816804F141
:1032A0000C0014F02FFDF923A7702370F368E3706E
:1032B00021462846BDE8F840FFF7A5BF8568AB6802
:1032C000002BF5D05B78832BF2D1284600F0A2FECC
:1032D00006463A46394600F04DFF304600F0F6FE0D
:1032E00006466A6A04F10C01806814F00BFDF3686D
:1032F0000BB1E2781A700023214605F10C0023700F
:10330000BDE8F840FFF792BEF8BD00002DE9F0419E
:103310000C4617469846054618B10378FA2B00D19B
:1033200041B928466FF0030101F0F0FB6FF0030094
:10333000BDE8F0818368C3B15B78832B15D100F0C1
:1033400069FE06460122002100F014FF304600F01D
:10335000BDFE06466A6A2146806814F0D3FCF06818
:103360000028E5D007700020E2E705F10C00FFF728
:1033700043FE064670B121466A6A0C30002414F000
:10338000C1FCF923314628463370B470F770FFF75B
:103390003AFFE8E7B8F1000F10D04146932001F062
:1033A00039F840B1074B2846596900F021FEEFF388
:1033B0000983C3E902476FF00100B9E76FF002002B
:1033C000B6E700BF2C0C00242DE9F0410F4615464E
:1033D0009846044618B10378FA2B00D141B920462B
:1033E0006FF0030101F092FB6FF00300BDE8F08184
:1033F000FFF7E8FE064600283AD001462046FFF7D0
:1034000044FE626A06F10C01384614F07BFC0DB1F3
:10341000F3782B70002504F10C07314638463570DF
:10342000FFF704FEA3680BB90020DFE73846FFF77B
:10343000E3FD06460028F7D0204600F0EBFD0746E6
:103440002946012200F096FE384600F03FFE626AEF
:103450000746816806F10C0014F054FCF923B5709E
:10346000314633702046FB68F370FFF7CCFEDBE794
:10347000B8F1000F10D04146832000F0CBFF40B1DF
:10348000074B2046596900F0B3FDEFF30983C3E908
:1034900002756FF00100A9E76FF00200A6E700BF18
:1034A0002C0C002410B50446EFF3058333B1002043
:1034B0006FF0050101F02AFB002010BDFFF7DAFDD7
:1034C0000028F4D12046DFF808C000DFF5E700BF90
:1034D000A53004082DE9F04106460F4690461C46EB
:1034E000EFF305834BB196B930466FF0030101F05D
:1034F0000DFB6FF00300BDE8F081FFF7BBFD002876
:10350000F1D130462346DFF848C000DFF3E73378D7
:10351000FA2BE9D1002FE7D0002CE5D106F10C0001
:10352000FFF76AFD054680B1726A39460C3014F027
:10353000E9FBF9232846AC702B7085F80380C5E9B8
:10354000017600F069FC2046D5E76FF00200D2E773
:103550000D330408F8B504460F4616461D46EFF332
:10356000058343B18CB920466FF0030101F0CEFA18
:103570006FF00300F8BDFFF77DFD0028F2D1204673
:103580002B46DFF844C000DFF4E72378FA2BEAD1BA
:10359000002FE8D0002DE6D12046FFF713FE0546A8
:1035A00070B100F10C01626A384614F0ABFB0EB149
:1035B000EB7833702846EC6000F02EFC0020D9E751
:1035C0006FF00200D6E700BFC9330408EFF31083A1
:1035D0002BB9EFF31180003818BF0120704701208C
:1035E0007047000070B5A8B38468D0E900566CB18C
:1035F00014F0030302D1C2681B2A1AD800246FF00A
:103600000801002001F072FA204670BDC368002B4B
:10361000F4D1124BD3F8940030B901221C21D3F815
:103620008000FFF775FC01E0FFF7E6FC044660B19F
:103630000123F522A3700023E670227065602376D3
:10364000C4E90233C4E90433DEE76FF0040101F09A
:103650004DFAD9E705460646DBE700BF2C0C0024EF
:10366000284B70B55D6904460E4635B96FF0070109
:1036700001F03CFA4FF0FF3070BD10B10378F52B2C
:1036800007D020466FF0030101F030FA6FF003001D
:10369000F2E7037E53B9C0E90353EB6A436103B118
:1036A00018610123EC6200202376E5E7C278D10798
:1036B0000DD5C168A9420AD1FF2B06D16FF00F01C9
:1036C00001F014FA6FF00200D6E70133EBE7002EA9
:1036D000F8D093070AD5E06895F9203090F92020BA
:1036E0009A4203DA80F8203000F0A6FC31465320DD
:1036F00000F090FE18B12946204600F079FC6FF0EA
:103700000100B9E72C0C002438B52F4B04465A6948
:1037100032B96FF0070101F0E9F94FF0FF3038BD21
:1037200010B10378F52B07D020466FF0030101F0AC
:10373000DDF96FF00300F2E7037E33B96FF00E019D
:1037400001F0D4F96FF00200E9E7C168914202D0BC
:103750006FF00D01F4E7013BDBB2037633BB436945
:103760000BB101691961216911B34B61E3789B07C2
:1037700005D592F92110D36AE3B982F82010A36825
:103780008BB1204600F046FC00220546114600F0B1
:10379000F1FC0023E5602361EB6A636103B11C6106
:1037A0000123EC622376002000F0B8FC0020B6E78D
:1037B000D362DBE7986820B190F920008142B8BF5E
:1037C00001465B69D8E700BF2C0C002470B50446A5
:1037D00010B10378F52B07D020466FF0030101F0FC
:1037E00085F96FF0030070BD037ED3B16369C068D3
:1037F0000BB122691A6122691AB35361E3789B07FE
:103800000BD590F92130C26AEAB990F920209A428A
:1038100003D080F8203000F00FFCA068E0B900F081
:103820007DFCA078002610F001002670DBD0124B42
:103830002146D3F89450C5B12846FFF7F7FB304630
:10384000D1E7C362DAE7916821B191F920108B4288
:10385000B8BF0B465269D7E7204600F0DBFB0022D9
:103860006FF0020100F086FCD7E7D3F88000FFF785
:1038700084FB2846B7E700BF2C0C00242DE9F0415B
:103880000446002601270CB9BDE8F081E378D4F89E
:1038900014801B0712D5A36826767BB1204600F062
:1038A000B9FB00220546114600F064FCEB6AC4E94E
:1038B0000356636103B11C61EC6227764446E2E77C
:1038C00010B4C3789B071AD5C06890F92130C26A3A
:1038D00094688C4208BF8C6824B194F92040A342BC
:1038E000B8BF23465269002AF2D190F920209A42AB
:1038F00005D080F820305DF8044B00F09DBB5DF8EA
:10390000044B7047024608B5EFF3058333B100203E
:103910006FF0050101F0EAF8002008BDFFF756FE40
:103920000028F4D11046DFF808C000DFF5E700BF3B
:10393000E5350408024608B5EFF305833BB11046B0
:103940006FF0050101F0D2F86FF0050008BDFFF738
:103950003DFE0028F3D11046DFF804C000DFF5E794
:1039600061360408024608B5EFF305833BB1104603
:103970006FF0050101F0BAF86FF0050008BDFFF720
:1039800025FE0028F3D11046DFF804C000DFF5E77C
:1039900009370408024608B5EFF305833BB110462A
:1039A0006FF0050101F0A2F86FF0050008BDFFF708
:1039B0000DFE0028F3D11046DFF804C000DFF5E764
:1039C000CD370408EFF310832BB9EFF311800038E3
:1039D00018BF01207047012070470C30D0E85F3FCE
:1039E00013B9BFF32F8F04E05A1EC0E8512F01B165
:1039F000F4E798B2003818BF0120704730B500F1E5
:103A00000C02C189D2E85F3F994202D8BFF32F8FE1
:103A100004E05C1CC2E8554F05B1F3E7C0899BB2D6
:103A2000984294BF0020012030BD0000F8B5154633
:103A30004FF6FE73421E06460F469A4201D8884250
:103A400007D26FF003010024002001F055F8204652
:103A5000F8BD7DB1AC682A6844B114F0030302D10B
:103A6000E9680F2922D86FF00801ECE7EB68002B1A
:103A7000F9D11546114BD3F8980080B1FFF7BCFA85
:103A80000446A8B10123F622A370002365602270CA
:103A9000A3600B4A094BA781E6819A66D7E701220A
:103AA0001021D3F88000FFF733FAE9E71546EAE77B
:103AB0006FF0040101F020F8C9E700BF2C0C0024CE
:103AC000353B040870B5054610B10378F62B07D0D6
:103AD00028466FF0030101F00FF86FF0030070BD8E
:103AE000836863B1284600F095FA00226FF0020166
:103AF00000F040FBA8680028F4D100F00FFBAB7881
:103B0000002613F001032E700FD0094B2946D3F87D
:103B1000984024B12046FFF789FA3046DFE7D3F812
:103B20008000FFF72AFA2046D9E71846D7E700BFFA
:103B30002C0C0024836810B504465BB1FFF74DFFE1
:103B400040B1204600F066FA0022BDE81040114660
:103B500000F010BB10BD38B5054610B10378F62B48
:103B600007D028466FF0030100F0C6FF6FF0030096
:103B700038BD84683CB100F04DFA0122002100F00C
:103B8000F9FA0020F4E7FFF739FF38B928466FF05B
:103B9000100100F0B1FF6FF00200E9E72046E7E70F
:103BA00038B50D46044610B10378F62B07D02046F1
:103BB0006FF0030100F0A0FF6FF0030038BDFFF7C6
:103BC0000CFF68B975B12946632000F023FC20B1D1
:103BD000064B2046596900F00BFA6FF00100EDE743
:103BE0000020EBE76FF00200E8E700BF2C0C002498
:103BF00010B50446EFF3058333B100206FF00501E3
:103C000000F07AFF002010BDFFF7DCFE0028F4D1A1
:103C10002046DFF808C000DFF5E700BF2D3A0408B2
:103C200010B502460C46EFF3058343B182B9104646
:103C30006FF0030100F060FF6FF0030010BDFFF7AD
:103C4000C1FE0028F2D11046DFF820C000DFF5E702
:103C50001378F62BEBD1002CE9D11046FFF7BDFE0F
:103C6000002814BF00206FF00200E7E7A13B040822
:103C700010B50446EFF3058343B184B920466FF0D5
:103C8000030100F039FF6FF0030010BDFFF79AFE4B
:103C90000028F2D12046DFF830C000DFF5E72378B6
:103CA000F62BEBD12046FFF7A9FE20B1204600F00D
:103CB000B3F80020E9E720466FF0100100F01CFF88
:103CC0006FF00200E1E700BF573B0408024608B569
:103CD000EFF305833BB110466FF0050100F00CFFD8
:103CE0006FF0050008BDFFF76DFE0028F3D1104608
:103CF000DFF804C000DFF5E7C53A040810B5D0E8E6
:103D00005F3F5A1C914200D80022C0E8542F04B1F2
:103D1000F5E798B210BD000038B51A4C00F082FFEC
:103D2000E3680133E360236D03B1984700F09EF927
:103D3000002000F0F3F9236C1BB3A26BA1698A4247
:103D400002D0A163E3631CE0E36BB3B9237A022BD7
:103D500017D1656AADB195F9201092F920309942DA
:103D60000FD1284600F05FF9A06B00F077F92846E4
:103D700000F0CAF9236CA563E4E7013BE363002B81
:103D8000E4D038BD2C0C002470B5224C04F156054B
:103D900004F15A06B4F85410D5E85F3F13B9BFF3E5
:103DA0002F8F04E05A1EC5E8502F00B1F4E79BB2F4
:103DB0005BB33046FFF7A2FFE36D53F8200020B35A
:103DC0000378F13B082BE5D801A252F823F000BF9D
:103DD000F53D0408953D0408FB3D0408953D0408A5
:103DE000953D0408FF3D0408033E0408953D040882
:103DF000073E0408236E9847CCE7636EFBE7A36E8B
:103E0000F9E7E36EF7E7236FF5E70020BDE87040C0
:103E100000F084B92C0C002470B5164C0546B4F89B
:103E2000541004F15602D2E85F3F994202D8BFF322
:103E30002F8F04E0581CC2E8560F06B1F3E79BB27F
:103E4000994205D829460220BDE8704000F0FEBD29
:103E500004F15800FFF752FFE36D43F82050637AF6
:103E600023B9054B4FF080525A6070BD0123A372F5
:103E7000FBE700BF2C0C002400ED00E0EFF3108303
:103E80002BB9EFF31180003818BF012070470120D3
:103E900070470378F12B00D07047C068F9E7000045
:103EA00001230A4A90F9201043701C32936810B520
:103EB0001BB193F920408C4205DCC0E902329060CE
:103EC00003B1D86010BD1A469B68F1E72C0C0024A2
:103ED000014B5869704700BF2C0C0024002310B51B
:103EE0000380044683789A0708D513F0100F016BFE
:103EF0000E4B0FD0D3F88400FFF798F8A378DB07B8
:103F000012D50A4B2146D3F8880038B1BDE81040DD
:103F1000FFF78CB8586FFFF730F8EFE7D3F8800061
:103F2000BDE81040FFF729B810BD00BF2C0C0024DD
:103F300008B500F0F1FDDFF810C000DF4FF0FF31F1
:103F4000002000F0C7FDFEE7F944040810B5C4697D
:103F5000621CD0E904310AD103B1596142691AB136
:103F600013610023436101E0064A136310BD1BB1D6
:103F7000DA6959612244DA614269002AF0D1014AC2
:103F8000D362F3E72C0C0024930710B502F0010470
:103F900022D400F1280384B153E8000F00EA0102A3
:103FA0008A4203D0BFF32F8F002005E020EA0102F0
:103FB00043E8002404B1EFE710BD53E8000F0842C6
:103FC00003D1BFF32F8F002005E020EA010243E870
:103FD000002404B1F1E7EFE7806A01EA00031CB1B5
:103FE0008B4218BF0020E7E7002B08BF0020E3E763
:103FF00091F92020836810B51BB193F920409442B9
:1040000005DAC1E90230816003B1D96010BD1846FC
:104010009B68F1E783689A68826002B1D0600022F1
:104020001846DA607047C2682AB18368936003B1AA
:10403000DA600023C360704710B5044664B123788A
:10404000F12B07D0FFF7EFFF01462046BDE81040F7
:10405000FFF7CEBFE468F1E710BD00000123014681
:1040600043700148FFF7C4BF480C002438B5164D13
:10407000EC6A44B3E369013BE36123BB6378732BD0
:1040800006D009D8532B0BD003F0DF03432B0DD1FF
:104090002046FFF7FEFE09E003F0EF03832BF6E76F
:1040A00020462146FFF7F5FEFFF70AFC2046FFF702
:1040B000BAFFFFF7D3FF246924B1E369002BDDD0F9
:1040C00000236361EC6238BD2C0C002490F8223090
:1040D000826B13F0100F0CBF60202020104470473B
:1040E000074B596951B10B6B8A6B934203D21A6823
:1040F000044B9A4202D0012000F0A8BC704700BFD8
:104100002C0C0024A52E5AE208B502234370024B62
:104110009861FFF7E5FF08BD2C0C0024144B10B587
:10412000596904461A7AA0B9022A1FD15C6AECB117
:1041300094F9202091F920309A4217DD2046FFF7AC
:1041400072FF0846FFF7ACFE2046BDE81040FFF7BF
:10415000DBBF022A05D190F9202091F920309A4244
:10416000EFDC2046BDE81040FFF778BF10BD00BF70
:104170002C0C002438B505461446FFF7A7FF016054
:104180002846FFF7E3FE1CB1BDE83840FFF7C6BF85
:10419000BDE83840FFF762BF10B543780446332BC3
:1041A0000CD1416A90F82320FFF7EEFE014628B1BA
:1041B00020460022BDE81040FFF7DCBF10BD70B5FF
:1041C000044620B10378F12B01D1002908DA6FF001
:1041D00003056FF003012046FEF742FC284670BD40
:1041E0004378042B06D16FF002016FF00205FEF751
:1041F00037FCF3E700F1280353E8002F42EA0105FA
:1042000043E8005606B1F7E74378332BE6D1416A1D
:1042100090F82320FFF7B8FE01460028DED094F87E
:10422000233001229B0756BF656A054620EA050533
:104230002046FFF79FFFD1E72DE9F04F85B00391AE
:10424000019028B96FF00301002400F043FCBEE0A8
:10425000002A4AD0966846B1B00702D1D368432BF2
:1042600006D86FF008010020EEE7D368002BF8D1E4
:104270009769D2E9044944B1610703D1B9F1000F4C
:1042800040F0B1806FF00A01EDE72FB1791E3729B8
:1042900003D96FF00B01E6E71827B9F1000F40F0E2
:1042A000A680D2E900B3029366BB554DD5F88800CD
:1042B00008B3FEF7A1FE064600283DD04FF00108E6
:1042C000DFF83CA1002C42D1B9F1000F1DD14D4BBC
:1042D000DAF88400D3F85490B8B1FEF78DFE0546A5
:1042E000E0B148F01008344623E0934614461827FE
:1042F00091460292D9E701224421D5F88000FEF7C9
:1043000007FED8E74FF00008DAE722464946DAF818
:104310007400FEF7FDFD05460028E4D1B8F1000F5A
:1043200013D0DAF8885031464DB128460025FEF703
:104330007DFE48F0020864B96FF0040193E7DAF8F3
:1043400080002C46FEF719FEF3E74546F1E72546C7
:10435000344640F2F112029B7FB2FD2122800022FE
:10436000E370019B84F80280E363C4F804B084F82E
:10437000207084F821706184C4F83490C4E902226A
:10438000C4E90422C4E90622C4E90922C4E90B25D0
:10439000A9F140022A44A2631B4A2A60194A126802
:1043A000530718D4A36B34220021184613F0A8FD3C
:1043B000164A174B4263019A82634FF08072C263C0
:1043C000039A02622046CAF86030FFF7A7FE204633
:1043D00005B0BDE8F08F29F00302CC21281D443A36
:1043E00013F08EFDDEE7002F7FF450AF182719F091
:1043F000070F7FF447AFB9F1470F3FF652AF41E7E0
:104400002C0C002474C30708A52E5AE2313F04087F
:104410009941040838B51E4C237A022B34D1636AC3
:10442000002B33D063694A1C587015D1226B0021D0
:104430006AB94FF0FF30C3E90421D86151B10B6173
:104440001448FFF7E7FDFFF75FFE012038BD114676
:104450001269EDE72363F3E7E26A002012B1D56940
:10446000A9420BD2D961C3E9042058B10361002AE3
:10447000E6D0D0695361411AD161E1E71046491B8A
:104480001269EBE7E362F2E70020DFE71846DDE7B9
:104490002C0C0024480C0024F8B5164B05460F469A
:1044A00016465C693CB920466FF00701FEF7D8FA62
:1044B0004FF0FF30F8BD002807DA20466FF0030107
:1044C000FEF7CEFA6FF00300F4E70A4601462046F5
:1044D000FFF75AFD0028EDD14EB131463320656219
:1044E00084F82370FFF796FF6FF00100E2E76FF0AA
:1044F0000200DFE72C0C002438B5154D2B7A022B77
:1045000025D16B6A1BB36C69E06AFFF7B7F9A06944
:1045100018B100221146FFF72DFEEFF309830D4875
:10452000A363FFF777FDFFF7EFFD00236B61E278F0
:10453000D20704D42046BDE83840FFF7CFBC0422A0
:10454000E36062706B6BA36003B1DC606C6338BDC9
:104550002C0C0024480C002438B5044610B1037814
:10456000F12B07D020466FF0030100F0B3FA6FF093
:10457000030038BD437803F00F03022B25D0032B33
:1045800032D0012B35D1FFF74EFDE06AFFF776F907
:10459000A06918B100221146FFF7ECFD6378022BE9
:1045A0002AD1EFF309831C48A363FFF733FDFFF71C
:1045B000ABFD1A4B00225A61E07810F001051FD1C3
:1045C0002046FFF78BFC0020D3E7144B1A7A022A0F
:1045D00002D15B6A002BD8D16FF00201204600F0B7
:1045E00079FA6FF00200C4E7FFF71DFDFFF7AEFC9C
:1045F000CBE76FF00201F2E70020FFF78FFDDBE76A
:104600000423064A63700023E360536BA36003B185
:10461000DC605463D7E700BF480C00242C0C002456
:1046200038B50B4C00210B48A26DFFF705FE0A4D73
:10463000636EA8624BB1E26D00210848FFF7FCFDF4
:10464000A864003818BF012038BD0120FCE700BF76
:1046500074C30708454A04082C0C00241D480408AC
:1046600010B50446EFF3058333B100206FF0050168
:1046700000F030FA002010BDFFF700FC0028F4D154
:104680002046DFF808C000DFF5E700BF3942040824
:1046900008B5EFF3058313B1054B586908BDFFF763
:1046A000EDFB0028F8D1DFF80CC000DFF6E700BF13
:1046B0002C0C0024D13E040810B5044600F038FA52
:1046C000EFF305833BB120466FF0050100F002FADD
:1046D0006FF0050010BDFFF7D1FB0028F3D1204695
:1046E000DFF804C000DFF5E75945040838B5024695
:1046F0000D46EFF305834BB192B96FF003046FF0F1
:1047000003011046FEF7ACF9204638BDFFF7B6FBB3
:104710000028F1D11046DFF844C000DF0446F3E77B
:104720001378F12BE9D1002DE7DB5378042B07D167
:104730006FF0020110466FF00204FEF791F9E3E713
:1047400002F1280353E8001F41EA050443E8004052
:1047500000B1F7E71046FFF75FFBD5E7BF4104085C
:1047600010B50446EFF305833BB100206FF005015F
:10477000FEF776F96FF0050010BDFFF77FFB00280C
:10478000F3D12046DFF804C000DFF5E799440408C0
:1047900030B50C4D00226B6C13B11C698C420AD9E8
:1047A0000161C0E902231BB11C699860611A19619B
:1047B0002AB1D06030BD1A46091BDB68ECE768649B
:1047C000F8E700BF2C0C002470B5134D6C6C04B3DB
:1047D00023690126013B23612369D3B9E3680BB147
:1047E000A2689A606B64002304F11801E86C1A4611
:1047F000FEF770FE18B12146032000F027F9E37898
:10480000012B07D161692046FFF7C2FF6C6C002CB9
:10481000E2D170BD6670F9E72C0C00240B4B0C4CF8
:1048200007B51A6E0821586EFEF73CFE094BE0648E
:1048300023654FF0FF3300226946E06CFEF78AFEE5
:104840000028F6D1DDE900309847F2E774C3070885
:104850002C0C0024C947040808B5094A094B1A6002
:10486000094B9B1A094A1360094A0A4B1A600A4B02
:104870009B1A0A4A136000F051F800F083F800BF59
:1048800000FC0724CC31002400000824C831002497
:1048900018F300241CDE002400FC072418DE00248A
:1048A00038B50E480B250E4B1C24456003600D4B9C
:1048B000C4608360FFF726F80B4B18600B480C4B65
:1048C000C460C0E900350B4B8360FFF71BF80A4B4F
:1048D0001860BDE8384012F011BE00BF98310024C6
:1048E00040C40708AC310024A831002468310024FA
:1048F0004DC407087C31002478310024FDF7A6BCA4
:10490000024B4FF0FF311868FFF714B8A8310024AC
:10491000014B1868FFF726B8A831002408B504F049
:1049200025FB0C4B0C4998684FF00053C21802F15C
:104930006042126843F8042B8B42F7D1054B4FF0CD
:1049400000529A600EF012FE0FF0CEFCBDE8084057
:1049500000F015B800ED00E09802002070477047A5
:1049600008B500F043F8FFF7F9FFFFF799FFFFF7ED
:10497000F6FF05F011FBBDE80840FFF7BFBFFEF7EB
:1049800015BA0000114C124B23614FF400436361D0
:104990004423E3600F4BA3601823A3610E4B07B5BC
:1049A000224600210D482360FFF75AFE034628B92E
:1049B00022460B4900900B4805F0FEFAFEF70EFA6E
:1049C000002309491A460093F5E700BFD0B100243F
:1049D000D0310024F4B1002467C4070861490408F9
:1049E0006CC407081D01018088C407081FB5064B69
:1049F0006C460FCB84E80F002046FEF783FF034B85
:104A0000186004B010BD00BFA0C4070838B200246D
:104A100073B506460C46154605F0C0FA58B906347B
:104A2000324628462ABF054B054953F82410002377
:104A3000009305F0C1FA02B070BD00BF64C607085C
:104A4000B8C5070808B500F0F7F80000002307B55F
:104A5000421E00930023042A19D8DFE802F003085D
:104A60000C10140001220C490C4805F0A5FA022292
:104A70000B490C48F9E703220B490C48F5E70422DF
:104A80000B490C48F1E705220B490C48EDE70246BB
:104A90000B490C48E9E700BFB0C4070825010280B4
:104AA000D1C4070826010280F6C407082701028046
:104AB0002BC507082801028066C507082A01028065
:104AC000A6C50708000102800146014AFFF7A0BF02
:104AD00031010180014AFFF79BBF00BF3201018015
:104AE000014AFFF795BF00BF37010180014AFFF778
:104AF0008FBF00BF3301018011F1110F02D0024AB4
:104B0000FFF786BF704700BF34010180014AFFF7FD
:104B10007FBF00BF3801018010B5FFF7B9FD034B1F
:104B20001B6813B1BDE81040184710BD58B20024EF
:104B3000024B1B6803B11847704700BF58B20024EE
:104B4000024B987A003818BF012070472C0C0024C3
:104B500008B5FEF787F90022064905F0AFFBC31C34
:104B600004D98B220449054804F08EFFBDE80840B3
:104B7000FEF78CB9414B04087CC60708B1C607088C
:104B8000B0F57A7F10B50C4604D0322219491A4884
:104B900004F07AFF04F038FC0028184A16DB00F114
:104BA0006043F02103F5614383F80013916800F13D
:104BB000100341F82340BFF34F8F926852F823301F
:104BC0009C420AD03F220B490D48E1E700F00F0359
:104BD000F021043B13441976E8E7002808DB0123A1
:104BE000420900F01F0003FA00F0064B43F82200D0
:104BF000002010BD7CC60708DEC6070800ED00E0F7
:104C0000EBC6070800E100E008B505F0DFFABDE8F3
:104C1000084004F01ABD0000014B186804F04ABDBA
:104C200048DD0024014B186804F006BD48DD00246F
:104C300008B504F0E9FB08BD024C08B523689847A5
:104C4000FCE700BFD00C002403680BB108461847EE
:104C50007047CB68C3600BB15B68184770470000B2
:104C6000044B0022C3E900229A601A61024ADA600A
:104C7000704700BF5CB20024494C040838B50D46AB
:104C800000210446102200F8011B13F039F92046D8
:104C9000658238BD42F60211024808B5FFF7EEFF03
:104CA00008BD00BF70B20024C36810B52BB94FF423
:104CB000FD720449044804F0E7FE1B68BDE810409B
:104CC000184700BF18C7070847C7070808B5FBF70C
:104CD00058FB08BDC36810B52BB94FF4FD720449E9
:104CE000044804F0D1FE1B68BDE81040184700BF1F
:104CF00018C7070847C7070810B40168D0E9013290
:104D0000541001EB6200D20748BF0A595DF8044B0A
:104D100048BFD35818470000C36810B52BB94FF4EB
:104D2000FD720449044804F0AFFE1B68BDE8104062
:104D3000184700BF18C7070847C7070810B504463B
:104D400006F092F8204610BD10B5084C204606F03B
:104D50004BF800232046064A84F824302363054993
:104D6000C4E90A33BDE8104005F0DEBB84B200247C
:104D7000000000243D4D040802686F4B9A42F0B5D4
:104D800093B040F0D6800CF057FB6C4A0023C2F879
:104D90008430BFF34F8F536923F480335361BFF3E3
:104DA0004F8FD2F8803043F6E074C3F3C900C3F3E9
:104DB0004E335B0103EA0406014646EA8175013978
:104DC000C2F87452F9D2203B13F1200FF2D1BFF395
:104DD0004F8FBFF36F8F5A4B012500244FF40046CD
:104DE000D3F8E0200DA95748802742F00102C3F80C
:104DF000E020D3F8E02002F001020192019AD3F8FA
:104E0000E02042F00402C3F8E020D3F8E02002F0F2
:104E100004020292029AD3F8E02042F04002C3F862
:104E2000E020D3F8E02002F040020392039AD3F886
:104E3000D82042F40042C3F8D820D3F8D82002F496
:104E400000420492049AD3F8D82042F48032C3F886
:104E5000D820D3F8D82002F480320592059AD3F8EE
:104E6000D82042F40032C3F8D820D3F8D82002F476
:104E700000320692069AD3F8E02042F40072C3F89A
:104E8000E020D3F8E03003F400730793079BCDE9EB
:104E90000D65CDE90F4407F07DFD30230DA92A48AB
:104EA0000D9307F077FD2A461021274807F05CFE96
:104EB0002A462021244807F057FE0DA923480D97C4
:104EC00007F068FD2A4639462048022707F04CFEC5
:104ED000192006F0BDF9314622461A4807F044FE73
:104EE000642006F0B5F92A463146164807F03CFE24
:104EF00003264FF460530B2508A915480A94CDE901
:104F00000837CDE90B6507F045FD322308A90E48A7
:104F10000C95CDE90837CDE90A4607F03BFD86231D
:104F200008A90A480C95CDE90837CDE90A4607F0EB
:104F300031FD13B0F0BD00BF0080024000ED00E085
:104F40000044025800240258000802580000025889
:104F50000018025830B570B1CC6864B18A6852B19B
:104F60000B6943B10D6849688560C1608361C0E920
:104F70000424002030BD4FF0FF30FBE773B5002361
:104F800046680446019366B1A36998470546A3693C
:104F90009847431BB3F5FA6FF9D9012300256360E5
:104FA00027E0836803B198472023002523606369C5
:104FB00001AA12213046984700281DDB019B03F00F
:104FC0001F03B3421AD10025266020681F2833D85A
:104FD0007DB923694FF400422946984700282EDB0B
:104FE000636901AA29462068984700280ADA6FF009
:104FF0000405284602B070BD6FF004050136202E6E
:10500000D5D1E2E7A36998470646019B1B0402D469
:10501000002DB9D0EDE7A3699847801BB0F5FA7F62
:1050200007D8636901AA0021206898470028ECDAB4
:10503000DDE76FF00105E8E76FF00205D9E76FF0F3
:105040000305D6E737B500254369044601AA0121C7
:10505000006801959847A84203DA6FF0040003B096
:1050600030BD636901AA0121206898470028F4DB5C
:10507000019B5B072CD5636901AA294620689847E4
:105080000028EADB019BDD040ED403F40452B2F5E0
:10509000045F01D10220E2E7980401D50320DEE796
:1050A000D90513D50420DAE7636901AA1F21206816
:1050B00098470028D1DB019BDA040BD503F01C03D1
:1050C000182BE7D0082BE9D0142BEBD00520C6E72E
:1050D0000120C4E70620C2E740F2DC507047002000
:1050E00070470620704770477047C0F83C11704702
:1050F000002070470DF0B2BCF0B500F1D4069FB0AF
:1051000004460D46304605F077FE782200216846B9
:1051100012F0F6FE00206B462A4601467AB10A29B3
:1051200024D057681F60578938445F6009B143F83D
:10513000043C126802B99A6001310C33EEE70C4965
:1051400032224860201DC1F808D006F0A3FDB0FA55
:1051500080F46409AB7B012B02D9284600F016FDD0
:10516000304605F067FE20461FB0F0BD0024F1E791
:10517000E0B20024032A0846024928BF032212F0A5
:10518000C1BD00BF98CC070805F0E0B84FF4FD7230
:105190000249034808B504F077FC00BF18C70708A8
:1051A00047C7070810B40168D0E90132541001EB79
:1051B0006200D20748BF0A595DF8044B48BFD35874
:1051C000184700000A4B10B50446036000F59670BE
:1051D000FBF7D7F804F58E70FBF7D3F804F1F8006D
:1051E00005F042FE04F1D40005F03EFE204610BD5D
:1051F000F0C7070813B500F58E700C46884206D03C
:105200000190FBF7BEF821460198FFF722FD02B09E
:1052100010BD13B500F596700C46884206D001907B
:10522000FBF7AFF821460198FFF713FD02B010BD60
:1052300010B5064C06492046FFF78CFE2046FFF7C6
:105240009DFEB0FA80F0400910BD00BFC0B200243E
:10525000D40C00240148FFF7F5BE00BFC0B2002403
:105260000238032815D8DFE800F0020A0C114FF4C9
:1052700000530B604FF480430120136070470023FC
:10528000F7E74FF400530B600023F5E700230B60B2
:10529000F2E700207047000038B500250A4B0446AD
:1052A000D43040F8D43C40F8485C05F09DFD04F152
:1052B000F80005F099FD2046C4F82851C4F838518B
:1052C000C4F8405138BD00BFF0C7070830B5051D10
:1052D00085B000230C46284601A9009306F0A7FDDF
:1052E00018B14FF0FF3005B030BD6946284606F0D2
:1052F000E5FD0028F5D1284606F0FCFD00990029BF
:1053000011DD019B03F01F020A44BFF34F8F0E48CB
:105310001A44C0F85C322033D11A0029F9DCBFF3FB
:105320004F8FBFF36F8F4FF4C172BDF80010002094
:1053300000F05EFC20600028D5D0BDF80020019967
:1053400000F0DCFC0020CEE700ED00E073B5044681
:10535000002600F1F8052846019605F04DFD01A94B
:105360002046FFF7B3FF002804DA284605F062FD67
:1053700002B070BD019941B1D4F828310BB9FFF7E3
:1053800005FF1B6804F58E709847284605F052FD0E
:10539000E1E7000038B50E4C05462378BFF35B8F7C
:1053A000DA0708D4204605F0CFF820B1094B204693
:1053B0001D6005F0EBF8074C4FF0FF320021012093
:1053C000FFF7CEF9C307F7D52068FFF7BFFFF3E774
:1053D000BCB200245CB400243D200022072108B5A3
:1053E00005F0E0FF3D20BDE8084006F00DB80020C4
:1053F000704700000022074BD3F80038027080226B
:1054000043714270E12282701A0CC2701A0A027152
:10541000704700BF00E0F11F10B50446FFF7E7FF3B
:1054200020B92046BDE81040FFF7E4BF10BD0000E2
:105430007FB5044606F00AF827490125274B684640
:10544000ADF800500434CDE901134FF0807303939D
:1054500006F01AF840F201132148ADF80030214B54
:10546000CDE901034FF480336846039306F00CF84E
:10547000042005F0F9FF1C4B68462360FFF7CCFFC2
:105480001A4B257223611A4BC4F804D0E36040F232
:10549000F4536361204606F087FF0546D0B9154EE8
:1054A00001463022301D12F02BFD212333604FF4D2
:1054B00040337361104E29460135324600232046A1
:1054C00006F5BF6606F05AFB042DF4D1FFF7B0FED7
:1054D00004B070BD0020FBE70000043009000003A9
:1054E000004004300D000003008002400000043042
:1054F00000010430E0B2002400040430F0B5054699
:105500008BB004F00DFF2846FFF792FF06460028F7
:105510004BD02022002102A812F0F2FC244B4FF4C1
:105520008060019312F09CF805F1900301AA2946CE
:10553000059003934FF480631E480693442304931D
:1055400028230793FFF78CF8C5F88C0003F0C6F901
:10555000194B102107460493184B01950293002321
:10556000039302F059FF0446A0B101A9FFF771FBB4
:105570002046C82103F0F1F82046C82103F0F0F8D6
:1055800020460F4903F0EFF822460E49384603F053
:1055900001F8044601A8C5F84441FAF7F2FE0A20D2
:1055A000FDF74CF82846FFF717FF30460BB0F0BD6B
:1055B00060C7070895530408DCC70708C5560408E8
:1055C000CD4C0408A94C0408084608B5FFF724FF91
:1055D000012008BD10B50B4C2378BFF35B8FDB07B0
:1055E0000ED4204604F0B0FF50B10748FFF754FE38
:1055F000064A0749044804F097FF204604F0C6FF16
:10560000014810BDB8B2002414B3002400000024E7
:10561000C551040837B50D4604460192FFF7DAFF7D
:10562000019B2A462146043006F050FD003818BF81
:105630000120404203B030BD37B50D46044601920B
:10564000FFF7C8FF019B2A462146043006F06CFD97
:10565000003818BF0120404203B030BD08B5FFF745
:10566000B9FF043006F064FE002008BD08B5FFF75E
:10567000B1FFD0F88C0020B10121BDE80840FFF750
:1056800035B808BD08B5FFF7A5FF0430BDE80840F0
:1056900006F072BC002307B51A460249024800937F
:1056A00004F08AFC72C7070805001180002307B5C3
:1056B0001A4602490248009304F07EFCA6C7070878
:1056C00005001180F0B59DB00446FFF7C3FD012829
:1056D0000546D4F840712EDD012F18DC01AA02A97D
:1056E000FFF7BEFD18B94FF40053CDE90130261D78
:1056F00003A9304606F04AFD019B03A930460993F1
:10570000029B089306F008FE304606F054FAD4F8DF
:10571000383143B1012D0ADD012F04DC012104F5EC
:105720009670FFF7F9FAC4F840511DB0F0BD012F93
:10573000F9DD0021F3E7012FE9DD084B4FF00052BE
:10574000C3F88420BFF34F8FBFF36F8F201D06F087
:1057500079FA2046FFF740FED9E700BF00E100E0FC
:10576000130911D051F804CB40F804CB51F804CB05
:1057700040F804CB51F804CB40F804CB51F804CBEB
:1057800040F804CB013BEDD112F00F0305D011F826
:1057900001CB00F801CB013BF9D170470222002375
:1057A00073B504460E4600681146FDF713F9021E54
:1057B00001DB930709D4002316491748009304F02E
:1057C000F3FB4FF0FF3002B070BDFDF71DFB94F806
:1057D00024300546012103F10A020133206803F059
:1057E000070344F8226084F82430FDF7ABF894F8FE
:1057F000243094F82520013303F00703934203D1AA
:1058000002212068FDF7CEF82846FDF713FB0020A3
:10581000D9E700BF2CC807080F01038013B5044661
:105820004FF0FF310068FEF785F830B100232246C3
:1058300003490448009304F0BFFB02B010BD00BF51
:1058400044C807081501038013B504460068FEF735
:1058500089F830B10023224603490448009304F03C
:10586000ABFB02B010BD00BF5AC807081701038088
:10587000094B07B54FF0FF311868FEF75BF830B100
:105880000023064906481A46009304F095FB0120C0
:1058900003B05DF804FB00BF60B4002472C80708C1
:1058A00015010380074B07B51868FEF75BF830B1A8
:1058B0000023054905481A46009304F07DFB03B018
:1058C0005DF804FB60B400248AC807081701038050
:1058D00070B5064608200D4600F00CF9044660B18C
:1058E000012301460370C0E901650548FFF756FF33
:1058F00028B12146082000F009F94FF0FF3070BDB3
:1059000064B400242DE9F041044600286FD08307D9
:1059100005D0FFF7ADFFBDE8F041FFF7C3BFDFF8EB
:10592000E080A0F10805D8F80030AB42F1D8314F43
:1059300000F10C033A689A42EBD32F48FFF76EFF51
:1059400014F8043C1BB92C48FFF77EFFE1E734F85C
:10595000086CB6F57A5FF6D834F8062CB2F57A5FA3
:10596000F1D8D8F80030E91A89B2914202D09A5A97
:105970008A42E8D19819D7F800C0604502D0428821
:105980008A42E0D1002204F8042C1C4A1768AF4276
:1059900088BF1560854210D0077977B960450CD073
:1059A0001768B842985B24F8080C985B08BF15602C
:1059B000B0F57A5F1CBFC018418034F8061C581837
:1059C00085420FD006796EB91668B54208BF1060DF
:1059D00034F8082C5A5234F8082CB2F57A5F1CBF00
:1059E0009B1859800448BDE8F041FFF72DBFBDE882
:1059F000F08100BFE4B40024B0B40024ACB40024AF
:105A0000E0B400242DE9F041002852D0C41C24F059
:105A10000304A4B20B2C04D9B4F57A5F02D9002098
:105A200047E00C24A042FAD827486FF00708FFF798
:105A3000F5FE264F264BC4F57A5E3A681968531A6C
:105A40009BB2734503D32048FFF7FEFEE7E7CD186E
:105A5000C85A95F804C0BCF1000F32D1A8EB030678
:105A60000644A6422DD304F1140E1FFA8EFE76458D
:105A700021D308341C44A6B211FA84F484F804C07B
:105A80008853638001232E802B718B5BB3F57A5F83
:105A900001D00B445E80AA4206D10E4B1B681079E0
:105AA00008B193420AD13A600748FFF7CDFE05F1ED
:105AB0000800BDE8F08101232B71ECE712880A444D
:105AC000EDE70346BDE700BFB0B40024ACB400244A
:105AD000E0B40024E4B4002410B50446FFF7C8FE87
