:020000040804EE
:10000000000008248D840908D9840908C933080828
:10001000CF330808D5330808DB3308080000000098
:10002000000000000000000000000000753C050812
:10003000D9840908000000000D3D05081D3D050894
:10004000D9840908D9840908D9840908D9840908F8
:10005000D9840908D9840908D9840908D9840908E8
:10006000D9840908D9840908D9840908D9840908D8
:10007000D9840908D9840908D9840908D9840908C8
:10008000D9840908D9840908D9840908A5930908DD
:10009000B5930908B1930908C1930908D9840908DF
:1000A000D9840908D9840908D9840908D984090898
:1000B000D9840908D9840908D9840908D984090888
:1000C000D9840908D9840908D9840908D984090878
:1000D000D9840908D9840908D9840908D984090868
:1000E000D9840908D984090800000000D9840908C6
:1000F000D9840908D9840908D9840908D984090848
:10010000D9840908D51B0908D9840908D9840908A4
:10011000D9840908D9840908D9840908D984090827
:10012000D9840908D9840908D9840908D984090817
:10013000D984090841800508D9840908D9840908A7
:10014000D9840908D98409080000000000000000D3
:10015000D9840908D9840908D9840908D9840908E7
:10016000D9840908D9840908D9840908D9840908D7
:10017000D9840908D9840908D98409080000000035
:10018000D9840908D9840908D9840908D9840908B7
:10019000D9840908D9840908D9840908D9840908A7
:1001A000D9840908D9840908D9840908D984090897
:1001B000D9840908D9840908D9840908D984090887
:1001C000D9840908D9840908D9840908D984090877
:1001D000D9840908D9840908D9840908D984090867
:1001E000D9840908D9840908D9840908D984090857
:1001F000D9840908D9840908D9840908D984090847
:10020000D9840908D9840908D9840908D984090836
:10021000D9840908D9840908D9840908D984090826
:10022000D9840908D9840908D9840908D984090816
:10023000151A050889840908D9840908D984090888
:10024000D9840908D9840908D9840908D9840908F6
:10025000D9840908D9840908D9840908D9840908E6
:10026000D9840908D9840908D9840908D9840908D6
:10027000D9840908D9840908D9840908D9840908C6
:10028000D9840908D9840908D98409080000000024
:10029000D9840908D984090810B5054C237833B9E5
:1002A000044B13B10448AFF300800123237010BD49
:1002B0008019002400000000B0210C0808B5034B91
:1002C0001BB103490348AFF3008008BD00000000E4
:1002D00084190024B0210C08154B002B08BF134BC8
:1002E0009D46A3F5803A00218B460F461348144AD9
:1002F000121A60F045FA0F4B002B00D098470E4BB6
:10030000002B00D098470020002104000D000D486C
:10031000002802D00C4844F029F85FF0F1FB2000DF
:10032000290015F011FF44F041FA00BF0000080059
:100330000000082400000000A560050880190024C2
:10034000A07A01246D4308080000000010B504469F
:1003500009490A4813F010F90A22E1B2074813F0DC
:1003600087F9074B1A68A24205D0012C1C6002BF16
:10037000044A0021118010BD94B10A08C4760024FB
:10038000581B00245C1B002438B513F025FB0C4DD2
:10039000044628460FF003FF0028FAD013F01CFB98
:1003A000001BB0F57A7FF4D30649074813F0E4F850
:1003B0000A220121044813F042F9012038BD00BF90
:1003C000BC5E002482B10A08C476002408B509483E
:1003D00010F06AF840B90849064810F0DCF828B176
:1003E000044810F01CF918B1032008BD0420FCE7F4
:1003F0000220FAE7BC5E00249DB50A081FB520481C
:1004000010F052F830B91F491F4813F0CDF8022000
:1004100004B010BD1D491C4813F0C6F8012200218C
:100420001B4810F09BFB28B91A49174813F0BCF879
:100430000620EDE7184B1648196810F083FC1449A4
:1004400001A810F09FFB01A9144813F008FA134CFF
:1004500001A813F04DF923680BB91149E5E70A2209
:10046000A168094813F00EF92146074813F092F8E5
:100470000720CDE701A813F03BF95BF00DFD00BFAD
:10048000BC5E0024A7B10A08C4760024BAB10A08E9
:10049000CC5E0024D5B10A08101B0024BC1A00242D
:1004A000F4B10A08F8B5394D394C3A4E28463A4F5E
:1004B0000AF0E0FC224639492846394D43F054FF02
:1004C0003146384613F05FF93846364F2246294602
:1004D00043F04AFF3146384613F055F93846324F5B
:1004E0002246294643F040FF3146384613F04BF987
:1004F00038462E4F2246294643F036FF31463846CD
:1005000013F041F938462A4F2246294643F02CFF82
:100510003146384613F037F93846264F22462946E9
:1005200043F022FF3146384613F02DF93846224F6A
:100530002246294643F018FF3146384613F023F986
:1005400038461E4F2246294643F00EFF31463846B4
:1005500013F019F938461A4F2246294643F004FF92
:100560003146384613F00FF93846164F22462946D1
:1005700043F0FAFE3146384613F005F92246294683
:100580003846BDE8F84043F0EFBE00BF9C19002498
:100590000000002445410B08101B0024DDAD0408B9
:1005A000F1360508BC1A00244C1B0024401B002413
:1005B000281B0024341B00241C1B0024E81B0024DF
:1005C000B01A0024F41B00241FB54FF4E1311D487C
:1005D00011F032FC4FF4E1311B4811F02DFCFFF714
:1005E000D3FEFFF7D1FE20B91849174812F0DCFFFF
:1005F000FEE71749144812F0D7FFFFF7E7FE03287C
:1006000004D01449104812F0CFFFFEE710490E48FD
:1006100012F0CAFF104901A80FF0DCFE01A90F4833
:1006200013F01DF901A813F063F80C49064812F005
:10063000B1FF05B05DF804FB01A813F059F85BF0B9
:100640002BFC00BF787A0024C47600241DB60A086B
:100650003DB60A0856B60A08BC5E0024E81B002412
:10066000F7B5334811F000FD09285FDD304C314DFE
:10067000204611F0F9FC002843D102222D4901A89F
:100680005FF04EFF002851D12B492C4E2C4812F020
:100690008BFF274811F04CFD3060254811F048FDD4
:1006A0000746234811F044FD0A22C4B22448F9B297
:1006B000244D12F0DBFF2449214812F05DFF0A228D
:1006C00021461F4844EA072412F0D2FF1F491C4864
:1006D0002C8012F051FF0A223168194812F0AFFF46
:1006E0001B49174812F048FF0A222988144812F0C3
:1006F000A6FF2B88C3B1012003B0BDE8F040FFF78F
:1007000025BE204611F014FD2B78C0B28342AFD134
:1007100020468DF8043011F00BFD6B78C0B2834297
:10072000A6D18DF80530A8E70420E5E703B0F0BDB9
:10073000787A0024060000243AB50A08601B0024D9
:10074000C47600245E1B002448B50A084CB50A088C
:1007500053B50A0873B504461E491F4812F024FF1A
:10076000FCB11E4B00241C4D18689A881C4E9B79C6
:100770000090ADF804208DF806301DF804100A2210
:100780002846013412F072FF3146284612F0F4FE7A
:10079000072CF2D122466946124811F0EFFB02B055
:1007A00070BD114B0C4D18689A880D4E9B790090C6
:1007B000ADF804208DF806301DF804100A222846F2
:1007C000013412F053FF3146284612F0D5FE072CB3
:1007D000F2D1DFE723B50A08C476002474B10A0811
:1007E000D6450B08787A00247BB10A082DE9F04140
:1007F0002B4D16460F4680462A49284612F0BCFE6D
:100800000A223146284612F018FF27492846274C6D
:1008100012F0B2FE10223146284612F00EFF244993
:10082000284612F0C1FE3946284612F0BDFE0222CB
:100830002049204611F0A2FB20465FFA88F106F11C
:10084000020811F059FB2046C8F3072111F054FBB0
:1008500020465FFA88F111F04FFB324639462046B8
:1008600011F08CFB3146384610F0E0FD0646124987
:10087000284612F081FE10223146284612F0DFFE93
:10088000C6F30721204611F037FB2046F1B211F0E4
:1008900033FB204602220949BDE8F04111F06EBB4E
:1008A000C476002479B50A0888B50A08787A002445
:1008B0002DC00B08060000248BB50A080400002494
:1008C0002DE9F04F89B0BF49BF48C04D00AF12F0CD
:1008D00053FEBF49BC4812F067FE2C78012C0DD1A5
:1008E000BC49B94812F060FE07F1200102232246FC
:1008F00001F80C3D0320FFF779FF54E0022C5BD197
:10090000B54CB649B04812F04FFE22880123B44ED0
:10091000023A934206DAF118E85C013301F8010C5F
:10092000DBB2F6E7AF490026AF48DFF8B48212F039
:100930009CFFDFF894A2DFF8F892AC49A24812F0CD
:100940001BFE2388F5B20136033B9D4212DA18F8EC
:1009500005101022504612F089FE494618F805206D
:1009600007F1140060F000FD07F114019E4812F039
:10097000B8FFE6E7944812F007FE9D49924812F04E
:10098000FBFD9949904812F005FEFFF737FD072857
:100990000DD1984B022019681A89FFF727FF964955
:1009A000894812F001FE2437BD46BDE8F08F934917
:1009B000854812F0F9FDFEE7062C1ED190498248C9
:1009C00012F0F2FD4823864A0C218E480FF0B7FD45
:1009D00048B98D497C4812F0E7FD04233B7501229C
:1009E00007F1140186E70B220A2188480AF0D4FA9D
:1009F000002840F0EC838649ECE7082C62D1854959
:100A00007148754C12F0D0FD764907F1080012F0DC
:100A1000BAFE22880123023A934208DA07F1200144
:100A2000E85C1944013301F81D0CDBB2F4E77A49A4
:100A3000654812F0A1FD0025DFF88C81DFF8F49104
:100A40002288EBB2033A93421FDA07F120024046B4
:100A50001344102213F81C6C314612F0EEFD494687
:100A60003246384660F080FC314607F1140012F03F
:100A7000A9FE07F1140107F1080012F021FF07F1A8
:100A80001400013512F034FEDAE74F4812F07CFD15
:100A900062494D4812F070FD07F108014A4812F012
:100AA00079FD07F1080012F056FF014657480AF099
:100AB00091FA0223012207F1140103203B75FFF78D
:100AC00095FECDE1092C62D155493F48424C12F0C8
:100AD0006BFD444907F1080012F055FE22880123FE
:100AE000023A934208DA07F12001E85C1944013325
:100AF00001F81D0CDBB2F4E74A49334812F03CFD23
:100B00000025DFF8C480DFF82C912288EBB2033A8D
:100B100093421FDA07F1200240461344102213F8D3
:100B20001C6C314612F089FD49463246384660F069
:100B30001BFC314607F1140012F044FE07F11401CA
:100B400007F1080012F0BCFE07F11400013512F0A5
:100B5000CFFDDAE71C4812F017FD33491A4812F0AE
:100B60000BFD07F10801184812F014FD07F1080009
:100B700012F0F1FE014625480AF037FA022301225D
:100B800007F1140103203B75FFF730FE68E10A2CE2
:100B900040F09D8025490C480F4C12F005FD11498D
:100BA00007F1080012F0EFFD22880123023A934278
:100BB00042DA07F12001E85C1944013301F81D0C09
:100BC000DBB2F4E70AB20A08C4760024641B0024EE
:100BD00011B20A0827B20A085E1B002437B20A08BD
:100BE000C81A002445410B08101B00243FB20A0814
:100BF00055B20A08BC1A002475B20A088CB20A0859
:100C0000A1B20A08BC5E0024AFB20A089C190024F5
:100C1000C8B20A08E7B20A08F0B20A0801B30A0823
:100C200013B30A081DB30A082FB30A0842B30A080F
:100C30009A7B0B0829850B08C449C54812F09CFC17
:100C40000025DFF80C83DFF840932288EBB2033AEB
:100C500093421FDA07F1200240461344102213F892
:100C60001C6C314612F0E9FC49463246384660F0C9
:100C70007BFB314607F1140012F0A4FD07F11401CB
:100C800007F1080012F01CFE07F11400013512F004
:100C90002FFDDAE7AE4812F077FCAE49AC4812F00F
:100CA0006BFC07F10801AA4812F074FC07F1080078
:100CB00012F051FE0146A8480AF0A8F902230122C9
:100CC00007F1140103203B75FFF790FDC8E00B2CE2
:100CD00062D1A2499E48A24C12F066FCA14907F1DC
:100CE000080012F050FD22880123023A934208DAEC
:100CF00007F12001E85C1944013301F81D0CDBB257
:100D0000F4E79949924812F037FC0025DFF8408259
:100D1000DFF874922288EBB2033A93421FDA07F1AC
:100D2000200240461344102213F81C6C314612F086
:100D300084FC49463246384660F016FB314607F1DE
:100D4000140012F03FFD07F1140107F1080012F042
:100D5000B7FD07F11400013512F0CAFCDAE77C4850
:100D600012F012FC81497A4812F006FC07F10801E2
:100D7000774812F00FFC07F1080012F0ECFD014675
:100D800075480AF04CF90223012207F114010320EF
:100D90003B75FFF72BFD63E00C2C66D174496C4862
:100DA0006F4C12F001FC6F4907F1080012F0EBFCE8
:100DB00022880123023A934208DA07F12001E85C15
:100DC0001944013301F81D0CDBB2F4E769496048AE
:100DD00012F0D2FB0025DFF87881DFF8AC91228891
:100DE000EBB2033A93421FDA07F120024046134464
:100DF000102213F81C6C314612F01FFC4946324693
:100E0000384660F0B1FA314607F1140012F0DAFC0E
:100E100007F1140107F1080012F052FD07F1140068
:100E2000013512F065FCDAE7494812F0ADFB524992
:100E3000474812F0A1FB07F10801454812F0AAFB50
:100E400007F1080012F087FD014643480AF0F8F860
:100E50000223012207F1140103203B75FFF7C6FCB2
:100E600007F1080012F044FC9DE50D2C53D13C4ED7
:100E7000E8464249364812F097FB3288531D023A41
:100E8000DB08A8EBC3039D4601236C46934206DAB8
:100E9000E118E85C013301F8010CDBB2F6E73149F7
:100EA00007F1140012F06FFC3549294812F064FB79
:100EB0000025DFF89CA0DFF8D4B033885FFA85F90D
:100EC000033B994514DA102214F80910504612F029
:100ED000CDFB594614F8092007F1080060F044FAE8
:100EE00007F1080107F1140012F0FBFC0135E4E7FB
:100EF00007F11401164812F04DFB214616480AF07E
:100F0000A7F807F1200102230122032001F81C3D6C
:100F1000FFF76CFCCDE00E2C76D1114EE846194956
:100F20000B4812F041FB3288531D023ADB08A8EB54
:100F3000C3039D4601236C46934229DAE118E85C1D
:100F4000013301F8010CDBB2F6E700BF4AB30A082F
:100F5000C47600245AB30A089C1900246BB30A080B
:100F60005E1B002445410B0874B30A0885B30A08C8
:100F700097B30A08A4B30A08B9B30A08CFB30A089A
:100F8000DFB30A08F9B30A0829850B08D8960B08BD
:100F90009E4907F1140012F0F6FB9D499D4812F09E
:100FA000EBFA0025DFF86CA2DFF8A4B233885FFA11
:100FB00085F9033B994514DA102214F809105046BC
:100FC00012F054FB594614F8092007F1080060F0AC
:100FD000CBF907F1080107F1140012F082FC01358A
:100FE000E4E707F114018B4812F0D4FA21468A484D
:100FF0000AF038F807F1200102230122032001F84A
:101000001C3DFFF7F3FB54E00F2C58D1834EE8460C
:101010008349804812F0C8FA3288531D023ADB082F
:10102000A8EBC3039D4601236C46934206DAE11800
:10103000E85C013301F8010CDBB2F6E7734907F114
:10104000140012F0A0FB7749724812F095FA0025BF
:10105000DFF8C0A1DFF8F8B133885FFA85F9033B08
:10106000994514DA102214F80910504612F0FEFACD
:10107000594614F8092007F1080060F075F907F1E6
:10108000080107F1140012F02CFC0135E4E707F128
:101090001401604812F07EFA21465F4809F090FF83
:1010A00007F1200102230122032001F81C3DFFF774
:1010B0009DFB07F1140012F01BFBC54673E4102CD6
:1010C0000AD15949534812F06FFA534809F0D4FF36
:1010D00000287CD155497DE4112C7FF464AC0B23AE
:1010E0000A2200214C4809F0DFFF08B9504971E499
:1010F000504907F1140012F046FB07F1140146486D
:1011000009F0EAFF07F1140012F0F2FA4A4907F178
:10111000140012F038FB07F114013F4809F0DFFF1B
:1011200007F1140012F0E4FA444907F1140012F038
:101130002AFB07F11401384809F0D4FF07F1140025
:1011400012F0D6FA3E4907F1140012F01CFB07F129
:101150001401314809F0C9FF07F1140012F0C8FA70
:10116000384907F1140012F00EFB07F114012A4868
:1011700009F0BEFF07F1140012F0BAFA26480AF08F
:1011800035FA08B9304925E43049224812F00CFA02
:10119000214809F09BFF80461F4809F09AFF44460A
:1011A00081461C4DA4EB080399450DDD14F8016B35
:1011B0000F2E03D83021284612F0E2F910223146D2
:1011C000284612F053FAEDE7124812F0DDF9022337
:1011D00004E407F1140012F08BFAFFE707F10800AE
:1011E00012F086FA5AF058FEF3E7F7E7F1E7F5E771
:1011F000EFE7F3E7EDE7F1E707F11400F0E7FBE7CE
:10120000FAE7F9E7F8E7F7E7F6E7F5E745410B080E
:1012100007B40A08C47600249C1900245E1B00242D
:1012200021B40A0830B40A0846B40A0852B40A08BD
:1012300078B40A08AFB40A08A3B40A08B2B40A081A
:10124000B5B40A08C81A0024BDB40A08EAB40A08EA
:10125000D8960B0838B51E4B1988002933D01D4885
:101260004318023913F8022C89B213F8014C44EAEE
:10127000022410F0DBF818490546184812F07CF9F2
:1012800010222146154812F0DAF91549134812F0D8
:1012900073F910222946114812F0D1F9AC4214D149
:1012A000012410490D4812F07FF90F4D2A68012AD8
:1012B00001D1FFF705FB2B68022B02D12046FFF777
:1012C00049FA002002E00C46EFE7052038BD00BFD8
:1012D0005E1B0024641B0024FDB40A08C4760024AD
:1012E00008B50A0817B50A08601B002407B513489B
:1012F00010F0BAFE01281ED9022201A90F4812F0EF
:10130000E2F902220E4901A85FF00AF998B90D49E5
:101310000D4812F049F9FFF79DFF052808D10B4948
:10132000094812F041F9032101220846FFF75EFA4D
:101330000020FFF70BF803B05DF804FB787A002477
:10134000040000245CB50A08C476002468B50A08C5
:1013500038B5154C23680BB9FFF782F92368012BC8
:101360001AD1124D124810F0E3FE2B88C1B2114A77
:101370001148D154102212F079F910490E4812F098
:10138000FBF82B880E4A013312889BB29A422B80BD
:1013900002D80420FEF7DAFF2368042B03D1BDE84E
:1013A0003840FFF7A3BF38BD581B00245C1B002446
:1013B000787A0024641B0024C4760024D6450B08E8
:1013C0005E1B00240C3150F8213003B118477047E0
:1013D00001480AF037BC00BF141C002437B50F4C7D
:1013E00005460F4A022120460DF0A8FE6B6A2046F2
:1013F0000C4A02210DF0A2FEAB6920460A4A0221E6
:101400000DF09CFEB5F85C30084A0221009320469E
:101410002B6D0DF093FE03B030BD00BFB05E002415
:1014200028B80A085BB80A0869B80A0876B80A0832
:1014300010B5044640680AF047FC022809D1636CE5
:101440004BB112F0C9FA236C984294BF00200120DE
:1014500010BD0020FCE70120FAE7000007B51430BA
:101460000AF0F0FB054B00900421054A05480DF0F9
:1014700065FE022003B05DF804FB00BF29BC0A082A
:1014800089B80A08B05E002437B543F65C75044697
:10149000074A0221435907480093074B0DF04EFEBF
:1014A00060590AF0B7FA43F64C73E05003B030BD10
:1014B00003B80A08B05E00241CBC0A0838B504460C
:1014C0000068844204D0056843F0D4F92846F8E760
:1014D00038BD0000084B10B5044640F8243B12F01C
:1014E00007F904F1180012F003F904F10800FFF7FE
:1014F000E5FF204610BD00BF7CB60A0810B50446C3
:10150000FFF7E8FF3C21204643F0C0F9204610BD1C
:101510005E4B2DE9F04F036000F1080500230446FF
:1015200085B043600361C0E9025514300AF064FBE2
:1015300004F118065649304612F025F9544904F1D1
:10154000240012F020F90023524A5149A363E364B6
:101550002260C4E90C33C4E90F33C4E9113304F148
:1015600050031846029312F00EF908E0304612F0CC
:10157000BFF82846FFF7A2FF5AF08EFCF9E74FF4B8
:101580008072002104F15E005FF0FAF80023C4F8D5
:10159000603184F8643104F5B4731846039309F09C
:1015A00069FC3D4B04F5207B3C4A002100935846E2
:1015B000022300F017FD04F5795500211035284667
:1015C0000DF032FE04F57C5631491836304612F0E3
:1015D000DAF804F57C572E492437384612F0D3F850
:1015E00004F57C582A4908F13008404612F0CBF83F
:1015F00004F57C59264909F13C09484612F0C3F824
:10160000002343F6487204F57D5A2549A35443F656
:101610004C720AF1100AA350504612F0B4F804F5C7
:101620007D501B491C3012F0AEF827E0504612F0F6
:101630005FF8484612F05CF8404612F059F8384618
:1016400012F056F8304612F053F828460DF0B6FD69
:10165000584600F07DFC039809F0C0FB029812F098
:1016600047F82046FFF736FF86E7E2E7E4E7E6E7DC
:10167000E8E7EAE7ECE7EEE7F0E7F2E743F668735E
:1016800000222046E25405B0BDE8F08F7CB60A087F
:1016900045410B0808BC0A08D1130408A8B60A087B
:1016A000FBBB0A0810B5054C2046FFF731FF20466A
:1016B000034A0449BDE8104042F056BE001C002415
:1016C00000000024C91604081B4B10B50446036033
:1016D00000F57D501C3012F00BF804F57D501030F1
:1016E00012F006F804F57C503C3012F001F804F5D5
:1016F0007C50303011F0FCFF04F57C50243011F0A8
:10170000F7FF04F57C50183011F0F2FF04F5795022
:1017100010300DF053FD04F5207000F019FC04F5B5
:10172000B47009F05BFB04F1500011F0E1FF2046BA
:10173000FFF7D0FE204610BD08BC0A0810B50446CD
:10174000FFF7C2FF43F67071204643F09FF8204632
:1017500010BD00F5795008B510300DF026FE08BD1B
:1017600073B5016D0446B0F85C2000F57950103077
:101770000EF08CFA054620B100230320636402B00A
:1017800070BD636C5E1C666412F026F94FF47A73C8
:101790000F4A2946B340B3F5FA4F94BFC01800F57D
:1017A000FA40B4F85C300193236D2064009309483B
:1017B000094B0DF0C3FC236C064829460193636C6A
:1017C000064A0093044B0DF0B9FC2846D7E700BF4A
:1017D000D0B80A08B05E00244ABC0A0802B90A0858
:1017E000F7B500F579560546103630460DF0DDFDAB
:1017F000044678B90146294B294A2A480DF09EFC37
:1018000030460EF061FA28460221FFF7DBFD204644
:1018100003B0F0BD43F63C7700223046E9190EF0E4
:101820003AF9044670B9EB5901461F4A00931D4826
:101830001A4B0DF083FC1D4A21461A480DF07EFC20
:101840000320E5E743F624771949EC19204612F006
:1018500064F8024680B9304621460EF01CF906466F
:1018600050B9EB590146104A00930E480B4B0DF04E
:1018700065FC0E4A3146E0E70E4A022109480DF0A8
:101880005DFC01212846FFF79DFD0949204612F025
:1018900044F800280CBF04200520B9E77CBC0A08E6
:1018A00071B90A08B05E0024A4B90A08D5B90A08BB
:1018B00045410B081FBA0A0873B500F579541D4657
:1018C0000023164610342A46CDE9003320460DF099
:1018D00055FE10B9002002B070BD2A4631462046A0
:1018E0000DF09CFD0028F5D020460EF0FFF90030E9
:1018F00018BF0120EFE730B50023C7B004464FF40E
:101900008072029306A90093083002AB00F025F91B
:10191000D0B9029A002A17DD04F15E05C4F86021EF
:1019200006A928465EF02EFE04F57C5103A830314E
:1019300011F08BFFD4F860312A4603A92046FFF747
:10194000BBFF03A811F0D4FE47B030BD03A811F0CF
:10195000CFFE5AF0A1FA00007FB500F57956044693
:10196000103630460DF021FD054690B90146254B55
:10197000254A26480DF0E2FB30460EF0A5F901237A
:101980002046022184F86431FFF71CFD284604B08C
:1019900070BD04F1080000F01DFA94F86431BBB189
:1019A000D4F86031002B13DD04F57C5101A83031EF
:1019B00011F04BFFD4F8603104F15E0201A920461A
:1019C000FFF77AFF01A811F093FE002384F8643139
:1019D00043F668752046FFF78EFF635D53B100261E
:1019E00043F64C732046E650FFF785FF66552046C8
:1019F000FFF74AFD0520CAE701A811F079FE5AF069
:101A00004BFA00BF39BC0A0871B90A08B05E00245D
:101A1000F0B58BB0144B064604AC03F11002274618
:101A20001868083353F8041C2546934203C52C4616
:101A3000F6D1186806F57C519B8828601831AB8078
:101A400001A811F002FF16233A4601A93046FFF71C
:101A500033FF01A811F04CFE0BB0F0BD01A811F04E
:101A600047FE5AF019FA00BF90B60A0873B500F5A0
:101A700079560546103630460DF097FC044670B98D
:101A80000146184B184A19480DF058FB30460EF025
:101A90001BF928460221FFF795FC20460BE011F0C8
:101AA0009BFFEB6C044643B1AB6C47F23052C31A58
:101AB000934202D8042002B070BD0A4B04210C4AA4
:101AC0000A4800940DF03AFB2846FFF7A1FFEB6CA3
:101AD000AC6401330A2B01D8EB64EBE70024C5E9C1
:101AE0001244D3E763BC0A0871B90A08B05E002447
:101AF0003FB90A0810B504460AF0DEF8E06B052885
:101B000007D8DFE800F00315191D21252046FFF74F
:101B10008FFCE06304F579540AF0CEF810342046C7
:101B20000DF043FCC0B12046BDE810400DF0CCBD27
:101B30002046FFF793FCECE72046FFF711FEE8E7AD
:101B40002046FFF74DFEE4E72046FFF78FFFE0E772
:101B50002046FFF701FFDCE710BD2DE9F04F89B00B
:101B600081469846002368468A469DF848B000F0B2
:101B7000B4F84FF0FF3204A9684600F0B5F8044607
:101B800030BBD9F800500646A94512D0AF68384698
:101B900000F0CFF858B1BB6933F0020307D15A46C1
:101BA00004A9384600F0F2F8044600B901362D6861
:101BB000EAE734F000430BD104A9684600F097F837
:101BC000044628B946B10099A1EB0A01C8F80010F3
:101BD000204609B0BDE8F08FC8F80000F8E70368B8
:101BE0000BB1013B03607047F8B504461546D0E9D8
:101BF0000006331A9F1A002F0BDA1EB1D51A0023E4
:101C0000C4E90033D4E900324FF000401D442560A0
:101C1000F8BD5EF0B7FC236800201D442560F7E79F
:101C2000DFB51F46164613BA9DF82040002F3ABA7A
:101C30000DF10F0108BF182ECDE9022309D204EBE4
:101C400013648DF80F4004AB5A1AFFF7CDFF04B0B0
:101C5000D0BD002F08BFB6F5807F2CBF0123002325
:101C6000002F08BFB6F5803F06D3012F08BF002E16
:101C70002ABF02330133DBB2012218349A402344D5
:101C8000891A0B70DFE71FB50C4619460368083048
:101C9000236050F8043C6360FFF7A1FF501C01F083
:101CA0002003B2F1FF3FA060E3600DD143F00403D5
:101CB00001222046E36001F11F0304A901F8013D60
:101CC000FFF792FF04B010BD0BB11044A06000916B
:101CD00000232046FFF7A4FFF4E70A4401604260B6
:101CE0000222C0E9022370478023FFF7CCBF0B68B4
:101CF00007B50360CA684B685207436009D502A95B
:101D0000FF23012201F8013DFFF76EFF03B05DF8EC
:101D100004FB8A68012A06D0002A40F2013008BF7D
:101D20004FF44070F2E7002B14BF00204FF000404A
:101D3000ECE738B590F82C3005462BB390F82D40E1
:101D400024B1002380F82D30204638BD836A73B952
:101D500003681B6898470028F6D011F03DFE2C6BF5
:101D6000041B6869844234BF00240124ECE7012B82
:101D700005D111F031FE2C6B041B686BF2E7022BCE
:101D8000E2D190F84D40DFE70124DDE738B50023CC
:101D900080F84C20044683640368DB689847054656
:101DA00058B9236820469B689847012384F84D5012
:101DB00084F82C3011F010FE2063284638BD83696A
:101DC00033F0020310B5044603D1C3690BB1984741
:101DD000A06310BD70B506460568AE4213D0AC686E
:101DE000236820465B69984758B1236820469B6961
:101DF000984730B1A36933F0020302D12046FFF7C0
:101E0000DEFF2D68E9E770BD0020704713B502AB17
:101E1000026803F8011D194654680122A04702B068
:101E200010BD07B5036801220DF107015B6A9847F1
:101E300001280CBF9DF807004FF0FF3003B05DF89C
:101E400004FB006903681B6B184700000C4B1B78F0
:101E500070B504460D46164613B14FF0FF3070BD05
:101E60000368DB6A98470028F7D023683246294682
:101E700020465B6A9847B0F1FF3F08BF0020EEE7BD
:101E8000705B00240A4B1B7870B504460D4616465D
:101E900053B90368DB6A984730B123683246294654
:101EA00020465B68984708B94FF0FF3070BD00BF0F
:101EB000705B00242DE9F04100F56E5607460D4693
:101EC000904600243C36444509D2424629463046D5
:101ED00008F033F800280BDB05440444F3E707D18E
:101EE00007F56E503C3008F04AF80028B8BF0024CF
:101EF0002046BDE8F08110B5044600F56E503C3038
:101F000008F03DF820690368BDE81040DB68184719
:101F100000F56E5008B53C3007F0BAFF20EAE070DB
:101F200008BD00F56E503C3007F08EBF07B500F5D8
:101F30006E5001220DF107013C3007F0CDFF012862
:101F40000CBF9DF807004FF0FF3003B05DF804FBB5
:101F5000064B10B50360044690F838301BB1006B97
:101F600008B15DF0C7FF204610BD00BF10BD0A08D4
:101F700010B50446FFF7ECFF43F6D031204642F09F
:101F800085FC204610BD10B5044600690368DB6A75
:101F9000984738B104F1400006F03EFD10F1FF30E3
:101FA00018BF012010BD000010B504460069036889
:101FB000DB6A984798B104F1400006F02DFDC30795
:101FC00007D404F56E50064B01223C301A7007F01E
:101FD000E2FF20690368BDE810409B6A184710BD06
:101FE000705B0024F8B500254FF47A77069E80F8E0
:101FF0002050C0E901570A4FC0E904120760C0E948
:1020000006362EB9074B3221074A08485CF028FCF7
:10201000C0E90955C0E90B55456380F83850F8BD53
:1020200010BD0A0897BC0A084CBD0A08B1BC0A08D2
:102030002DE9F041464B002200F140058CB00446EA
:102040001A70884600F5596104AFD0E90523284687
:1020500008F08CFE40F2552304F5CB5141F6EF72A7
:10206000009304F5655318312846273306F0ECFA3F
:1020700038480EF094F848B90026FF21002011F0EE
:102080000EFAB8550136202EF7D12BE031480EF06C
:102090000BFA0028F0D0202239462E480EF0CDFA57
:1020A0000028E9D02C4B41F66C11D4F8442DC4F82B
:1020B0004C3D635041F67013E250636B93B1E36A99
:1020C00083B102F04FF9254B02210122CDE9020331
:1020D00030232846CDE9003104F1240304F1300116
:1020E00006F00CF920223946284604F56E5606F013
:1020F0003CFB00224146284606F028F9E369984750
:1021000017493C36B0FBF1F303F52F2201FB130313
:102110003046294602F6A822C4F8C43E2369C4F812
:10212000C02E104A019300920F4A07F085FE3046F8
:1021300007F025FF284606F06FFC10F0080305D1D4
:10214000C207F7D518460CB0BDE8F0810120FAE7C8
:10215000705B0024BC5E002415B90408D9B80408DB
:1021600080510100851E04084D1E040837B5044641
:10217000006949680368064D01916946DB6900956D
:10218000984718B100212046FFF752FF03B030BD39
:1021900080010B0838B5044600690D4603681B6AC8
:1021A000984750B194F820302046002B0CBF2946A8
:1021B0000021BDE83840FFF73BBF38BD2DE9F04FA7
:1021C000016993B08568446981EA0503D0F800B0DD
:1021D000D0E9066706934368744087EA030987EAF3
:1021E00001038BEA0402079387EA0503019381EA5E
:1021F00002030993069B83EA0903089387EA020313
:102200000A93436853400B930B99019B4B40C16861
:102210000C93089B594085EA010386EA010C02935E
:102220008BEA03030D93029B63400393079B83EAAE
:102230000C0304938BEA03030E93DDE903314B4057
:102240004C400F9309EA0408089B6740069D0299D9
:102250000F9E0B40079905EA060A019D039E21EA9D
:102260000C018CEA030C05EA060E8AEA010A8EEAE2
:10227000010EDDE90C1501EA050609990BEA0105D5
:10228000019986EA0C064D40039986EA0A064D40FC
:102290000A995D40436822EA030385EA0E0583EA52
:1022A0000903634083EA080387EA08080E9F83EA6C
:1022B0000A03394088EA010888EA0E0186EA05081F
:1022C0001E4083EA010C81EA060E08EA0E076F4001
:1022D00075400CEA050581EA050C7540294083EA42
:1022E0000C038EEA01064B4087EA0C013E40059341
:1022F0008CEA030A86EA080683EA06080BEA0C035E
:1023000087EA060E109302EA060388EA0105059A99
:10231000119309EA0E090E9B04EA0E043B400E934A
:102320000F9B03EA050B0C9B13400C93069B2B4061
:102330000693079B03EA010E069B8EEA03030793AD
:102340000B9B1E400E9B5E40029B03EA0A05109BFE
:10235000119A83EA090E079B654053408EEA050EE9
:102360001A46049B1940039B4C4003EA0801089B52
:1023700084EA0B0481EA0B0103EA0A0A0C9B514030
:102380008AEA030A119B83EA040B0A9B8AEA020A7F
:10239000059A1F400D9B84EA0A041A4087EA0E073B
:1023A000C46182EA0A034F40C9435D408BEA0702D9
:1023B000EC43D24384EA0B0489EA060B846181EA88
:1023C0000B01019C416004EA0808069C88EA0408A5
:1023D0000E9C82EA0802C0E90452109A62405340FF
:1023E000C360099B03EA0C0C0C9B8CEA030C079B53
:1023F00083EA0E0E8CEA07076FEA0E0E87608EEAFC
:102400000606066013B0BDE8F08F2DE9F043D0E971
:10241000004304F0553264085D0003F0AA3304F071
:10242000553405F0AA351C431543D0E902134FEA91
:10243000430901F055324FEA510C03F0AA3309F079
:10244000AA390CF0553C49EA02094CEA030CD0E9E0
:1024500004324FEA420803F0553102F0AA3208F084
:10246000AA3848EA01085908D0E9063601F0553182
:102470004FEA530E770006F0AA360EF0553E114390
:1024800007F0AA3703F055324EEA060E4FEA8906E6
:10249000174305F03333AA0806F0CC364FEA8C0513
:1024A0000CF0CC3C1E4304F0333305F0CC3502F085
:1024B000333209F0CC391D43A30808F0333442EA23
:1024C000090203F0333343EA0C034FEA870C07F0A9
:1024D000CC370CF0CC3C4CEA040C4FEA980401F0E9
:1024E0003338890804F0333401F033313C434FEA88
:1024F0008E070EF0CC3E07F0CC3741EA0E014FEAD2
:102500000C1E47EA080706F00F3836090CF0F03CBD
:102510000EF0F03E06F00F364EEA080E46EA0C06C4
:1025200005F00F3C2D09C0F800E006613E0105F002
:102530000F3507F0F03706F0F0363D4346EA0C065B
:1025400045612501466002F00F36120904F0F034AF
:1025500005F0F03502F00F323543224303F00F341B
:102560001B09856082610A0103F00F3301F0F0312D
:1025700002F0F0320B432243C361C260BDE8F08336
:1025800000B589B0CDE90000CDE90200CDE9040035
:10259000CDE906006846FFF738FF6846FFF70EFEF4
:1025A0006846FFF732FF009809B05DF804FB0000B1
:1025B000182A2DE9F04F8046F9B006D0202A35D0F0
:1025C000102A65D14FF00A0B01E04FF00C0B0BF114
:1025D000010600209408B6000346A34229DB6FF0F1
:1025E00007076B464FF00009254607FB0437CA462C
:1025F000B54227DB00240DEBC4000434FFF705FFD0
:10260000A642F8DC00230DEBC3025DF833105268DC
:1026100001F0553102F0AA320A4348F82320013371
:102620009E42F0DC584679B0BDE8F08F4FF00E0BBB
:10263000CDE751F823000DEBC3024DF83300013311
:102640005060CAE7BAF1000F1AD14FEA3020FFF705
:1026500097FF114B13F80930584057F835300AF1FD
:10266000010A584054450DEBC5034DF8350008BF2D
:1026700009F10109586008BF4FF0000A0135B7E7BA
:10268000062CEADDBAF1040FE7D1FFF779FFE4E7A2
:102690004FF0000BC6E700BFB2BD0A08013130B5EC
:1026A000890000248C4200D130BD52F8243003F060
:1026B000553503F0AA3345EA450543EA530340F88C
:1026C000345000EBC40501346B60EBE70B0A01707A
:1026D00043700B0C090E8370C1707047006870471F
:1026E000044B10B5044640F8043BFFF761FFC4F803
:1026F000F40010BDBCBD0A082DE9F04FADF50B7D0F
:102700000D468046D0F8F41012AF1446021D1E4646
:102710003846FFF7C3FF2846FFF7E0FF8246281D33
:10272000FFF7DCFF834605F10800FFF7D7FF949D14
:10273000034672190092009A561B002D4DD022BA02
:1027400004F1010902A80193089299FA89F2CDE9EE
:1027500006330992CDE902AACDE904BBFFF755FE85
:1027600002AA3946D8F8F40000F098F802A8FFF75A
:102770004CFE0AAA02991046FFF7A8FF04990BA87D
:10278000FFF7A4FF06990CA8FFF7A0FF08990DA872
:10279000FFF79CFF03990EA8FFF798FF05990FA874
:1027A000FFF794FF079910A8FFF790FF099911A868
:1027B000FFF78CFF202D019B14D80023D15C01333F
:1027C00016F8010B9D4281EA000106F8011CF5D1C3
:1027D000102D01D904F102094C4620460DF50B7D60
:1027E000BDE8F08F0021505C013116F801CB2029A3
:1027F00080EA0C0006F8010CF5D1203D02349AE77E
:102800000A6803685340036043684A685340436062
:1028100083688A6853408360C368CA685340C36052
:1028200003690A695340036143694A69534043613C
:1028300083698A6953408361C369CA695340C3612C
:102840007047011F1C3010B551F8042F93088842BF
:102850004FEA821403F47C5304F4404443EA040333
:10286000D4B243EA04034FEA121404F4702443EA96
:1028700004034FEA021404F4700443EA04034FEA29
:1028800092144FEA820204F0407402F07C4243EA60
:10289000040343EA02030B60D6D110BD2DE9F74FC4
:1028A0004FF001080746104601911446FFF7A8FFB4
:1028B000B84520460DD3FFF781FC2046FFF7C1FF46
:1028C000019B204603EB471103B0BDE8F04FFFF733
:1028D00097BFFFF773FC2046FFF7B3FF636860699B
:1028E000D4F81CE04FEA33214FEA3026A368A069F0
:1028F000D4F800904FEA332C4FEA3025E3684FEAD2
:102900003E204FEA332223698EEA000A4FEA392B30
:102910004FEA332389EA0B098BEA0A0B00938BEA0F
:10292000394B6368C4F800B083EA010B4140A368E7
:1029300081EA0E0181EA090181EA3B41616083EA93
:102940000C018CEA0B0CE3688CEA314CC4F808C02B
:1029500083EA020C4240236982EA0E025140009A47
:102960005A40009B81EA3C414340E16083EA0E0308
:1029700083EA0C0C8CEA32432361636983EA060123
:10298000A36956406B404D4086EA3146584085EA7F
:102990003345019B80EA3A40666103EB4811A5612B
:1029A000E0612046FFF72CFF08F1010880E713449F
:1029B000404230B59A4200D130BD0D7812F8014B3B
:1029C0006C4004406C4001F8014BF3E711F1FF311A
:1029D00000D2704752F8043B1BBA40F8043BF5E7BD
:1029E00017B4079C172C03D01D2C09D0054C00E010
:1029F000054CA469A446019403B05DF8044B6047FC
:102A0000024CF6E710C60A08FCC30A082CBE0A08E6
:102A1000172882B003D01D2806D0044B00E0044BD9
:102A20005B68019302B01847024BF9E710C60A0829
:102A3000FCC30A082CBE0A08172882B003D01D2840
:102A400006D0044B00E0044B9B68019302B018478A
:102A5000024BF9E710C60A08FCC30A082CBE0A0894
:102A6000172882B003D01D2806D0044B00E0044B89
:102A7000DB68019302B01847024BF9E710C60A0859
:102A8000FCC30A082CBE0A0817B4049C172C03D0F8
:102A90001D2C09D0054C00E0054C2469A446019486
:102AA00003B05DF8044B6047024CF6E710C60A0815
:102AB000FCC30A082CBE0A08172B17B403D01D2B21
:102AC00009D0064C00E0064C6469A446019403B0AA
:102AD0005DF8044B6047034CF6E700BF10C60A08D8
:102AE000FCC30A082CBE0A0870B500252C4651F814
:102AF000243052F8246033442B44C3F30C0540F8CF
:102B0000245001345D0B142CF1D113221B0A5343C2
:102B100090F84C20C264021F4C3052F8041F0B4442
:102B20009042C3F30C014FEA53331160F5D170BDED
:102B300070B56FF02505002451F8243052F8246058
:102B40009B1B2B44C3F30C0540F8245001345D1348
:102B5000142CF1D103F5007313221B0A534390F890
:102B60004C20C264021F4C3052F8041F0B449042A8
:102B7000C3F30C014FEA53331160F5D170BD00006F
:102B8000202301480B607047ECBD0A082023014850
:102B90000B6070470CBE0A08202300200B607047B2
:102BA000031F524204394C3070B553F8046F51F88A
:102BB000044F834286EA040505EA020586EA050613
:102BC00084EA05041E600C60EFD170BD00207047E0
:102BD0002DE9F04FF1B0CDE91D02D1E90042D1E974
:102BE000026509928A690092CA6901920A6A029290
:102BF0004A6A03928A6A0492CA6A05920A6B06922A
:102C00004A6B07928A6BD1E904C7D1E90F9BD1E9DE
:102C100011A80892D1F84CE021A91F93002B00F0D5
:102C2000E68304FB04F306FB04F20B60099B634399
:102C30005B004B60099B5B4303EB42038B60099B8A
:102C4000734305FB04335B00CB60099B03FB05F278
:102C500006FB06F30CFB042203EB4203009A0B6114
:102C6000099B03FB0CF307FB043305FB06335B00F6
:102C70004B61099B7B4304FB023305FB05F20CFB14
:102C8000063302EB4303099A8B61009B5343019A7D
:102C900004FB023305FB0C3307FB06335B00CB61FF
:102CA0001346099A5343029A04FB0233009A05FB28
:102CB000073306FB02330CFB0CF202EB4303099AC9
:102CC0000B62029B5343039A04FB0233009A05FBF9
:102CD0000233019A06FB0233099A07FB0C335B00AF
:102CE0004B62039B5343049A04FB0233019A05FB96
:102CF0000233029A06FB0233009A0CFB023307FBF5
:102D000007F202EB4303099A8B62049B5343059A33
:102D100004FB0233029A05FB0233039A06FB0233DB
:102D2000009A07FB0233019A0CFB0233099A5B00FD
:102D3000CB62059B5343069A02FB0433039A05FBBF
:102D40000233049A06FB0233019A07FB0233029A0C
:102D50000CFB0233009A524302EB4303099A0B63C4
:102D6000069B5343079A02FB0433049A05FB023384
:102D7000059A06FB0233029A07FB0233039A0CFB07
:102D80000233009A1046019A02FB0033099A5B0055
:102D90004B63079B5343089A02FB0433059A05FBD8
:102DA0000233069A06FB0233039A07FB0233049AA6
:102DB0000CFB0233029A02FB0033019A524302EBEE
:102DC00043038B63DDE908325343069A09FB04335E
:102DD00005FB0233079A02FB0633049A07FB023312
:102DE000059A0CFB0233019A1046029A02FB00334B
:102DF000009A1046039A02FB0033079A5B00CB63EC
:102E0000099B03FB09F30BFB043305FB0233089A10
:102E100002FB0633059A07FB0233069A0CFB0233CA
:102E2000019A1046039A02FB0033009A1046049A56
:102E300002FB0033029A524302EB4303089A0B64ED
:102E4000099B03FB0BF30AFB043305FB0233069AD1
:102E500009FB063307FB0233079A0CFB0233019A86
:102E60001046049A02FB0033009A1046059A02FBB2
:102E70000033029A1046039A02FB0033079A5B0064
:102E80004B64099B03FB0AF308FB043305FB09337E
:102E90000BFB063307FB0233089A02FB0C33019A43
:102EA0001046059A02FB0033009A1046069A02FB70
:102EB0000033029A1046049A02FB0033039A5243ED
:102EC00002EB4303089A8B64099B03FB08F30EFB98
:102ED0000433069C05FB0B330AFB063307FB023366
:102EE000019A09FB0C3304FB0233009A079C04FB94
:102EF0000233DDE9032404FB0233059C099A04FB39
:102F000000335B00CB6408FB06F302FB0E33009A30
:102F100008980BFB0C3305FB0A3300FB0233029AC3
:102F2000069807FB093300FB0233019A079800FB60
:102F30000233039A089804FB0233049A524302EBCB
:102F40004303019A0B6505FB08F30EFB063307FBF1
:102F50000B330AFB0C3300FB0233009A069809FB83
:102F60000233039A00FB0233029A079800FB0233F4
:102F7000049A089804FB0233009A5B004B6508FB37
:102F80000CF305FB0E330BFB0233029A07FB0A33EB
:102F900000FB0233019A069809FB0233049A00FBF6
:102FA0000233039A079800FB0233224608986243D3
:102FB00002EB4303019A8B6507FB08F30EFB0C330E
:102FC0000BFB0233009A0AFB0233039A00FB023325
:102FD000029A069809FB0233049A00FB043307980F
:102FE00000FB0233029A08985B00CB65009B08FB4C
:102FF00003F307FB0E330BFB0233019A0AFB023388
:10300000049A00FB0233039A079809FB0233069ADD
:1030100000FB04330898524302EB4303009A0B660B
:10302000019B08FB03F30EFB0233039A0BFB0233F5
:10303000029A0AFB0233049A00FB043309FB0233B1
:10304000DDE9062000FB0233019A08985B004B661D
:10305000029B08FB03F30EFB0233049A0BFB0233C3
:10306000039A0AFB0233069A00FB0233079A09FB14
:103070000433524302EB4303029A8B66039B08FB23
:1030800003F30EFB0233049A0BFB04330AFB0233F7
:10309000079A00FB0233069A09FB0233039A5B008E
:1030A000CB66049B08FB03F30EFB0233069A0BFB73
:1030B0000233079A0AFB043309FB023302464243F8
:1030C00002EB4303049A0B6708FB04F30EFB023385
:1030D000079A0BFB0233069A0AFB0233079A09FB95
:1030E00000335B004B67069B08FB03F30EFB0433C6
:1030F0000BFB00330AFB023309FB09F202EB43032B
:10310000069A8B67079B08FB03F30EFB0233079AB3
:103110000BFB09330AFB00335B00CB6708FB00F3B2
:103120000EFB02330BFB0BF20AFB093302EB4303EA
:10313000C1F8803008FB09F30EFB003348A80BFBF5
:103140000A335B00C1F884300BFB08F30EFB093235
:103150000AFB0AF303EB4203C1F8883008FB0AF3C9
:103160000EFB0AFA0BFB0E335B00C1F88C3008FB38
:1031700008F303EB4A03C1F8903008FB0EF35B0041
:10318000C1F894300EFB0EF3C1F8983000231A46B4
:1031900051F822402344C3F30C045B1340F822404F
:1031A0000132272AF4D1DDF86CB11325489A6F93C8
:1031B0004FF418735C984FEA1B2949995FFA8BFB0F
:1031C00003FB00205D9A5E9F05FB090003FB0219CB
:1031D0004B99C0F30C0609EB50394A9803FB0700E2
:1031E000C9F30C0400EB5939C9F30C0200925F9A41
:1031F00003FB02104C9900EB5930C0F30C02019212
:10320000609A03FB02194D9909EB5030C0F30C0290
:103210000292619A03FB02194E9909EB5039C9F3E6
:103220000C020392629A03FB02124F9902EB593986
:10323000C9F30C020492639A03FB0212509902EB49
:103240005939C9F30C020592649A03FB0212519991
:1032500002EB5939C9F30C020692659A03FB02127C
:10326000529902EB5939C9F30C020792669A03FB93
:10327000021202EB5939C9F30C0208925399679A6A
:10328000579F03FB0212549902EB5939C9F30C0200
:103290000992689A03FB0212559902EB5939699A0F
:1032A00003FB0212C9F30C0E569902EB59396A9AC4
:1032B00003FB0212C9F30C0002EB59396B9A03FBB2
:1032C0000272C9F30C01589F02EB59396C9A03FB47
:1032D0000277C9F30C0C6D9A07EB5939599F03FB20
:1032E0000277C9F30C086E9A07EB59395A9F03FB12
:1032F00002776F9AC9F30C0A03FB02B307EB593745
:103300001D9AC7F30C0903EB57373B0A05FB03650E
:10331000C5F30C0304EB55351360C5F30C03536080
:10332000009B03EB5535C5F30C039360019B03EB46
:103330005535C5F30C03D360029B03EB5535C5F33C
:103340000C031361039B03EB5535C5F30C03536169
:10335000049B03EB5535C5F30C039361059B03EB0D
:103360005535C5F30C03D361069B03EB5535C5F307
:103370000C031362079B03EB5535C5F30C03536233
:10338000089B03EB5535C5F30C039362099B03EBD4
:103390005535C5F30C030EEB553ED36200EB5E30A2
:1033A000CEF30C0301EB50311363C0F30C030CEBB1
:1033B000513C5363C1F30C0308EB5C389363CCF3CB
:1033C0000C030AEB583AD363C8F30C0309EB5A39E0
:1033D0001364CAF30C035364C9F30C034FEA59395D
:1033E000936459FA87F7D76471B0BDE8F08F1E9BDC
:1033F0001B680A9363430B601E9B5B680B93DDE9BC
:10340000092353430B9A04FB02334B601E9B9B68BA
:103410000C931346099A53430C9A04FB02330A9AFD
:1034200006FB0233099A8B601E9BDB680D930C9B95
:1034300053430D9A04FB02330A9A05FB02330B9A9D
:1034400006FB0233099ACB601E9B1B690E930D9BF2
:1034500053430E9A04FB02330B9A05FB02330C9A7A
:1034600006FB02330A9A0CFB0233099A0B611E9B7E
:103470005B690F930E9B53430F9A04FB02330C9A24
:1034800005FB02330D9A06FB02330A9A07FB02334F
:103490000B9A0CFB0233099A4B611E9B9B6910939C
:1034A0000F9B5343109A04FB02330D9A05FB023322
:1034B0000E9A06FB02330B9A07FB02330C9A0CFBA5
:1034C00002330A9A1046009A02FB00338B611E9B5E
:1034D000DB691193109B099A5343119A04FB023341
:1034E0000E9A05FB02330F9A06FB02330C9A07FB78
:1034F00002330D9A0CFB0233019A02FB00330B9A44
:103500001046009A02FB0033099ACB611E9B1B6A8E
:103510001293119B5343129A04FB02330F9A05FB3B
:103520000233109A06FB02330D9A07FB02330E9A00
:103530000CFB0233019A02FB00330C9A1046009AEE
:1035400002FB00330A9A1046029A02FB0033099AE2
:103550000B621E9B5B6A1393129B5343139A04FBEB
:103560000233109A05FB0233119A06FB02330E9ABE
:1035700007FB02330F9A0CFB02330C9A1046019A98
:1035800002FB00330D9A1046009A02FB00330A9AA0
:103590001046039A02FB00330B9A1046029A02FB74
:1035A0000033099A4B621E9B9B6A1493139B5343EF
:1035B000149A04FB0233119A05FB0233129A06FB9C
:1035C00002330F9A07FB0233109A0CFB02330D9A59
:1035D0001046019A02FB00330E9A1046009A02FB35
:1035E00000330B9A1046039A02FB00330C9A1046E4
:1035F000029A02FB00330A9A1046049A02FB003337
:10360000099A8B621E9BDB6A1593149B5343159A90
:1036100004FB0233129A05FB0233139A06FB0233B2
:10362000109A07FB0233119A0CFB02330E9A1046D4
:10363000019A02FB00330F9A1046009A02FB0033F6
:103640000C9A1046039A02FB00330D9A1046029A18
:1036500002FB00330A9A1046059A02FB00330B9ACC
:103660001046049A02FB0033099ACB621E9B1B6B27
:103670001693159B5343169A04FB0233139A05FBCA
:103680000233149A06FB0233119A07FB0233129A93
:103690000CFB02330F9A1046019A02FB0033109A7A
:1036A0001046009A02FB00330D9A1046039A02FB63
:1036B00000330E9A1046029A02FB00330B9A104612
:1036C000059A02FB00330C9A1046049A02FB003361
:1036D0000A9A1046069A02FB0033099A0B631E9B56
:1036E0005B6B1793169B5343179A04FB0233149A90
:1036F00005FB0233159A06FB0233129A07FB0233CD
:10370000139A0CFB0233109A1046019A02FB003305
:10371000119A1046009A02FB00330E9A1046039A43
:1037200002FB00330F9A1046029A02FB00330C9AF8
:103730001046059A02FB00330D9A1046049A02FBCC
:1037400000330A9A1046079A02FB00330B9A104680
:10375000069A02FB0033099A4B631E9B9B6B1893DE
:10376000179B5343189A04FB0233159A05FB023347
:10377000169A06FB0233139A07FB0233149A0CFBCA
:103780000233119A1046019A02FB0033129A104636
:10379000009A02FB00330F9A1046039A02FB003393
:1037A000109A1046029A02FB00330D9A1046059AB1
:1037B00002FB00330E9A1046049A02FB00330B9A68
:1037C0001046079A02FB00330C9A1046069A02FB39
:1037D00000330A9A1046089A02FB0033099A8B6359
:1037E0001E9BDB6B1993189B5343199A04FB0233FE
:1037F000169A05FB0233179A06FB0233149A07FB4D
:103800000233159A0CFB0233129A1046019A02FBFE
:103810000033139A1046009A02FB0033109A1046A8
:10382000039A02FB0033119A1046029A02FB0033FE
:103830000E9A1046059A02FB00330F9A1046049A1E
:1038400002FB00330C9A1046079A02FB00330D9AD4
:103850001046069A02FB00330A9A09FB02330B9AC0
:103860001046089A02FB0033099ACB631E9B1B6C1F
:103870001A93199B53431A9A04FB0233179A05FBB8
:103880000233189A06FB0233159A07FB0233169A85
:103890000CFB0233139A1046019A02FB0033149A70
:1038A0001046009A02FB0033119A1046039A02FB5D
:1038B0000033129A1046029A02FB00330F9A104608
:1038C000059A02FB0033109A1046049A02FB00335B
:1038D0000D9A1046079A02FB00330E9A1046069A7C
:1038E00002FB00330B9A09FB02330C9A1046089A2C
:1038F00002FB00330A9A0BFB0233099A0B641E9BEE
:103900005B6C1B931A9B53431B9A04FB0233189A5C
:1039100005FB0233199A06FB0233169A07FB0233A2
:10392000179A0CFB0233149A1046019A02FB0033DB
:10393000159A1046009A02FB0033129A1046039A19
:1039400002FB0033139A1046029A02FB0033109ACE
:103950001046059A02FB0033119A1046049A02FBA6
:1039600000330E9A1046079A02FB00330F9A104656
:10397000069A02FB00330C9A09FB02330D9A10469B
:10398000089A02FB00330A9A0AFB02330B9A0BFBDC
:103990000233099A4B641E9B9B6C1C931B9B5343E5
:1039A0001C9A04FB0233199A05FB02331A9A06FB90
:1039B0000233179A07FB0233189A0CFB0233159A4D
:1039C0001046019A02FB0033169A1046009A02FB39
:1039D0000033139A1046039A02FB0033149A1046E0
:1039E000029A02FB0033119A1046059A02FB00333B
:1039F000129A1046049A02FB00330F9A1046079A57
:103A000002FB0033109A1046069A02FB00330D9A0F
:103A100009FB02330E9A1046089A02FB00330B9AF8
:103A200009980AFB02330C9A0BFB02330A9A08FB33
:103A300002331C9A8B641E9B4243DB6C04FB032203
:103A40001A9C05FB04221B9C06FB0422189C07FB06
:103A50000422199C0CFB0422169C2046019C04FBAA
:103A60000022179C2046009C04FB0022149C204648
:103A7000039C04FB0022159C2046029C04FB0022B0
:103A8000129C2046059C04FB0022139C2046049CAB
:103A900004FB0022109C2046079C04FB0022119C82
:103AA0002046069C04FB00220E9C09FB04220F9C6E
:103AB0002046089C04FB00220C9C09980AFB042267
:103AC0000D9C0BFB04220A9C0EFB04220B9C08FBA2
:103AD0000422009CCA641C9A724300FB03221A98B9
:103AE0000CFB00221B9805FB0022189804FB002207
:103AF0001998029C07FB0022169804FB00221798D5
:103B0000019C04FB00221498049C04FB00221598DD
:103B1000039C04FB00221298069C04FB00221398CD
:103B2000059C04FB00221098089C04FB0022079CC3
:103B3000119804FB00220E98019C0BFB00220F98A9
:103B400009FB00220C9808FB00220D980AFB0022BA
:103B50000B980EFB00221A980A651C9A6A4306FB12
:103B6000032207FB00221B980CFB0022189804FB81
:103B700000221998009C04FB00221698039C04FB69
:103B800000221798029C04FB00221498059C04FB59
:103B900000221598049C04FB00221298079C04FB49
:103BA00000221398069C04FB00221098089C09FB35
:103BB0000022119804FB00220E980AFB00220F98A5
:103BC0000BFB00220C980EFB00220D9808FB002234
:103BD0004A651C9A1A980CFB02F2009C05FB032212
:103BE00004FB00221B98029C07FB0022189804FB90
:103BF00000221998019C04FB00221698049C04FBE7
:103C000000221798039C04FB00221498069C04FBD6
:103C100000221598059C04FB00221298089C04FBC6
:103C200000221398079C04FB00221098019C0BFBB8
:103C30000022119809FB00220E9808FB00220F9821
:103C40000AFB00220D980EFB00221A988A651C9A26
:103C50007A430CFB032204FB00221B98009C04FB0C
:103C600000221898039C04FB00221998029C04FB74
:103C700000221698059C04FB00221798049C04FB64
:103C800000221498079C04FB00221598069C04FB54
:103C900000221298089C09FB0022139804FB0022C2
:103CA0001098029C0AFB002211980BFB00220E9830
:103CB0000EFB00220F9808FB00221C98CA65009A90
:103CC00042431A9807FB032204FB00221B98019C25
:103CD00004FB00221898049C04FB00221998039C02
:103CE00004FB00221698069C04FB00221798059CF2
:103CF00004FB00221498089C04FB00221598079CE2
:103D000004FB00221298039C0BFB0022139809FB72
:103D10000022109808FB002211980AFB00220F983D
:103D20000EFB00221C980A66019A4243009800FB91
:103D300003221A9804FB00221B98029C04FB002219
:103D40001898059C04FB00221998049C04FB00228F
:103D50001698079C04FB00221798069C04FB00227F
:103D60001498089C09FB0022159804FB0022129865
:103D70000AFB002213980BFB002210980EFB002276
:103D80001198049C08FB00221C984A66029A424340
:103D9000019800FB03221A9804FB00221B98039C45
:103DA00004FB00221898069C04FB00221998059C2D
:103DB00004FB00221698089C04FB00221798079C1D
:103DC00004FB00221498059C0BFB0022159809FBAC
:103DD0000022129808FB002213980AFB0022119877
:103DE0000EFB00221C988A66039A4243029800FB4D
:103DF00003221A9804FB00221B98049C04FB002257
:103E0000079C189804FB00221998069C04FB0022CA
:103E10001698089C09FB0022179804FB00221498AE
:103E2000069C0AFB002215980BFB002212980EFB41
:103E30000022139808FB00221C98CA66049A424389
:103E4000039800FB03221A9804FB00221B98059C90
:103E500004FB00221898089C04FB00221998079C78
:103E600004FB002216980BFB0022179809FB002286
:103E7000149808FB002215980AFB002213980EFBE9
:103E800000221C980A67059A4243049800FB03220B
:103E90001A9804FB00221B98069C04FB0022189829
:103EA000089C09FB0022199804FB002216980AFBC3
:103EB000002217980BFB002214980EFB0022159885
:103EC00008FB00221C984A67069A4243059800FBAB
:103ED00003221A9804FB0022079C1B9804FB002273
:103EE00018980BFB0022199809FB0022169808FB72
:103EF000002217980AFB002215980EFB00221C983E
:103F00008A672246089C4243069800FB03221A98BF
:103F100009FB00221B9804FB002218980AFB0022D0
:103F200019980BFB002216980EFB0022179808FB2D
:103F300000221C98CA6722464243079800FB0322CE
:103F40001A980BFB00221B9809FB0022189808FB0B
:103F5000002219980AFB002217980EFB00221A98DB
:103F6000C1F880201C9A09FB02F204FB03220AFB21
:103F700000221B980BFB002218980EFB00221998B8
:103F800008FB00221A98C1F884201C9A0BFB02F24D
:103F900009FB032208FB00221B980AFB0022199848
:103FA0000EFB00221A98C1F888201C9A0AFB02F224
:103FB0000BFB03220EFB00221B9808FB0022C1F81A
:103FC0008C201C9A08FB02F20AFB03220EFB002243
:103FD00048A8C1F890201C9A0EFB02F908FB039236
:103FE0000EFB03F3C1F89420C1F898301F9B1A46CA
:103FF00051F822402344C3F30C045B1340F82240E1
:104000000132272AF4D1FFF7CEB800002DE9F0479E
:10401000C37FADF59A6D0646144603F07F0300F1A9
:10402000200C07460022C37708A88846134601469D
:10403000BC4540F05281502230A8CB645CF0A2FA1B
:104040005022002144A801255CF09AFB4C2200215B
:104050001DA85CF095FB4C22002159A81C955CF032
:104060008FFB41462246684658955CF08BFAC4F1B6
:10407000200200210DEB04005CF082FB9DF8003073
:104080004FF0000A4FF0FE0823F007030DF56479A6
:104090008DF800309DF81F3003F07F0343F040039C
:1040A0008DF81F304FEAE80344AC30A91CA81DF876
:1040B000035008F007031D4105F0010585EA0A0ACF
:1040C0005246FEF76DFD524658A92046FEF768FDA0
:1040D00022461CA96CA8FEF707FD6CAA012380A844
:1040E0001146FEF775FD22461CA994A8FEF720FD97
:1040F00094AA0123A8A81146FEF76AFDA8AA80A9E0
:104100004846FEF715FD58AA30A9BCA8FEF7ECFCFE
:1041100058AA30A9D0A8FEF70BFD00236CAAD0A99D
:10412000F8A8FEF755FD002394AABCA90DF58660FA
:10413000FEF74EFD0DF58662F8A930A8FEF7D4FC17
:1041400030AA012311461046FEF742FD0DF58662A6
:10415000F8A958A8FEF7ECFC58AA0123114610460E
:10416000FEF736FD58A9002308AA0846FEF730FDE1
:10417000A8AA80A91CA80023FEF72AFD00216548F3
:104180000A4659F8223000FB0313C3F30C0144F82C
:1041900022100132590B142AF3D11A0A1323534364
:1041A00094F84C20E264002254F822100B44C3F32C
:1041B0000C015B0B44F822100132142AF4D180AABE
:1041C0002146204608F1FF38FEF78EFC00232246E8
:1041D00049462046AA46FEF7FBFCB8F1FF3F7FF4B4
:1041E00061AF2A4630A91CA8FEF7DAFC2A4658A976
:1041F00020460F25FEF7D4FC502221466CA85CF027
:10420000C1F96CAA012311461046FEF7E1FC6CA926
:10421000002322460846FEF7DBFC013DF1D14FF0BA
:104220000E0850226CA994A85CF0ACF9102594AA51
:10423000012311461046FEF7CBFC013DF7D194A9AE
:104240002B466CAA0846FEF7C3FCB8F10108EDD175
:104250000E254FF6EB7894AA012311461046FEF77F
:10426000B7FC48FA05F3DB0705D594AA00232146DD
:104270001046FEF7ADFC15F1FF35ECD21CA90DF58B
:104280009064002394AA0846FEF7A2FC50221CA9C1
:1042900020465CF077F91321002254F822300B44B9
:1042A000590BC3F30C0344F822300132142AF4D121
:1042B000DDF8CC0422461CA9C3B2000ACDF8CC34E8
:1042C0005023FEF774FB00221CAB1146B74215D1F8
:1042D00001200DF59A6DBDE8F08717F8015B954058
:1042E0002B4302F108050C2D06DDC3F30C05043049
:1042F0005B0B40F8045C551F2A4699E6072A04DC4C
:104300001868043390400D32014306F8011B083A47
:10431000090ADBE741DB0100202910B4144607D16C
:10432000202B05D821461A465DF8044BFFF76EBED8
:1043300000205DF8044B7047F7B5094C054604F1C1
:10434000200654F8047BB44245F8047BF9D100936D
:1043500013460A462021FFF7DFFF202003B0F0BDFF
:10436000ECBD0A0800487047D0BD0A08002330B5EC
:104370001C4651F824502B44C3F30C055B1340F842
:1043800024500134A242F4D1184630BDC26C01461B
:10439000530AC2F30802C264426C02EBC3024264D5
:1043A000826BA2EB83228263C269A2EB4312C261D9
:1043B0000268134414220360FFF7D8BF2DE9F04FC1
:1043C000EFB01768D2F804B0CDE91C20086807FBED
:1043D00000F31F934B6803FB07F400930BFB0044AF
:1043E000009B2094946803FB0BF5009B0194019EB5
:1043F0008C6806FB005504FB07552195D56802958E
:10440000CD6803953546029E5D43009B06FB005533
:10441000039E06FB075504FB0B5522951569049571
:104420000D69049E0595029D5D4306FB0055039EA4
:1044300006FB0B55019E009B04FB0655059E06FBE3
:1044400007552395556906954D69069E0795049D68
:104450005D43009B06FB0055019EB446039E06FB90
:104460000C55029E06FB0455079E06FB0755059E4C
:1044700006FB0B552495956908958D69089E09954D
:10448000069D5D4306FB0055029EB446039E06FB57
:104490000C55049E06FB0455079E06FB0B55019E1A
:1044A000B446059E06FB0C55099E06FB075525954F
:1044B000D5690A95CD69009B0B95089D0A9E5D43C1
:1044C000009B06FB0055039EB446049E06FB0C555C
:1044D000069E06FB0455019EB446079E06FB0C553E
:1044E000029EB446059E06FB0C550B9E06FB075527
:1044F000099E06FB0B552695156A0C950D6A0C9EB8
:104500000D950A9D5D4306FB0055039EB446069E2D
:1045100006FB0C55089E06FB0455029EB446079EFA
:1045200006FB0C55049EB446059E06FB0C550B9EDF
:1045300006FB0B55019EB446099E06FB0C550D9ECD
:10454000009B06FB07552795556A0E954D6A0E9EF2
:104550000F950C9D5D43009B06FB0055039EB446E2
:10456000089E06FB0C550A9E06FB0455049EB446A5
:10457000079E06FB0C55059EB446069E06FB0C5591
:10458000019EB4460B9E06FB0C55029EB446099E46
:1045900006FB0C550F9E06FB07550D9E06FB0B55A3
:1045A0002895956A10958D6A109E11950E9D5D4314
:1045B00006FB0055039EB4460A9E06FB0C550C9E56
:1045C000009B06FB0455069EB446079E06FB0C5551
:1045D000059EB446089E06FB0C55029EB4460B9EF3
:1045E00006FB0C55049EB446099E06FB0C550F9E17
:1045F00006FB0B55019EB4460D9E06FB0C55119E05
:1046000006FB07552995D56A1295CD6A129E13951A
:10461000109D5D4306FB0055039EB4460C9E06FBB1
:104620000C550E9E06FB0455079EB446089E06FBDD
:104630000C55059EB4460A9E06FB0C55049EB446D6
:104640000B9E06FB0C55069EB446099E06FB0C55B8
:10465000019E009BB4460F9E06FB0C55029EB4467D
:104660000D9E06FB0C55139E06FB0755119E06FB7F
:104670000B552A95156B14950D6B149E1595129D6F
:104680005D4306FB0055039EB4460E9E06FB0C558B
:10469000109E06FB0455079EB4460A9E06FB0C5569
:1046A000059EB4460C9E06FB0C55069EB4460B9E1A
:1046B00006FB0C55089EB446099E06FB0C55029E4F
:1046C000B4460F9E06FB0C55049EB4460D9E06FB99
:1046D0000C55139E06FB0B55019EB446119E06FB1E
:1046E0000C55159E009B06FB07552B95556B169593
:1046F0004D6B169E1795149D5D4306FB0055039E5A
:10470000B446109E06FB0C55129E06FB0455079EF0
:10471000B4460C9E06FB0C55059EB4460E9E06FB49
:104720000C55089EB4460B9E06FB0C55099EB446DC
:104730000A9E06FB0C55049EB4460F9E06FB0C55C4
:10474000069EB4460D9E06FB0C55019EB446139E74
:1047500006FB0C55029EB446119E06FB0C55179E97
:1047600006FB0755159E06FB0B552C95956B18956A
:104770008D6B009B1995169D189E5D4306FB005599
:10478000039EB446129E06FB0C55149E06FB045570
:10479000079EB4460E9E06FB0C55059EB446109E21
:1047A00006FB0C550A9EB4460B9E06FB0C55099E53
:1047B000B4460C9E06FB0C55069EB4460F9E06FBA7
:1047C0000C55089EB4460D9E06FB0C55029EB44641
:1047D000139E06FB0C55049EB446119E06FB0C5519
:1047E000179E06FB0B55019EB446159E06FB0C5505
:1047F000199E06FB07552D95D56B1A95CD6B1B950C
:10480000189D009B1A9E5D43D1F840A006FB005501
:10481000039EB446149E06FB0C55169E06FB0455DB
:10482000079EB446109E06FB0C55059EB446129E8C
:1048300006FB0C550B9EB4460C9E06FB0C55099EC0
:10484000B4460E9E06FB0C55089EB4460F9E06FB12
:104850000C550A9EB4460D9E06FB0C55049EB446AC
:10486000139E06FB0C55069EB446119E06FB0C5586
:10487000019EB446179E06FB0C55029EB446159E3B
:1048800006FB0C551B9E06FB0755199E06FB0B5598
:10489000166C2E951A9D009BD2F844805D43D1F88A
:1048A000449006FB0053039DAC46169D05FB0C335C
:1048B000189D05FB0433079DAC46129D05FB0C3388
:1048C000059DAC46149D05FB0C330B9DAC460E9D1F
:1048D00005FB0C33099DAC46109D05FB0C330A9D6E
:1048E000AC460F9D05FB0C330C9DAC460D9D05FBA6
:1048F0000C33069DAC46139D05FB0C33089DAC465E
:10490000119D05FB0C33029DAC46179D05FB0C3336
:10491000049DAC46159D05FB0C331B9D05FB0B331D
:10492000019DAC46199D05FB0C35009B0AFB075504
:104930002F9506FB03F508FB0053039DAC46189D1D
:10494000D2F848E005FB0C331A9D05FB0433079DA4
:10495000AC46149D05FB0C33059DAC46169D05FB2E
:104960000C330B9DAC46109D05FB0C33099DAC46EA
:10497000129D05FB0C330C9DAC460F9D05FB0C33C3
:104980000D9DAC460E9D05FB0C33089DAC46139D5A
:1049900005FB0C330A9DAC46119D05FB0C33049DB1
:1049A000AC46179D05FB0C33069DAC46159D05FBDB
:1049B0000C33019DAC461B9D05FB0C33029DAC46A0
:1049C000199D05FB0C35009BD1F848C009FB075524
:1049D0000AFB0B55309508FB03F50EFB0053039DB6
:1049E0001A462B461A9D05FB032506FB0453079D1B
:1049F0001A462B46169D05FB0323059D1A462B469A
:104A0000189D05FB03230B9D1A462B46129D05FBA3
:104A10000323099D1A462B46149D05FB03230E9D77
:104A20001A462B460F9D05FB03230D9D1A462B4668
:104A3000109D05FB03230A9D1A462B46139D05FB7B
:104A400003230C9D1A462B46119D05FB0323069D4F
:104A50001A462B46179D05FB0323089D1A462B4635
:104A6000159D05FB0323029D1A462B461B9D05FB46
:104A70000323049D1A462B46199D05FB0325CA6C8A
:104A800009FB0B53019D0AFB05351C9B0CFB0755CD
:104A90003195DD6C009B0EFB03F105FB00110398C3
:104AA00006FB0011079808FB04110346189800FB49
:104AB0000311059803461A9800FB03110B9803464F
:104AC000149800FB031109980346169800FB031184
:104AD0000F980346109800FB03110D980346129897
:104AE00000FB03110C980346139800FB03110E986A
:104AF0000346119800FB031108980346179800FB22
:104B000003110A980346159800FB03110498034605
:104B10001B9800FB031106980346199800FB03112C
:104B20000198009B09FB001102980AFB00111898DC
:104B300002FB07170EFB04F10CFB0B7705FB0313BD
:104B40000599329706FB0133039908FB0133099954
:104B500000FB013307991A9800FB01330D99149853
:104B600000FB01330B99169800FB0133DDE91010AF
:104B700000FB01330F99129800FB01330C99159833
:104B800000FB01330E99139800FB01330899199823
:104B900000FB01330A99179800FB013304991B9815
:104BA0000AFB0133069900FB0133019918980CFBAD
:104BB0000133029909FB0133079902FB0B3333934D
:104BC000039B0EFB03F305FB043346AC06FB0133EA
:104BD000059908FB01330B9900FB013309991A98D9
:104BE00000FB013314980F9900FB01330D991698BF
:104BF00000FB01331099139800FB0133DDE911101C
:104C000000FB01330C99179800FB01330E9915989E
:104C100000FB013308991B9800FB01330A9919988E
:104C200000FB01330499189809FB013306990AFB2C
:104C30000133019902FB013302990CFB0133039903
:104C40003493059B0EFB03F305FB0133099906FB27
:104C50000133079908FB01330D9900FB01330B99D0
:104C60001A9800FB01331199149800FB01330F9936
:104C7000169800FB01331099159800FB0133DDE90C
:104C8000121000FB01330C99199800FB01330E99A7
:104C9000179800FB013308991B980AFB01330A9906
:104CA00000FB0133049918980CFB0133069909FBAA
:104CB0000133029902FB013305993593079B0EFBE3
:104CC00003F305FB01330B9906FB0133099908FB3C
:104CD00001330F9900FB01330D991A9800FB013342
:104CE000DDE9131000FB01331199169800FB013325
:104CF0001099179800FB01331299159800FB0133A6
:104D00001B980C9900FB01330E99199800FB013395
:104D10000899189809FB01330A990AFB0133049991
:104D200002FB013306990CFB013307993693099B6B
:104D30000EFB03F305FB01330D9906FB01330B99C1
:104D400008FB0133119900FB01330F991A9800FBFE
:104D50000133DDE9141000FB01331399169800FBB1
:104D600001331099199800FB01331299179800FB31
:104D700001330C991B980AFB01330E9900FB013398
:104D800008990CFB01330A9909FB0133069902FBD0
:104D90000133099937930B9B0EFB03F305FB01339A
:104DA0000F99189806FB01330D9908FB01331399ED
:104DB00000FB013311991A9800FB013314991798DD
:104DC00000FB0133DDE9151000FB013310991B983E
:104DD00000FB01331299199800FB01330C991898C4
:104DE00009FB01330E990AFB0133089902FB0133D9
:104DF0000A990CFB01330B9938930D9B0EFB03F3BF
:104E000005FB0133119906FB01330F9908FB0133B0
:104E1000159900FB013313991A9800FB013314997B
:104E2000199800FB0133DDE9161000FB01331099DE
:104E30000AFB013312991B9800FB01330C990CFB00
:104E400001330E9909FB01330A9902FB01330D99D5
:104E500039930F9B0EFB03F305FB0133139906FBFC
:104E60000133119908FB0133DDE9171000FB013311
:104E700015991A9800FB013314991B9800FB013314
:104E80001998169900FB0133109909FB0133129907
:104E90000AFB01330C9902FB01330E990CFB013321
:104EA0000F993A93119B0EFB03F305FB0133159900
:104EB00006FB0133139908FB0133189900FB0133FA
:104EC00017991A9800FB013314990AFB01331699BC
:104ED0001B9800FB013310990CFB0133129909FB5D
:104EE00001330E9902FB013311993B93139B0EFB87
:104EF00003F305FB0133179906FB0133159908FBF2
:104F00000133189900FB0133DDE9191000FB01336F
:104F1000149909FB013316990AFB0133109902FB1E
:104F2000013312990CFB013313993C93159B0EFB33
:104F300003F305FB0133199906FB0133179908FBAD
:104F4000013318990AFB013301461B9800FB01331A
:104F500014990CFB0133169909FB0133129902FBDA
:104F6000013315993D93179B0EFB03F305FB0133AA
:104F7000199906FB003308FB0133189909FB01332B
:104F80001A990AFB0133149902FB013316990CFBA1
:104F9000013317993E93199B0EFB03F305FB013375
:104FA00018990AFB063308FB00330CFB01331A99EE
:104FB00009FB0133169902FB013319993F930EFB4C
:104FC00000F305FB0133189909FB063308FB0A338C
:104FD00002FB01331A990CFB01331A9940930EFB23
:104FE0000AF305FB003320460CFB063309FB0833AC
:104FF00002FB01331FA941930EFB09F305FB0A3A9B
:105000000CFB0EF302FB06A605FB093902FB0EFEA4
:1050100002FB08936A430CFB0866439305FB0CE311
:105020004592272244934296FFF7A0F95AAB6D9020
:10503000DA6C596C01EBA2115964D101C1F30C0077
:10504000196C01441964D96BA1EB2231D963510069
:10505000C1F30C00996B091A9963D969A1EB22116C
:10506000D9615102C1F30C009969091A9961196853
:1050700001EB622112011960C2F30C0253F8041D06
:105080000A449C421A60D3D1214614222046FFF7DD
:105090006DF9599A469D530A57994D9EC2F30802DD
:1050A00043EA0010C30F054401EBC001ED1A02EB07
:1050B0004322A1EBC3014695450180025791C5EB00
:1050C00043155992C0EB83201422354421464D9557
:1050D000549D284454901D98FFF748F96FB0BDE8DF
:1050E000F08F0B682DE9F04F03FB03F2DBB04C6847
:1050F0000B9204FB03F2009352008B6809900C9210
:10510000009A04FB04F0019303FB02F500EB450059
:10511000CD680D9003FB04F0019B05FB04F605FB35
:10512000020005FB05FC40000E90086900FB0267C9
:1051300003FB03F6019B06EB470600FB04F70F9603
:105140004E6906FB027705FB0377009B7F001097F3
:105150008F690297029A06FB04F702FB0377019B13
:10516000CA6900FB0377009B03920CEB4707029A86
:1051700000FB00FC119702FB04F7039A02FB037784
:10518000019B00FB057706FB03777F0012970A6AF5
:10519000009B0492039A02FB04F7049A02FB037734
:1051A000DDE9013206FB057702FB03774A6A009BC3
:1051B00005920CEB4707049A06FB06FC139702FBCB
:1051C00004F7059A02FB0377029A019B02FB05771D
:1051D000039A02FB03778A6A009B06FB007706921C
:1051E0007F00059A149702FB04F7069A02FB0377E7
:1051F000039A019B02FB0577049A02FB0377029A4C
:10520000009B02FB0077CA6A0CEB47070792069ADD
:10521000159702FB04F7079A02FB0377049A019B98
:1052200002FB0577059AD1F834B002FB0377029AA6
:10523000009B02FB0677039A02FB00770A6B7F0054
:105240000892079A169702FB04F7089A02FB037765
:10525000059A019B02FB0577069A02FB0377039AE6
:10526000009B02FB0677049A02FB0077029A02FB7E
:1052700002FC089A0CEB4707179702FB04F7069A03
:105280000BFB0377019B02FB0577079A02FB037771
:10529000049A009B02FB0677059A02FB0077029AAC
:1052A0009446039A02FB0C77079A0BFB04FC7F00E1
:1052B00018978F6B07FB03CC02FB05CC089A019B68
:1052C000D1F83C9002FB03CC059A009B02FB06CC74
:1052D000069A02FB00CC029A9646049A02FB0ECC78
:1052E000039A02FB02FE089A0EEB4C0CCDF864C048
:1052F00007FB04FC09FB03CC019B02FB05CC069ACF
:105300000BFB03CC009B02FB06CC079A02FB00CCF4
:10531000039A9646049A02FB0ECC029A9646059A88
:1053200002FB0ECCD1F840E0079A4FEA4C0CCDF8C6
:1053300068C009FB04FC0EFB03CC019B0BFB05CCF6
:1053400007FB03CC009B02FB06CC089A02FB00CCB7
:10535000039A9046059A02FB08CC029A9046069A58
:1053600002FB08CC049A02FB02F808EB4C0CD1F8C3
:105370004480CDF86CC00EFB04FC08FB03CC019B01
:10538000089A07FB05CC09FB03CC009B02FB06CC6B
:10539000039A0BFB00CC9246069A02FB0ACC029AB7
:1053A0009246079A02FB0ACC049A9246059A02FB9F
:1053B0000ACC039A08FB04FA4FEA4C0CCDF870C0F3
:1053C000D1F848C0C96C0CFB03AA019B09FB05AAD4
:1053D0000EFB03AA1346079A0BFB06AA07FB00AABB
:1053E00002FB03AA029A1346089A02FB03AA049A34
:1053F0001346069A02FB03AA059A009B524302EB4E
:105400004A0A019ACDF874A00CFB04FA01FB03A32D
:105410000EFB053308FB0233039A07FB0633924663
:10542000089A09FB003302FB0A33029A0BFB023392
:10543000059A9246069A02FB0A33049A9246079A04
:1054400002FB0A335B001E93019B029A0CFB03F3E1
:1054500001FB0433089C0EFB003308FB053307FBFC
:105460000233039A09FB063304FB0A33079C0BFB48
:105470000233059A04FB0233069A02FB02F4019AF6
:1054800004EB4303089C1F930CFB05F301FB023361
:10549000039A0EFB063308FB003307FB0233029A24
:1054A00009FB0233059A04FB0233DDE906240BFBFA
:1054B0000A3304FB0233029A089C5B0020930CFB26
:1054C00000F301FB05330EFB0233039A08FB06339E
:1054D00007FB0A3309FB0233069A04FB0233059AE1
:1054E0000BFB0233079A524302EB4303039A2193C7
:1054F0000CFB06F301FB00330EFB0233029A08FBA0
:105500000233059A07FB0233079A09FB0A3304FBAF
:105510000233069A0BFB0233039A5B002293029B31
:105520000CFB03F301FB06330EFB0A3308FB0233CB
:10553000069A07FB0233059A09FB0233079A0BFB15
:1055400002332246624302EB4303029A2393039BF6
:105550000CFB03F301FB0233059A0EFB0233079A9F
:1055600008FB0A3307FB0233069A09FB0233039A4E
:105570000BFB04335B0024930CFB0AF301FB0233A7
:10558000069A0EFB0233059A08FB0233079A07FBC3
:10559000043309FB02330BFB0BF202EB4303079AC4
:1055A0002593059B0CFB03F301FB0A330EFB02332F
:1055B000069A08FB0233059A07FB0B3309FB0433F9
:1055C0005B002693069B0CFB03F301FB0233079A57
:1055D0000EFB043308FB023307FB07F209FB0B3316
:1055E00002EB4303069A2793079B0CFB03F301FB93
:1055F0000233079A0EFB0B3308FB043309FB073316
:105600005B0028930CFB04F301FB023309FB09F256
:105610000EFB073308FB0B3302EB43030EFB0EF2CA
:1056200029930CFB0BF301FB043332AC0EFB093363
:10563000204608FB07335B002A930CFB07F301FBB2
:105640000B3308FB093302EB430327222B930CFB9C
:1056500009F301FB07370CFB0EF308FB0E7701FB88
:10566000093908FB08F37F0003EB49032C972D93BE
:105670000CFB08F301FB08F801FB0E3E4FEA4E035A
:105680002E930CFB0CF301FB0CFC03EB480349438A
:105690002F934FEA4C03309331910BA9FEF766FE2E
:1056A00046AB5990DA6C596C01EBA2115964D101E7
:1056B000C1F30C00196C01441964D96BA1EB2231C0
:1056C000D9635100C1F30C00996B091A9963D96928
:1056D000A1EB2211D9615102C1F30C009969091A99
:1056E0009961196801EB622112011960C2F30C0281
:1056F00053F8041D0A449C421A60D3D12146142257
:105700002046FEF733FE459A329D530A4399399E4F
:10571000C2F3080243EA0010C30F054401EBC001C5
:10572000ED1A02EB4322A1EBC30132954501800241
:105730004391C5EB43154592C0EB832014223544B9
:1057400021463995409D284440900998FEF70EFE69
:105750005BB0BDE8F08F00002DE9F047654FD0B099
:1057600000F1A00A002614ACB8460546514668462A
:10577000FFF7B7FC5DF8260055F8263057F82610DD
:105780001A1A034402EB41024DF8263044F8262051
:105790000136142EEED132466946684628AEFEF731
:1057A000E5FD21462046FEF7E1FD224669463046EA
:1057B000FEF704FE002256F8223003EB43034DF8B7
:1057C00022300132142AF6D105F1500769466846A5
:1057D000FEF7CCFD39463046FFF783FC002256F831
:1057E00022305B0046F822300132142AF7D13146CC
:1057F0003046FEF7BBFD324629462046FEF7DEFD69
:10580000002254F822305B0044F822300132142A7E
:10581000F7D121462046FEF7A9FD2046FEF7B6FD4A
:1058200028466946FFF75DFC281F002254F8223005
:1058300058F8221001325B00142AC3EB810350F8A0
:10584000041F0B440360F1D1294628460DF1F009ED
:10585000FEF78CFD2846FEF799FD5246394648462C
:10586000FEF7ACFD5146002259F8223001325B00B0
:10587000142A41F8043BF7D151465046FEF776FD15
:105880005046FEF783FD002254F8223055F82200DE
:1058900058F822101B1A03EB410344F8223001325E
:1058A000142AF1D121462046FEF760FD22466946C2
:1058B0003846FEF783FD314648464C35FFF711FC6C
:1058C000002259F8223058F8221001325B00142AC5
:1058D000C3EB810355F8041F0B442B60F1D139460B
:1058E0003846FEF743FD3846FEF750FD50B0BDE8A0
:1058F000F08700BF48BE0A08412301480B6070478B
:1059000098C30A08202301480B607047D9C30A08CE
:10591000202301200B60704730B595B0502201461E
:10592000054668460E4C5AF02DFE002210465DF8E2
:10593000223054F822105B1A1B1AD80FC3F30C0341
:105940004DF822300132142AF1D180F001045023A5
:105950006A4629462046FDF72AF8204615B030BD94
:1059600048BE0A082DE9F04FADF5117D01F1A00305
:1059700005460E460DF1B008194640AC009340466E
:1059800005F15009FFF7ADFB4246294604A8FEF792
:1059900015FD05F1A00A42460099204618AFFEF712
:1059A0000DFD224649464046FEF708FD5146204679
:1059B000FFF797FB314622463846FEF7FFFC2246AA
:1059C000514654A8FEF7FAFC06F15001204654AAAD
:1059D000FEF7F4FC56480026834604AB57F8262011
:1059E00050F8261053F826304900D21A54F82630C1
:1059F0000A4447F8262058F826209B1A194444F8F0
:105A000026100136142EE8D1324639463846FEF7C4
:105A1000ADFC21462046FEF7A9FC2046FEF7B6FC69
:105A20002046FFF779FF00231A4654F8231001336C
:105A3000142B42EA0102F8D1534239467CA854AEF5
:105A40001A43D30F0293FFF74CFB68AB7CAA04A95F
:105A500018460393FEF7B2FC3A467CA93046FEF79F
:105A6000ADFC214628462F1FFFF73BFB0022039B7E
:105A7000019601995BF8220051F8221053F8226038
:105A80000132C1EBC00157F8040F142AA0EB460005
:105A900001443960EDD129462846FEF767FC2846C7
:105AA000FEF774FC2248002268AF834657F8223084
:105AB00055F8226050F822109B1B03EB410147F878
:105AC00022100132142AF1D139463846FEF74EFC35
:105AD0003A4621464846FEF771FC4246019904A821
